{"contracts/Action.sol":{"Action":{"abi":[{"inputs":[{"internalType":"uint256","name":"_biddingTime","type":"uint256"}],"stateMutability":"nonpayable","type":"constructor"},{"anonymous":false,"inputs":[{"indexed":false,"internalType":"address","name":"winner","type":"address"},{"indexed":false,"internalType":"uint256","name":"amount","type":"uint256"}],"name":"ActionEnded","type":"event"},{"anonymous":false,"inputs":[{"indexed":false,"internalType":"address","name":"bidder","type":"address"},{"indexed":false,"internalType":"uint256","name":"amount","type":"uint256"}],"name":"HighestBidIncreased","type":"event"},{"inputs":[],"name":"actionEndTime","outputs":[{"internalType":"uint256","name":"","type":"uint256"}],"stateMutability":"view","type":"function"},{"inputs":[],"name":"bid","outputs":[],"stateMutability":"payable","type":"function"},{"inputs":[{"internalType":"uint256","name":"","type":"uint256"}],"name":"bidders","outputs":[{"internalType":"address","name":"","type":"address"}],"stateMutability":"view","type":"function"},{"inputs":[{"internalType":"address","name":"","type":"address"}],"name":"bids","outputs":[{"internalType":"uint256","name":"","type":"uint256"}],"stateMutability":"view","type":"function"},{"inputs":[],"name":"ended","outputs":[{"internalType":"bool","name":"","type":"bool"}],"stateMutability":"view","type":"function"},{"inputs":[],"name":"finalize","outputs":[],"stateMutability":"nonpayable","type":"function"},{"inputs":[],"name":"getAllBids","outputs":[{"internalType":"address[]","name":"","type":"address[]"},{"internalType":"uint256[]","name":"","type":"uint256[]"}],"stateMutability":"view","type":"function"},{"inputs":[],"name":"highestBid","outputs":[{"internalType":"uint256","name":"","type":"uint256"}],"stateMutability":"view","type":"function"},{"inputs":[],"name":"highestBidder","outputs":[{"internalType":"address","name":"","type":"address"}],"stateMutability":"view","type":"function"},{"inputs":[{"internalType":"address","name":"","type":"address"}],"name":"pendingReturns","outputs":[{"internalType":"uint256","name":"","type":"uint256"}],"stateMutability":"view","type":"function"},{"inputs":[],"name":"seller","outputs":[{"internalType":"address","name":"","type":"address"}],"stateMutability":"view","type":"function"},{"inputs":[],"name":"withdraw","outputs":[{"internalType":"bool","name":"","type":"bool"}],"stateMutability":"nonpayable","type":"function"}],"evm":{"bytecode":{"linkReferences":{},"object":"60806040523480156200001157600080fd5b50604051620011ef380380620011ef8339818101604052810190620000379190620000d2565b336000806101000a81548173ffffffffffffffffffffffffffffffffffffffff021916908373ffffffffffffffffffffffffffffffffffffffff160217905550804262000085919062000133565b600181905550506200016e565b600080fd5b6000819050919050565b620000ac8162000097565b8114620000b857600080fd5b50565b600081519050620000cc81620000a1565b92915050565b600060208284031215620000eb57620000ea62000092565b5b6000620000fb84828501620000bb565b91505092915050565b7f4e487b7100000000000000000000000000000000000000000000000000000000600052601160045260246000fd5b6000620001408262000097565b91506200014d8362000097565b925082820190508082111562000168576200016762000104565b5b92915050565b611071806200017e6000396000f3fe6080604052600436106100a75760003560e01c806362ea82db1161006457806362ea82db1461018b5780638d0f6da3146101c857806391f90157146101f4578063c764cd051461021f578063cff29dfd1461024a578063d57bde7914610287576100a7565b806308551a53146100ac57806312fa6feb146100d75780631998aeef1461010257806326b387bb1461010c5780633ccfd60b146101495780634bb278f314610174575b600080fd5b3480156100b857600080fd5b506100c16102b2565b6040516100ce9190610a59565b60405180910390f35b3480156100e357600080fd5b506100ec6102d6565b6040516100f99190610a8f565b60405180910390f35b61010a6102e9565b005b34801561011857600080fd5b50610133600480360381019061012e9190610adb565b610568565b6040516101409190610b21565b60405180910390f35b34801561015557600080fd5b5061015e610580565b60405161016b9190610a8f565b60405180910390f35b34801561018057600080fd5b5061018961066d565b005b34801561019757600080fd5b506101b260048036038101906101ad9190610adb565b6107e5565b6040516101bf9190610b21565b60405180910390f35b3480156101d457600080fd5b506101dd6107fd565b6040516101eb929190610cb8565b60405180910390f35b34801561020057600080fd5b506102096109a7565b6040516102169190610a59565b60405180910390f35b34801561022b57600080fd5b506102346109cd565b6040516102419190610b21565b60405180910390f35b34801561025657600080fd5b50610271600480360381019061026c9190610d1b565b6109d3565b60405161027e9190610a59565b60405180910390f35b34801561029357600080fd5b5061029c610a12565b6040516102a99190610b21565b60405180910390f35b60008054906101000a900473ffffffffffffffffffffffffffffffffffffffff1681565b600460009054906101000a900460ff1681565b600154421061032d576040517f08c379a000000000000000000000000000000000000000000000000000000000815260040161032490610da5565b60405180910390fd5b6003543411610371576040517f08c379a000000000000000000000000000000000000000000000000000000000815260040161036890610e11565b60405180910390fd5b6000600354146103f65760035460056000600260009054906101000a900473ffffffffffffffffffffffffffffffffffffffff1673ffffffffffffffffffffffffffffffffffffffff1673ffffffffffffffffffffffffffffffffffffffff16815260200190815260200160002060008282546103ee9190610e60565b925050819055505b33600260006101000a81548173ffffffffffffffffffffffffffffffffffffffff021916908373ffffffffffffffffffffffffffffffffffffffff160217905550346003819055506000600660003373ffffffffffffffffffffffffffffffffffffffff1673ffffffffffffffffffffffffffffffffffffffff16815260200190815260200160002054036104e9576007339080600181540180825580915050600190039060005260206000200160009091909190916101000a81548173ffffffffffffffffffffffffffffffffffffffff021916908373ffffffffffffffffffffffffffffffffffffffff1602179055505b34600660003373ffffffffffffffffffffffffffffffffffffffff1673ffffffffffffffffffffffffffffffffffffffff168152602001908152602001600020819055507ff4757a49b326036464bec6fe419a4ae38c8a02ce3e68bf0809674f6aab8ad300333460405161055e929190610e94565b60405180910390a1565b60056020528060005260406000206000915090505481565b600080600560003373ffffffffffffffffffffffffffffffffffffffff1673ffffffffffffffffffffffffffffffffffffffff1681526020019081526020016000205490506000811115610664576000600560003373ffffffffffffffffffffffffffffffffffffffff1673ffffffffffffffffffffffffffffffffffffffff168152602001908152602001600020819055503373ffffffffffffffffffffffffffffffffffffffff166108fc829081150290604051600060405180830381858888f19350505050158015610659573d6000803e3d6000fd5b50600191505061066a565b60009150505b90565b6001544210156106b2576040517f08c379a00000000000000000000000000000000000000000000000000000000081526004016106a990610f09565b60405180910390fd5b600460009054906101000a900460ff1615610702576040517f08c379a00000000000000000000000000000000000000000000000000000000081526004016106f990610f75565b60405180910390fd5b6001600460006101000a81548160ff0219169083151502179055507f9ebde9baafbb47e3efec88982b127ac6b7af8df2a1e860b8c86fca98d5ea9ecb600260009054906101000a900473ffffffffffffffffffffffffffffffffffffffff16600354604051610772929190610e94565b60405180910390a160008054906101000a900473ffffffffffffffffffffffffffffffffffffffff1673ffffffffffffffffffffffffffffffffffffffff166108fc6003549081150290604051600060405180830381858888f193505050501580156107e2573d6000803e3d6000fd5b50565b60066020528060005260406000206000915090505481565b606080600060078054905067ffffffffffffffff81111561082157610820610f95565b5b60405190808252806020026020018201604052801561084f5781602001602082028036833780820191505090505b50905060005b60078054905081101561091257600660006007838154811061087a57610879610fc4565b5b9060005260206000200160009054906101000a900473ffffffffffffffffffffffffffffffffffffffff1673ffffffffffffffffffffffffffffffffffffffff1673ffffffffffffffffffffffffffffffffffffffff168152602001908152602001600020548282815181106108f3576108f2610fc4565b5b602002602001018181525050808061090a90610ff3565b915050610855565b506007818180548060200260200160405190810160405280929190818152602001828054801561099757602002820191906000526020600020905b8160009054906101000a900473ffffffffffffffffffffffffffffffffffffffff1673ffffffffffffffffffffffffffffffffffffffff168152602001906001019080831161094d575b5050505050915092509250509091565b600260009054906101000a900473ffffffffffffffffffffffffffffffffffffffff1681565b60015481565b600781815481106109e357600080fd5b906000526020600020016000915054906101000a900473ffffffffffffffffffffffffffffffffffffffff1681565b60035481565b600073ffffffffffffffffffffffffffffffffffffffff82169050919050565b6000610a4382610a18565b9050919050565b610a5381610a38565b82525050565b6000602082019050610a6e6000830184610a4a565b92915050565b60008115159050919050565b610a8981610a74565b82525050565b6000602082019050610aa46000830184610a80565b92915050565b600080fd5b610ab881610a38565b8114610ac357600080fd5b50565b600081359050610ad581610aaf565b92915050565b600060208284031215610af157610af0610aaa565b5b6000610aff84828501610ac6565b91505092915050565b6000819050919050565b610b1b81610b08565b82525050565b6000602082019050610b366000830184610b12565b92915050565b600081519050919050565b600082825260208201905092915050565b6000819050602082019050919050565b610b7181610a38565b82525050565b6000610b838383610b68565b60208301905092915050565b6000602082019050919050565b6000610ba782610b3c565b610bb18185610b47565b9350610bbc83610b58565b8060005b83811015610bed578151610bd48882610b77565b9750610bdf83610b8f565b925050600181019050610bc0565b5085935050505092915050565b600081519050919050565b600082825260208201905092915050565b6000819050602082019050919050565b610c2f81610b08565b82525050565b6000610c418383610c26565b60208301905092915050565b6000602082019050919050565b6000610c6582610bfa565b610c6f8185610c05565b9350610c7a83610c16565b8060005b83811015610cab578151610c928882610c35565b9750610c9d83610c4d565b925050600181019050610c7e565b5085935050505092915050565b60006040820190508181036000830152610cd28185610b9c565b90508181036020830152610ce68184610c5a565b90509392505050565b610cf881610b08565b8114610d0357600080fd5b50565b600081359050610d1581610cef565b92915050565b600060208284031215610d3157610d30610aaa565b5b6000610d3f84828501610d06565b91505092915050565b600082825260208201905092915050565b7f416374696f6e20616c726561647920656e646564000000000000000000000000600082015250565b6000610d8f601483610d48565b9150610d9a82610d59565b602082019050919050565b60006020820190508181036000830152610dbe81610d82565b9050919050565b7f426964206e6f74206869676820656e6f75676800000000000000000000000000600082015250565b6000610dfb601383610d48565b9150610e0682610dc5565b602082019050919050565b60006020820190508181036000830152610e2a81610dee565b9050919050565b7f4e487b7100000000000000000000000000000000000000000000000000000000600052601160045260246000fd5b6000610e6b82610b08565b9150610e7683610b08565b9250828201905080821115610e8e57610e8d610e31565b5b92915050565b6000604082019050610ea96000830185610a4a565b610eb66020830184610b12565b9392505050565b7f416374696f6e206e6f742079657420656e646564000000000000000000000000600082015250565b6000610ef3601483610d48565b9150610efe82610ebd565b602082019050919050565b60006020820190508181036000830152610f2281610ee6565b9050919050565b7f416374696f6e20616c72656164792066696e616c697a65640000000000000000600082015250565b6000610f5f601883610d48565b9150610f6a82610f29565b602082019050919050565b60006020820190508181036000830152610f8e81610f52565b9050919050565b7f4e487b7100000000000000000000000000000000000000000000000000000000600052604160045260246000fd5b7f4e487b7100000000000000000000000000000000000000000000000000000000600052603260045260246000fd5b6000610ffe82610b08565b91507fffffffffffffffffffffffffffffffffffffffffffffffffffffffffffffffff82036110305761102f610e31565b5b60018201905091905056fea26469706673582212202863f949f85e8e23e76a057d075e3d9c6058bb08d4e57e6a259ac42c94e4d92164736f6c63430008140033","opcodes":"PUSH1 0x80 PUSH1 0x40 MSTORE CALLVALUE DUP1 ISZERO PUSH3 0x11 JUMPI PUSH1 0x0 DUP1 REVERT JUMPDEST POP PUSH1 0x40 MLOAD PUSH3 0x11EF CODESIZE SUB DUP1 PUSH3 0x11EF DUP4 CODECOPY DUP2 DUP2 ADD PUSH1 0x40 MSTORE DUP2 ADD SWAP1 PUSH3 0x37 SWAP2 SWAP1 PUSH3 0xD2 JUMP JUMPDEST CALLER PUSH1 0x0 DUP1 PUSH2 0x100 EXP DUP2 SLOAD DUP2 PUSH20 0xFFFFFFFFFFFFFFFFFFFFFFFFFFFFFFFFFFFFFFFF MUL NOT AND SWAP1 DUP4 PUSH20 0xFFFFFFFFFFFFFFFFFFFFFFFFFFFFFFFFFFFFFFFF AND MUL OR SWAP1 SSTORE POP DUP1 TIMESTAMP PUSH3 0x85 SWAP2 SWAP1 PUSH3 0x133 JUMP JUMPDEST PUSH1 0x1 DUP2 SWAP1 SSTORE POP POP PUSH3 0x16E JUMP JUMPDEST PUSH1 0x0 DUP1 REVERT JUMPDEST PUSH1 0x0 DUP2 SWAP1 POP SWAP2 SWAP1 POP JUMP JUMPDEST PUSH3 0xAC DUP2 PUSH3 0x97 JUMP JUMPDEST DUP2 EQ PUSH3 0xB8 JUMPI PUSH1 0x0 DUP1 REVERT JUMPDEST POP JUMP JUMPDEST PUSH1 0x0 DUP2 MLOAD SWAP1 POP PUSH3 0xCC DUP2 PUSH3 0xA1 JUMP JUMPDEST SWAP3 SWAP2 POP POP JUMP JUMPDEST PUSH1 0x0 PUSH1 0x20 DUP3 DUP5 SUB SLT ISZERO PUSH3 0xEB JUMPI PUSH3 0xEA PUSH3 0x92 JUMP JUMPDEST JUMPDEST PUSH1 0x0 PUSH3 0xFB DUP5 DUP3 DUP6 ADD PUSH3 0xBB JUMP JUMPDEST SWAP2 POP POP SWAP3 SWAP2 POP POP JUMP JUMPDEST PUSH32 0x4E487B7100000000000000000000000000000000000000000000000000000000 PUSH1 0x0 MSTORE PUSH1 0x11 PUSH1 0x4 MSTORE PUSH1 0x24 PUSH1 0x0 REVERT JUMPDEST PUSH1 0x0 PUSH3 0x140 DUP3 PUSH3 0x97 JUMP JUMPDEST SWAP2 POP PUSH3 0x14D DUP4 PUSH3 0x97 JUMP JUMPDEST SWAP3 POP DUP3 DUP3 ADD SWAP1 POP DUP1 DUP3 GT ISZERO PUSH3 0x168 JUMPI PUSH3 0x167 PUSH3 0x104 JUMP JUMPDEST JUMPDEST SWAP3 SWAP2 POP POP JUMP JUMPDEST PUSH2 0x1071 DUP1 PUSH3 0x17E PUSH1 0x0 CODECOPY PUSH1 0x0 RETURN INVALID PUSH1 0x80 PUSH1 0x40 MSTORE PUSH1 0x4 CALLDATASIZE LT PUSH2 0xA7 JUMPI PUSH1 0x0 CALLDATALOAD PUSH1 0xE0 SHR DUP1 PUSH4 0x62EA82DB GT PUSH2 0x64 JUMPI DUP1 PUSH4 0x62EA82DB EQ PUSH2 0x18B JUMPI DUP1 PUSH4 0x8D0F6DA3 EQ PUSH2 0x1C8 JUMPI DUP1 PUSH4 0x91F90157 EQ PUSH2 0x1F4 JUMPI DUP1 PUSH4 0xC764CD05 EQ PUSH2 0x21F JUMPI DUP1 PUSH4 0xCFF29DFD EQ PUSH2 0x24A JUMPI DUP1 PUSH4 0xD57BDE79 EQ PUSH2 0x287 JUMPI PUSH2 0xA7 JUMP JUMPDEST DUP1 PUSH4 0x8551A53 EQ PUSH2 0xAC JUMPI DUP1 PUSH4 0x12FA6FEB EQ PUSH2 0xD7 JUMPI DUP1 PUSH4 0x1998AEEF EQ PUSH2 0x102 JUMPI DUP1 PUSH4 0x26B387BB EQ PUSH2 0x10C JUMPI DUP1 PUSH4 0x3CCFD60B EQ PUSH2 0x149 JUMPI DUP1 PUSH4 0x4BB278F3 EQ PUSH2 0x174 JUMPI JUMPDEST PUSH1 0x0 DUP1 REVERT JUMPDEST CALLVALUE DUP1 ISZERO PUSH2 0xB8 JUMPI PUSH1 0x0 DUP1 REVERT JUMPDEST POP PUSH2 0xC1 PUSH2 0x2B2 JUMP JUMPDEST PUSH1 0x40 MLOAD PUSH2 0xCE SWAP2 SWAP1 PUSH2 0xA59 JUMP JUMPDEST PUSH1 0x40 MLOAD DUP1 SWAP2 SUB SWAP1 RETURN JUMPDEST CALLVALUE DUP1 ISZERO PUSH2 0xE3 JUMPI PUSH1 0x0 DUP1 REVERT JUMPDEST POP PUSH2 0xEC PUSH2 0x2D6 JUMP JUMPDEST PUSH1 0x40 MLOAD PUSH2 0xF9 SWAP2 SWAP1 PUSH2 0xA8F JUMP JUMPDEST PUSH1 0x40 MLOAD DUP1 SWAP2 SUB SWAP1 RETURN JUMPDEST PUSH2 0x10A PUSH2 0x2E9 JUMP JUMPDEST STOP JUMPDEST CALLVALUE DUP1 ISZERO PUSH2 0x118 JUMPI PUSH1 0x0 DUP1 REVERT JUMPDEST POP PUSH2 0x133 PUSH1 0x4 DUP1 CALLDATASIZE SUB DUP2 ADD SWAP1 PUSH2 0x12E SWAP2 SWAP1 PUSH2 0xADB JUMP JUMPDEST PUSH2 0x568 JUMP JUMPDEST PUSH1 0x40 MLOAD PUSH2 0x140 SWAP2 SWAP1 PUSH2 0xB21 JUMP JUMPDEST PUSH1 0x40 MLOAD DUP1 SWAP2 SUB SWAP1 RETURN JUMPDEST CALLVALUE DUP1 ISZERO PUSH2 0x155 JUMPI PUSH1 0x0 DUP1 REVERT JUMPDEST POP PUSH2 0x15E PUSH2 0x580 JUMP JUMPDEST PUSH1 0x40 MLOAD PUSH2 0x16B SWAP2 SWAP1 PUSH2 0xA8F JUMP JUMPDEST PUSH1 0x40 MLOAD DUP1 SWAP2 SUB SWAP1 RETURN JUMPDEST CALLVALUE DUP1 ISZERO PUSH2 0x180 JUMPI PUSH1 0x0 DUP1 REVERT JUMPDEST POP PUSH2 0x189 PUSH2 0x66D JUMP JUMPDEST STOP JUMPDEST CALLVALUE DUP1 ISZERO PUSH2 0x197 JUMPI PUSH1 0x0 DUP1 REVERT JUMPDEST POP PUSH2 0x1B2 PUSH1 0x4 DUP1 CALLDATASIZE SUB DUP2 ADD SWAP1 PUSH2 0x1AD SWAP2 SWAP1 PUSH2 0xADB JUMP JUMPDEST PUSH2 0x7E5 JUMP JUMPDEST PUSH1 0x40 MLOAD PUSH2 0x1BF SWAP2 SWAP1 PUSH2 0xB21 JUMP JUMPDEST PUSH1 0x40 MLOAD DUP1 SWAP2 SUB SWAP1 RETURN JUMPDEST CALLVALUE DUP1 ISZERO PUSH2 0x1D4 JUMPI PUSH1 0x0 DUP1 REVERT JUMPDEST POP PUSH2 0x1DD PUSH2 0x7FD JUMP JUMPDEST PUSH1 0x40 MLOAD PUSH2 0x1EB SWAP3 SWAP2 SWAP1 PUSH2 0xCB8 JUMP JUMPDEST PUSH1 0x40 MLOAD DUP1 SWAP2 SUB SWAP1 RETURN JUMPDEST CALLVALUE DUP1 ISZERO PUSH2 0x200 JUMPI PUSH1 0x0 DUP1 REVERT JUMPDEST POP PUSH2 0x209 PUSH2 0x9A7 JUMP JUMPDEST PUSH1 0x40 MLOAD PUSH2 0x216 SWAP2 SWAP1 PUSH2 0xA59 JUMP JUMPDEST PUSH1 0x40 MLOAD DUP1 SWAP2 SUB SWAP1 RETURN JUMPDEST CALLVALUE DUP1 ISZERO PUSH2 0x22B JUMPI PUSH1 0x0 DUP1 REVERT JUMPDEST POP PUSH2 0x234 PUSH2 0x9CD JUMP JUMPDEST PUSH1 0x40 MLOAD PUSH2 0x241 SWAP2 SWAP1 PUSH2 0xB21 JUMP JUMPDEST PUSH1 0x40 MLOAD DUP1 SWAP2 SUB SWAP1 RETURN JUMPDEST CALLVALUE DUP1 ISZERO PUSH2 0x256 JUMPI PUSH1 0x0 DUP1 REVERT JUMPDEST POP PUSH2 0x271 PUSH1 0x4 DUP1 CALLDATASIZE SUB DUP2 ADD SWAP1 PUSH2 0x26C SWAP2 SWAP1 PUSH2 0xD1B JUMP JUMPDEST PUSH2 0x9D3 JUMP JUMPDEST PUSH1 0x40 MLOAD PUSH2 0x27E SWAP2 SWAP1 PUSH2 0xA59 JUMP JUMPDEST PUSH1 0x40 MLOAD DUP1 SWAP2 SUB SWAP1 RETURN JUMPDEST CALLVALUE DUP1 ISZERO PUSH2 0x293 JUMPI PUSH1 0x0 DUP1 REVERT JUMPDEST POP PUSH2 0x29C PUSH2 0xA12 JUMP JUMPDEST PUSH1 0x40 MLOAD PUSH2 0x2A9 SWAP2 SWAP1 PUSH2 0xB21 JUMP JUMPDEST PUSH1 0x40 MLOAD DUP1 SWAP2 SUB SWAP1 RETURN JUMPDEST PUSH1 0x0 DUP1 SLOAD SWAP1 PUSH2 0x100 EXP SWAP1 DIV PUSH20 0xFFFFFFFFFFFFFFFFFFFFFFFFFFFFFFFFFFFFFFFF AND DUP2 JUMP JUMPDEST PUSH1 0x4 PUSH1 0x0 SWAP1 SLOAD SWAP1 PUSH2 0x100 EXP SWAP1 DIV PUSH1 0xFF AND DUP2 JUMP JUMPDEST PUSH1 0x1 SLOAD TIMESTAMP LT PUSH2 0x32D JUMPI PUSH1 0x40 MLOAD PUSH32 0x8C379A000000000000000000000000000000000000000000000000000000000 DUP2 MSTORE PUSH1 0x4 ADD PUSH2 0x324 SWAP1 PUSH2 0xDA5 JUMP JUMPDEST PUSH1 0x40 MLOAD DUP1 SWAP2 SUB SWAP1 REVERT JUMPDEST PUSH1 0x3 SLOAD CALLVALUE GT PUSH2 0x371 JUMPI PUSH1 0x40 MLOAD PUSH32 0x8C379A000000000000000000000000000000000000000000000000000000000 DUP2 MSTORE PUSH1 0x4 ADD PUSH2 0x368 SWAP1 PUSH2 0xE11 JUMP JUMPDEST PUSH1 0x40 MLOAD DUP1 SWAP2 SUB SWAP1 REVERT JUMPDEST PUSH1 0x0 PUSH1 0x3 SLOAD EQ PUSH2 0x3F6 JUMPI PUSH1 0x3 SLOAD PUSH1 0x5 PUSH1 0x0 PUSH1 0x2 PUSH1 0x0 SWAP1 SLOAD SWAP1 PUSH2 0x100 EXP SWAP1 DIV PUSH20 0xFFFFFFFFFFFFFFFFFFFFFFFFFFFFFFFFFFFFFFFF AND PUSH20 0xFFFFFFFFFFFFFFFFFFFFFFFFFFFFFFFFFFFFFFFF AND PUSH20 0xFFFFFFFFFFFFFFFFFFFFFFFFFFFFFFFFFFFFFFFF AND DUP2 MSTORE PUSH1 0x20 ADD SWAP1 DUP2 MSTORE PUSH1 0x20 ADD PUSH1 0x0 KECCAK256 PUSH1 0x0 DUP3 DUP3 SLOAD PUSH2 0x3EE SWAP2 SWAP1 PUSH2 0xE60 JUMP JUMPDEST SWAP3 POP POP DUP2 SWAP1 SSTORE POP JUMPDEST CALLER PUSH1 0x2 PUSH1 0x0 PUSH2 0x100 EXP DUP2 SLOAD DUP2 PUSH20 0xFFFFFFFFFFFFFFFFFFFFFFFFFFFFFFFFFFFFFFFF MUL NOT AND SWAP1 DUP4 PUSH20 0xFFFFFFFFFFFFFFFFFFFFFFFFFFFFFFFFFFFFFFFF AND MUL OR SWAP1 SSTORE POP CALLVALUE PUSH1 0x3 DUP2 SWAP1 SSTORE POP PUSH1 0x0 PUSH1 0x6 PUSH1 0x0 CALLER PUSH20 0xFFFFFFFFFFFFFFFFFFFFFFFFFFFFFFFFFFFFFFFF AND PUSH20 0xFFFFFFFFFFFFFFFFFFFFFFFFFFFFFFFFFFFFFFFF AND DUP2 MSTORE PUSH1 0x20 ADD SWAP1 DUP2 MSTORE PUSH1 0x20 ADD PUSH1 0x0 KECCAK256 SLOAD SUB PUSH2 0x4E9 JUMPI PUSH1 0x7 CALLER SWAP1 DUP1 PUSH1 0x1 DUP2 SLOAD ADD DUP1 DUP3 SSTORE DUP1 SWAP2 POP POP PUSH1 0x1 SWAP1 SUB SWAP1 PUSH1 0x0 MSTORE PUSH1 0x20 PUSH1 0x0 KECCAK256 ADD PUSH1 0x0 SWAP1 SWAP2 SWAP1 SWAP2 SWAP1 SWAP2 PUSH2 0x100 EXP DUP2 SLOAD DUP2 PUSH20 0xFFFFFFFFFFFFFFFFFFFFFFFFFFFFFFFFFFFFFFFF MUL NOT AND SWAP1 DUP4 PUSH20 0xFFFFFFFFFFFFFFFFFFFFFFFFFFFFFFFFFFFFFFFF AND MUL OR SWAP1 SSTORE POP JUMPDEST CALLVALUE PUSH1 0x6 PUSH1 0x0 CALLER PUSH20 0xFFFFFFFFFFFFFFFFFFFFFFFFFFFFFFFFFFFFFFFF AND PUSH20 0xFFFFFFFFFFFFFFFFFFFFFFFFFFFFFFFFFFFFFFFF AND DUP2 MSTORE PUSH1 0x20 ADD SWAP1 DUP2 MSTORE PUSH1 0x20 ADD PUSH1 0x0 KECCAK256 DUP2 SWAP1 SSTORE POP PUSH32 0xF4757A49B326036464BEC6FE419A4AE38C8A02CE3E68BF0809674F6AAB8AD300 CALLER CALLVALUE PUSH1 0x40 MLOAD PUSH2 0x55E SWAP3 SWAP2 SWAP1 PUSH2 0xE94 JUMP JUMPDEST PUSH1 0x40 MLOAD DUP1 SWAP2 SUB SWAP1 LOG1 JUMP JUMPDEST PUSH1 0x5 PUSH1 0x20 MSTORE DUP1 PUSH1 0x0 MSTORE PUSH1 0x40 PUSH1 0x0 KECCAK256 PUSH1 0x0 SWAP2 POP SWAP1 POP SLOAD DUP2 JUMP JUMPDEST PUSH1 0x0 DUP1 PUSH1 0x5 PUSH1 0x0 CALLER PUSH20 0xFFFFFFFFFFFFFFFFFFFFFFFFFFFFFFFFFFFFFFFF AND PUSH20 0xFFFFFFFFFFFFFFFFFFFFFFFFFFFFFFFFFFFFFFFF AND DUP2 MSTORE PUSH1 0x20 ADD SWAP1 DUP2 MSTORE PUSH1 0x20 ADD PUSH1 0x0 KECCAK256 SLOAD SWAP1 POP PUSH1 0x0 DUP2 GT ISZERO PUSH2 0x664 JUMPI PUSH1 0x0 PUSH1 0x5 PUSH1 0x0 CALLER PUSH20 0xFFFFFFFFFFFFFFFFFFFFFFFFFFFFFFFFFFFFFFFF AND PUSH20 0xFFFFFFFFFFFFFFFFFFFFFFFFFFFFFFFFFFFFFFFF AND DUP2 MSTORE PUSH1 0x20 ADD SWAP1 DUP2 MSTORE PUSH1 0x20 ADD PUSH1 0x0 KECCAK256 DUP2 SWAP1 SSTORE POP CALLER PUSH20 0xFFFFFFFFFFFFFFFFFFFFFFFFFFFFFFFFFFFFFFFF AND PUSH2 0x8FC DUP3 SWAP1 DUP2 ISZERO MUL SWAP1 PUSH1 0x40 MLOAD PUSH1 0x0 PUSH1 0x40 MLOAD DUP1 DUP4 SUB DUP2 DUP6 DUP9 DUP9 CALL SWAP4 POP POP POP POP ISZERO DUP1 ISZERO PUSH2 0x659 JUMPI RETURNDATASIZE PUSH1 0x0 DUP1 RETURNDATACOPY RETURNDATASIZE PUSH1 0x0 REVERT JUMPDEST POP PUSH1 0x1 SWAP2 POP POP PUSH2 0x66A JUMP JUMPDEST PUSH1 0x0 SWAP2 POP POP JUMPDEST SWAP1 JUMP JUMPDEST PUSH1 0x1 SLOAD TIMESTAMP LT ISZERO PUSH2 0x6B2 JUMPI PUSH1 0x40 MLOAD PUSH32 0x8C379A000000000000000000000000000000000000000000000000000000000 DUP2 MSTORE PUSH1 0x4 ADD PUSH2 0x6A9 SWAP1 PUSH2 0xF09 JUMP JUMPDEST PUSH1 0x40 MLOAD DUP1 SWAP2 SUB SWAP1 REVERT JUMPDEST PUSH1 0x4 PUSH1 0x0 SWAP1 SLOAD SWAP1 PUSH2 0x100 EXP SWAP1 DIV PUSH1 0xFF AND ISZERO PUSH2 0x702 JUMPI PUSH1 0x40 MLOAD PUSH32 0x8C379A000000000000000000000000000000000000000000000000000000000 DUP2 MSTORE PUSH1 0x4 ADD PUSH2 0x6F9 SWAP1 PUSH2 0xF75 JUMP JUMPDEST PUSH1 0x40 MLOAD DUP1 SWAP2 SUB SWAP1 REVERT JUMPDEST PUSH1 0x1 PUSH1 0x4 PUSH1 0x0 PUSH2 0x100 EXP DUP2 SLOAD DUP2 PUSH1 0xFF MUL NOT AND SWAP1 DUP4 ISZERO ISZERO MUL OR SWAP1 SSTORE POP PUSH32 0x9EBDE9BAAFBB47E3EFEC88982B127AC6B7AF8DF2A1E860B8C86FCA98D5EA9ECB PUSH1 0x2 PUSH1 0x0 SWAP1 SLOAD SWAP1 PUSH2 0x100 EXP SWAP1 DIV PUSH20 0xFFFFFFFFFFFFFFFFFFFFFFFFFFFFFFFFFFFFFFFF AND PUSH1 0x3 SLOAD PUSH1 0x40 MLOAD PUSH2 0x772 SWAP3 SWAP2 SWAP1 PUSH2 0xE94 JUMP JUMPDEST PUSH1 0x40 MLOAD DUP1 SWAP2 SUB SWAP1 LOG1 PUSH1 0x0 DUP1 SLOAD SWAP1 PUSH2 0x100 EXP SWAP1 DIV PUSH20 0xFFFFFFFFFFFFFFFFFFFFFFFFFFFFFFFFFFFFFFFF AND PUSH20 0xFFFFFFFFFFFFFFFFFFFFFFFFFFFFFFFFFFFFFFFF AND PUSH2 0x8FC PUSH1 0x3 SLOAD SWAP1 DUP2 ISZERO MUL SWAP1 PUSH1 0x40 MLOAD PUSH1 0x0 PUSH1 0x40 MLOAD DUP1 DUP4 SUB DUP2 DUP6 DUP9 DUP9 CALL SWAP4 POP POP POP POP ISZERO DUP1 ISZERO PUSH2 0x7E2 JUMPI RETURNDATASIZE PUSH1 0x0 DUP1 RETURNDATACOPY RETURNDATASIZE PUSH1 0x0 REVERT JUMPDEST POP JUMP JUMPDEST PUSH1 0x6 PUSH1 0x20 MSTORE DUP1 PUSH1 0x0 MSTORE PUSH1 0x40 PUSH1 0x0 KECCAK256 PUSH1 0x0 SWAP2 POP SWAP1 POP SLOAD DUP2 JUMP JUMPDEST PUSH1 0x60 DUP1 PUSH1 0x0 PUSH1 0x7 DUP1 SLOAD SWAP1 POP PUSH8 0xFFFFFFFFFFFFFFFF DUP2 GT ISZERO PUSH2 0x821 JUMPI PUSH2 0x820 PUSH2 0xF95 JUMP JUMPDEST JUMPDEST PUSH1 0x40 MLOAD SWAP1 DUP1 DUP3 MSTORE DUP1 PUSH1 0x20 MUL PUSH1 0x20 ADD DUP3 ADD PUSH1 0x40 MSTORE DUP1 ISZERO PUSH2 0x84F JUMPI DUP2 PUSH1 0x20 ADD PUSH1 0x20 DUP3 MUL DUP1 CALLDATASIZE DUP4 CALLDATACOPY DUP1 DUP3 ADD SWAP2 POP POP SWAP1 POP JUMPDEST POP SWAP1 POP PUSH1 0x0 JUMPDEST PUSH1 0x7 DUP1 SLOAD SWAP1 POP DUP2 LT ISZERO PUSH2 0x912 JUMPI PUSH1 0x6 PUSH1 0x0 PUSH1 0x7 DUP4 DUP2 SLOAD DUP2 LT PUSH2 0x87A JUMPI PUSH2 0x879 PUSH2 0xFC4 JUMP JUMPDEST JUMPDEST SWAP1 PUSH1 0x0 MSTORE PUSH1 0x20 PUSH1 0x0 KECCAK256 ADD PUSH1 0x0 SWAP1 SLOAD SWAP1 PUSH2 0x100 EXP SWAP1 DIV PUSH20 0xFFFFFFFFFFFFFFFFFFFFFFFFFFFFFFFFFFFFFFFF AND PUSH20 0xFFFFFFFFFFFFFFFFFFFFFFFFFFFFFFFFFFFFFFFF AND PUSH20 0xFFFFFFFFFFFFFFFFFFFFFFFFFFFFFFFFFFFFFFFF AND DUP2 MSTORE PUSH1 0x20 ADD SWAP1 DUP2 MSTORE PUSH1 0x20 ADD PUSH1 0x0 KECCAK256 SLOAD DUP3 DUP3 DUP2 MLOAD DUP2 LT PUSH2 0x8F3 JUMPI PUSH2 0x8F2 PUSH2 0xFC4 JUMP JUMPDEST JUMPDEST PUSH1 0x20 MUL PUSH1 0x20 ADD ADD DUP2 DUP2 MSTORE POP POP DUP1 DUP1 PUSH2 0x90A SWAP1 PUSH2 0xFF3 JUMP JUMPDEST SWAP2 POP POP PUSH2 0x855 JUMP JUMPDEST POP PUSH1 0x7 DUP2 DUP2 DUP1 SLOAD DUP1 PUSH1 0x20 MUL PUSH1 0x20 ADD PUSH1 0x40 MLOAD SWAP1 DUP2 ADD PUSH1 0x40 MSTORE DUP1 SWAP3 SWAP2 SWAP1 DUP2 DUP2 MSTORE PUSH1 0x20 ADD DUP3 DUP1 SLOAD DUP1 ISZERO PUSH2 0x997 JUMPI PUSH1 0x20 MUL DUP3 ADD SWAP2 SWAP1 PUSH1 0x0 MSTORE PUSH1 0x20 PUSH1 0x0 KECCAK256 SWAP1 JUMPDEST DUP2 PUSH1 0x0 SWAP1 SLOAD SWAP1 PUSH2 0x100 EXP SWAP1 DIV PUSH20 0xFFFFFFFFFFFFFFFFFFFFFFFFFFFFFFFFFFFFFFFF AND PUSH20 0xFFFFFFFFFFFFFFFFFFFFFFFFFFFFFFFFFFFFFFFF AND DUP2 MSTORE PUSH1 0x20 ADD SWAP1 PUSH1 0x1 ADD SWAP1 DUP1 DUP4 GT PUSH2 0x94D JUMPI JUMPDEST POP POP POP POP POP SWAP2 POP SWAP3 POP SWAP3 POP POP SWAP1 SWAP2 JUMP JUMPDEST PUSH1 0x2 PUSH1 0x0 SWAP1 SLOAD SWAP1 PUSH2 0x100 EXP SWAP1 DIV PUSH20 0xFFFFFFFFFFFFFFFFFFFFFFFFFFFFFFFFFFFFFFFF AND DUP2 JUMP JUMPDEST PUSH1 0x1 SLOAD DUP2 JUMP JUMPDEST PUSH1 0x7 DUP2 DUP2 SLOAD DUP2 LT PUSH2 0x9E3 JUMPI PUSH1 0x0 DUP1 REVERT JUMPDEST SWAP1 PUSH1 0x0 MSTORE PUSH1 0x20 PUSH1 0x0 KECCAK256 ADD PUSH1 0x0 SWAP2 POP SLOAD SWAP1 PUSH2 0x100 EXP SWAP1 DIV PUSH20 0xFFFFFFFFFFFFFFFFFFFFFFFFFFFFFFFFFFFFFFFF AND DUP2 JUMP JUMPDEST PUSH1 0x3 SLOAD DUP2 JUMP JUMPDEST PUSH1 0x0 PUSH20 0xFFFFFFFFFFFFFFFFFFFFFFFFFFFFFFFFFFFFFFFF DUP3 AND SWAP1 POP SWAP2 SWAP1 POP JUMP JUMPDEST PUSH1 0x0 PUSH2 0xA43 DUP3 PUSH2 0xA18 JUMP JUMPDEST SWAP1 POP SWAP2 SWAP1 POP JUMP JUMPDEST PUSH2 0xA53 DUP2 PUSH2 0xA38 JUMP JUMPDEST DUP3 MSTORE POP POP JUMP JUMPDEST PUSH1 0x0 PUSH1 0x20 DUP3 ADD SWAP1 POP PUSH2 0xA6E PUSH1 0x0 DUP4 ADD DUP5 PUSH2 0xA4A JUMP JUMPDEST SWAP3 SWAP2 POP POP JUMP JUMPDEST PUSH1 0x0 DUP2 ISZERO ISZERO SWAP1 POP SWAP2 SWAP1 POP JUMP JUMPDEST PUSH2 0xA89 DUP2 PUSH2 0xA74 JUMP JUMPDEST DUP3 MSTORE POP POP JUMP JUMPDEST PUSH1 0x0 PUSH1 0x20 DUP3 ADD SWAP1 POP PUSH2 0xAA4 PUSH1 0x0 DUP4 ADD DUP5 PUSH2 0xA80 JUMP JUMPDEST SWAP3 SWAP2 POP POP JUMP JUMPDEST PUSH1 0x0 DUP1 REVERT JUMPDEST PUSH2 0xAB8 DUP2 PUSH2 0xA38 JUMP JUMPDEST DUP2 EQ PUSH2 0xAC3 JUMPI PUSH1 0x0 DUP1 REVERT JUMPDEST POP JUMP JUMPDEST PUSH1 0x0 DUP2 CALLDATALOAD SWAP1 POP PUSH2 0xAD5 DUP2 PUSH2 0xAAF JUMP JUMPDEST SWAP3 SWAP2 POP POP JUMP JUMPDEST PUSH1 0x0 PUSH1 0x20 DUP3 DUP5 SUB SLT ISZERO PUSH2 0xAF1 JUMPI PUSH2 0xAF0 PUSH2 0xAAA JUMP JUMPDEST JUMPDEST PUSH1 0x0 PUSH2 0xAFF DUP5 DUP3 DUP6 ADD PUSH2 0xAC6 JUMP JUMPDEST SWAP2 POP POP SWAP3 SWAP2 POP POP JUMP JUMPDEST PUSH1 0x0 DUP2 SWAP1 POP SWAP2 SWAP1 POP JUMP JUMPDEST PUSH2 0xB1B DUP2 PUSH2 0xB08 JUMP JUMPDEST DUP3 MSTORE POP POP JUMP JUMPDEST PUSH1 0x0 PUSH1 0x20 DUP3 ADD SWAP1 POP PUSH2 0xB36 PUSH1 0x0 DUP4 ADD DUP5 PUSH2 0xB12 JUMP JUMPDEST SWAP3 SWAP2 POP POP JUMP JUMPDEST PUSH1 0x0 DUP2 MLOAD SWAP1 POP SWAP2 SWAP1 POP JUMP JUMPDEST PUSH1 0x0 DUP3 DUP3 MSTORE PUSH1 0x20 DUP3 ADD SWAP1 POP SWAP3 SWAP2 POP POP JUMP JUMPDEST PUSH1 0x0 DUP2 SWAP1 POP PUSH1 0x20 DUP3 ADD SWAP1 POP SWAP2 SWAP1 POP JUMP JUMPDEST PUSH2 0xB71 DUP2 PUSH2 0xA38 JUMP JUMPDEST DUP3 MSTORE POP POP JUMP JUMPDEST PUSH1 0x0 PUSH2 0xB83 DUP4 DUP4 PUSH2 0xB68 JUMP JUMPDEST PUSH1 0x20 DUP4 ADD SWAP1 POP SWAP3 SWAP2 POP POP JUMP JUMPDEST PUSH1 0x0 PUSH1 0x20 DUP3 ADD SWAP1 POP SWAP2 SWAP1 POP JUMP JUMPDEST PUSH1 0x0 PUSH2 0xBA7 DUP3 PUSH2 0xB3C JUMP JUMPDEST PUSH2 0xBB1 DUP2 DUP6 PUSH2 0xB47 JUMP JUMPDEST SWAP4 POP PUSH2 0xBBC DUP4 PUSH2 0xB58 JUMP JUMPDEST DUP1 PUSH1 0x0 JUMPDEST DUP4 DUP2 LT ISZERO PUSH2 0xBED JUMPI DUP2 MLOAD PUSH2 0xBD4 DUP9 DUP3 PUSH2 0xB77 JUMP JUMPDEST SWAP8 POP PUSH2 0xBDF DUP4 PUSH2 0xB8F JUMP JUMPDEST SWAP3 POP POP PUSH1 0x1 DUP2 ADD SWAP1 POP PUSH2 0xBC0 JUMP JUMPDEST POP DUP6 SWAP4 POP POP POP POP SWAP3 SWAP2 POP POP JUMP JUMPDEST PUSH1 0x0 DUP2 MLOAD SWAP1 POP SWAP2 SWAP1 POP JUMP JUMPDEST PUSH1 0x0 DUP3 DUP3 MSTORE PUSH1 0x20 DUP3 ADD SWAP1 POP SWAP3 SWAP2 POP POP JUMP JUMPDEST PUSH1 0x0 DUP2 SWAP1 POP PUSH1 0x20 DUP3 ADD SWAP1 POP SWAP2 SWAP1 POP JUMP JUMPDEST PUSH2 0xC2F DUP2 PUSH2 0xB08 JUMP JUMPDEST DUP3 MSTORE POP POP JUMP JUMPDEST PUSH1 0x0 PUSH2 0xC41 DUP4 DUP4 PUSH2 0xC26 JUMP JUMPDEST PUSH1 0x20 DUP4 ADD SWAP1 POP SWAP3 SWAP2 POP POP JUMP JUMPDEST PUSH1 0x0 PUSH1 0x20 DUP3 ADD SWAP1 POP SWAP2 SWAP1 POP JUMP JUMPDEST PUSH1 0x0 PUSH2 0xC65 DUP3 PUSH2 0xBFA JUMP JUMPDEST PUSH2 0xC6F DUP2 DUP6 PUSH2 0xC05 JUMP JUMPDEST SWAP4 POP PUSH2 0xC7A DUP4 PUSH2 0xC16 JUMP JUMPDEST DUP1 PUSH1 0x0 JUMPDEST DUP4 DUP2 LT ISZERO PUSH2 0xCAB JUMPI DUP2 MLOAD PUSH2 0xC92 DUP9 DUP3 PUSH2 0xC35 JUMP JUMPDEST SWAP8 POP PUSH2 0xC9D DUP4 PUSH2 0xC4D JUMP JUMPDEST SWAP3 POP POP PUSH1 0x1 DUP2 ADD SWAP1 POP PUSH2 0xC7E JUMP JUMPDEST POP DUP6 SWAP4 POP POP POP POP SWAP3 SWAP2 POP POP JUMP JUMPDEST PUSH1 0x0 PUSH1 0x40 DUP3 ADD SWAP1 POP DUP2 DUP2 SUB PUSH1 0x0 DUP4 ADD MSTORE PUSH2 0xCD2 DUP2 DUP6 PUSH2 0xB9C JUMP JUMPDEST SWAP1 POP DUP2 DUP2 SUB PUSH1 0x20 DUP4 ADD MSTORE PUSH2 0xCE6 DUP2 DUP5 PUSH2 0xC5A JUMP JUMPDEST SWAP1 POP SWAP4 SWAP3 POP POP POP JUMP JUMPDEST PUSH2 0xCF8 DUP2 PUSH2 0xB08 JUMP JUMPDEST DUP2 EQ PUSH2 0xD03 JUMPI PUSH1 0x0 DUP1 REVERT JUMPDEST POP JUMP JUMPDEST PUSH1 0x0 DUP2 CALLDATALOAD SWAP1 POP PUSH2 0xD15 DUP2 PUSH2 0xCEF JUMP JUMPDEST SWAP3 SWAP2 POP POP JUMP JUMPDEST PUSH1 0x0 PUSH1 0x20 DUP3 DUP5 SUB SLT ISZERO PUSH2 0xD31 JUMPI PUSH2 0xD30 PUSH2 0xAAA JUMP JUMPDEST JUMPDEST PUSH1 0x0 PUSH2 0xD3F DUP5 DUP3 DUP6 ADD PUSH2 0xD06 JUMP JUMPDEST SWAP2 POP POP SWAP3 SWAP2 POP POP JUMP JUMPDEST PUSH1 0x0 DUP3 DUP3 MSTORE PUSH1 0x20 DUP3 ADD SWAP1 POP SWAP3 SWAP2 POP POP JUMP JUMPDEST PUSH32 0x416374696F6E20616C726561647920656E646564000000000000000000000000 PUSH1 0x0 DUP3 ADD MSTORE POP JUMP JUMPDEST PUSH1 0x0 PUSH2 0xD8F PUSH1 0x14 DUP4 PUSH2 0xD48 JUMP JUMPDEST SWAP2 POP PUSH2 0xD9A DUP3 PUSH2 0xD59 JUMP JUMPDEST PUSH1 0x20 DUP3 ADD SWAP1 POP SWAP2 SWAP1 POP JUMP JUMPDEST PUSH1 0x0 PUSH1 0x20 DUP3 ADD SWAP1 POP DUP2 DUP2 SUB PUSH1 0x0 DUP4 ADD MSTORE PUSH2 0xDBE DUP2 PUSH2 0xD82 JUMP JUMPDEST SWAP1 POP SWAP2 SWAP1 POP JUMP JUMPDEST PUSH32 0x426964206E6F74206869676820656E6F75676800000000000000000000000000 PUSH1 0x0 DUP3 ADD MSTORE POP JUMP JUMPDEST PUSH1 0x0 PUSH2 0xDFB PUSH1 0x13 DUP4 PUSH2 0xD48 JUMP JUMPDEST SWAP2 POP PUSH2 0xE06 DUP3 PUSH2 0xDC5 JUMP JUMPDEST PUSH1 0x20 DUP3 ADD SWAP1 POP SWAP2 SWAP1 POP JUMP JUMPDEST PUSH1 0x0 PUSH1 0x20 DUP3 ADD SWAP1 POP DUP2 DUP2 SUB PUSH1 0x0 DUP4 ADD MSTORE PUSH2 0xE2A DUP2 PUSH2 0xDEE JUMP JUMPDEST SWAP1 POP SWAP2 SWAP1 POP JUMP JUMPDEST PUSH32 0x4E487B7100000000000000000000000000000000000000000000000000000000 PUSH1 0x0 MSTORE PUSH1 0x11 PUSH1 0x4 MSTORE PUSH1 0x24 PUSH1 0x0 REVERT JUMPDEST PUSH1 0x0 PUSH2 0xE6B DUP3 PUSH2 0xB08 JUMP JUMPDEST SWAP2 POP PUSH2 0xE76 DUP4 PUSH2 0xB08 JUMP JUMPDEST SWAP3 POP DUP3 DUP3 ADD SWAP1 POP DUP1 DUP3 GT ISZERO PUSH2 0xE8E JUMPI PUSH2 0xE8D PUSH2 0xE31 JUMP JUMPDEST JUMPDEST SWAP3 SWAP2 POP POP JUMP JUMPDEST PUSH1 0x0 PUSH1 0x40 DUP3 ADD SWAP1 POP PUSH2 0xEA9 PUSH1 0x0 DUP4 ADD DUP6 PUSH2 0xA4A JUMP JUMPDEST PUSH2 0xEB6 PUSH1 0x20 DUP4 ADD DUP5 PUSH2 0xB12 JUMP JUMPDEST SWAP4 SWAP3 POP POP POP JUMP JUMPDEST PUSH32 0x416374696F6E206E6F742079657420656E646564000000000000000000000000 PUSH1 0x0 DUP3 ADD MSTORE POP JUMP JUMPDEST PUSH1 0x0 PUSH2 0xEF3 PUSH1 0x14 DUP4 PUSH2 0xD48 JUMP JUMPDEST SWAP2 POP PUSH2 0xEFE DUP3 PUSH2 0xEBD JUMP JUMPDEST PUSH1 0x20 DUP3 ADD SWAP1 POP SWAP2 SWAP1 POP JUMP JUMPDEST PUSH1 0x0 PUSH1 0x20 DUP3 ADD SWAP1 POP DUP2 DUP2 SUB PUSH1 0x0 DUP4 ADD MSTORE PUSH2 0xF22 DUP2 PUSH2 0xEE6 JUMP JUMPDEST SWAP1 POP SWAP2 SWAP1 POP JUMP JUMPDEST PUSH32 0x416374696F6E20616C72656164792066696E616C697A65640000000000000000 PUSH1 0x0 DUP3 ADD MSTORE POP JUMP JUMPDEST PUSH1 0x0 PUSH2 0xF5F PUSH1 0x18 DUP4 PUSH2 0xD48 JUMP JUMPDEST SWAP2 POP PUSH2 0xF6A DUP3 PUSH2 0xF29 JUMP JUMPDEST PUSH1 0x20 DUP3 ADD SWAP1 POP SWAP2 SWAP1 POP JUMP JUMPDEST PUSH1 0x0 PUSH1 0x20 DUP3 ADD SWAP1 POP DUP2 DUP2 SUB PUSH1 0x0 DUP4 ADD MSTORE PUSH2 0xF8E DUP2 PUSH2 0xF52 JUMP JUMPDEST SWAP1 POP SWAP2 SWAP1 POP JUMP JUMPDEST PUSH32 0x4E487B7100000000000000000000000000000000000000000000000000000000 PUSH1 0x0 MSTORE PUSH1 0x41 PUSH1 0x4 MSTORE PUSH1 0x24 PUSH1 0x0 REVERT JUMPDEST PUSH32 0x4E487B7100000000000000000000000000000000000000000000000000000000 PUSH1 0x0 MSTORE PUSH1 0x32 PUSH1 0x4 MSTORE PUSH1 0x24 PUSH1 0x0 REVERT JUMPDEST PUSH1 0x0 PUSH2 0xFFE DUP3 PUSH2 0xB08 JUMP JUMPDEST SWAP2 POP PUSH32 0xFFFFFFFFFFFFFFFFFFFFFFFFFFFFFFFFFFFFFFFFFFFFFFFFFFFFFFFFFFFFFFFF DUP3 SUB PUSH2 0x1030 JUMPI PUSH2 0x102F PUSH2 0xE31 JUMP JUMPDEST JUMPDEST PUSH1 0x1 DUP3 ADD SWAP1 POP SWAP2 SWAP1 POP JUMP INVALID LOG2 PUSH5 0x6970667358 0x22 SLT KECCAK256 0x28 PUSH4 0xF949F85E DUP15 0x23 0xE7 PUSH11 0x57D075E3D9C6058BB08D4 0xE5 PUSH31 0x6A259AC42C94E4D92164736F6C634300081400330000000000000000000000 "},"methodIdentifiers":{"actionEndTime()":"c764cd05","bid()":"1998aeef","bidders(uint256)":"cff29dfd","bids(address)":"62ea82db","ended()":"12fa6feb","finalize()":"4bb278f3","getAllBids()":"8d0f6da3","highestBid()":"d57bde79","highestBidder()":"91f90157","pendingReturns(address)":"26b387bb","seller()":"08551a53","withdraw()":"3ccfd60b"}}}}}