{"contracts/ActionFactory.sol":{"ActionFactory":{"abi":[{"anonymous":false,"inputs":[{"indexed":true,"internalType":"address","name":"seller","type":"address"},{"indexed":false,"internalType":"address","name":"actionAddress","type":"address"},{"indexed":false,"internalType":"uint256","name":"endTime","type":"uint256"}],"name":"ActionCreated","type":"event"},{"inputs":[{"internalType":"uint256","name":"","type":"uint256"}],"name":"allActions","outputs":[{"internalType":"address","name":"","type":"address"}],"stateMutability":"view","type":"function"},{"inputs":[{"internalType":"uint256","name":"_biddingTime","type":"uint256"},{"internalType":"address","name":"_seller","type":"address"}],"name":"createAction","outputs":[],"stateMutability":"nonpayable","type":"function"},{"inputs":[],"name":"getAllActions","outputs":[{"internalType":"address[]","name":"","type":"address[]"}],"stateMutability":"view","type":"function"}],"evm":{"bytecode":{"linkReferences":{},"object":"608060405234801561001057600080fd5b506123ad806100206000396000f3fe60806040523480156200001157600080fd5b5060043610620000465760003560e01c8063aea5df16146200004b578063b9cb8122146200006d578063d7248b1f146200008d575b600080fd5b62000055620000c3565b6040516200006491906200041b565b60405180910390f35b6200008b6004803603810190620000859190620004b0565b62000153565b005b620000ab6004803603810190620000a59190620004f7565b620002cb565b604051620000ba91906200053a565b60405180910390f35b606060008054806020026020016040519081016040528092919081815260200182805480156200014957602002820191906000526020600020905b8160009054906101000a900473ffffffffffffffffffffffffffffffffffffffff1673ffffffffffffffffffffffffffffffffffffffff1681526020019060010190808311620000fe575b5050505050905090565b600073ffffffffffffffffffffffffffffffffffffffff168173ffffffffffffffffffffffffffffffffffffffff1603620001c5576040517f08c379a0000000000000000000000000000000000000000000000000000000008152600401620001bc90620005b8565b60405180910390fd5b60008282604051620001d7906200030b565b620001e4929190620005eb565b604051809103906000f08015801562000201573d6000803e3d6000fd5b5090506000819080600181540180825580915050600190039060005260206000200160009091909190916101000a81548173ffffffffffffffffffffffffffffffffffffffff021916908373ffffffffffffffffffffffffffffffffffffffff1602179055508173ffffffffffffffffffffffffffffffffffffffff167f5b41f55ebb37f4cd78f4d7c4093ef8d2954d051278d39993212d8a79f8f2f926828542620002ae919062000647565b604051620002be92919062000682565b60405180910390a2505050565b60008181548110620002dc57600080fd5b906000526020600020016000915054906101000a900473ffffffffffffffffffffffffffffffffffffffff1681565b611cc880620006b083390190565b600081519050919050565b600082825260208201905092915050565b6000819050602082019050919050565b600073ffffffffffffffffffffffffffffffffffffffff82169050919050565b6000620003728262000345565b9050919050565b620003848162000365565b82525050565b600062000398838362000379565b60208301905092915050565b6000602082019050919050565b6000620003be8262000319565b620003ca818562000324565b9350620003d78362000335565b8060005b838110156200040e578151620003f288826200038a565b9750620003ff83620003a4565b925050600181019050620003db565b5085935050505092915050565b60006020820190508181036000830152620004378184620003b1565b905092915050565b600080fd5b6000819050919050565b620004598162000444565b81146200046557600080fd5b50565b60008135905062000479816200044e565b92915050565b6200048a8162000365565b81146200049657600080fd5b50565b600081359050620004aa816200047f565b92915050565b60008060408385031215620004ca57620004c96200043f565b5b6000620004da8582860162000468565b9250506020620004ed8582860162000499565b9150509250929050565b60006020828403121562000510576200050f6200043f565b5b6000620005208482850162000468565b91505092915050565b620005348162000365565b82525050565b600060208201905062000551600083018462000529565b92915050565b600082825260208201905092915050565b7f496e76616c69642073656c6c6572000000000000000000000000000000000000600082015250565b6000620005a0600e8362000557565b9150620005ad8262000568565b602082019050919050565b60006020820190508181036000830152620005d38162000591565b9050919050565b620005e58162000444565b82525050565b6000604082019050620006026000830185620005da565b62000611602083018462000529565b9392505050565b7f4e487b7100000000000000000000000000000000000000000000000000000000600052601160045260246000fd5b6000620006548262000444565b9150620006618362000444565b92508282019050808211156200067c576200067b62000618565b5b92915050565b600060408201905062000699600083018562000529565b620006a86020830184620005da565b939250505056fe60806040523480156200001157600080fd5b5060405162001cc838038062001cc88339818101604052810190620000379190620001aa565b600073ffffffffffffffffffffffffffffffffffffffff168173ffffffffffffffffffffffffffffffffffffffff1603620000a9576040517f08c379a0000000000000000000000000000000000000000000000000000000008152600401620000a09062000252565b60405180910390fd5b806000806101000a81548173ffffffffffffffffffffffffffffffffffffffff021916908373ffffffffffffffffffffffffffffffffffffffff1602179055508142620000f79190620002a3565b6001819055505050620002de565b600080fd5b6000819050919050565b6200011f816200010a565b81146200012b57600080fd5b50565b6000815190506200013f8162000114565b92915050565b600073ffffffffffffffffffffffffffffffffffffffff82169050919050565b6000620001728262000145565b9050919050565b620001848162000165565b81146200019057600080fd5b50565b600081519050620001a48162000179565b92915050565b60008060408385031215620001c457620001c362000105565b5b6000620001d4858286016200012e565b9250506020620001e78582860162000193565b9150509250929050565b600082825260208201905092915050565b7f496e76616c69642073656c6c6572206164647265737300000000000000000000600082015250565b60006200023a601683620001f1565b9150620002478262000202565b602082019050919050565b600060208201905081810360008301526200026d816200022b565b9050919050565b7f4e487b7100000000000000000000000000000000000000000000000000000000600052601160045260246000fd5b6000620002b0826200010a565b9150620002bd836200010a565b9250828201905080821115620002d857620002d762000274565b5b92915050565b6119da80620002ee6000396000f3fe6080604052600436106100e85760003560e01c806362ea82db1161008a578063c764cd0511610059578063c764cd05146102a2578063cff29dfd146102cd578063d57bde791461030a578063e8a61cc814610335576100e8565b806362ea82db146101f757806373fac6f0146102345780638d0f6da31461024b57806391f9015714610277576100e8565b80631998aeef116100c65780631998aeef1461016e57806326b387bb146101785780633ccfd60b146101b55780634bb278f3146101e0576100e8565b806308551a53146100ed57806312829e4d1461011857806312fa6feb14610143575b600080fd5b3480156100f957600080fd5b5061010261034c565b60405161010f919061101c565b60405180910390f35b34801561012457600080fd5b5061012d610370565b60405161013a9190611052565b60405180910390f35b34801561014f57600080fd5b50610158610383565b6040516101659190611052565b60405180910390f35b610176610396565b005b34801561018457600080fd5b5061019f600480360381019061019a919061109e565b610615565b6040516101ac91906110e4565b60405180910390f35b3480156101c157600080fd5b506101ca61062d565b6040516101d79190611052565b60405180910390f35b3480156101ec57600080fd5b506101f5610749565b005b34801561020357600080fd5b5061021e6004803603810190610219919061109e565b610858565b60405161022b91906110e4565b60405180910390f35b34801561024057600080fd5b50610249610870565b005b34801561025757600080fd5b50610260610bbd565b60405161026e92919061127b565b60405180910390f35b34801561028357600080fd5b5061028c610d67565b604051610299919061101c565b60405180910390f35b3480156102ae57600080fd5b506102b7610d8d565b6040516102c491906110e4565b60405180910390f35b3480156102d957600080fd5b506102f460048036038101906102ef91906112de565b610d93565b604051610301919061101c565b60405180910390f35b34801561031657600080fd5b5061031f610dd2565b60405161032c91906110e4565b60405180910390f35b34801561034157600080fd5b5061034a610dd8565b005b60008054906101000a900473ffffffffffffffffffffffffffffffffffffffff1681565b600460019054906101000a900460ff1681565b600460009054906101000a900460ff1681565b60015442106103da576040517f08c379a00000000000000000000000000000000000000000000000000000000081526004016103d190611368565b60405180910390fd5b600354341161041e576040517f08c379a0000000000000000000000000000000000000000000000000000000008152600401610415906113d4565b60405180910390fd5b6000600354146104a35760035460056000600260009054906101000a900473ffffffffffffffffffffffffffffffffffffffff1673ffffffffffffffffffffffffffffffffffffffff1673ffffffffffffffffffffffffffffffffffffffff168152602001908152602001600020600082825461049b9190611423565b925050819055505b33600260006101000a81548173ffffffffffffffffffffffffffffffffffffffff021916908373ffffffffffffffffffffffffffffffffffffffff160217905550346003819055506000600660003373ffffffffffffffffffffffffffffffffffffffff1673ffffffffffffffffffffffffffffffffffffffff1681526020019081526020016000205403610596576007339080600181540180825580915050600190039060005260206000200160009091909190916101000a81548173ffffffffffffffffffffffffffffffffffffffff021916908373ffffffffffffffffffffffffffffffffffffffff1602179055505b34600660003373ffffffffffffffffffffffffffffffffffffffff1673ffffffffffffffffffffffffffffffffffffffff168152602001908152602001600020819055507ff4757a49b326036464bec6fe419a4ae38c8a02ce3e68bf0809674f6aab8ad300333460405161060b929190611457565b60405180910390a1565b60056020528060005260406000206000915090505481565b600080600560003373ffffffffffffffffffffffffffffffffffffffff1673ffffffffffffffffffffffffffffffffffffffff168152602001908152602001600020549050600081116106b5576040517f08c379a00000000000000000000000000000000000000000000000000000000081526004016106ac906114cc565b60405180910390fd5b6000600560003373ffffffffffffffffffffffffffffffffffffffff1673ffffffffffffffffffffffffffffffffffffffff168152602001908152602001600020819055503373ffffffffffffffffffffffffffffffffffffffff166108fc829081150290604051600060405180830381858888f19350505050158015610740573d6000803e3d6000fd5b50600191505090565b60015442101561078e576040517f08c379a000000000000000000000000000000000000000000000000000000000815260040161078590611538565b60405180910390fd5b600460009054906101000a900460ff16156107de576040517f08c379a00000000000000000000000000000000000000000000000000000000081526004016107d5906115a4565b60405180910390fd5b6001600460006101000a81548160ff0219169083151502179055507f9ebde9baafbb47e3efec88982b127ac6b7af8df2a1e860b8c86fca98d5ea9ecb600260009054906101000a900473ffffffffffffffffffffffffffffffffffffffff1660035460405161084e929190611457565b60405180910390a1565b60066020528060005260406000206000915090505481565b600460009054906101000a900460ff166108bf576040517f08c379a00000000000000000000000000000000000000000000000000000000081526004016108b690611610565b60405180910390fd5b600260009054906101000a900473ffffffffffffffffffffffffffffffffffffffff1673ffffffffffffffffffffffffffffffffffffffff163373ffffffffffffffffffffffffffffffffffffffff161461094f576040517f08c379a00000000000000000000000000000000000000000000000000000000081526004016109469061167c565b60405180910390fd5b600460019054906101000a900460ff161561099f576040517f08c379a0000000000000000000000000000000000000000000000000000000008152600401610996906116e8565b60405180910390fd5b6000600354116109e4576040517f08c379a00000000000000000000000000000000000000000000000000000000081526004016109db90611754565b60405180910390fd5b600073ffffffffffffffffffffffffffffffffffffffff1660008054906101000a900473ffffffffffffffffffffffffffffffffffffffff1673ffffffffffffffffffffffffffffffffffffffff1603610a73576040517f08c379a0000000000000000000000000000000000000000000000000000000008152600401610a6a906117c0565b60405180910390fd5b6001600460016101000a81548160ff02191690831515021790555060008060009054906101000a900473ffffffffffffffffffffffffffffffffffffffff1673ffffffffffffffffffffffffffffffffffffffff16600354604051610ad790611811565b60006040518083038185875af1925050503d8060008114610b14576040519150601f19603f3d011682016040523d82523d6000602084013e610b19565b606091505b5050905080610b5d576040517f08c379a0000000000000000000000000000000000000000000000000000000008152600401610b5490611872565b60405180910390fd5b7f6ed37d58b33e787ace85d1396bd170e59628aa459524f8d72c4d345cd3fd916b600260009054906101000a900473ffffffffffffffffffffffffffffffffffffffff16600354604051610bb2929190611457565b60405180910390a150565b606080600060078054905067ffffffffffffffff811115610be157610be0611892565b5b604051908082528060200260200182016040528015610c0f5781602001602082028036833780820191505090505b50905060005b600780549050811015610cd2576006600060078381548110610c3a57610c396118c1565b5b9060005260206000200160009054906101000a900473ffffffffffffffffffffffffffffffffffffffff1673ffffffffffffffffffffffffffffffffffffffff1673ffffffffffffffffffffffffffffffffffffffff16815260200190815260200160002054828281518110610cb357610cb26118c1565b5b6020026020010181815250508080610cca906118f0565b915050610c15565b5060078181805480602002602001604051908101604052809291908181526020018280548015610d5757602002820191906000526020600020905b8160009054906101000a900473ffffffffffffffffffffffffffffffffffffffff1673ffffffffffffffffffffffffffffffffffffffff1681526020019060010190808311610d0d575b5050505050915092509250509091565b600260009054906101000a900473ffffffffffffffffffffffffffffffffffffffff1681565b60015481565b60078181548110610da357600080fd5b906000526020600020016000915054906101000a900473ffffffffffffffffffffffffffffffffffffffff1681565b60035481565b600460009054906101000a900460ff16610e27576040517f08c379a0000000000000000000000000000000000000000000000000000000008152600401610e1e90611610565b60405180910390fd5b600460019054906101000a900460ff1615610e77576040517f08c379a0000000000000000000000000000000000000000000000000000000008152600401610e6e906116e8565b60405180910390fd5b60008054906101000a900473ffffffffffffffffffffffffffffffffffffffff1673ffffffffffffffffffffffffffffffffffffffff163373ffffffffffffffffffffffffffffffffffffffff1614610f05576040517f08c379a0000000000000000000000000000000000000000000000000000000008152600401610efc90611984565b60405180910390fd5b600060035490506000600381905550600260009054906101000a900473ffffffffffffffffffffffffffffffffffffffff1673ffffffffffffffffffffffffffffffffffffffff166108fc829081150290604051600060405180830381858888f19350505050158015610f7c573d6000803e3d6000fd5b507fd7dee2702d63ad89917b6a4da9981c90c4d24f8c2bdfd64c604ecae57d8d0651600260009054906101000a900473ffffffffffffffffffffffffffffffffffffffff1682604051610fd0929190611457565b60405180910390a150565b600073ffffffffffffffffffffffffffffffffffffffff82169050919050565b600061100682610fdb565b9050919050565b61101681610ffb565b82525050565b6000602082019050611031600083018461100d565b92915050565b60008115159050919050565b61104c81611037565b82525050565b60006020820190506110676000830184611043565b92915050565b600080fd5b61107b81610ffb565b811461108657600080fd5b50565b60008135905061109881611072565b92915050565b6000602082840312156110b4576110b361106d565b5b60006110c284828501611089565b91505092915050565b6000819050919050565b6110de816110cb565b82525050565b60006020820190506110f960008301846110d5565b92915050565b600081519050919050565b600082825260208201905092915050565b6000819050602082019050919050565b61113481610ffb565b82525050565b6000611146838361112b565b60208301905092915050565b6000602082019050919050565b600061116a826110ff565b611174818561110a565b935061117f8361111b565b8060005b838110156111b0578151611197888261113a565b97506111a283611152565b925050600181019050611183565b5085935050505092915050565b600081519050919050565b600082825260208201905092915050565b6000819050602082019050919050565b6111f2816110cb565b82525050565b600061120483836111e9565b60208301905092915050565b6000602082019050919050565b6000611228826111bd565b61123281856111c8565b935061123d836111d9565b8060005b8381101561126e57815161125588826111f8565b975061126083611210565b925050600181019050611241565b5085935050505092915050565b60006040820190508181036000830152611295818561115f565b905081810360208301526112a9818461121d565b90509392505050565b6112bb816110cb565b81146112c657600080fd5b50565b6000813590506112d8816112b2565b92915050565b6000602082840312156112f4576112f361106d565b5b6000611302848285016112c9565b91505092915050565b600082825260208201905092915050565b7f41756374696f6e20616c726561647920656e6465640000000000000000000000600082015250565b600061135260158361130b565b915061135d8261131c565b602082019050919050565b6000602082019050818103600083015261138181611345565b9050919050565b7f426964206e6f74206869676820656e6f75676800000000000000000000000000600082015250565b60006113be60138361130b565b91506113c982611388565b602082019050919050565b600060208201905081810360008301526113ed816113b1565b9050919050565b7f4e487b7100000000000000000000000000000000000000000000000000000000600052601160045260246000fd5b600061142e826110cb565b9150611439836110cb565b9250828201905080821115611451576114506113f4565b5b92915050565b600060408201905061146c600083018561100d565b61147960208301846110d5565b9392505050565b7f4e6f7468696e6720746f20776974686472617700000000000000000000000000600082015250565b60006114b660138361130b565b91506114c182611480565b602082019050919050565b600060208201905081810360008301526114e5816114a9565b9050919050565b7f41756374696f6e206e6f742079657420656e6465640000000000000000000000600082015250565b600061152260158361130b565b915061152d826114ec565b602082019050919050565b6000602082019050818103600083015261155181611515565b9050919050565b7f41756374696f6e20616c72656164792066696e616c697a656400000000000000600082015250565b600061158e60198361130b565b915061159982611558565b602082019050919050565b600060208201905081810360008301526115bd81611581565b9050919050565b7f41756374696f6e206e6f7420656e646564000000000000000000000000000000600082015250565b60006115fa60118361130b565b9150611605826115c4565b602082019050919050565b60006020820190508181036000830152611629816115ed565b9050919050565b7f4f6e6c792077696e6e65722063616e20636f6e6669726d000000000000000000600082015250565b600061166660178361130b565b915061167182611630565b602082019050919050565b6000602082019050818103600083015261169581611659565b9050919050565b7f416c7265616479207061696420746f2073656c6c657200000000000000000000600082015250565b60006116d260168361130b565b91506116dd8261169c565b602082019050919050565b60006020820190508181036000830152611701816116c5565b9050919050565b7f4e6f2062696420746f2070617900000000000000000000000000000000000000600082015250565b600061173e600d8361130b565b915061174982611708565b602082019050919050565b6000602082019050818103600083015261176d81611731565b9050919050565b7f53656c6c657220696e76616c6964000000000000000000000000000000000000600082015250565b60006117aa600e8361130b565b91506117b582611774565b602082019050919050565b600060208201905081810360008301526117d98161179d565b9050919050565b600081905092915050565b50565b60006117fb6000836117e0565b9150611806826117eb565b600082019050919050565b600061181c826117ee565b9150819050919050565b7f5472616e73666572206661696c65640000000000000000000000000000000000600082015250565b600061185c600f8361130b565b915061186782611826565b602082019050919050565b6000602082019050818103600083015261188b8161184f565b9050919050565b7f4e487b7100000000000000000000000000000000000000000000000000000000600052604160045260246000fd5b7f4e487b7100000000000000000000000000000000000000000000000000000000600052603260045260246000fd5b60006118fb826110cb565b91507fffffffffffffffffffffffffffffffffffffffffffffffffffffffffffffffff820361192d5761192c6113f4565b5b600182019050919050565b7f4f6e6c792073656c6c65722063616e20726566756e6420627579657200000000600082015250565b600061196e601c8361130b565b915061197982611938565b602082019050919050565b6000602082019050818103600083015261199d81611961565b905091905056fea2646970667358221220a71e4ee4e925aef84f33654e15c8899dcc9997ae4919d86fbdc6735ba99d5c0564736f6c63430008140033a2646970667358221220c409a6155243c17a8a9b6ddc65f07eb3ae2d24b3efa4b36282cfcfa24034d27064736f6c63430008140033","opcodes":"PUSH1 0x80 PUSH1 0x40 MSTORE CALLVALUE DUP1 ISZERO PUSH2 0x10 JUMPI PUSH1 0x0 DUP1 REVERT JUMPDEST POP PUSH2 0x23AD DUP1 PUSH2 0x20 PUSH1 0x0 CODECOPY PUSH1 0x0 RETURN INVALID PUSH1 0x80 PUSH1 0x40 MSTORE CALLVALUE DUP1 ISZERO PUSH3 0x11 JUMPI PUSH1 0x0 DUP1 REVERT JUMPDEST POP PUSH1 0x4 CALLDATASIZE LT PUSH3 0x46 JUMPI PUSH1 0x0 CALLDATALOAD PUSH1 0xE0 SHR DUP1 PUSH4 0xAEA5DF16 EQ PUSH3 0x4B JUMPI DUP1 PUSH4 0xB9CB8122 EQ PUSH3 0x6D JUMPI DUP1 PUSH4 0xD7248B1F EQ PUSH3 0x8D JUMPI JUMPDEST PUSH1 0x0 DUP1 REVERT JUMPDEST PUSH3 0x55 PUSH3 0xC3 JUMP JUMPDEST PUSH1 0x40 MLOAD PUSH3 0x64 SWAP2 SWAP1 PUSH3 0x41B JUMP JUMPDEST PUSH1 0x40 MLOAD DUP1 SWAP2 SUB SWAP1 RETURN JUMPDEST PUSH3 0x8B PUSH1 0x4 DUP1 CALLDATASIZE SUB DUP2 ADD SWAP1 PUSH3 0x85 SWAP2 SWAP1 PUSH3 0x4B0 JUMP JUMPDEST PUSH3 0x153 JUMP JUMPDEST STOP JUMPDEST PUSH3 0xAB PUSH1 0x4 DUP1 CALLDATASIZE SUB DUP2 ADD SWAP1 PUSH3 0xA5 SWAP2 SWAP1 PUSH3 0x4F7 JUMP JUMPDEST PUSH3 0x2CB JUMP JUMPDEST PUSH1 0x40 MLOAD PUSH3 0xBA SWAP2 SWAP1 PUSH3 0x53A JUMP JUMPDEST PUSH1 0x40 MLOAD DUP1 SWAP2 SUB SWAP1 RETURN JUMPDEST PUSH1 0x60 PUSH1 0x0 DUP1 SLOAD DUP1 PUSH1 0x20 MUL PUSH1 0x20 ADD PUSH1 0x40 MLOAD SWAP1 DUP2 ADD PUSH1 0x40 MSTORE DUP1 SWAP3 SWAP2 SWAP1 DUP2 DUP2 MSTORE PUSH1 0x20 ADD DUP3 DUP1 SLOAD DUP1 ISZERO PUSH3 0x149 JUMPI PUSH1 0x20 MUL DUP3 ADD SWAP2 SWAP1 PUSH1 0x0 MSTORE PUSH1 0x20 PUSH1 0x0 KECCAK256 SWAP1 JUMPDEST DUP2 PUSH1 0x0 SWAP1 SLOAD SWAP1 PUSH2 0x100 EXP SWAP1 DIV PUSH20 0xFFFFFFFFFFFFFFFFFFFFFFFFFFFFFFFFFFFFFFFF AND PUSH20 0xFFFFFFFFFFFFFFFFFFFFFFFFFFFFFFFFFFFFFFFF AND DUP2 MSTORE PUSH1 0x20 ADD SWAP1 PUSH1 0x1 ADD SWAP1 DUP1 DUP4 GT PUSH3 0xFE JUMPI JUMPDEST POP POP POP POP POP SWAP1 POP SWAP1 JUMP JUMPDEST PUSH1 0x0 PUSH20 0xFFFFFFFFFFFFFFFFFFFFFFFFFFFFFFFFFFFFFFFF AND DUP2 PUSH20 0xFFFFFFFFFFFFFFFFFFFFFFFFFFFFFFFFFFFFFFFF AND SUB PUSH3 0x1C5 JUMPI PUSH1 0x40 MLOAD PUSH32 0x8C379A000000000000000000000000000000000000000000000000000000000 DUP2 MSTORE PUSH1 0x4 ADD PUSH3 0x1BC SWAP1 PUSH3 0x5B8 JUMP JUMPDEST PUSH1 0x40 MLOAD DUP1 SWAP2 SUB SWAP1 REVERT JUMPDEST PUSH1 0x0 DUP3 DUP3 PUSH1 0x40 MLOAD PUSH3 0x1D7 SWAP1 PUSH3 0x30B JUMP JUMPDEST PUSH3 0x1E4 SWAP3 SWAP2 SWAP1 PUSH3 0x5EB JUMP JUMPDEST PUSH1 0x40 MLOAD DUP1 SWAP2 SUB SWAP1 PUSH1 0x0 CREATE DUP1 ISZERO DUP1 ISZERO PUSH3 0x201 JUMPI RETURNDATASIZE PUSH1 0x0 DUP1 RETURNDATACOPY RETURNDATASIZE PUSH1 0x0 REVERT JUMPDEST POP SWAP1 POP PUSH1 0x0 DUP2 SWAP1 DUP1 PUSH1 0x1 DUP2 SLOAD ADD DUP1 DUP3 SSTORE DUP1 SWAP2 POP POP PUSH1 0x1 SWAP1 SUB SWAP1 PUSH1 0x0 MSTORE PUSH1 0x20 PUSH1 0x0 KECCAK256 ADD PUSH1 0x0 SWAP1 SWAP2 SWAP1 SWAP2 SWAP1 SWAP2 PUSH2 0x100 EXP DUP2 SLOAD DUP2 PUSH20 0xFFFFFFFFFFFFFFFFFFFFFFFFFFFFFFFFFFFFFFFF MUL NOT AND SWAP1 DUP4 PUSH20 0xFFFFFFFFFFFFFFFFFFFFFFFFFFFFFFFFFFFFFFFF AND MUL OR SWAP1 SSTORE POP DUP2 PUSH20 0xFFFFFFFFFFFFFFFFFFFFFFFFFFFFFFFFFFFFFFFF AND PUSH32 0x5B41F55EBB37F4CD78F4D7C4093EF8D2954D051278D39993212D8A79F8F2F926 DUP3 DUP6 TIMESTAMP PUSH3 0x2AE SWAP2 SWAP1 PUSH3 0x647 JUMP JUMPDEST PUSH1 0x40 MLOAD PUSH3 0x2BE SWAP3 SWAP2 SWAP1 PUSH3 0x682 JUMP JUMPDEST PUSH1 0x40 MLOAD DUP1 SWAP2 SUB SWAP1 LOG2 POP POP POP JUMP JUMPDEST PUSH1 0x0 DUP2 DUP2 SLOAD DUP2 LT PUSH3 0x2DC JUMPI PUSH1 0x0 DUP1 REVERT JUMPDEST SWAP1 PUSH1 0x0 MSTORE PUSH1 0x20 PUSH1 0x0 KECCAK256 ADD PUSH1 0x0 SWAP2 POP SLOAD SWAP1 PUSH2 0x100 EXP SWAP1 DIV PUSH20 0xFFFFFFFFFFFFFFFFFFFFFFFFFFFFFFFFFFFFFFFF AND DUP2 JUMP JUMPDEST PUSH2 0x1CC8 DUP1 PUSH3 0x6B0 DUP4 CODECOPY ADD SWAP1 JUMP JUMPDEST PUSH1 0x0 DUP2 MLOAD SWAP1 POP SWAP2 SWAP1 POP JUMP JUMPDEST PUSH1 0x0 DUP3 DUP3 MSTORE PUSH1 0x20 DUP3 ADD SWAP1 POP SWAP3 SWAP2 POP POP JUMP JUMPDEST PUSH1 0x0 DUP2 SWAP1 POP PUSH1 0x20 DUP3 ADD SWAP1 POP SWAP2 SWAP1 POP JUMP JUMPDEST PUSH1 0x0 PUSH20 0xFFFFFFFFFFFFFFFFFFFFFFFFFFFFFFFFFFFFFFFF DUP3 AND SWAP1 POP SWAP2 SWAP1 POP JUMP JUMPDEST PUSH1 0x0 PUSH3 0x372 DUP3 PUSH3 0x345 JUMP JUMPDEST SWAP1 POP SWAP2 SWAP1 POP JUMP JUMPDEST PUSH3 0x384 DUP2 PUSH3 0x365 JUMP JUMPDEST DUP3 MSTORE POP POP JUMP JUMPDEST PUSH1 0x0 PUSH3 0x398 DUP4 DUP4 PUSH3 0x379 JUMP JUMPDEST PUSH1 0x20 DUP4 ADD SWAP1 POP SWAP3 SWAP2 POP POP JUMP JUMPDEST PUSH1 0x0 PUSH1 0x20 DUP3 ADD SWAP1 POP SWAP2 SWAP1 POP JUMP JUMPDEST PUSH1 0x0 PUSH3 0x3BE DUP3 PUSH3 0x319 JUMP JUMPDEST PUSH3 0x3CA DUP2 DUP6 PUSH3 0x324 JUMP JUMPDEST SWAP4 POP PUSH3 0x3D7 DUP4 PUSH3 0x335 JUMP JUMPDEST DUP1 PUSH1 0x0 JUMPDEST DUP4 DUP2 LT ISZERO PUSH3 0x40E JUMPI DUP2 MLOAD PUSH3 0x3F2 DUP9 DUP3 PUSH3 0x38A JUMP JUMPDEST SWAP8 POP PUSH3 0x3FF DUP4 PUSH3 0x3A4 JUMP JUMPDEST SWAP3 POP POP PUSH1 0x1 DUP2 ADD SWAP1 POP PUSH3 0x3DB JUMP JUMPDEST POP DUP6 SWAP4 POP POP POP POP SWAP3 SWAP2 POP POP JUMP JUMPDEST PUSH1 0x0 PUSH1 0x20 DUP3 ADD SWAP1 POP DUP2 DUP2 SUB PUSH1 0x0 DUP4 ADD MSTORE PUSH3 0x437 DUP2 DUP5 PUSH3 0x3B1 JUMP JUMPDEST SWAP1 POP SWAP3 SWAP2 POP POP JUMP JUMPDEST PUSH1 0x0 DUP1 REVERT JUMPDEST PUSH1 0x0 DUP2 SWAP1 POP SWAP2 SWAP1 POP JUMP JUMPDEST PUSH3 0x459 DUP2 PUSH3 0x444 JUMP JUMPDEST DUP2 EQ PUSH3 0x465 JUMPI PUSH1 0x0 DUP1 REVERT JUMPDEST POP JUMP JUMPDEST PUSH1 0x0 DUP2 CALLDATALOAD SWAP1 POP PUSH3 0x479 DUP2 PUSH3 0x44E JUMP JUMPDEST SWAP3 SWAP2 POP POP JUMP JUMPDEST PUSH3 0x48A DUP2 PUSH3 0x365 JUMP JUMPDEST DUP2 EQ PUSH3 0x496 JUMPI PUSH1 0x0 DUP1 REVERT JUMPDEST POP JUMP JUMPDEST PUSH1 0x0 DUP2 CALLDATALOAD SWAP1 POP PUSH3 0x4AA DUP2 PUSH3 0x47F JUMP JUMPDEST SWAP3 SWAP2 POP POP JUMP JUMPDEST PUSH1 0x0 DUP1 PUSH1 0x40 DUP4 DUP6 SUB SLT ISZERO PUSH3 0x4CA JUMPI PUSH3 0x4C9 PUSH3 0x43F JUMP JUMPDEST JUMPDEST PUSH1 0x0 PUSH3 0x4DA DUP6 DUP3 DUP7 ADD PUSH3 0x468 JUMP JUMPDEST SWAP3 POP POP PUSH1 0x20 PUSH3 0x4ED DUP6 DUP3 DUP7 ADD PUSH3 0x499 JUMP JUMPDEST SWAP2 POP POP SWAP3 POP SWAP3 SWAP1 POP JUMP JUMPDEST PUSH1 0x0 PUSH1 0x20 DUP3 DUP5 SUB SLT ISZERO PUSH3 0x510 JUMPI PUSH3 0x50F PUSH3 0x43F JUMP JUMPDEST JUMPDEST PUSH1 0x0 PUSH3 0x520 DUP5 DUP3 DUP6 ADD PUSH3 0x468 JUMP JUMPDEST SWAP2 POP POP SWAP3 SWAP2 POP POP JUMP JUMPDEST PUSH3 0x534 DUP2 PUSH3 0x365 JUMP JUMPDEST DUP3 MSTORE POP POP JUMP JUMPDEST PUSH1 0x0 PUSH1 0x20 DUP3 ADD SWAP1 POP PUSH3 0x551 PUSH1 0x0 DUP4 ADD DUP5 PUSH3 0x529 JUMP JUMPDEST SWAP3 SWAP2 POP POP JUMP JUMPDEST PUSH1 0x0 DUP3 DUP3 MSTORE PUSH1 0x20 DUP3 ADD SWAP1 POP SWAP3 SWAP2 POP POP JUMP JUMPDEST PUSH32 0x496E76616C69642073656C6C6572000000000000000000000000000000000000 PUSH1 0x0 DUP3 ADD MSTORE POP JUMP JUMPDEST PUSH1 0x0 PUSH3 0x5A0 PUSH1 0xE DUP4 PUSH3 0x557 JUMP JUMPDEST SWAP2 POP PUSH3 0x5AD DUP3 PUSH3 0x568 JUMP JUMPDEST PUSH1 0x20 DUP3 ADD SWAP1 POP SWAP2 SWAP1 POP JUMP JUMPDEST PUSH1 0x0 PUSH1 0x20 DUP3 ADD SWAP1 POP DUP2 DUP2 SUB PUSH1 0x0 DUP4 ADD MSTORE PUSH3 0x5D3 DUP2 PUSH3 0x591 JUMP JUMPDEST SWAP1 POP SWAP2 SWAP1 POP JUMP JUMPDEST PUSH3 0x5E5 DUP2 PUSH3 0x444 JUMP JUMPDEST DUP3 MSTORE POP POP JUMP JUMPDEST PUSH1 0x0 PUSH1 0x40 DUP3 ADD SWAP1 POP PUSH3 0x602 PUSH1 0x0 DUP4 ADD DUP6 PUSH3 0x5DA JUMP JUMPDEST PUSH3 0x611 PUSH1 0x20 DUP4 ADD DUP5 PUSH3 0x529 JUMP JUMPDEST SWAP4 SWAP3 POP POP POP JUMP JUMPDEST PUSH32 0x4E487B7100000000000000000000000000000000000000000000000000000000 PUSH1 0x0 MSTORE PUSH1 0x11 PUSH1 0x4 MSTORE PUSH1 0x24 PUSH1 0x0 REVERT JUMPDEST PUSH1 0x0 PUSH3 0x654 DUP3 PUSH3 0x444 JUMP JUMPDEST SWAP2 POP PUSH3 0x661 DUP4 PUSH3 0x444 JUMP JUMPDEST SWAP3 POP DUP3 DUP3 ADD SWAP1 POP DUP1 DUP3 GT ISZERO PUSH3 0x67C JUMPI PUSH3 0x67B PUSH3 0x618 JUMP JUMPDEST JUMPDEST SWAP3 SWAP2 POP POP JUMP JUMPDEST PUSH1 0x0 PUSH1 0x40 DUP3 ADD SWAP1 POP PUSH3 0x699 PUSH1 0x0 DUP4 ADD DUP6 PUSH3 0x529 JUMP JUMPDEST PUSH3 0x6A8 PUSH1 0x20 DUP4 ADD DUP5 PUSH3 0x5DA JUMP JUMPDEST SWAP4 SWAP3 POP POP POP JUMP INVALID PUSH1 0x80 PUSH1 0x40 MSTORE CALLVALUE DUP1 ISZERO PUSH3 0x11 JUMPI PUSH1 0x0 DUP1 REVERT JUMPDEST POP PUSH1 0x40 MLOAD PUSH3 0x1CC8 CODESIZE SUB DUP1 PUSH3 0x1CC8 DUP4 CODECOPY DUP2 DUP2 ADD PUSH1 0x40 MSTORE DUP2 ADD SWAP1 PUSH3 0x37 SWAP2 SWAP1 PUSH3 0x1AA JUMP JUMPDEST PUSH1 0x0 PUSH20 0xFFFFFFFFFFFFFFFFFFFFFFFFFFFFFFFFFFFFFFFF AND DUP2 PUSH20 0xFFFFFFFFFFFFFFFFFFFFFFFFFFFFFFFFFFFFFFFF AND SUB PUSH3 0xA9 JUMPI PUSH1 0x40 MLOAD PUSH32 0x8C379A000000000000000000000000000000000000000000000000000000000 DUP2 MSTORE PUSH1 0x4 ADD PUSH3 0xA0 SWAP1 PUSH3 0x252 JUMP JUMPDEST PUSH1 0x40 MLOAD DUP1 SWAP2 SUB SWAP1 REVERT JUMPDEST DUP1 PUSH1 0x0 DUP1 PUSH2 0x100 EXP DUP2 SLOAD DUP2 PUSH20 0xFFFFFFFFFFFFFFFFFFFFFFFFFFFFFFFFFFFFFFFF MUL NOT AND SWAP1 DUP4 PUSH20 0xFFFFFFFFFFFFFFFFFFFFFFFFFFFFFFFFFFFFFFFF AND MUL OR SWAP1 SSTORE POP DUP2 TIMESTAMP PUSH3 0xF7 SWAP2 SWAP1 PUSH3 0x2A3 JUMP JUMPDEST PUSH1 0x1 DUP2 SWAP1 SSTORE POP POP POP PUSH3 0x2DE JUMP JUMPDEST PUSH1 0x0 DUP1 REVERT JUMPDEST PUSH1 0x0 DUP2 SWAP1 POP SWAP2 SWAP1 POP JUMP JUMPDEST PUSH3 0x11F DUP2 PUSH3 0x10A JUMP JUMPDEST DUP2 EQ PUSH3 0x12B JUMPI PUSH1 0x0 DUP1 REVERT JUMPDEST POP JUMP JUMPDEST PUSH1 0x0 DUP2 MLOAD SWAP1 POP PUSH3 0x13F DUP2 PUSH3 0x114 JUMP JUMPDEST SWAP3 SWAP2 POP POP JUMP JUMPDEST PUSH1 0x0 PUSH20 0xFFFFFFFFFFFFFFFFFFFFFFFFFFFFFFFFFFFFFFFF DUP3 AND SWAP1 POP SWAP2 SWAP1 POP JUMP JUMPDEST PUSH1 0x0 PUSH3 0x172 DUP3 PUSH3 0x145 JUMP JUMPDEST SWAP1 POP SWAP2 SWAP1 POP JUMP JUMPDEST PUSH3 0x184 DUP2 PUSH3 0x165 JUMP JUMPDEST DUP2 EQ PUSH3 0x190 JUMPI PUSH1 0x0 DUP1 REVERT JUMPDEST POP JUMP JUMPDEST PUSH1 0x0 DUP2 MLOAD SWAP1 POP PUSH3 0x1A4 DUP2 PUSH3 0x179 JUMP JUMPDEST SWAP3 SWAP2 POP POP JUMP JUMPDEST PUSH1 0x0 DUP1 PUSH1 0x40 DUP4 DUP6 SUB SLT ISZERO PUSH3 0x1C4 JUMPI PUSH3 0x1C3 PUSH3 0x105 JUMP JUMPDEST JUMPDEST PUSH1 0x0 PUSH3 0x1D4 DUP6 DUP3 DUP7 ADD PUSH3 0x12E JUMP JUMPDEST SWAP3 POP POP PUSH1 0x20 PUSH3 0x1E7 DUP6 DUP3 DUP7 ADD PUSH3 0x193 JUMP JUMPDEST SWAP2 POP POP SWAP3 POP SWAP3 SWAP1 POP JUMP JUMPDEST PUSH1 0x0 DUP3 DUP3 MSTORE PUSH1 0x20 DUP3 ADD SWAP1 POP SWAP3 SWAP2 POP POP JUMP JUMPDEST PUSH32 0x496E76616C69642073656C6C6572206164647265737300000000000000000000 PUSH1 0x0 DUP3 ADD MSTORE POP JUMP JUMPDEST PUSH1 0x0 PUSH3 0x23A PUSH1 0x16 DUP4 PUSH3 0x1F1 JUMP JUMPDEST SWAP2 POP PUSH3 0x247 DUP3 PUSH3 0x202 JUMP JUMPDEST PUSH1 0x20 DUP3 ADD SWAP1 POP SWAP2 SWAP1 POP JUMP JUMPDEST PUSH1 0x0 PUSH1 0x20 DUP3 ADD SWAP1 POP DUP2 DUP2 SUB PUSH1 0x0 DUP4 ADD MSTORE PUSH3 0x26D DUP2 PUSH3 0x22B JUMP JUMPDEST SWAP1 POP SWAP2 SWAP1 POP JUMP JUMPDEST PUSH32 0x4E487B7100000000000000000000000000000000000000000000000000000000 PUSH1 0x0 MSTORE PUSH1 0x11 PUSH1 0x4 MSTORE PUSH1 0x24 PUSH1 0x0 REVERT JUMPDEST PUSH1 0x0 PUSH3 0x2B0 DUP3 PUSH3 0x10A JUMP JUMPDEST SWAP2 POP PUSH3 0x2BD DUP4 PUSH3 0x10A JUMP JUMPDEST SWAP3 POP DUP3 DUP3 ADD SWAP1 POP DUP1 DUP3 GT ISZERO PUSH3 0x2D8 JUMPI PUSH3 0x2D7 PUSH3 0x274 JUMP JUMPDEST JUMPDEST SWAP3 SWAP2 POP POP JUMP JUMPDEST PUSH2 0x19DA DUP1 PUSH3 0x2EE PUSH1 0x0 CODECOPY PUSH1 0x0 RETURN INVALID PUSH1 0x80 PUSH1 0x40 MSTORE PUSH1 0x4 CALLDATASIZE LT PUSH2 0xE8 JUMPI PUSH1 0x0 CALLDATALOAD PUSH1 0xE0 SHR DUP1 PUSH4 0x62EA82DB GT PUSH2 0x8A JUMPI DUP1 PUSH4 0xC764CD05 GT PUSH2 0x59 JUMPI DUP1 PUSH4 0xC764CD05 EQ PUSH2 0x2A2 JUMPI DUP1 PUSH4 0xCFF29DFD EQ PUSH2 0x2CD JUMPI DUP1 PUSH4 0xD57BDE79 EQ PUSH2 0x30A JUMPI DUP1 PUSH4 0xE8A61CC8 EQ PUSH2 0x335 JUMPI PUSH2 0xE8 JUMP JUMPDEST DUP1 PUSH4 0x62EA82DB EQ PUSH2 0x1F7 JUMPI DUP1 PUSH4 0x73FAC6F0 EQ PUSH2 0x234 JUMPI DUP1 PUSH4 0x8D0F6DA3 EQ PUSH2 0x24B JUMPI DUP1 PUSH4 0x91F90157 EQ PUSH2 0x277 JUMPI PUSH2 0xE8 JUMP JUMPDEST DUP1 PUSH4 0x1998AEEF GT PUSH2 0xC6 JUMPI DUP1 PUSH4 0x1998AEEF EQ PUSH2 0x16E JUMPI DUP1 PUSH4 0x26B387BB EQ PUSH2 0x178 JUMPI DUP1 PUSH4 0x3CCFD60B EQ PUSH2 0x1B5 JUMPI DUP1 PUSH4 0x4BB278F3 EQ PUSH2 0x1E0 JUMPI PUSH2 0xE8 JUMP JUMPDEST DUP1 PUSH4 0x8551A53 EQ PUSH2 0xED JUMPI DUP1 PUSH4 0x12829E4D EQ PUSH2 0x118 JUMPI DUP1 PUSH4 0x12FA6FEB EQ PUSH2 0x143 JUMPI JUMPDEST PUSH1 0x0 DUP1 REVERT JUMPDEST CALLVALUE DUP1 ISZERO PUSH2 0xF9 JUMPI PUSH1 0x0 DUP1 REVERT JUMPDEST POP PUSH2 0x102 PUSH2 0x34C JUMP JUMPDEST PUSH1 0x40 MLOAD PUSH2 0x10F SWAP2 SWAP1 PUSH2 0x101C JUMP JUMPDEST PUSH1 0x40 MLOAD DUP1 SWAP2 SUB SWAP1 RETURN JUMPDEST CALLVALUE DUP1 ISZERO PUSH2 0x124 JUMPI PUSH1 0x0 DUP1 REVERT JUMPDEST POP PUSH2 0x12D PUSH2 0x370 JUMP JUMPDEST PUSH1 0x40 MLOAD PUSH2 0x13A SWAP2 SWAP1 PUSH2 0x1052 JUMP JUMPDEST PUSH1 0x40 MLOAD DUP1 SWAP2 SUB SWAP1 RETURN JUMPDEST CALLVALUE DUP1 ISZERO PUSH2 0x14F JUMPI PUSH1 0x0 DUP1 REVERT JUMPDEST POP PUSH2 0x158 PUSH2 0x383 JUMP JUMPDEST PUSH1 0x40 MLOAD PUSH2 0x165 SWAP2 SWAP1 PUSH2 0x1052 JUMP JUMPDEST PUSH1 0x40 MLOAD DUP1 SWAP2 SUB SWAP1 RETURN JUMPDEST PUSH2 0x176 PUSH2 0x396 JUMP JUMPDEST STOP JUMPDEST CALLVALUE DUP1 ISZERO PUSH2 0x184 JUMPI PUSH1 0x0 DUP1 REVERT JUMPDEST POP PUSH2 0x19F PUSH1 0x4 DUP1 CALLDATASIZE SUB DUP2 ADD SWAP1 PUSH2 0x19A SWAP2 SWAP1 PUSH2 0x109E JUMP JUMPDEST PUSH2 0x615 JUMP JUMPDEST PUSH1 0x40 MLOAD PUSH2 0x1AC SWAP2 SWAP1 PUSH2 0x10E4 JUMP JUMPDEST PUSH1 0x40 MLOAD DUP1 SWAP2 SUB SWAP1 RETURN JUMPDEST CALLVALUE DUP1 ISZERO PUSH2 0x1C1 JUMPI PUSH1 0x0 DUP1 REVERT JUMPDEST POP PUSH2 0x1CA PUSH2 0x62D JUMP JUMPDEST PUSH1 0x40 MLOAD PUSH2 0x1D7 SWAP2 SWAP1 PUSH2 0x1052 JUMP JUMPDEST PUSH1 0x40 MLOAD DUP1 SWAP2 SUB SWAP1 RETURN JUMPDEST CALLVALUE DUP1 ISZERO PUSH2 0x1EC JUMPI PUSH1 0x0 DUP1 REVERT JUMPDEST POP PUSH2 0x1F5 PUSH2 0x749 JUMP JUMPDEST STOP JUMPDEST CALLVALUE DUP1 ISZERO PUSH2 0x203 JUMPI PUSH1 0x0 DUP1 REVERT JUMPDEST POP PUSH2 0x21E PUSH1 0x4 DUP1 CALLDATASIZE SUB DUP2 ADD SWAP1 PUSH2 0x219 SWAP2 SWAP1 PUSH2 0x109E JUMP JUMPDEST PUSH2 0x858 JUMP JUMPDEST PUSH1 0x40 MLOAD PUSH2 0x22B SWAP2 SWAP1 PUSH2 0x10E4 JUMP JUMPDEST PUSH1 0x40 MLOAD DUP1 SWAP2 SUB SWAP1 RETURN JUMPDEST CALLVALUE DUP1 ISZERO PUSH2 0x240 JUMPI PUSH1 0x0 DUP1 REVERT JUMPDEST POP PUSH2 0x249 PUSH2 0x870 JUMP JUMPDEST STOP JUMPDEST CALLVALUE DUP1 ISZERO PUSH2 0x257 JUMPI PUSH1 0x0 DUP1 REVERT JUMPDEST POP PUSH2 0x260 PUSH2 0xBBD JUMP JUMPDEST PUSH1 0x40 MLOAD PUSH2 0x26E SWAP3 SWAP2 SWAP1 PUSH2 0x127B JUMP JUMPDEST PUSH1 0x40 MLOAD DUP1 SWAP2 SUB SWAP1 RETURN JUMPDEST CALLVALUE DUP1 ISZERO PUSH2 0x283 JUMPI PUSH1 0x0 DUP1 REVERT JUMPDEST POP PUSH2 0x28C PUSH2 0xD67 JUMP JUMPDEST PUSH1 0x40 MLOAD PUSH2 0x299 SWAP2 SWAP1 PUSH2 0x101C JUMP JUMPDEST PUSH1 0x40 MLOAD DUP1 SWAP2 SUB SWAP1 RETURN JUMPDEST CALLVALUE DUP1 ISZERO PUSH2 0x2AE JUMPI PUSH1 0x0 DUP1 REVERT JUMPDEST POP PUSH2 0x2B7 PUSH2 0xD8D JUMP JUMPDEST PUSH1 0x40 MLOAD PUSH2 0x2C4 SWAP2 SWAP1 PUSH2 0x10E4 JUMP JUMPDEST PUSH1 0x40 MLOAD DUP1 SWAP2 SUB SWAP1 RETURN JUMPDEST CALLVALUE DUP1 ISZERO PUSH2 0x2D9 JUMPI PUSH1 0x0 DUP1 REVERT JUMPDEST POP PUSH2 0x2F4 PUSH1 0x4 DUP1 CALLDATASIZE SUB DUP2 ADD SWAP1 PUSH2 0x2EF SWAP2 SWAP1 PUSH2 0x12DE JUMP JUMPDEST PUSH2 0xD93 JUMP JUMPDEST PUSH1 0x40 MLOAD PUSH2 0x301 SWAP2 SWAP1 PUSH2 0x101C JUMP JUMPDEST PUSH1 0x40 MLOAD DUP1 SWAP2 SUB SWAP1 RETURN JUMPDEST CALLVALUE DUP1 ISZERO PUSH2 0x316 JUMPI PUSH1 0x0 DUP1 REVERT JUMPDEST POP PUSH2 0x31F PUSH2 0xDD2 JUMP JUMPDEST PUSH1 0x40 MLOAD PUSH2 0x32C SWAP2 SWAP1 PUSH2 0x10E4 JUMP JUMPDEST PUSH1 0x40 MLOAD DUP1 SWAP2 SUB SWAP1 RETURN JUMPDEST CALLVALUE DUP1 ISZERO PUSH2 0x341 JUMPI PUSH1 0x0 DUP1 REVERT JUMPDEST POP PUSH2 0x34A PUSH2 0xDD8 JUMP JUMPDEST STOP JUMPDEST PUSH1 0x0 DUP1 SLOAD SWAP1 PUSH2 0x100 EXP SWAP1 DIV PUSH20 0xFFFFFFFFFFFFFFFFFFFFFFFFFFFFFFFFFFFFFFFF AND DUP2 JUMP JUMPDEST PUSH1 0x4 PUSH1 0x1 SWAP1 SLOAD SWAP1 PUSH2 0x100 EXP SWAP1 DIV PUSH1 0xFF AND DUP2 JUMP JUMPDEST PUSH1 0x4 PUSH1 0x0 SWAP1 SLOAD SWAP1 PUSH2 0x100 EXP SWAP1 DIV PUSH1 0xFF AND DUP2 JUMP JUMPDEST PUSH1 0x1 SLOAD TIMESTAMP LT PUSH2 0x3DA JUMPI PUSH1 0x40 MLOAD PUSH32 0x8C379A000000000000000000000000000000000000000000000000000000000 DUP2 MSTORE PUSH1 0x4 ADD PUSH2 0x3D1 SWAP1 PUSH2 0x1368 JUMP JUMPDEST PUSH1 0x40 MLOAD DUP1 SWAP2 SUB SWAP1 REVERT JUMPDEST PUSH1 0x3 SLOAD CALLVALUE GT PUSH2 0x41E JUMPI PUSH1 0x40 MLOAD PUSH32 0x8C379A000000000000000000000000000000000000000000000000000000000 DUP2 MSTORE PUSH1 0x4 ADD PUSH2 0x415 SWAP1 PUSH2 0x13D4 JUMP JUMPDEST PUSH1 0x40 MLOAD DUP1 SWAP2 SUB SWAP1 REVERT JUMPDEST PUSH1 0x0 PUSH1 0x3 SLOAD EQ PUSH2 0x4A3 JUMPI PUSH1 0x3 SLOAD PUSH1 0x5 PUSH1 0x0 PUSH1 0x2 PUSH1 0x0 SWAP1 SLOAD SWAP1 PUSH2 0x100 EXP SWAP1 DIV PUSH20 0xFFFFFFFFFFFFFFFFFFFFFFFFFFFFFFFFFFFFFFFF AND PUSH20 0xFFFFFFFFFFFFFFFFFFFFFFFFFFFFFFFFFFFFFFFF AND PUSH20 0xFFFFFFFFFFFFFFFFFFFFFFFFFFFFFFFFFFFFFFFF AND DUP2 MSTORE PUSH1 0x20 ADD SWAP1 DUP2 MSTORE PUSH1 0x20 ADD PUSH1 0x0 KECCAK256 PUSH1 0x0 DUP3 DUP3 SLOAD PUSH2 0x49B SWAP2 SWAP1 PUSH2 0x1423 JUMP JUMPDEST SWAP3 POP POP DUP2 SWAP1 SSTORE POP JUMPDEST CALLER PUSH1 0x2 PUSH1 0x0 PUSH2 0x100 EXP DUP2 SLOAD DUP2 PUSH20 0xFFFFFFFFFFFFFFFFFFFFFFFFFFFFFFFFFFFFFFFF MUL NOT AND SWAP1 DUP4 PUSH20 0xFFFFFFFFFFFFFFFFFFFFFFFFFFFFFFFFFFFFFFFF AND MUL OR SWAP1 SSTORE POP CALLVALUE PUSH1 0x3 DUP2 SWAP1 SSTORE POP PUSH1 0x0 PUSH1 0x6 PUSH1 0x0 CALLER PUSH20 0xFFFFFFFFFFFFFFFFFFFFFFFFFFFFFFFFFFFFFFFF AND PUSH20 0xFFFFFFFFFFFFFFFFFFFFFFFFFFFFFFFFFFFFFFFF AND DUP2 MSTORE PUSH1 0x20 ADD SWAP1 DUP2 MSTORE PUSH1 0x20 ADD PUSH1 0x0 KECCAK256 SLOAD SUB PUSH2 0x596 JUMPI PUSH1 0x7 CALLER SWAP1 DUP1 PUSH1 0x1 DUP2 SLOAD ADD DUP1 DUP3 SSTORE DUP1 SWAP2 POP POP PUSH1 0x1 SWAP1 SUB SWAP1 PUSH1 0x0 MSTORE PUSH1 0x20 PUSH1 0x0 KECCAK256 ADD PUSH1 0x0 SWAP1 SWAP2 SWAP1 SWAP2 SWAP1 SWAP2 PUSH2 0x100 EXP DUP2 SLOAD DUP2 PUSH20 0xFFFFFFFFFFFFFFFFFFFFFFFFFFFFFFFFFFFFFFFF MUL NOT AND SWAP1 DUP4 PUSH20 0xFFFFFFFFFFFFFFFFFFFFFFFFFFFFFFFFFFFFFFFF AND MUL OR SWAP1 SSTORE POP JUMPDEST CALLVALUE PUSH1 0x6 PUSH1 0x0 CALLER PUSH20 0xFFFFFFFFFFFFFFFFFFFFFFFFFFFFFFFFFFFFFFFF AND PUSH20 0xFFFFFFFFFFFFFFFFFFFFFFFFFFFFFFFFFFFFFFFF AND DUP2 MSTORE PUSH1 0x20 ADD SWAP1 DUP2 MSTORE PUSH1 0x20 ADD PUSH1 0x0 KECCAK256 DUP2 SWAP1 SSTORE POP PUSH32 0xF4757A49B326036464BEC6FE419A4AE38C8A02CE3E68BF0809674F6AAB8AD300 CALLER CALLVALUE PUSH1 0x40 MLOAD PUSH2 0x60B SWAP3 SWAP2 SWAP1 PUSH2 0x1457 JUMP JUMPDEST PUSH1 0x40 MLOAD DUP1 SWAP2 SUB SWAP1 LOG1 JUMP JUMPDEST PUSH1 0x5 PUSH1 0x20 MSTORE DUP1 PUSH1 0x0 MSTORE PUSH1 0x40 PUSH1 0x0 KECCAK256 PUSH1 0x0 SWAP2 POP SWAP1 POP SLOAD DUP2 JUMP JUMPDEST PUSH1 0x0 DUP1 PUSH1 0x5 PUSH1 0x0 CALLER PUSH20 0xFFFFFFFFFFFFFFFFFFFFFFFFFFFFFFFFFFFFFFFF AND PUSH20 0xFFFFFFFFFFFFFFFFFFFFFFFFFFFFFFFFFFFFFFFF AND DUP2 MSTORE PUSH1 0x20 ADD SWAP1 DUP2 MSTORE PUSH1 0x20 ADD PUSH1 0x0 KECCAK256 SLOAD SWAP1 POP PUSH1 0x0 DUP2 GT PUSH2 0x6B5 JUMPI PUSH1 0x40 MLOAD PUSH32 0x8C379A000000000000000000000000000000000000000000000000000000000 DUP2 MSTORE PUSH1 0x4 ADD PUSH2 0x6AC SWAP1 PUSH2 0x14CC JUMP JUMPDEST PUSH1 0x40 MLOAD DUP1 SWAP2 SUB SWAP1 REVERT JUMPDEST PUSH1 0x0 PUSH1 0x5 PUSH1 0x0 CALLER PUSH20 0xFFFFFFFFFFFFFFFFFFFFFFFFFFFFFFFFFFFFFFFF AND PUSH20 0xFFFFFFFFFFFFFFFFFFFFFFFFFFFFFFFFFFFFFFFF AND DUP2 MSTORE PUSH1 0x20 ADD SWAP1 DUP2 MSTORE PUSH1 0x20 ADD PUSH1 0x0 KECCAK256 DUP2 SWAP1 SSTORE POP CALLER PUSH20 0xFFFFFFFFFFFFFFFFFFFFFFFFFFFFFFFFFFFFFFFF AND PUSH2 0x8FC DUP3 SWAP1 DUP2 ISZERO MUL SWAP1 PUSH1 0x40 MLOAD PUSH1 0x0 PUSH1 0x40 MLOAD DUP1 DUP4 SUB DUP2 DUP6 DUP9 DUP9 CALL SWAP4 POP POP POP POP ISZERO DUP1 ISZERO PUSH2 0x740 JUMPI RETURNDATASIZE PUSH1 0x0 DUP1 RETURNDATACOPY RETURNDATASIZE PUSH1 0x0 REVERT JUMPDEST POP PUSH1 0x1 SWAP2 POP POP SWAP1 JUMP JUMPDEST PUSH1 0x1 SLOAD TIMESTAMP LT ISZERO PUSH2 0x78E JUMPI PUSH1 0x40 MLOAD PUSH32 0x8C379A000000000000000000000000000000000000000000000000000000000 DUP2 MSTORE PUSH1 0x4 ADD PUSH2 0x785 SWAP1 PUSH2 0x1538 JUMP JUMPDEST PUSH1 0x40 MLOAD DUP1 SWAP2 SUB SWAP1 REVERT JUMPDEST PUSH1 0x4 PUSH1 0x0 SWAP1 SLOAD SWAP1 PUSH2 0x100 EXP SWAP1 DIV PUSH1 0xFF AND ISZERO PUSH2 0x7DE JUMPI PUSH1 0x40 MLOAD PUSH32 0x8C379A000000000000000000000000000000000000000000000000000000000 DUP2 MSTORE PUSH1 0x4 ADD PUSH2 0x7D5 SWAP1 PUSH2 0x15A4 JUMP JUMPDEST PUSH1 0x40 MLOAD DUP1 SWAP2 SUB SWAP1 REVERT JUMPDEST PUSH1 0x1 PUSH1 0x4 PUSH1 0x0 PUSH2 0x100 EXP DUP2 SLOAD DUP2 PUSH1 0xFF MUL NOT AND SWAP1 DUP4 ISZERO ISZERO MUL OR SWAP1 SSTORE POP PUSH32 0x9EBDE9BAAFBB47E3EFEC88982B127AC6B7AF8DF2A1E860B8C86FCA98D5EA9ECB PUSH1 0x2 PUSH1 0x0 SWAP1 SLOAD SWAP1 PUSH2 0x100 EXP SWAP1 DIV PUSH20 0xFFFFFFFFFFFFFFFFFFFFFFFFFFFFFFFFFFFFFFFF AND PUSH1 0x3 SLOAD PUSH1 0x40 MLOAD PUSH2 0x84E SWAP3 SWAP2 SWAP1 PUSH2 0x1457 JUMP JUMPDEST PUSH1 0x40 MLOAD DUP1 SWAP2 SUB SWAP1 LOG1 JUMP JUMPDEST PUSH1 0x6 PUSH1 0x20 MSTORE DUP1 PUSH1 0x0 MSTORE PUSH1 0x40 PUSH1 0x0 KECCAK256 PUSH1 0x0 SWAP2 POP SWAP1 POP SLOAD DUP2 JUMP JUMPDEST PUSH1 0x4 PUSH1 0x0 SWAP1 SLOAD SWAP1 PUSH2 0x100 EXP SWAP1 DIV PUSH1 0xFF AND PUSH2 0x8BF JUMPI PUSH1 0x40 MLOAD PUSH32 0x8C379A000000000000000000000000000000000000000000000000000000000 DUP2 MSTORE PUSH1 0x4 ADD PUSH2 0x8B6 SWAP1 PUSH2 0x1610 JUMP JUMPDEST PUSH1 0x40 MLOAD DUP1 SWAP2 SUB SWAP1 REVERT JUMPDEST PUSH1 0x2 PUSH1 0x0 SWAP1 SLOAD SWAP1 PUSH2 0x100 EXP SWAP1 DIV PUSH20 0xFFFFFFFFFFFFFFFFFFFFFFFFFFFFFFFFFFFFFFFF AND PUSH20 0xFFFFFFFFFFFFFFFFFFFFFFFFFFFFFFFFFFFFFFFF AND CALLER PUSH20 0xFFFFFFFFFFFFFFFFFFFFFFFFFFFFFFFFFFFFFFFF AND EQ PUSH2 0x94F JUMPI PUSH1 0x40 MLOAD PUSH32 0x8C379A000000000000000000000000000000000000000000000000000000000 DUP2 MSTORE PUSH1 0x4 ADD PUSH2 0x946 SWAP1 PUSH2 0x167C JUMP JUMPDEST PUSH1 0x40 MLOAD DUP1 SWAP2 SUB SWAP1 REVERT JUMPDEST PUSH1 0x4 PUSH1 0x1 SWAP1 SLOAD SWAP1 PUSH2 0x100 EXP SWAP1 DIV PUSH1 0xFF AND ISZERO PUSH2 0x99F JUMPI PUSH1 0x40 MLOAD PUSH32 0x8C379A000000000000000000000000000000000000000000000000000000000 DUP2 MSTORE PUSH1 0x4 ADD PUSH2 0x996 SWAP1 PUSH2 0x16E8 JUMP JUMPDEST PUSH1 0x40 MLOAD DUP1 SWAP2 SUB SWAP1 REVERT JUMPDEST PUSH1 0x0 PUSH1 0x3 SLOAD GT PUSH2 0x9E4 JUMPI PUSH1 0x40 MLOAD PUSH32 0x8C379A000000000000000000000000000000000000000000000000000000000 DUP2 MSTORE PUSH1 0x4 ADD PUSH2 0x9DB SWAP1 PUSH2 0x1754 JUMP JUMPDEST PUSH1 0x40 MLOAD DUP1 SWAP2 SUB SWAP1 REVERT JUMPDEST PUSH1 0x0 PUSH20 0xFFFFFFFFFFFFFFFFFFFFFFFFFFFFFFFFFFFFFFFF AND PUSH1 0x0 DUP1 SLOAD SWAP1 PUSH2 0x100 EXP SWAP1 DIV PUSH20 0xFFFFFFFFFFFFFFFFFFFFFFFFFFFFFFFFFFFFFFFF AND PUSH20 0xFFFFFFFFFFFFFFFFFFFFFFFFFFFFFFFFFFFFFFFF AND SUB PUSH2 0xA73 JUMPI PUSH1 0x40 MLOAD PUSH32 0x8C379A000000000000000000000000000000000000000000000000000000000 DUP2 MSTORE PUSH1 0x4 ADD PUSH2 0xA6A SWAP1 PUSH2 0x17C0 JUMP JUMPDEST PUSH1 0x40 MLOAD DUP1 SWAP2 SUB SWAP1 REVERT JUMPDEST PUSH1 0x1 PUSH1 0x4 PUSH1 0x1 PUSH2 0x100 EXP DUP2 SLOAD DUP2 PUSH1 0xFF MUL NOT AND SWAP1 DUP4 ISZERO ISZERO MUL OR SWAP1 SSTORE POP PUSH1 0x0 DUP1 PUSH1 0x0 SWAP1 SLOAD SWAP1 PUSH2 0x100 EXP SWAP1 DIV PUSH20 0xFFFFFFFFFFFFFFFFFFFFFFFFFFFFFFFFFFFFFFFF AND PUSH20 0xFFFFFFFFFFFFFFFFFFFFFFFFFFFFFFFFFFFFFFFF AND PUSH1 0x3 SLOAD PUSH1 0x40 MLOAD PUSH2 0xAD7 SWAP1 PUSH2 0x1811 JUMP JUMPDEST PUSH1 0x0 PUSH1 0x40 MLOAD DUP1 DUP4 SUB DUP2 DUP6 DUP8 GAS CALL SWAP3 POP POP POP RETURNDATASIZE DUP1 PUSH1 0x0 DUP2 EQ PUSH2 0xB14 JUMPI PUSH1 0x40 MLOAD SWAP2 POP PUSH1 0x1F NOT PUSH1 0x3F RETURNDATASIZE ADD AND DUP3 ADD PUSH1 0x40 MSTORE RETURNDATASIZE DUP3 MSTORE RETURNDATASIZE PUSH1 0x0 PUSH1 0x20 DUP5 ADD RETURNDATACOPY PUSH2 0xB19 JUMP JUMPDEST PUSH1 0x60 SWAP2 POP JUMPDEST POP POP SWAP1 POP DUP1 PUSH2 0xB5D JUMPI PUSH1 0x40 MLOAD PUSH32 0x8C379A000000000000000000000000000000000000000000000000000000000 DUP2 MSTORE PUSH1 0x4 ADD PUSH2 0xB54 SWAP1 PUSH2 0x1872 JUMP JUMPDEST PUSH1 0x40 MLOAD DUP1 SWAP2 SUB SWAP1 REVERT JUMPDEST PUSH32 0x6ED37D58B33E787ACE85D1396BD170E59628AA459524F8D72C4D345CD3FD916B PUSH1 0x2 PUSH1 0x0 SWAP1 SLOAD SWAP1 PUSH2 0x100 EXP SWAP1 DIV PUSH20 0xFFFFFFFFFFFFFFFFFFFFFFFFFFFFFFFFFFFFFFFF AND PUSH1 0x3 SLOAD PUSH1 0x40 MLOAD PUSH2 0xBB2 SWAP3 SWAP2 SWAP1 PUSH2 0x1457 JUMP JUMPDEST PUSH1 0x40 MLOAD DUP1 SWAP2 SUB SWAP1 LOG1 POP JUMP JUMPDEST PUSH1 0x60 DUP1 PUSH1 0x0 PUSH1 0x7 DUP1 SLOAD SWAP1 POP PUSH8 0xFFFFFFFFFFFFFFFF DUP2 GT ISZERO PUSH2 0xBE1 JUMPI PUSH2 0xBE0 PUSH2 0x1892 JUMP JUMPDEST JUMPDEST PUSH1 0x40 MLOAD SWAP1 DUP1 DUP3 MSTORE DUP1 PUSH1 0x20 MUL PUSH1 0x20 ADD DUP3 ADD PUSH1 0x40 MSTORE DUP1 ISZERO PUSH2 0xC0F JUMPI DUP2 PUSH1 0x20 ADD PUSH1 0x20 DUP3 MUL DUP1 CALLDATASIZE DUP4 CALLDATACOPY DUP1 DUP3 ADD SWAP2 POP POP SWAP1 POP JUMPDEST POP SWAP1 POP PUSH1 0x0 JUMPDEST PUSH1 0x7 DUP1 SLOAD SWAP1 POP DUP2 LT ISZERO PUSH2 0xCD2 JUMPI PUSH1 0x6 PUSH1 0x0 PUSH1 0x7 DUP4 DUP2 SLOAD DUP2 LT PUSH2 0xC3A JUMPI PUSH2 0xC39 PUSH2 0x18C1 JUMP JUMPDEST JUMPDEST SWAP1 PUSH1 0x0 MSTORE PUSH1 0x20 PUSH1 0x0 KECCAK256 ADD PUSH1 0x0 SWAP1 SLOAD SWAP1 PUSH2 0x100 EXP SWAP1 DIV PUSH20 0xFFFFFFFFFFFFFFFFFFFFFFFFFFFFFFFFFFFFFFFF AND PUSH20 0xFFFFFFFFFFFFFFFFFFFFFFFFFFFFFFFFFFFFFFFF AND PUSH20 0xFFFFFFFFFFFFFFFFFFFFFFFFFFFFFFFFFFFFFFFF AND DUP2 MSTORE PUSH1 0x20 ADD SWAP1 DUP2 MSTORE PUSH1 0x20 ADD PUSH1 0x0 KECCAK256 SLOAD DUP3 DUP3 DUP2 MLOAD DUP2 LT PUSH2 0xCB3 JUMPI PUSH2 0xCB2 PUSH2 0x18C1 JUMP JUMPDEST JUMPDEST PUSH1 0x20 MUL PUSH1 0x20 ADD ADD DUP2 DUP2 MSTORE POP POP DUP1 DUP1 PUSH2 0xCCA SWAP1 PUSH2 0x18F0 JUMP JUMPDEST SWAP2 POP POP PUSH2 0xC15 JUMP JUMPDEST POP PUSH1 0x7 DUP2 DUP2 DUP1 SLOAD DUP1 PUSH1 0x20 MUL PUSH1 0x20 ADD PUSH1 0x40 MLOAD SWAP1 DUP2 ADD PUSH1 0x40 MSTORE DUP1 SWAP3 SWAP2 SWAP1 DUP2 DUP2 MSTORE PUSH1 0x20 ADD DUP3 DUP1 SLOAD DUP1 ISZERO PUSH2 0xD57 JUMPI PUSH1 0x20 MUL DUP3 ADD SWAP2 SWAP1 PUSH1 0x0 MSTORE PUSH1 0x20 PUSH1 0x0 KECCAK256 SWAP1 JUMPDEST DUP2 PUSH1 0x0 SWAP1 SLOAD SWAP1 PUSH2 0x100 EXP SWAP1 DIV PUSH20 0xFFFFFFFFFFFFFFFFFFFFFFFFFFFFFFFFFFFFFFFF AND PUSH20 0xFFFFFFFFFFFFFFFFFFFFFFFFFFFFFFFFFFFFFFFF AND DUP2 MSTORE PUSH1 0x20 ADD SWAP1 PUSH1 0x1 ADD SWAP1 DUP1 DUP4 GT PUSH2 0xD0D JUMPI JUMPDEST POP POP POP POP POP SWAP2 POP SWAP3 POP SWAP3 POP POP SWAP1 SWAP2 JUMP JUMPDEST PUSH1 0x2 PUSH1 0x0 SWAP1 SLOAD SWAP1 PUSH2 0x100 EXP SWAP1 DIV PUSH20 0xFFFFFFFFFFFFFFFFFFFFFFFFFFFFFFFFFFFFFFFF AND DUP2 JUMP JUMPDEST PUSH1 0x1 SLOAD DUP2 JUMP JUMPDEST PUSH1 0x7 DUP2 DUP2 SLOAD DUP2 LT PUSH2 0xDA3 JUMPI PUSH1 0x0 DUP1 REVERT JUMPDEST SWAP1 PUSH1 0x0 MSTORE PUSH1 0x20 PUSH1 0x0 KECCAK256 ADD PUSH1 0x0 SWAP2 POP SLOAD SWAP1 PUSH2 0x100 EXP SWAP1 DIV PUSH20 0xFFFFFFFFFFFFFFFFFFFFFFFFFFFFFFFFFFFFFFFF AND DUP2 JUMP JUMPDEST PUSH1 0x3 SLOAD DUP2 JUMP JUMPDEST PUSH1 0x4 PUSH1 0x0 SWAP1 SLOAD SWAP1 PUSH2 0x100 EXP SWAP1 DIV PUSH1 0xFF AND PUSH2 0xE27 JUMPI PUSH1 0x40 MLOAD PUSH32 0x8C379A000000000000000000000000000000000000000000000000000000000 DUP2 MSTORE PUSH1 0x4 ADD PUSH2 0xE1E SWAP1 PUSH2 0x1610 JUMP JUMPDEST PUSH1 0x40 MLOAD DUP1 SWAP2 SUB SWAP1 REVERT JUMPDEST PUSH1 0x4 PUSH1 0x1 SWAP1 SLOAD SWAP1 PUSH2 0x100 EXP SWAP1 DIV PUSH1 0xFF AND ISZERO PUSH2 0xE77 JUMPI PUSH1 0x40 MLOAD PUSH32 0x8C379A000000000000000000000000000000000000000000000000000000000 DUP2 MSTORE PUSH1 0x4 ADD PUSH2 0xE6E SWAP1 PUSH2 0x16E8 JUMP JUMPDEST PUSH1 0x40 MLOAD DUP1 SWAP2 SUB SWAP1 REVERT JUMPDEST PUSH1 0x0 DUP1 SLOAD SWAP1 PUSH2 0x100 EXP SWAP1 DIV PUSH20 0xFFFFFFFFFFFFFFFFFFFFFFFFFFFFFFFFFFFFFFFF AND PUSH20 0xFFFFFFFFFFFFFFFFFFFFFFFFFFFFFFFFFFFFFFFF AND CALLER PUSH20 0xFFFFFFFFFFFFFFFFFFFFFFFFFFFFFFFFFFFFFFFF AND EQ PUSH2 0xF05 JUMPI PUSH1 0x40 MLOAD PUSH32 0x8C379A000000000000000000000000000000000000000000000000000000000 DUP2 MSTORE PUSH1 0x4 ADD PUSH2 0xEFC SWAP1 PUSH2 0x1984 JUMP JUMPDEST PUSH1 0x40 MLOAD DUP1 SWAP2 SUB SWAP1 REVERT JUMPDEST PUSH1 0x0 PUSH1 0x3 SLOAD SWAP1 POP PUSH1 0x0 PUSH1 0x3 DUP2 SWAP1 SSTORE POP PUSH1 0x2 PUSH1 0x0 SWAP1 SLOAD SWAP1 PUSH2 0x100 EXP SWAP1 DIV PUSH20 0xFFFFFFFFFFFFFFFFFFFFFFFFFFFFFFFFFFFFFFFF AND PUSH20 0xFFFFFFFFFFFFFFFFFFFFFFFFFFFFFFFFFFFFFFFF AND PUSH2 0x8FC DUP3 SWAP1 DUP2 ISZERO MUL SWAP1 PUSH1 0x40 MLOAD PUSH1 0x0 PUSH1 0x40 MLOAD DUP1 DUP4 SUB DUP2 DUP6 DUP9 DUP9 CALL SWAP4 POP POP POP POP ISZERO DUP1 ISZERO PUSH2 0xF7C JUMPI RETURNDATASIZE PUSH1 0x0 DUP1 RETURNDATACOPY RETURNDATASIZE PUSH1 0x0 REVERT JUMPDEST POP PUSH32 0xD7DEE2702D63AD89917B6A4DA9981C90C4D24F8C2BDFD64C604ECAE57D8D0651 PUSH1 0x2 PUSH1 0x0 SWAP1 SLOAD SWAP1 PUSH2 0x100 EXP SWAP1 DIV PUSH20 0xFFFFFFFFFFFFFFFFFFFFFFFFFFFFFFFFFFFFFFFF AND DUP3 PUSH1 0x40 MLOAD PUSH2 0xFD0 SWAP3 SWAP2 SWAP1 PUSH2 0x1457 JUMP JUMPDEST PUSH1 0x40 MLOAD DUP1 SWAP2 SUB SWAP1 LOG1 POP JUMP JUMPDEST PUSH1 0x0 PUSH20 0xFFFFFFFFFFFFFFFFFFFFFFFFFFFFFFFFFFFFFFFF DUP3 AND SWAP1 POP SWAP2 SWAP1 POP JUMP JUMPDEST PUSH1 0x0 PUSH2 0x1006 DUP3 PUSH2 0xFDB JUMP JUMPDEST SWAP1 POP SWAP2 SWAP1 POP JUMP JUMPDEST PUSH2 0x1016 DUP2 PUSH2 0xFFB JUMP JUMPDEST DUP3 MSTORE POP POP JUMP JUMPDEST PUSH1 0x0 PUSH1 0x20 DUP3 ADD SWAP1 POP PUSH2 0x1031 PUSH1 0x0 DUP4 ADD DUP5 PUSH2 0x100D JUMP JUMPDEST SWAP3 SWAP2 POP POP JUMP JUMPDEST PUSH1 0x0 DUP2 ISZERO ISZERO SWAP1 POP SWAP2 SWAP1 POP JUMP JUMPDEST PUSH2 0x104C DUP2 PUSH2 0x1037 JUMP JUMPDEST DUP3 MSTORE POP POP JUMP JUMPDEST PUSH1 0x0 PUSH1 0x20 DUP3 ADD SWAP1 POP PUSH2 0x1067 PUSH1 0x0 DUP4 ADD DUP5 PUSH2 0x1043 JUMP JUMPDEST SWAP3 SWAP2 POP POP JUMP JUMPDEST PUSH1 0x0 DUP1 REVERT JUMPDEST PUSH2 0x107B DUP2 PUSH2 0xFFB JUMP JUMPDEST DUP2 EQ PUSH2 0x1086 JUMPI PUSH1 0x0 DUP1 REVERT JUMPDEST POP JUMP JUMPDEST PUSH1 0x0 DUP2 CALLDATALOAD SWAP1 POP PUSH2 0x1098 DUP2 PUSH2 0x1072 JUMP JUMPDEST SWAP3 SWAP2 POP POP JUMP JUMPDEST PUSH1 0x0 PUSH1 0x20 DUP3 DUP5 SUB SLT ISZERO PUSH2 0x10B4 JUMPI PUSH2 0x10B3 PUSH2 0x106D JUMP JUMPDEST JUMPDEST PUSH1 0x0 PUSH2 0x10C2 DUP5 DUP3 DUP6 ADD PUSH2 0x1089 JUMP JUMPDEST SWAP2 POP POP SWAP3 SWAP2 POP POP JUMP JUMPDEST PUSH1 0x0 DUP2 SWAP1 POP SWAP2 SWAP1 POP JUMP JUMPDEST PUSH2 0x10DE DUP2 PUSH2 0x10CB JUMP JUMPDEST DUP3 MSTORE POP POP JUMP JUMPDEST PUSH1 0x0 PUSH1 0x20 DUP3 ADD SWAP1 POP PUSH2 0x10F9 PUSH1 0x0 DUP4 ADD DUP5 PUSH2 0x10D5 JUMP JUMPDEST SWAP3 SWAP2 POP POP JUMP JUMPDEST PUSH1 0x0 DUP2 MLOAD SWAP1 POP SWAP2 SWAP1 POP JUMP JUMPDEST PUSH1 0x0 DUP3 DUP3 MSTORE PUSH1 0x20 DUP3 ADD SWAP1 POP SWAP3 SWAP2 POP POP JUMP JUMPDEST PUSH1 0x0 DUP2 SWAP1 POP PUSH1 0x20 DUP3 ADD SWAP1 POP SWAP2 SWAP1 POP JUMP JUMPDEST PUSH2 0x1134 DUP2 PUSH2 0xFFB JUMP JUMPDEST DUP3 MSTORE POP POP JUMP JUMPDEST PUSH1 0x0 PUSH2 0x1146 DUP4 DUP4 PUSH2 0x112B JUMP JUMPDEST PUSH1 0x20 DUP4 ADD SWAP1 POP SWAP3 SWAP2 POP POP JUMP JUMPDEST PUSH1 0x0 PUSH1 0x20 DUP3 ADD SWAP1 POP SWAP2 SWAP1 POP JUMP JUMPDEST PUSH1 0x0 PUSH2 0x116A DUP3 PUSH2 0x10FF JUMP JUMPDEST PUSH2 0x1174 DUP2 DUP6 PUSH2 0x110A JUMP JUMPDEST SWAP4 POP PUSH2 0x117F DUP4 PUSH2 0x111B JUMP JUMPDEST DUP1 PUSH1 0x0 JUMPDEST DUP4 DUP2 LT ISZERO PUSH2 0x11B0 JUMPI DUP2 MLOAD PUSH2 0x1197 DUP9 DUP3 PUSH2 0x113A JUMP JUMPDEST SWAP8 POP PUSH2 0x11A2 DUP4 PUSH2 0x1152 JUMP JUMPDEST SWAP3 POP POP PUSH1 0x1 DUP2 ADD SWAP1 POP PUSH2 0x1183 JUMP JUMPDEST POP DUP6 SWAP4 POP POP POP POP SWAP3 SWAP2 POP POP JUMP JUMPDEST PUSH1 0x0 DUP2 MLOAD SWAP1 POP SWAP2 SWAP1 POP JUMP JUMPDEST PUSH1 0x0 DUP3 DUP3 MSTORE PUSH1 0x20 DUP3 ADD SWAP1 POP SWAP3 SWAP2 POP POP JUMP JUMPDEST PUSH1 0x0 DUP2 SWAP1 POP PUSH1 0x20 DUP3 ADD SWAP1 POP SWAP2 SWAP1 POP JUMP JUMPDEST PUSH2 0x11F2 DUP2 PUSH2 0x10CB JUMP JUMPDEST DUP3 MSTORE POP POP JUMP JUMPDEST PUSH1 0x0 PUSH2 0x1204 DUP4 DUP4 PUSH2 0x11E9 JUMP JUMPDEST PUSH1 0x20 DUP4 ADD SWAP1 POP SWAP3 SWAP2 POP POP JUMP JUMPDEST PUSH1 0x0 PUSH1 0x20 DUP3 ADD SWAP1 POP SWAP2 SWAP1 POP JUMP JUMPDEST PUSH1 0x0 PUSH2 0x1228 DUP3 PUSH2 0x11BD JUMP JUMPDEST PUSH2 0x1232 DUP2 DUP6 PUSH2 0x11C8 JUMP JUMPDEST SWAP4 POP PUSH2 0x123D DUP4 PUSH2 0x11D9 JUMP JUMPDEST DUP1 PUSH1 0x0 JUMPDEST DUP4 DUP2 LT ISZERO PUSH2 0x126E JUMPI DUP2 MLOAD PUSH2 0x1255 DUP9 DUP3 PUSH2 0x11F8 JUMP JUMPDEST SWAP8 POP PUSH2 0x1260 DUP4 PUSH2 0x1210 JUMP JUMPDEST SWAP3 POP POP PUSH1 0x1 DUP2 ADD SWAP1 POP PUSH2 0x1241 JUMP JUMPDEST POP DUP6 SWAP4 POP POP POP POP SWAP3 SWAP2 POP POP JUMP JUMPDEST PUSH1 0x0 PUSH1 0x40 DUP3 ADD SWAP1 POP DUP2 DUP2 SUB PUSH1 0x0 DUP4 ADD MSTORE PUSH2 0x1295 DUP2 DUP6 PUSH2 0x115F JUMP JUMPDEST SWAP1 POP DUP2 DUP2 SUB PUSH1 0x20 DUP4 ADD MSTORE PUSH2 0x12A9 DUP2 DUP5 PUSH2 0x121D JUMP JUMPDEST SWAP1 POP SWAP4 SWAP3 POP POP POP JUMP JUMPDEST PUSH2 0x12BB DUP2 PUSH2 0x10CB JUMP JUMPDEST DUP2 EQ PUSH2 0x12C6 JUMPI PUSH1 0x0 DUP1 REVERT JUMPDEST POP JUMP JUMPDEST PUSH1 0x0 DUP2 CALLDATALOAD SWAP1 POP PUSH2 0x12D8 DUP2 PUSH2 0x12B2 JUMP JUMPDEST SWAP3 SWAP2 POP POP JUMP JUMPDEST PUSH1 0x0 PUSH1 0x20 DUP3 DUP5 SUB SLT ISZERO PUSH2 0x12F4 JUMPI PUSH2 0x12F3 PUSH2 0x106D JUMP JUMPDEST JUMPDEST PUSH1 0x0 PUSH2 0x1302 DUP5 DUP3 DUP6 ADD PUSH2 0x12C9 JUMP JUMPDEST SWAP2 POP POP SWAP3 SWAP2 POP POP JUMP JUMPDEST PUSH1 0x0 DUP3 DUP3 MSTORE PUSH1 0x20 DUP3 ADD SWAP1 POP SWAP3 SWAP2 POP POP JUMP JUMPDEST PUSH32 0x41756374696F6E20616C726561647920656E6465640000000000000000000000 PUSH1 0x0 DUP3 ADD MSTORE POP JUMP JUMPDEST PUSH1 0x0 PUSH2 0x1352 PUSH1 0x15 DUP4 PUSH2 0x130B JUMP JUMPDEST SWAP2 POP PUSH2 0x135D DUP3 PUSH2 0x131C JUMP JUMPDEST PUSH1 0x20 DUP3 ADD SWAP1 POP SWAP2 SWAP1 POP JUMP JUMPDEST PUSH1 0x0 PUSH1 0x20 DUP3 ADD SWAP1 POP DUP2 DUP2 SUB PUSH1 0x0 DUP4 ADD MSTORE PUSH2 0x1381 DUP2 PUSH2 0x1345 JUMP JUMPDEST SWAP1 POP SWAP2 SWAP1 POP JUMP JUMPDEST PUSH32 0x426964206E6F74206869676820656E6F75676800000000000000000000000000 PUSH1 0x0 DUP3 ADD MSTORE POP JUMP JUMPDEST PUSH1 0x0 PUSH2 0x13BE PUSH1 0x13 DUP4 PUSH2 0x130B JUMP JUMPDEST SWAP2 POP PUSH2 0x13C9 DUP3 PUSH2 0x1388 JUMP JUMPDEST PUSH1 0x20 DUP3 ADD SWAP1 POP SWAP2 SWAP1 POP JUMP JUMPDEST PUSH1 0x0 PUSH1 0x20 DUP3 ADD SWAP1 POP DUP2 DUP2 SUB PUSH1 0x0 DUP4 ADD MSTORE PUSH2 0x13ED DUP2 PUSH2 0x13B1 JUMP JUMPDEST SWAP1 POP SWAP2 SWAP1 POP JUMP JUMPDEST PUSH32 0x4E487B7100000000000000000000000000000000000000000000000000000000 PUSH1 0x0 MSTORE PUSH1 0x11 PUSH1 0x4 MSTORE PUSH1 0x24 PUSH1 0x0 REVERT JUMPDEST PUSH1 0x0 PUSH2 0x142E DUP3 PUSH2 0x10CB JUMP JUMPDEST SWAP2 POP PUSH2 0x1439 DUP4 PUSH2 0x10CB JUMP JUMPDEST SWAP3 POP DUP3 DUP3 ADD SWAP1 POP DUP1 DUP3 GT ISZERO PUSH2 0x1451 JUMPI PUSH2 0x1450 PUSH2 0x13F4 JUMP JUMPDEST JUMPDEST SWAP3 SWAP2 POP POP JUMP JUMPDEST PUSH1 0x0 PUSH1 0x40 DUP3 ADD SWAP1 POP PUSH2 0x146C PUSH1 0x0 DUP4 ADD DUP6 PUSH2 0x100D JUMP JUMPDEST PUSH2 0x1479 PUSH1 0x20 DUP4 ADD DUP5 PUSH2 0x10D5 JUMP JUMPDEST SWAP4 SWAP3 POP POP POP JUMP JUMPDEST PUSH32 0x4E6F7468696E6720746F20776974686472617700000000000000000000000000 PUSH1 0x0 DUP3 ADD MSTORE POP JUMP JUMPDEST PUSH1 0x0 PUSH2 0x14B6 PUSH1 0x13 DUP4 PUSH2 0x130B JUMP JUMPDEST SWAP2 POP PUSH2 0x14C1 DUP3 PUSH2 0x1480 JUMP JUMPDEST PUSH1 0x20 DUP3 ADD SWAP1 POP SWAP2 SWAP1 POP JUMP JUMPDEST PUSH1 0x0 PUSH1 0x20 DUP3 ADD SWAP1 POP DUP2 DUP2 SUB PUSH1 0x0 DUP4 ADD MSTORE PUSH2 0x14E5 DUP2 PUSH2 0x14A9 JUMP JUMPDEST SWAP1 POP SWAP2 SWAP1 POP JUMP JUMPDEST PUSH32 0x41756374696F6E206E6F742079657420656E6465640000000000000000000000 PUSH1 0x0 DUP3 ADD MSTORE POP JUMP JUMPDEST PUSH1 0x0 PUSH2 0x1522 PUSH1 0x15 DUP4 PUSH2 0x130B JUMP JUMPDEST SWAP2 POP PUSH2 0x152D DUP3 PUSH2 0x14EC JUMP JUMPDEST PUSH1 0x20 DUP3 ADD SWAP1 POP SWAP2 SWAP1 POP JUMP JUMPDEST PUSH1 0x0 PUSH1 0x20 DUP3 ADD SWAP1 POP DUP2 DUP2 SUB PUSH1 0x0 DUP4 ADD MSTORE PUSH2 0x1551 DUP2 PUSH2 0x1515 JUMP JUMPDEST SWAP1 POP SWAP2 SWAP1 POP JUMP JUMPDEST PUSH32 0x41756374696F6E20616C72656164792066696E616C697A656400000000000000 PUSH1 0x0 DUP3 ADD MSTORE POP JUMP JUMPDEST PUSH1 0x0 PUSH2 0x158E PUSH1 0x19 DUP4 PUSH2 0x130B JUMP JUMPDEST SWAP2 POP PUSH2 0x1599 DUP3 PUSH2 0x1558 JUMP JUMPDEST PUSH1 0x20 DUP3 ADD SWAP1 POP SWAP2 SWAP1 POP JUMP JUMPDEST PUSH1 0x0 PUSH1 0x20 DUP3 ADD SWAP1 POP DUP2 DUP2 SUB PUSH1 0x0 DUP4 ADD MSTORE PUSH2 0x15BD DUP2 PUSH2 0x1581 JUMP JUMPDEST SWAP1 POP SWAP2 SWAP1 POP JUMP JUMPDEST PUSH32 0x41756374696F6E206E6F7420656E646564000000000000000000000000000000 PUSH1 0x0 DUP3 ADD MSTORE POP JUMP JUMPDEST PUSH1 0x0 PUSH2 0x15FA PUSH1 0x11 DUP4 PUSH2 0x130B JUMP JUMPDEST SWAP2 POP PUSH2 0x1605 DUP3 PUSH2 0x15C4 JUMP JUMPDEST PUSH1 0x20 DUP3 ADD SWAP1 POP SWAP2 SWAP1 POP JUMP JUMPDEST PUSH1 0x0 PUSH1 0x20 DUP3 ADD SWAP1 POP DUP2 DUP2 SUB PUSH1 0x0 DUP4 ADD MSTORE PUSH2 0x1629 DUP2 PUSH2 0x15ED JUMP JUMPDEST SWAP1 POP SWAP2 SWAP1 POP JUMP JUMPDEST PUSH32 0x4F6E6C792077696E6E65722063616E20636F6E6669726D000000000000000000 PUSH1 0x0 DUP3 ADD MSTORE POP JUMP JUMPDEST PUSH1 0x0 PUSH2 0x1666 PUSH1 0x17 DUP4 PUSH2 0x130B JUMP JUMPDEST SWAP2 POP PUSH2 0x1671 DUP3 PUSH2 0x1630 JUMP JUMPDEST PUSH1 0x20 DUP3 ADD SWAP1 POP SWAP2 SWAP1 POP JUMP JUMPDEST PUSH1 0x0 PUSH1 0x20 DUP3 ADD SWAP1 POP DUP2 DUP2 SUB PUSH1 0x0 DUP4 ADD MSTORE PUSH2 0x1695 DUP2 PUSH2 0x1659 JUMP JUMPDEST SWAP1 POP SWAP2 SWAP1 POP JUMP JUMPDEST PUSH32 0x416C7265616479207061696420746F2073656C6C657200000000000000000000 PUSH1 0x0 DUP3 ADD MSTORE POP JUMP JUMPDEST PUSH1 0x0 PUSH2 0x16D2 PUSH1 0x16 DUP4 PUSH2 0x130B JUMP JUMPDEST SWAP2 POP PUSH2 0x16DD DUP3 PUSH2 0x169C JUMP JUMPDEST PUSH1 0x20 DUP3 ADD SWAP1 POP SWAP2 SWAP1 POP JUMP JUMPDEST PUSH1 0x0 PUSH1 0x20 DUP3 ADD SWAP1 POP DUP2 DUP2 SUB PUSH1 0x0 DUP4 ADD MSTORE PUSH2 0x1701 DUP2 PUSH2 0x16C5 JUMP JUMPDEST SWAP1 POP SWAP2 SWAP1 POP JUMP JUMPDEST PUSH32 0x4E6F2062696420746F2070617900000000000000000000000000000000000000 PUSH1 0x0 DUP3 ADD MSTORE POP JUMP JUMPDEST PUSH1 0x0 PUSH2 0x173E PUSH1 0xD DUP4 PUSH2 0x130B JUMP JUMPDEST SWAP2 POP PUSH2 0x1749 DUP3 PUSH2 0x1708 JUMP JUMPDEST PUSH1 0x20 DUP3 ADD SWAP1 POP SWAP2 SWAP1 POP JUMP JUMPDEST PUSH1 0x0 PUSH1 0x20 DUP3 ADD SWAP1 POP DUP2 DUP2 SUB PUSH1 0x0 DUP4 ADD MSTORE PUSH2 0x176D DUP2 PUSH2 0x1731 JUMP JUMPDEST SWAP1 POP SWAP2 SWAP1 POP JUMP JUMPDEST PUSH32 0x53656C6C657220696E76616C6964000000000000000000000000000000000000 PUSH1 0x0 DUP3 ADD MSTORE POP JUMP JUMPDEST PUSH1 0x0 PUSH2 0x17AA PUSH1 0xE DUP4 PUSH2 0x130B JUMP JUMPDEST SWAP2 POP PUSH2 0x17B5 DUP3 PUSH2 0x1774 JUMP JUMPDEST PUSH1 0x20 DUP3 ADD SWAP1 POP SWAP2 SWAP1 POP JUMP JUMPDEST PUSH1 0x0 PUSH1 0x20 DUP3 ADD SWAP1 POP DUP2 DUP2 SUB PUSH1 0x0 DUP4 ADD MSTORE PUSH2 0x17D9 DUP2 PUSH2 0x179D JUMP JUMPDEST SWAP1 POP SWAP2 SWAP1 POP JUMP JUMPDEST PUSH1 0x0 DUP2 SWAP1 POP SWAP3 SWAP2 POP POP JUMP JUMPDEST POP JUMP JUMPDEST PUSH1 0x0 PUSH2 0x17FB PUSH1 0x0 DUP4 PUSH2 0x17E0 JUMP JUMPDEST SWAP2 POP PUSH2 0x1806 DUP3 PUSH2 0x17EB JUMP JUMPDEST PUSH1 0x0 DUP3 ADD SWAP1 POP SWAP2 SWAP1 POP JUMP JUMPDEST PUSH1 0x0 PUSH2 0x181C DUP3 PUSH2 0x17EE JUMP JUMPDEST SWAP2 POP DUP2 SWAP1 POP SWAP2 SWAP1 POP JUMP JUMPDEST PUSH32 0x5472616E73666572206661696C65640000000000000000000000000000000000 PUSH1 0x0 DUP3 ADD MSTORE POP JUMP JUMPDEST PUSH1 0x0 PUSH2 0x185C PUSH1 0xF DUP4 PUSH2 0x130B JUMP JUMPDEST SWAP2 POP PUSH2 0x1867 DUP3 PUSH2 0x1826 JUMP JUMPDEST PUSH1 0x20 DUP3 ADD SWAP1 POP SWAP2 SWAP1 POP JUMP JUMPDEST PUSH1 0x0 PUSH1 0x20 DUP3 ADD SWAP1 POP DUP2 DUP2 SUB PUSH1 0x0 DUP4 ADD MSTORE PUSH2 0x188B DUP2 PUSH2 0x184F JUMP JUMPDEST SWAP1 POP SWAP2 SWAP1 POP JUMP JUMPDEST PUSH32 0x4E487B7100000000000000000000000000000000000000000000000000000000 PUSH1 0x0 MSTORE PUSH1 0x41 PUSH1 0x4 MSTORE PUSH1 0x24 PUSH1 0x0 REVERT JUMPDEST PUSH32 0x4E487B7100000000000000000000000000000000000000000000000000000000 PUSH1 0x0 MSTORE PUSH1 0x32 PUSH1 0x4 MSTORE PUSH1 0x24 PUSH1 0x0 REVERT JUMPDEST PUSH1 0x0 PUSH2 0x18FB DUP3 PUSH2 0x10CB JUMP JUMPDEST SWAP2 POP PUSH32 0xFFFFFFFFFFFFFFFFFFFFFFFFFFFFFFFFFFFFFFFFFFFFFFFFFFFFFFFFFFFFFFFF DUP3 SUB PUSH2 0x192D JUMPI PUSH2 0x192C PUSH2 0x13F4 JUMP JUMPDEST JUMPDEST PUSH1 0x1 DUP3 ADD SWAP1 POP SWAP2 SWAP1 POP JUMP JUMPDEST PUSH32 0x4F6E6C792073656C6C65722063616E20726566756E6420627579657200000000 PUSH1 0x0 DUP3 ADD MSTORE POP JUMP JUMPDEST PUSH1 0x0 PUSH2 0x196E PUSH1 0x1C DUP4 PUSH2 0x130B JUMP JUMPDEST SWAP2 POP PUSH2 0x1979 DUP3 PUSH2 0x1938 JUMP JUMPDEST PUSH1 0x20 DUP3 ADD SWAP1 POP SWAP2 SWAP1 POP JUMP JUMPDEST PUSH1 0x0 PUSH1 0x20 DUP3 ADD SWAP1 POP DUP2 DUP2 SUB PUSH1 0x0 DUP4 ADD MSTORE PUSH2 0x199D DUP2 PUSH2 0x1961 JUMP JUMPDEST SWAP1 POP SWAP2 SWAP1 POP JUMP INVALID LOG2 PUSH5 0x6970667358 0x22 SLT KECCAK256 0xA7 0x1E 0x4E 0xE4 0xE9 0x25 0xAE 0xF8 0x4F CALLER PUSH6 0x4E15C8899DCC SWAP10 SWAP8 0xAE 0x49 NOT 0xD8 PUSH16 0xBDC6735BA99D5C0564736F6C63430008 EQ STOP CALLER LOG2 PUSH5 0x6970667358 0x22 SLT KECCAK256 0xC4 MULMOD 0xA6 ISZERO MSTORE NUMBER 0xC1 PUSH27 0x8A9B6DDC65F07EB3AE2D24B3EFA4B36282CFCFA24034D27064736F PUSH13 0x63430008140033000000000000 "},"methodIdentifiers":{"allActions(uint256)":"d7248b1f","createAction(uint256,address)":"b9cb8122","getAllActions()":"aea5df16"}}}}}