{"contracts/Action.sol":{"Action":{"abi":[{"inputs":[{"internalType":"uint256","name":"_biddingTime","type":"uint256"},{"internalType":"address","name":"_seller","type":"address"},{"internalType":"uint256","name":"_startingPrice","type":"uint256"}],"stateMutability":"payable","type":"constructor"},{"anonymous":false,"inputs":[{"indexed":false,"internalType":"address","name":"winner","type":"address"},{"indexed":false,"internalType":"uint256","name":"finalPrice","type":"uint256"}],"name":"AuctionEnded","type":"event"},{"anonymous":false,"inputs":[{"indexed":true,"internalType":"address","name":"seller","type":"address"},{"indexed":false,"internalType":"uint256","name":"amount","type":"uint256"}],"name":"AutoReleasedToSeller","type":"event"},{"anonymous":false,"inputs":[{"indexed":true,"internalType":"address","name":"bidder","type":"address"},{"indexed":false,"internalType":"uint256","name":"amount","type":"uint256"}],"name":"BidPlaced","type":"event"},{"anonymous":false,"inputs":[{"indexed":true,"internalType":"address","name":"buyer","type":"address"},{"indexed":false,"internalType":"uint256","name":"amountReceivedBySeller","type":"uint256"}],"name":"BuyerConfirmed","type":"event"},{"anonymous":false,"inputs":[{"indexed":true,"internalType":"address","name":"buyer","type":"address"},{"indexed":false,"internalType":"uint256","name":"amount","type":"uint256"}],"name":"BuyerPaid","type":"event"},{"anonymous":false,"inputs":[{"indexed":true,"internalType":"address","name":"bidder","type":"address"},{"indexed":false,"internalType":"uint256","name":"amount","type":"uint256"}],"name":"DepositWithdrawn","type":"event"},{"anonymous":false,"inputs":[{"indexed":true,"internalType":"address","name":"seller","type":"address"},{"indexed":false,"internalType":"uint256","name":"penaltyToBuyer","type":"uint256"},{"indexed":false,"internalType":"uint256","name":"burned","type":"uint256"}],"name":"SellerPenalized","type":"event"},{"anonymous":false,"inputs":[{"indexed":true,"internalType":"address","name":"seller","type":"address"}],"name":"SellerShipped","type":"event"},{"anonymous":false,"inputs":[{"indexed":true,"internalType":"address","name":"winner","type":"address"},{"indexed":true,"internalType":"address","name":"seller","type":"address"},{"indexed":false,"internalType":"uint256","name":"compensationToSeller","type":"uint256"},{"indexed":false,"internalType":"uint256","name":"sellerDepositRefunded","type":"uint256"}],"name":"WinnerPenalized100Percent","type":"event"},{"inputs":[],"name":"BUYER_DEPOSIT_RATE","outputs":[{"internalType":"uint256","name":"","type":"uint256"}],"stateMutability":"view","type":"function"},{"inputs":[],"name":"CONFIRM_WINDOW","outputs":[{"internalType":"uint256","name":"","type":"uint256"}],"stateMutability":"view","type":"function"},{"inputs":[],"name":"DELIVERY_WINDOW","outputs":[{"internalType":"uint256","name":"","type":"uint256"}],"stateMutability":"view","type":"function"},{"inputs":[],"name":"PAYMENT_WINDOW","outputs":[{"internalType":"uint256","name":"","type":"uint256"}],"stateMutability":"view","type":"function"},{"inputs":[],"name":"SELLER_DEPOSIT_RATE","outputs":[{"internalType":"uint256","name":"","type":"uint256"}],"stateMutability":"view","type":"function"},{"inputs":[],"name":"actionEndTime","outputs":[{"internalType":"uint256","name":"","type":"uint256"}],"stateMutability":"view","type":"function"},{"inputs":[],"name":"autoRefundLosers","outputs":[],"stateMutability":"nonpayable","type":"function"},{"inputs":[{"internalType":"uint256","name":"","type":"uint256"}],"name":"bidders","outputs":[{"internalType":"address","name":"","type":"address"}],"stateMutability":"view","type":"function"},{"inputs":[{"internalType":"address","name":"","type":"address"}],"name":"bids","outputs":[{"internalType":"uint256","name":"amount","type":"uint256"},{"internalType":"uint256","name":"deposit","type":"uint256"},{"internalType":"bool","name":"refunded","type":"bool"}],"stateMutability":"view","type":"function"},{"inputs":[],"name":"buyerConfirmed","outputs":[{"internalType":"bool","name":"","type":"bool"}],"stateMutability":"view","type":"function"},{"inputs":[],"name":"buyerPaid","outputs":[{"internalType":"bool","name":"","type":"bool"}],"stateMutability":"view","type":"function"},{"inputs":[],"name":"buyerPaidAt","outputs":[{"internalType":"uint256","name":"","type":"uint256"}],"stateMutability":"view","type":"function"},{"inputs":[],"name":"confirmReceived","outputs":[],"stateMutability":"nonpayable","type":"function"},{"inputs":[],"name":"confirmShipped","outputs":[],"stateMutability":"nonpayable","type":"function"},{"inputs":[],"name":"ended","outputs":[{"internalType":"bool","name":"","type":"bool"}],"stateMutability":"view","type":"function"},{"inputs":[],"name":"finalize","outputs":[],"stateMutability":"nonpayable","type":"function"},{"inputs":[],"name":"getAllBids","outputs":[{"internalType":"address[]","name":"addresses","type":"address[]"},{"internalType":"uint256[]","name":"amounts","type":"uint256[]"},{"internalType":"uint256[]","name":"deposits","type":"uint256[]"},{"internalType":"bool[]","name":"refunded","type":"bool[]"}],"stateMutability":"view","type":"function"},{"inputs":[],"name":"getStatus","outputs":[{"internalType":"string","name":"","type":"string"}],"stateMutability":"view","type":"function"},{"inputs":[],"name":"highestBid","outputs":[{"internalType":"uint256","name":"","type":"uint256"}],"stateMutability":"view","type":"function"},{"inputs":[],"name":"highestBidder","outputs":[{"internalType":"address","name":"","type":"address"}],"stateMutability":"view","type":"function"},{"inputs":[],"name":"payWinningBid","outputs":[],"stateMutability":"payable","type":"function"},{"inputs":[],"name":"penalizeSeller","outputs":[],"stateMutability":"nonpayable","type":"function"},{"inputs":[],"name":"penalizeWinner","outputs":[],"stateMutability":"nonpayable","type":"function"},{"inputs":[{"internalType":"uint256","name":"_amount","type":"uint256"}],"name":"placeBid","outputs":[],"stateMutability":"payable","type":"function"},{"inputs":[],"name":"releaseToSeller","outputs":[],"stateMutability":"nonpayable","type":"function"},{"inputs":[],"name":"seller","outputs":[{"internalType":"address","name":"","type":"address"}],"stateMutability":"view","type":"function"},{"inputs":[],"name":"sellerDeposit","outputs":[{"internalType":"uint256","name":"","type":"uint256"}],"stateMutability":"view","type":"function"},{"inputs":[],"name":"sellerShipped","outputs":[{"internalType":"bool","name":"","type":"bool"}],"stateMutability":"view","type":"function"},{"inputs":[],"name":"sellerShippedAt","outputs":[{"internalType":"uint256","name":"","type":"uint256"}],"stateMutability":"view","type":"function"},{"inputs":[],"name":"startingPrice","outputs":[{"internalType":"uint256","name":"","type":"uint256"}],"stateMutability":"view","type":"function"},{"inputs":[],"name":"withdrawDeposit","outputs":[],"stateMutability":"nonpayable","type":"function"}],"evm":{"bytecode":{"linkReferences":{},"object":"60c060405260405162003ff738038062003ff783398181016040528101906200002991906200024e565b600073ffffffffffffffffffffffffffffffffffffffff168273ffffffffffffffffffffffffffffffffffffffff16036200009b576040517f08c379a000000000000000000000000000000000000000000000000000000000815260040162000092906200030b565b60405180910390fd5b60008111620000e1576040517f08c379a0000000000000000000000000000000000000000000000000000000008152600401620000d8906200037d565b60405180910390fd5b60006064601483620000f49190620003ce565b62000100919062000448565b90508034101562000148576040517f08c379a00000000000000000000000000000000000000000000000000000000081526004016200013f90620004d0565b60405180910390fd5b8273ffffffffffffffffffffffffffffffffffffffff1660808173ffffffffffffffffffffffffffffffffffffffff168152505081600081905550346001819055508342620001989190620004f2565b60a08181525050505050506200052d565b600080fd5b6000819050919050565b620001c381620001ae565b8114620001cf57600080fd5b50565b600081519050620001e381620001b8565b92915050565b600073ffffffffffffffffffffffffffffffffffffffff82169050919050565b60006200021682620001e9565b9050919050565b620002288162000209565b81146200023457600080fd5b50565b60008151905062000248816200021d565b92915050565b6000806000606084860312156200026a5762000269620001a9565b5b60006200027a86828701620001d2565b93505060206200028d8682870162000237565b9250506040620002a086828701620001d2565b9150509250925092565b600082825260208201905092915050565b7f496e76616c69642073656c6c6572000000000000000000000000000000000000600082015250565b6000620002f3600e83620002aa565b91506200030082620002bb565b602082019050919050565b600060208201905081810360008301526200032681620002e4565b9050919050565b7f5072696365203e20300000000000000000000000000000000000000000000000600082015250565b600062000365600983620002aa565b915062000372826200032d565b602082019050919050565b60006020820190508181036000830152620003988162000356565b9050919050565b7f4e487b7100000000000000000000000000000000000000000000000000000000600052601160045260246000fd5b6000620003db82620001ae565b9150620003e883620001ae565b9250828202620003f881620001ae565b915082820484148315176200041257620004116200039f565b5b5092915050565b7f4e487b7100000000000000000000000000000000000000000000000000000000600052601260045260246000fd5b60006200045582620001ae565b91506200046283620001ae565b92508262000475576200047462000419565b5b828204905092915050565b7f53656c6c6572206465706f73697420696e73756666696369656e740000000000600082015250565b6000620004b8601b83620002aa565b9150620004c58262000480565b602082019050919050565b60006020820190508181036000830152620004eb81620004a9565b9050919050565b6000620004ff82620001ae565b91506200050c83620001ae565b92508282019050808211156200052757620005266200039f565b5b92915050565b60805160a051613a50620005a760003960008181610ed4015281816114f501528181611ddd015261237b01526000818161066d015281816109af01528181610b4f01528181610e5201528181611338015281816115f7015281816116c5015281816117c7015281816119970152611a610152613a506000f3fe6080604052600436106101d85760003560e01c80638d0f6da311610102578063c764cd0511610095578063d57bde7911610064578063d57bde79146105e0578063d6fbf2021461060b578063e35a70d914610636578063e995478e14610640576101d8565b8063c764cd0514610522578063c7d26e621461054d578063cff29dfd14610578578063d3142328146105b5576101d8565b8063a5a448a7116100d1578063a5a448a71461048a578063b7f05217146104a1578063bda43f91146104cc578063c6c48962146104f7576101d8565b80638d0f6da3146103ea57806391f90157146104185780639979ef4514610443578063a124b3d11461045f576101d8565b80634c1786ea1161017a5780636a4445fb116101495780636a4445fb1461037a57806373fac6f0146103a55780638282a4c1146103bc578063892a0e42146103d3576101d8565b80634c1786ea146102ba5780634e69d560146102e557806362ea82db146103105780636450bac41461034f576101d8565b806326cae428116101b657806326cae4281461024a57806348a1335a1461026157806349706ebe1461028c5780634bb278f3146102a3576101d8565b806308551a53146101dd578063117df0881461020857806312fa6feb1461021f575b600080fd5b3480156101e957600080fd5b506101f261066b565b6040516101ff9190612681565b60405180910390f35b34801561021457600080fd5b5061021d61068f565b005b34801561022b57600080fd5b5061023461099a565b60405161024191906126b7565b60405180910390f35b34801561025657600080fd5b5061025f6109ad565b005b34801561026d57600080fd5b50610276610bb2565b60405161028391906126b7565b60405180910390f35b34801561029857600080fd5b506102a1610bc5565b005b3480156102af57600080fd5b506102b8610ed2565b005b3480156102c657600080fd5b506102cf610fff565b6040516102dc91906126eb565b60405180910390f35b3480156102f157600080fd5b506102fa611005565b6040516103079190612796565b60405180910390f35b34801561031c57600080fd5b50610337600480360381019061033291906127e9565b611187565b60405161034693929190612816565b60405180910390f35b34801561035b57600080fd5b506103646111be565b60405161037191906126eb565b60405180910390f35b34801561038657600080fd5b5061038f6111c3565b60405161039c91906126b7565b60405180910390f35b3480156103b157600080fd5b506103ba6111d6565b005b3480156103c857600080fd5b506103d1611452565b005b3480156103df57600080fd5b506103e8611875565b005b3480156103f657600080fd5b506103ff611ad1565b60405161040f9493929190612a87565b60405180910390f35b34801561042457600080fd5b5061042d611db5565b60405161043a9190612681565b60405180910390f35b61045d60048036038101906104589190612b14565b611ddb565b005b34801561046b57600080fd5b506104746120c4565b60405161048191906126eb565b60405180910390f35b34801561049657600080fd5b5061049f6120c9565b005b3480156104ad57600080fd5b506104b6612369565b6040516104c391906126eb565b60405180910390f35b3480156104d857600080fd5b506104e161236e565b6040516104ee91906126eb565b60405180910390f35b34801561050357600080fd5b5061050c612374565b60405161051991906126eb565b60405180910390f35b34801561052e57600080fd5b50610537612379565b60405161054491906126eb565b60405180910390f35b34801561055957600080fd5b5061056261239d565b60405161056f91906126eb565b60405180910390f35b34801561058457600080fd5b5061059f600480360381019061059a9190612b14565b6123a3565b6040516105ac9190612681565b60405180910390f35b3480156105c157600080fd5b506105ca6123e2565b6040516105d791906126b7565b60405180910390f35b3480156105ec57600080fd5b506105f56123f5565b60405161060291906126eb565b60405180910390f35b34801561061757600080fd5b506106206123fb565b60405161062d91906126eb565b60405180910390f35b61063e612401565b005b34801561064c57600080fd5b5061065561263b565b60405161066291906126eb565b60405180910390f35b7f000000000000000000000000000000000000000000000000000000000000000081565b600460009054906101000a900460ff166106de576040517f08c379a00000000000000000000000000000000000000000000000000000000081526004016106d590612b8d565b60405180910390fd5b6000600760003373ffffffffffffffffffffffffffffffffffffffff1673ffffffffffffffffffffffffffffffffffffffff16815260200190815260200160002090506000816001015411610768576040517f08c379a000000000000000000000000000000000000000000000000000000000815260040161075f90612bf9565b60405180910390fd5b8060020160009054906101000a900460ff16156107ba576040517f08c379a00000000000000000000000000000000000000000000000000000000081526004016107b190612c65565b60405180910390fd5b600260009054906101000a900473ffffffffffffffffffffffffffffffffffffffff1673ffffffffffffffffffffffffffffffffffffffff163373ffffffffffffffffffffffffffffffffffffffff160361087757600460039054906101000a900460ff16806108375750600460029054906101000a900460ff16155b610876576040517f08c379a000000000000000000000000000000000000000000000000000000000815260040161086d90612cd1565b60405180910390fd5b5b60018160020160006101000a81548160ff02191690831515021790555060003373ffffffffffffffffffffffffffffffffffffffff1682600101546040516108be90612d22565b60006040518083038185875af1925050503d80600081146108fb576040519150601f19603f3d011682016040523d82523d6000602084013e610900565b606091505b5050905080610944576040517f08c379a000000000000000000000000000000000000000000000000000000000815260040161093b90612d83565b60405180910390fd5b3373ffffffffffffffffffffffffffffffffffffffff167f4482101800a5c2e900f4156e57e05e19ffd7b366cde579553d723fd3abb2180e836001015460405161098e91906126eb565b60405180910390a25050565b600460009054906101000a900460ff1681565b7f000000000000000000000000000000000000000000000000000000000000000073ffffffffffffffffffffffffffffffffffffffff163373ffffffffffffffffffffffffffffffffffffffff1614610a3b576040517f08c379a0000000000000000000000000000000000000000000000000000000008152600401610a3290612def565b60405180910390fd5b600460019054906101000a900460ff16610a8a576040517f08c379a0000000000000000000000000000000000000000000000000000000008152600401610a8190612e5b565b60405180910390fd5b600460029054906101000a900460ff1615610ada576040517f08c379a0000000000000000000000000000000000000000000000000000000008152600401610ad190612ec7565b60405180910390fd5b603c600554610ae99190612f16565b421115610b2b576040517f08c379a0000000000000000000000000000000000000000000000000000000008152600401610b2290612f96565b60405180910390fd5b6001600460026101000a81548160ff021916908315150217905550426006819055507f000000000000000000000000000000000000000000000000000000000000000073ffffffffffffffffffffffffffffffffffffffff167f880fbb660d958db3fcb0edb7302d571a0c9fab06237ec103a0b2c1710b07397460405160405180910390a2565b600460039054906101000a900460ff1681565b600460019054906101000a900460ff16610c14576040517f08c379a0000000000000000000000000000000000000000000000000000000008152600401610c0b90612e5b565b60405180910390fd5b600460029054906101000a900460ff1615610c64576040517f08c379a0000000000000000000000000000000000000000000000000000000008152600401610c5b90612ec7565b60405180910390fd5b603c600554610c739190612f16565b4211610cb4576040517f08c379a0000000000000000000000000000000000000000000000000000000008152600401610cab90613002565b60405180910390fd5b60006002600154610cc59190613051565b90506000600260009054906101000a900473ffffffffffffffffffffffffffffffffffffffff1673ffffffffffffffffffffffffffffffffffffffff1682600354610d109190612f16565b604051610d1c90612d22565b60006040518083038185875af1925050503d8060008114610d59576040519150601f19603f3d011682016040523d82523d6000602084013e610d5e565b606091505b5050905080610da2576040517f08c379a0000000000000000000000000000000000000000000000000000000008152600401610d99906130ce565b60405180910390fd5b600061dead73ffffffffffffffffffffffffffffffffffffffff1683604051610dca90612d22565b60006040518083038185875af1925050503d8060008114610e07576040519150601f19603f3d011682016040523d82523d6000602084013e610e0c565b606091505b5050905080610e50576040517f08c379a0000000000000000000000000000000000000000000000000000000008152600401610e479061313a565b60405180910390fd5b7f000000000000000000000000000000000000000000000000000000000000000073ffffffffffffffffffffffffffffffffffffffff167f102e3eed9525752cdd3140813ede5653b633d9cdd0753b3aef43c9c8059f91e984600354610eb69190612f16565b85604051610ec592919061315a565b60405180910390a2505050565b7f0000000000000000000000000000000000000000000000000000000000000000421015610f35576040517f08c379a0000000000000000000000000000000000000000000000000000000008152600401610f2c90612b8d565b60405180910390fd5b600460009054906101000a900460ff1615610f85576040517f08c379a0000000000000000000000000000000000000000000000000000000008152600401610f7c906131cf565b60405180910390fd5b6001600460006101000a81548160ff0219169083151502179055507fdaec4582d5d9595688c8c98545fdd1c696d41c6aeaeb636737e84ed2f5c00eda600260009054906101000a900473ffffffffffffffffffffffffffffffffffffffff16600354604051610ff59291906131ef565b60405180910390a1565b60015481565b6060600460009054906101000a900460ff16611058576040518060400160405280600681526020017f41637469766500000000000000000000000000000000000000000000000000008152509050611184565b600460019054906101000a900460ff166110a9576040518060400160405280601881526020017f456e646564202d204177616974696e67205061796d656e7400000000000000008152509050611184565b600460029054906101000a900460ff166110fa576040518060400160405280601881526020017f50616964202d204177616974696e6720536869706d656e7400000000000000008152509050611184565b600460039054906101000a900460ff1661114b576040518060400160405280601f81526020017f53686970706564202d204177616974696e6720436f6e6669726d6174696f6e008152509050611184565b6040518060400160405280600981526020017f436f6d706c65746564000000000000000000000000000000000000000000000081525090505b90565b60076020528060005260406000206000915090508060000154908060010154908060020160009054906101000a900460ff16905083565b601481565b600460029054906101000a900460ff1681565b600260009054906101000a900473ffffffffffffffffffffffffffffffffffffffff1673ffffffffffffffffffffffffffffffffffffffff163373ffffffffffffffffffffffffffffffffffffffff1614611266576040517f08c379a000000000000000000000000000000000000000000000000000000000815260040161125d90613264565b60405180910390fd5b600460029054906101000a900460ff166112b5576040517f08c379a00000000000000000000000000000000000000000000000000000000081526004016112ac906132d0565b60405180910390fd5b600460039054906101000a900460ff1615611305576040517f08c379a00000000000000000000000000000000000000000000000000000000081526004016112fc9061333c565b60405180910390fd5b6001600460036101000a81548160ff02191690831515021790555060006001546003546113329190612f16565b905060007f000000000000000000000000000000000000000000000000000000000000000073ffffffffffffffffffffffffffffffffffffffff168260405161137a90612d22565b60006040518083038185875af1925050503d80600081146113b7576040519150601f19603f3d011682016040523d82523d6000602084013e6113bc565b606091505b5050905080611400576040517f08c379a00000000000000000000000000000000000000000000000000000000081526004016113f7906133a8565b60405180910390fd5b3373ffffffffffffffffffffffffffffffffffffffff167f253dc7da728ba73e554f473a0466012973accb631842f82c6dd18308cb039e188360405161144691906126eb565b60405180910390a25050565b600460009054906101000a900460ff166114a1576040517f08c379a000000000000000000000000000000000000000000000000000000000815260040161149890613414565b60405180910390fd5b600460019054906101000a900460ff16156114f1576040517f08c379a00000000000000000000000000000000000000000000000000000000081526004016114e890613480565b60405180910390fd5b603c7f000000000000000000000000000000000000000000000000000000000000000061151e9190612f16565b421161155f576040517f08c379a0000000000000000000000000000000000000000000000000000000008152600401611556906134ec565b60405180910390fd5b600060076000600260009054906101000a900473ffffffffffffffffffffffffffffffffffffffff1673ffffffffffffffffffffffffffffffffffffffff1673ffffffffffffffffffffffffffffffffffffffff168152602001908152602001600020905060008160010154905060008111156116c15760018260020160006101000a81548160ff02191690831515021790555060007f000000000000000000000000000000000000000000000000000000000000000073ffffffffffffffffffffffffffffffffffffffff168260405161163990612d22565b60006040518083038185875af1925050503d8060008114611676576040519150601f19603f3d011682016040523d82523d6000602084013e61167b565b606091505b50509050806116bf576040517f08c379a00000000000000000000000000000000000000000000000000000000081526004016116b69061357e565b60405180910390fd5b505b60007f000000000000000000000000000000000000000000000000000000000000000073ffffffffffffffffffffffffffffffffffffffff1660015460405161170990612d22565b60006040518083038185875af1925050503d8060008114611746576040519150601f19603f3d011682016040523d82523d6000602084013e61174b565b606091505b505090508061178f576040517f08c379a0000000000000000000000000000000000000000000000000000000008152600401611786906135ea565b60405180910390fd5b6001600460016101000a81548160ff0219169083151502179055506001600460036101000a81548160ff0219169083151502179055507f000000000000000000000000000000000000000000000000000000000000000073ffffffffffffffffffffffffffffffffffffffff16600260009054906101000a900473ffffffffffffffffffffffffffffffffffffffff1673ffffffffffffffffffffffffffffffffffffffff167f763572e8df6b9220ea32e77317c65861a0bd34eb109cbcf374a6b406f218535d8460015460405161186892919061315a565b60405180910390a3505050565b600460029054906101000a900460ff166118c4576040517f08c379a00000000000000000000000000000000000000000000000000000000081526004016118bb906132d0565b60405180910390fd5b600460039054906101000a900460ff1615611914576040517f08c379a000000000000000000000000000000000000000000000000000000000815260040161190b9061333c565b60405180910390fd5b603c6006546119239190612f16565b4211611964576040517f08c379a000000000000000000000000000000000000000000000000000000000815260040161195b90613002565b60405180910390fd5b6001600460036101000a81548160ff02191690831515021790555060006001546003546119919190612f16565b905060007f000000000000000000000000000000000000000000000000000000000000000073ffffffffffffffffffffffffffffffffffffffff16826040516119d990612d22565b60006040518083038185875af1925050503d8060008114611a16576040519150601f19603f3d011682016040523d82523d6000602084013e611a1b565b606091505b5050905080611a5f576040517f08c379a0000000000000000000000000000000000000000000000000000000008152600401611a5690612d83565b60405180910390fd5b7f000000000000000000000000000000000000000000000000000000000000000073ffffffffffffffffffffffffffffffffffffffff167fcd4da42af5b021fc21da9a907d35b93287bfd51506d7c07b74c1979aec30c57983604051611ac591906126eb565b60405180910390a25050565b606080606080600060088054905090508067ffffffffffffffff811115611afb57611afa61360a565b5b604051908082528060200260200182016040528015611b295781602001602082028036833780820191505090505b5094508067ffffffffffffffff811115611b4657611b4561360a565b5b604051908082528060200260200182016040528015611b745781602001602082028036833780820191505090505b5093508067ffffffffffffffff811115611b9157611b9061360a565b5b604051908082528060200260200182016040528015611bbf5781602001602082028036833780820191505090505b5092508067ffffffffffffffff811115611bdc57611bdb61360a565b5b604051908082528060200260200182016040528015611c0a5781602001602082028036833780820191505090505b50915060005b81811015611dad57600060088281548110611c2e57611c2d613639565b5b9060005260206000200160009054906101000a900473ffffffffffffffffffffffffffffffffffffffff1690506000600760008373ffffffffffffffffffffffffffffffffffffffff1673ffffffffffffffffffffffffffffffffffffffff16815260200190815260200160002060405180606001604052908160008201548152602001600182015481526020016002820160009054906101000a900460ff161515151581525050905081888481518110611cec57611ceb613639565b5b602002602001019073ffffffffffffffffffffffffffffffffffffffff16908173ffffffffffffffffffffffffffffffffffffffff16815250508060000151878481518110611d3e57611d3d613639565b5b6020026020010181815250508060200151868481518110611d6257611d61613639565b5b6020026020010181815250508060400151858481518110611d8657611d85613639565b5b60200260200101901515908115158152505050508080611da590613668565b915050611c10565b505090919293565b600260009054906101000a900473ffffffffffffffffffffffffffffffffffffffff1681565b7f00000000000000000000000000000000000000000000000000000000000000004210611e3d576040517f08c379a0000000000000000000000000000000000000000000000000000000008152600401611e34906136fc565b60405180910390fd5b6003548111611e81576040517f08c379a0000000000000000000000000000000000000000000000000000000008152600401611e7890613768565b60405180910390fd5b60006064600a83611e929190613788565b611e9c9190613051565b90506000600760003373ffffffffffffffffffffffffffffffffffffffff1673ffffffffffffffffffffffffffffffffffffffff1681526020019081526020016000209050600081600101548311611ef5576000611f06565b816001015483611f0591906137ca565b5b905080341015611f4b576040517f08c379a0000000000000000000000000000000000000000000000000000000008152600401611f429061384a565b60405180910390fd5b80341115611fa6573373ffffffffffffffffffffffffffffffffffffffff166108fc8234611f7991906137ca565b9081150290604051600060405180830381858888f19350505050158015611fa4573d6000803e3d6000fd5b505b6000826000015403612016576008339080600181540180825580915050600190039060005260206000200160009091909190916101000a81548173ffffffffffffffffffffffffffffffffffffffff021916908373ffffffffffffffffffffffffffffffffffffffff1602179055505b83826000018190555082826001018190555033600260006101000a81548173ffffffffffffffffffffffffffffffffffffffff021916908373ffffffffffffffffffffffffffffffffffffffff160217905550836003819055503373ffffffffffffffffffffffffffffffffffffffff167f3fabff0a9c3ecd6814702e247fa9733e5d0aa69e3a38590f92cb18f623a2254d856040516120b691906126eb565b60405180910390a250505050565b603c81565b600460009054906101000a900460ff16612118576040517f08c379a000000000000000000000000000000000000000000000000000000000815260040161210f90613414565b60405180910390fd5b60005b6008805490508110156123665760006008828154811061213e5761213d613639565b5b9060005260206000200160009054906101000a900473ffffffffffffffffffffffffffffffffffffffff1690506000600760008373ffffffffffffffffffffffffffffffffffffffff1673ffffffffffffffffffffffffffffffffffffffff1681526020019081526020016000209050600260009054906101000a900473ffffffffffffffffffffffffffffffffffffffff1673ffffffffffffffffffffffffffffffffffffffff168273ffffffffffffffffffffffffffffffffffffffff1614158015612210575060008160010154115b801561222b57508060020160009054906101000a900460ff16155b156123515760018160020160006101000a81548160ff02191690831515021790555060008273ffffffffffffffffffffffffffffffffffffffff16826001015460405161227790612d22565b60006040518083038185875af1925050503d80600081146122b4576040519150601f19603f3d011682016040523d82523d6000602084013e6122b9565b606091505b50509050806122fd576040517f08c379a00000000000000000000000000000000000000000000000000000000081526004016122f4906138b6565b60405180910390fd5b8273ffffffffffffffffffffffffffffffffffffffff167f4482101800a5c2e900f4156e57e05e19ffd7b366cde579553d723fd3abb2180e836001015460405161234791906126eb565b60405180910390a2505b5050808061235e90613668565b91505061211b565b50565b600a81565b60065481565b603c81565b7f000000000000000000000000000000000000000000000000000000000000000081565b60055481565b600881815481106123b357600080fd5b906000526020600020016000915054906101000a900473ffffffffffffffffffffffffffffffffffffffff1681565b600460019054906101000a900460ff1681565b60035481565b60005481565b600460009054906101000a900460ff16612450576040517f08c379a000000000000000000000000000000000000000000000000000000000815260040161244790612b8d565b60405180910390fd5b600260009054906101000a900473ffffffffffffffffffffffffffffffffffffffff1673ffffffffffffffffffffffffffffffffffffffff163373ffffffffffffffffffffffffffffffffffffffff16146124e0576040517f08c379a00000000000000000000000000000000000000000000000000000000081526004016124d790613922565b60405180910390fd5b600460019054906101000a900460ff1615612530576040517f08c379a00000000000000000000000000000000000000000000000000000000081526004016125279061398e565b60405180910390fd5b6000600760003373ffffffffffffffffffffffffffffffffffffffff1673ffffffffffffffffffffffffffffffffffffffff1681526020019081526020016000206001015460035461258291906137ca565b90508034146125c6576040517f08c379a00000000000000000000000000000000000000000000000000000000081526004016125bd906139fa565b60405180910390fd5b6001600460016101000a81548160ff021916908315150217905550426005819055503373ffffffffffffffffffffffffffffffffffffffff167f8ca59ddeb3b42c522a873dd6aa29b9d90c99b41eeb58f317b4b0d4a17d41506b60035460405161263091906126eb565b60405180910390a250565b603c81565b600073ffffffffffffffffffffffffffffffffffffffff82169050919050565b600061266b82612640565b9050919050565b61267b81612660565b82525050565b60006020820190506126966000830184612672565b92915050565b60008115159050919050565b6126b18161269c565b82525050565b60006020820190506126cc60008301846126a8565b92915050565b6000819050919050565b6126e5816126d2565b82525050565b600060208201905061270060008301846126dc565b92915050565b600081519050919050565b600082825260208201905092915050565b60005b83811015612740578082015181840152602081019050612725565b60008484015250505050565b6000601f19601f8301169050919050565b600061276882612706565b6127728185612711565b9350612782818560208601612722565b61278b8161274c565b840191505092915050565b600060208201905081810360008301526127b0818461275d565b905092915050565b600080fd5b6127c681612660565b81146127d157600080fd5b50565b6000813590506127e3816127bd565b92915050565b6000602082840312156127ff576127fe6127b8565b5b600061280d848285016127d4565b91505092915050565b600060608201905061282b60008301866126dc565b61283860208301856126dc565b61284560408301846126a8565b949350505050565b600081519050919050565b600082825260208201905092915050565b6000819050602082019050919050565b61288281612660565b82525050565b60006128948383612879565b60208301905092915050565b6000602082019050919050565b60006128b88261284d565b6128c28185612858565b93506128cd83612869565b8060005b838110156128fe5781516128e58882612888565b97506128f0836128a0565b9250506001810190506128d1565b5085935050505092915050565b600081519050919050565b600082825260208201905092915050565b6000819050602082019050919050565b612940816126d2565b82525050565b60006129528383612937565b60208301905092915050565b6000602082019050919050565b60006129768261290b565b6129808185612916565b935061298b83612927565b8060005b838110156129bc5781516129a38882612946565b97506129ae8361295e565b92505060018101905061298f565b5085935050505092915050565b600081519050919050565b600082825260208201905092915050565b6000819050602082019050919050565b6129fe8161269c565b82525050565b6000612a1083836129f5565b60208301905092915050565b6000602082019050919050565b6000612a34826129c9565b612a3e81856129d4565b9350612a49836129e5565b8060005b83811015612a7a578151612a618882612a04565b9750612a6c83612a1c565b925050600181019050612a4d565b5085935050505092915050565b60006080820190508181036000830152612aa181876128ad565b90508181036020830152612ab5818661296b565b90508181036040830152612ac9818561296b565b90508181036060830152612add8184612a29565b905095945050505050565b612af1816126d2565b8114612afc57600080fd5b50565b600081359050612b0e81612ae8565b92915050565b600060208284031215612b2a57612b296127b8565b5b6000612b3884828501612aff565b91505092915050565b7f4e6f7420656e6465640000000000000000000000000000000000000000000000600082015250565b6000612b77600983612711565b9150612b8282612b41565b602082019050919050565b60006020820190508181036000830152612ba681612b6a565b9050919050565b7f4e6f206465706f73697400000000000000000000000000000000000000000000600082015250565b6000612be3600a83612711565b9150612bee82612bad565b602082019050919050565b60006020820190508181036000830152612c1281612bd6565b9050919050565b7f416c72656164792077697468647261776e000000000000000000000000000000600082015250565b6000612c4f601183612711565b9150612c5a82612c19565b602082019050919050565b60006020820190508181036000830152612c7e81612c42565b9050919050565b7f57696e6e65722063616e2774207769746864726177206e6f7700000000000000600082015250565b6000612cbb601983612711565b9150612cc682612c85565b602082019050919050565b60006020820190508181036000830152612cea81612cae565b9050919050565b600081905092915050565b50565b6000612d0c600083612cf1565b9150612d1782612cfc565b600082019050919050565b6000612d2d82612cff565b9150819050919050565b7f5472616e73666572206661696c65640000000000000000000000000000000000600082015250565b6000612d6d600f83612711565b9150612d7882612d37565b602082019050919050565b60006020820190508181036000830152612d9c81612d60565b9050919050565b7f4e6f742073656c6c657200000000000000000000000000000000000000000000600082015250565b6000612dd9600a83612711565b9150612de482612da3565b602082019050919050565b60006020820190508181036000830152612e0881612dcc565b9050919050565b7f4275796572206e6f742070616964000000000000000000000000000000000000600082015250565b6000612e45600e83612711565b9150612e5082612e0f565b602082019050919050565b60006020820190508181036000830152612e7481612e38565b9050919050565b7f416c726561647920736869707065640000000000000000000000000000000000600082015250565b6000612eb1600f83612711565b9150612ebc82612e7b565b602082019050919050565b60006020820190508181036000830152612ee081612ea4565b9050919050565b7f4e487b7100000000000000000000000000000000000000000000000000000000600052601160045260246000fd5b6000612f21826126d2565b9150612f2c836126d2565b9250828201905080821115612f4457612f43612ee7565b5b92915050565b7f546f6f206c617465000000000000000000000000000000000000000000000000600082015250565b6000612f80600883612711565b9150612f8b82612f4a565b602082019050919050565b60006020820190508181036000830152612faf81612f73565b9050919050565b7f5374696c6c20696e2077696e646f770000000000000000000000000000000000600082015250565b6000612fec600f83612711565b9150612ff782612fb6565b602082019050919050565b6000602082019050818103600083015261301b81612fdf565b9050919050565b7f4e487b7100000000000000000000000000000000000000000000000000000000600052601260045260246000fd5b600061305c826126d2565b9150613067836126d2565b92508261307757613076613022565b5b828204905092915050565b7f526566756e6420746f206275796572206661696c656400000000000000000000600082015250565b60006130b8601683612711565b91506130c382613082565b602082019050919050565b600060208201905081810360008301526130e7816130ab565b9050919050565b7f4275726e206661696c6564000000000000000000000000000000000000000000600082015250565b6000613124600b83612711565b915061312f826130ee565b602082019050919050565b6000602082019050818103600083015261315381613117565b9050919050565b600060408201905061316f60008301856126dc565b61317c60208301846126dc565b9392505050565b7f416c726561647920656e64656400000000000000000000000000000000000000600082015250565b60006131b9600d83612711565b91506131c482613183565b602082019050919050565b600060208201905081810360008301526131e8816131ac565b9050919050565b60006040820190506132046000830185612672565b61321160208301846126dc565b9392505050565b7f4e6f742062757965720000000000000000000000000000000000000000000000600082015250565b600061324e600983612711565b915061325982613218565b602082019050919050565b6000602082019050818103600083015261327d81613241565b9050919050565b7f4e6f742073686970706564000000000000000000000000000000000000000000600082015250565b60006132ba600b83612711565b91506132c582613284565b602082019050919050565b600060208201905081810360008301526132e9816132ad565b9050919050565b7f416c726561647920636f6e6669726d6564000000000000000000000000000000600082015250565b6000613326601183612711565b9150613331826132f0565b602082019050919050565b6000602082019050818103600083015261335581613319565b9050919050565b7f5472616e7366657220746f2073656c6c6572206661696c656400000000000000600082015250565b6000613392601983612711565b915061339d8261335c565b602082019050919050565b600060208201905081810360008301526133c181613385565b9050919050565b7f41756374696f6e206e6f7420656e646564000000000000000000000000000000600082015250565b60006133fe601183612711565b9150613409826133c8565b602082019050919050565b6000602082019050818103600083015261342d816133f1565b9050919050565b7f427579657220616c726561647920706169640000000000000000000000000000600082015250565b600061346a601283612711565b915061347582613434565b602082019050919050565b600060208201905081810360008301526134998161345d565b9050919050565b7f5374696c6c20696e207061796d656e742077696e646f77000000000000000000600082015250565b60006134d6601783612711565b91506134e1826134a0565b602082019050919050565b60006020820190508181036000830152613505816134c9565b9050919050565b7f5472616e736665722077696e6e6572206465706f73697420746f2073656c6c6560008201527f72206661696c6564000000000000000000000000000000000000000000000000602082015250565b6000613568602883612711565b91506135738261350c565b604082019050919050565b600060208201905081810360008301526135978161355b565b9050919050565b7f526566756e642073656c6c6572206465706f736974206661696c656400000000600082015250565b60006135d4601c83612711565b91506135df8261359e565b602082019050919050565b60006020820190508181036000830152613603816135c7565b9050919050565b7f4e487b7100000000000000000000000000000000000000000000000000000000600052604160045260246000fd5b7f4e487b7100000000000000000000000000000000000000000000000000000000600052603260045260246000fd5b6000613673826126d2565b91507fffffffffffffffffffffffffffffffffffffffffffffffffffffffffffffffff82036136a5576136a4612ee7565b5b600182019050919050565b7f456e646564000000000000000000000000000000000000000000000000000000600082015250565b60006136e6600583612711565b91506136f1826136b0565b602082019050919050565b60006020820190508181036000830152613715816136d9565b9050919050565b7f42696420746f6f206c6f77000000000000000000000000000000000000000000600082015250565b6000613752600b83612711565b915061375d8261371c565b602082019050919050565b6000602082019050818103600083015261378181613745565b9050919050565b6000613793826126d2565b915061379e836126d2565b92508282026137ac816126d2565b915082820484148315176137c3576137c2612ee7565b5b5092915050565b60006137d5826126d2565b91506137e0836126d2565b92508282039050818111156137f8576137f7612ee7565b5b92915050565b7f4465706f73697420696e73756666696369656e74000000000000000000000000600082015250565b6000613834601483612711565b915061383f826137fe565b602082019050919050565b6000602082019050818103600083015261386381613827565b9050919050565b7f526566756e64206661696c656400000000000000000000000000000000000000600082015250565b60006138a0600d83612711565b91506138ab8261386a565b602082019050919050565b600060208201905081810360008301526138cf81613893565b9050919050565b7f4e6f742077696e6e657200000000000000000000000000000000000000000000600082015250565b600061390c600a83612711565b9150613917826138d6565b602082019050919050565b6000602082019050818103600083015261393b816138ff565b9050919050565b7f416c726561647920706169640000000000000000000000000000000000000000600082015250565b6000613978600c83612711565b915061398382613942565b602082019050919050565b600060208201905081810360008301526139a78161396b565b9050919050565b7f57726f6e6720616d6f756e740000000000000000000000000000000000000000600082015250565b60006139e4600c83612711565b91506139ef826139ae565b602082019050919050565b60006020820190508181036000830152613a13816139d7565b905091905056fea2646970667358221220353029e005784123d270bf9adf06bd5fd2da2c62ff06c6b2ab3757acc03329e864736f6c63430008140033","opcodes":"PUSH1 0xC0 PUSH1 0x40 MSTORE PUSH1 0x40 MLOAD PUSH3 0x3FF7 CODESIZE SUB DUP1 PUSH3 0x3FF7 DUP4 CODECOPY DUP2 DUP2 ADD PUSH1 0x40 MSTORE DUP2 ADD SWAP1 PUSH3 0x29 SWAP2 SWAP1 PUSH3 0x24E JUMP JUMPDEST PUSH1 0x0 PUSH20 0xFFFFFFFFFFFFFFFFFFFFFFFFFFFFFFFFFFFFFFFF AND DUP3 PUSH20 0xFFFFFFFFFFFFFFFFFFFFFFFFFFFFFFFFFFFFFFFF AND SUB PUSH3 0x9B JUMPI PUSH1 0x40 MLOAD PUSH32 0x8C379A000000000000000000000000000000000000000000000000000000000 DUP2 MSTORE PUSH1 0x4 ADD PUSH3 0x92 SWAP1 PUSH3 0x30B JUMP JUMPDEST PUSH1 0x40 MLOAD DUP1 SWAP2 SUB SWAP1 REVERT JUMPDEST PUSH1 0x0 DUP2 GT PUSH3 0xE1 JUMPI PUSH1 0x40 MLOAD PUSH32 0x8C379A000000000000000000000000000000000000000000000000000000000 DUP2 MSTORE PUSH1 0x4 ADD PUSH3 0xD8 SWAP1 PUSH3 0x37D JUMP JUMPDEST PUSH1 0x40 MLOAD DUP1 SWAP2 SUB SWAP1 REVERT JUMPDEST PUSH1 0x0 PUSH1 0x64 PUSH1 0x14 DUP4 PUSH3 0xF4 SWAP2 SWAP1 PUSH3 0x3CE JUMP JUMPDEST PUSH3 0x100 SWAP2 SWAP1 PUSH3 0x448 JUMP JUMPDEST SWAP1 POP DUP1 CALLVALUE LT ISZERO PUSH3 0x148 JUMPI PUSH1 0x40 MLOAD PUSH32 0x8C379A000000000000000000000000000000000000000000000000000000000 DUP2 MSTORE PUSH1 0x4 ADD PUSH3 0x13F SWAP1 PUSH3 0x4D0 JUMP JUMPDEST PUSH1 0x40 MLOAD DUP1 SWAP2 SUB SWAP1 REVERT JUMPDEST DUP3 PUSH20 0xFFFFFFFFFFFFFFFFFFFFFFFFFFFFFFFFFFFFFFFF AND PUSH1 0x80 DUP2 PUSH20 0xFFFFFFFFFFFFFFFFFFFFFFFFFFFFFFFFFFFFFFFF AND DUP2 MSTORE POP POP DUP2 PUSH1 0x0 DUP2 SWAP1 SSTORE POP CALLVALUE PUSH1 0x1 DUP2 SWAP1 SSTORE POP DUP4 TIMESTAMP PUSH3 0x198 SWAP2 SWAP1 PUSH3 0x4F2 JUMP JUMPDEST PUSH1 0xA0 DUP2 DUP2 MSTORE POP POP POP POP POP POP PUSH3 0x52D JUMP JUMPDEST PUSH1 0x0 DUP1 REVERT JUMPDEST PUSH1 0x0 DUP2 SWAP1 POP SWAP2 SWAP1 POP JUMP JUMPDEST PUSH3 0x1C3 DUP2 PUSH3 0x1AE JUMP JUMPDEST DUP2 EQ PUSH3 0x1CF JUMPI PUSH1 0x0 DUP1 REVERT JUMPDEST POP JUMP JUMPDEST PUSH1 0x0 DUP2 MLOAD SWAP1 POP PUSH3 0x1E3 DUP2 PUSH3 0x1B8 JUMP JUMPDEST SWAP3 SWAP2 POP POP JUMP JUMPDEST PUSH1 0x0 PUSH20 0xFFFFFFFFFFFFFFFFFFFFFFFFFFFFFFFFFFFFFFFF DUP3 AND SWAP1 POP SWAP2 SWAP1 POP JUMP JUMPDEST PUSH1 0x0 PUSH3 0x216 DUP3 PUSH3 0x1E9 JUMP JUMPDEST SWAP1 POP SWAP2 SWAP1 POP JUMP JUMPDEST PUSH3 0x228 DUP2 PUSH3 0x209 JUMP JUMPDEST DUP2 EQ PUSH3 0x234 JUMPI PUSH1 0x0 DUP1 REVERT JUMPDEST POP JUMP JUMPDEST PUSH1 0x0 DUP2 MLOAD SWAP1 POP PUSH3 0x248 DUP2 PUSH3 0x21D JUMP JUMPDEST SWAP3 SWAP2 POP POP JUMP JUMPDEST PUSH1 0x0 DUP1 PUSH1 0x0 PUSH1 0x60 DUP5 DUP7 SUB SLT ISZERO PUSH3 0x26A JUMPI PUSH3 0x269 PUSH3 0x1A9 JUMP JUMPDEST JUMPDEST PUSH1 0x0 PUSH3 0x27A DUP7 DUP3 DUP8 ADD PUSH3 0x1D2 JUMP JUMPDEST SWAP4 POP POP PUSH1 0x20 PUSH3 0x28D DUP7 DUP3 DUP8 ADD PUSH3 0x237 JUMP JUMPDEST SWAP3 POP POP PUSH1 0x40 PUSH3 0x2A0 DUP7 DUP3 DUP8 ADD PUSH3 0x1D2 JUMP JUMPDEST SWAP2 POP POP SWAP3 POP SWAP3 POP SWAP3 JUMP JUMPDEST PUSH1 0x0 DUP3 DUP3 MSTORE PUSH1 0x20 DUP3 ADD SWAP1 POP SWAP3 SWAP2 POP POP JUMP JUMPDEST PUSH32 0x496E76616C69642073656C6C6572000000000000000000000000000000000000 PUSH1 0x0 DUP3 ADD MSTORE POP JUMP JUMPDEST PUSH1 0x0 PUSH3 0x2F3 PUSH1 0xE DUP4 PUSH3 0x2AA JUMP JUMPDEST SWAP2 POP PUSH3 0x300 DUP3 PUSH3 0x2BB JUMP JUMPDEST PUSH1 0x20 DUP3 ADD SWAP1 POP SWAP2 SWAP1 POP JUMP JUMPDEST PUSH1 0x0 PUSH1 0x20 DUP3 ADD SWAP1 POP DUP2 DUP2 SUB PUSH1 0x0 DUP4 ADD MSTORE PUSH3 0x326 DUP2 PUSH3 0x2E4 JUMP JUMPDEST SWAP1 POP SWAP2 SWAP1 POP JUMP JUMPDEST PUSH32 0x5072696365203E20300000000000000000000000000000000000000000000000 PUSH1 0x0 DUP3 ADD MSTORE POP JUMP JUMPDEST PUSH1 0x0 PUSH3 0x365 PUSH1 0x9 DUP4 PUSH3 0x2AA JUMP JUMPDEST SWAP2 POP PUSH3 0x372 DUP3 PUSH3 0x32D JUMP JUMPDEST PUSH1 0x20 DUP3 ADD SWAP1 POP SWAP2 SWAP1 POP JUMP JUMPDEST PUSH1 0x0 PUSH1 0x20 DUP3 ADD SWAP1 POP DUP2 DUP2 SUB PUSH1 0x0 DUP4 ADD MSTORE PUSH3 0x398 DUP2 PUSH3 0x356 JUMP JUMPDEST SWAP1 POP SWAP2 SWAP1 POP JUMP JUMPDEST PUSH32 0x4E487B7100000000000000000000000000000000000000000000000000000000 PUSH1 0x0 MSTORE PUSH1 0x11 PUSH1 0x4 MSTORE PUSH1 0x24 PUSH1 0x0 REVERT JUMPDEST PUSH1 0x0 PUSH3 0x3DB DUP3 PUSH3 0x1AE JUMP JUMPDEST SWAP2 POP PUSH3 0x3E8 DUP4 PUSH3 0x1AE JUMP JUMPDEST SWAP3 POP DUP3 DUP3 MUL PUSH3 0x3F8 DUP2 PUSH3 0x1AE JUMP JUMPDEST SWAP2 POP DUP3 DUP3 DIV DUP5 EQ DUP4 ISZERO OR PUSH3 0x412 JUMPI PUSH3 0x411 PUSH3 0x39F JUMP JUMPDEST JUMPDEST POP SWAP3 SWAP2 POP POP JUMP JUMPDEST PUSH32 0x4E487B7100000000000000000000000000000000000000000000000000000000 PUSH1 0x0 MSTORE PUSH1 0x12 PUSH1 0x4 MSTORE PUSH1 0x24 PUSH1 0x0 REVERT JUMPDEST PUSH1 0x0 PUSH3 0x455 DUP3 PUSH3 0x1AE JUMP JUMPDEST SWAP2 POP PUSH3 0x462 DUP4 PUSH3 0x1AE JUMP JUMPDEST SWAP3 POP DUP3 PUSH3 0x475 JUMPI PUSH3 0x474 PUSH3 0x419 JUMP JUMPDEST JUMPDEST DUP3 DUP3 DIV SWAP1 POP SWAP3 SWAP2 POP POP JUMP JUMPDEST PUSH32 0x53656C6C6572206465706F73697420696E73756666696369656E740000000000 PUSH1 0x0 DUP3 ADD MSTORE POP JUMP JUMPDEST PUSH1 0x0 PUSH3 0x4B8 PUSH1 0x1B DUP4 PUSH3 0x2AA JUMP JUMPDEST SWAP2 POP PUSH3 0x4C5 DUP3 PUSH3 0x480 JUMP JUMPDEST PUSH1 0x20 DUP3 ADD SWAP1 POP SWAP2 SWAP1 POP JUMP JUMPDEST PUSH1 0x0 PUSH1 0x20 DUP3 ADD SWAP1 POP DUP2 DUP2 SUB PUSH1 0x0 DUP4 ADD MSTORE PUSH3 0x4EB DUP2 PUSH3 0x4A9 JUMP JUMPDEST SWAP1 POP SWAP2 SWAP1 POP JUMP JUMPDEST PUSH1 0x0 PUSH3 0x4FF DUP3 PUSH3 0x1AE JUMP JUMPDEST SWAP2 POP PUSH3 0x50C DUP4 PUSH3 0x1AE JUMP JUMPDEST SWAP3 POP DUP3 DUP3 ADD SWAP1 POP DUP1 DUP3 GT ISZERO PUSH3 0x527 JUMPI PUSH3 0x526 PUSH3 0x39F JUMP JUMPDEST JUMPDEST SWAP3 SWAP2 POP POP JUMP JUMPDEST PUSH1 0x80 MLOAD PUSH1 0xA0 MLOAD PUSH2 0x3A50 PUSH3 0x5A7 PUSH1 0x0 CODECOPY PUSH1 0x0 DUP2 DUP2 PUSH2 0xED4 ADD MSTORE DUP2 DUP2 PUSH2 0x14F5 ADD MSTORE DUP2 DUP2 PUSH2 0x1DDD ADD MSTORE PUSH2 0x237B ADD MSTORE PUSH1 0x0 DUP2 DUP2 PUSH2 0x66D ADD MSTORE DUP2 DUP2 PUSH2 0x9AF ADD MSTORE DUP2 DUP2 PUSH2 0xB4F ADD MSTORE DUP2 DUP2 PUSH2 0xE52 ADD MSTORE DUP2 DUP2 PUSH2 0x1338 ADD MSTORE DUP2 DUP2 PUSH2 0x15F7 ADD MSTORE DUP2 DUP2 PUSH2 0x16C5 ADD MSTORE DUP2 DUP2 PUSH2 0x17C7 ADD MSTORE DUP2 DUP2 PUSH2 0x1997 ADD MSTORE PUSH2 0x1A61 ADD MSTORE PUSH2 0x3A50 PUSH1 0x0 RETURN INVALID PUSH1 0x80 PUSH1 0x40 MSTORE PUSH1 0x4 CALLDATASIZE LT PUSH2 0x1D8 JUMPI PUSH1 0x0 CALLDATALOAD PUSH1 0xE0 SHR DUP1 PUSH4 0x8D0F6DA3 GT PUSH2 0x102 JUMPI DUP1 PUSH4 0xC764CD05 GT PUSH2 0x95 JUMPI DUP1 PUSH4 0xD57BDE79 GT PUSH2 0x64 JUMPI DUP1 PUSH4 0xD57BDE79 EQ PUSH2 0x5E0 JUMPI DUP1 PUSH4 0xD6FBF202 EQ PUSH2 0x60B JUMPI DUP1 PUSH4 0xE35A70D9 EQ PUSH2 0x636 JUMPI DUP1 PUSH4 0xE995478E EQ PUSH2 0x640 JUMPI PUSH2 0x1D8 JUMP JUMPDEST DUP1 PUSH4 0xC764CD05 EQ PUSH2 0x522 JUMPI DUP1 PUSH4 0xC7D26E62 EQ PUSH2 0x54D JUMPI DUP1 PUSH4 0xCFF29DFD EQ PUSH2 0x578 JUMPI DUP1 PUSH4 0xD3142328 EQ PUSH2 0x5B5 JUMPI PUSH2 0x1D8 JUMP JUMPDEST DUP1 PUSH4 0xA5A448A7 GT PUSH2 0xD1 JUMPI DUP1 PUSH4 0xA5A448A7 EQ PUSH2 0x48A JUMPI DUP1 PUSH4 0xB7F05217 EQ PUSH2 0x4A1 JUMPI DUP1 PUSH4 0xBDA43F91 EQ PUSH2 0x4CC JUMPI DUP1 PUSH4 0xC6C48962 EQ PUSH2 0x4F7 JUMPI PUSH2 0x1D8 JUMP JUMPDEST DUP1 PUSH4 0x8D0F6DA3 EQ PUSH2 0x3EA JUMPI DUP1 PUSH4 0x91F90157 EQ PUSH2 0x418 JUMPI DUP1 PUSH4 0x9979EF45 EQ PUSH2 0x443 JUMPI DUP1 PUSH4 0xA124B3D1 EQ PUSH2 0x45F JUMPI PUSH2 0x1D8 JUMP JUMPDEST DUP1 PUSH4 0x4C1786EA GT PUSH2 0x17A JUMPI DUP1 PUSH4 0x6A4445FB GT PUSH2 0x149 JUMPI DUP1 PUSH4 0x6A4445FB EQ PUSH2 0x37A JUMPI DUP1 PUSH4 0x73FAC6F0 EQ PUSH2 0x3A5 JUMPI DUP1 PUSH4 0x8282A4C1 EQ PUSH2 0x3BC JUMPI DUP1 PUSH4 0x892A0E42 EQ PUSH2 0x3D3 JUMPI PUSH2 0x1D8 JUMP JUMPDEST DUP1 PUSH4 0x4C1786EA EQ PUSH2 0x2BA JUMPI DUP1 PUSH4 0x4E69D560 EQ PUSH2 0x2E5 JUMPI DUP1 PUSH4 0x62EA82DB EQ PUSH2 0x310 JUMPI DUP1 PUSH4 0x6450BAC4 EQ PUSH2 0x34F JUMPI PUSH2 0x1D8 JUMP JUMPDEST DUP1 PUSH4 0x26CAE428 GT PUSH2 0x1B6 JUMPI DUP1 PUSH4 0x26CAE428 EQ PUSH2 0x24A JUMPI DUP1 PUSH4 0x48A1335A EQ PUSH2 0x261 JUMPI DUP1 PUSH4 0x49706EBE EQ PUSH2 0x28C JUMPI DUP1 PUSH4 0x4BB278F3 EQ PUSH2 0x2A3 JUMPI PUSH2 0x1D8 JUMP JUMPDEST DUP1 PUSH4 0x8551A53 EQ PUSH2 0x1DD JUMPI DUP1 PUSH4 0x117DF088 EQ PUSH2 0x208 JUMPI DUP1 PUSH4 0x12FA6FEB EQ PUSH2 0x21F JUMPI JUMPDEST PUSH1 0x0 DUP1 REVERT JUMPDEST CALLVALUE DUP1 ISZERO PUSH2 0x1E9 JUMPI PUSH1 0x0 DUP1 REVERT JUMPDEST POP PUSH2 0x1F2 PUSH2 0x66B JUMP JUMPDEST PUSH1 0x40 MLOAD PUSH2 0x1FF SWAP2 SWAP1 PUSH2 0x2681 JUMP JUMPDEST PUSH1 0x40 MLOAD DUP1 SWAP2 SUB SWAP1 RETURN JUMPDEST CALLVALUE DUP1 ISZERO PUSH2 0x214 JUMPI PUSH1 0x0 DUP1 REVERT JUMPDEST POP PUSH2 0x21D PUSH2 0x68F JUMP JUMPDEST STOP JUMPDEST CALLVALUE DUP1 ISZERO PUSH2 0x22B JUMPI PUSH1 0x0 DUP1 REVERT JUMPDEST POP PUSH2 0x234 PUSH2 0x99A JUMP JUMPDEST PUSH1 0x40 MLOAD PUSH2 0x241 SWAP2 SWAP1 PUSH2 0x26B7 JUMP JUMPDEST PUSH1 0x40 MLOAD DUP1 SWAP2 SUB SWAP1 RETURN JUMPDEST CALLVALUE DUP1 ISZERO PUSH2 0x256 JUMPI PUSH1 0x0 DUP1 REVERT JUMPDEST POP PUSH2 0x25F PUSH2 0x9AD JUMP JUMPDEST STOP JUMPDEST CALLVALUE DUP1 ISZERO PUSH2 0x26D JUMPI PUSH1 0x0 DUP1 REVERT JUMPDEST POP PUSH2 0x276 PUSH2 0xBB2 JUMP JUMPDEST PUSH1 0x40 MLOAD PUSH2 0x283 SWAP2 SWAP1 PUSH2 0x26B7 JUMP JUMPDEST PUSH1 0x40 MLOAD DUP1 SWAP2 SUB SWAP1 RETURN JUMPDEST CALLVALUE DUP1 ISZERO PUSH2 0x298 JUMPI PUSH1 0x0 DUP1 REVERT JUMPDEST POP PUSH2 0x2A1 PUSH2 0xBC5 JUMP JUMPDEST STOP JUMPDEST CALLVALUE DUP1 ISZERO PUSH2 0x2AF JUMPI PUSH1 0x0 DUP1 REVERT JUMPDEST POP PUSH2 0x2B8 PUSH2 0xED2 JUMP JUMPDEST STOP JUMPDEST CALLVALUE DUP1 ISZERO PUSH2 0x2C6 JUMPI PUSH1 0x0 DUP1 REVERT JUMPDEST POP PUSH2 0x2CF PUSH2 0xFFF JUMP JUMPDEST PUSH1 0x40 MLOAD PUSH2 0x2DC SWAP2 SWAP1 PUSH2 0x26EB JUMP JUMPDEST PUSH1 0x40 MLOAD DUP1 SWAP2 SUB SWAP1 RETURN JUMPDEST CALLVALUE DUP1 ISZERO PUSH2 0x2F1 JUMPI PUSH1 0x0 DUP1 REVERT JUMPDEST POP PUSH2 0x2FA PUSH2 0x1005 JUMP JUMPDEST PUSH1 0x40 MLOAD PUSH2 0x307 SWAP2 SWAP1 PUSH2 0x2796 JUMP JUMPDEST PUSH1 0x40 MLOAD DUP1 SWAP2 SUB SWAP1 RETURN JUMPDEST CALLVALUE DUP1 ISZERO PUSH2 0x31C JUMPI PUSH1 0x0 DUP1 REVERT JUMPDEST POP PUSH2 0x337 PUSH1 0x4 DUP1 CALLDATASIZE SUB DUP2 ADD SWAP1 PUSH2 0x332 SWAP2 SWAP1 PUSH2 0x27E9 JUMP JUMPDEST PUSH2 0x1187 JUMP JUMPDEST PUSH1 0x40 MLOAD PUSH2 0x346 SWAP4 SWAP3 SWAP2 SWAP1 PUSH2 0x2816 JUMP JUMPDEST PUSH1 0x40 MLOAD DUP1 SWAP2 SUB SWAP1 RETURN JUMPDEST CALLVALUE DUP1 ISZERO PUSH2 0x35B JUMPI PUSH1 0x0 DUP1 REVERT JUMPDEST POP PUSH2 0x364 PUSH2 0x11BE JUMP JUMPDEST PUSH1 0x40 MLOAD PUSH2 0x371 SWAP2 SWAP1 PUSH2 0x26EB JUMP JUMPDEST PUSH1 0x40 MLOAD DUP1 SWAP2 SUB SWAP1 RETURN JUMPDEST CALLVALUE DUP1 ISZERO PUSH2 0x386 JUMPI PUSH1 0x0 DUP1 REVERT JUMPDEST POP PUSH2 0x38F PUSH2 0x11C3 JUMP JUMPDEST PUSH1 0x40 MLOAD PUSH2 0x39C SWAP2 SWAP1 PUSH2 0x26B7 JUMP JUMPDEST PUSH1 0x40 MLOAD DUP1 SWAP2 SUB SWAP1 RETURN JUMPDEST CALLVALUE DUP1 ISZERO PUSH2 0x3B1 JUMPI PUSH1 0x0 DUP1 REVERT JUMPDEST POP PUSH2 0x3BA PUSH2 0x11D6 JUMP JUMPDEST STOP JUMPDEST CALLVALUE DUP1 ISZERO PUSH2 0x3C8 JUMPI PUSH1 0x0 DUP1 REVERT JUMPDEST POP PUSH2 0x3D1 PUSH2 0x1452 JUMP JUMPDEST STOP JUMPDEST CALLVALUE DUP1 ISZERO PUSH2 0x3DF JUMPI PUSH1 0x0 DUP1 REVERT JUMPDEST POP PUSH2 0x3E8 PUSH2 0x1875 JUMP JUMPDEST STOP JUMPDEST CALLVALUE DUP1 ISZERO PUSH2 0x3F6 JUMPI PUSH1 0x0 DUP1 REVERT JUMPDEST POP PUSH2 0x3FF PUSH2 0x1AD1 JUMP JUMPDEST PUSH1 0x40 MLOAD PUSH2 0x40F SWAP5 SWAP4 SWAP3 SWAP2 SWAP1 PUSH2 0x2A87 JUMP JUMPDEST PUSH1 0x40 MLOAD DUP1 SWAP2 SUB SWAP1 RETURN JUMPDEST CALLVALUE DUP1 ISZERO PUSH2 0x424 JUMPI PUSH1 0x0 DUP1 REVERT JUMPDEST POP PUSH2 0x42D PUSH2 0x1DB5 JUMP JUMPDEST PUSH1 0x40 MLOAD PUSH2 0x43A SWAP2 SWAP1 PUSH2 0x2681 JUMP JUMPDEST PUSH1 0x40 MLOAD DUP1 SWAP2 SUB SWAP1 RETURN JUMPDEST PUSH2 0x45D PUSH1 0x4 DUP1 CALLDATASIZE SUB DUP2 ADD SWAP1 PUSH2 0x458 SWAP2 SWAP1 PUSH2 0x2B14 JUMP JUMPDEST PUSH2 0x1DDB JUMP JUMPDEST STOP JUMPDEST CALLVALUE DUP1 ISZERO PUSH2 0x46B JUMPI PUSH1 0x0 DUP1 REVERT JUMPDEST POP PUSH2 0x474 PUSH2 0x20C4 JUMP JUMPDEST PUSH1 0x40 MLOAD PUSH2 0x481 SWAP2 SWAP1 PUSH2 0x26EB JUMP JUMPDEST PUSH1 0x40 MLOAD DUP1 SWAP2 SUB SWAP1 RETURN JUMPDEST CALLVALUE DUP1 ISZERO PUSH2 0x496 JUMPI PUSH1 0x0 DUP1 REVERT JUMPDEST POP PUSH2 0x49F PUSH2 0x20C9 JUMP JUMPDEST STOP JUMPDEST CALLVALUE DUP1 ISZERO PUSH2 0x4AD JUMPI PUSH1 0x0 DUP1 REVERT JUMPDEST POP PUSH2 0x4B6 PUSH2 0x2369 JUMP JUMPDEST PUSH1 0x40 MLOAD PUSH2 0x4C3 SWAP2 SWAP1 PUSH2 0x26EB JUMP JUMPDEST PUSH1 0x40 MLOAD DUP1 SWAP2 SUB SWAP1 RETURN JUMPDEST CALLVALUE DUP1 ISZERO PUSH2 0x4D8 JUMPI PUSH1 0x0 DUP1 REVERT JUMPDEST POP PUSH2 0x4E1 PUSH2 0x236E JUMP JUMPDEST PUSH1 0x40 MLOAD PUSH2 0x4EE SWAP2 SWAP1 PUSH2 0x26EB JUMP JUMPDEST PUSH1 0x40 MLOAD DUP1 SWAP2 SUB SWAP1 RETURN JUMPDEST CALLVALUE DUP1 ISZERO PUSH2 0x503 JUMPI PUSH1 0x0 DUP1 REVERT JUMPDEST POP PUSH2 0x50C PUSH2 0x2374 JUMP JUMPDEST PUSH1 0x40 MLOAD PUSH2 0x519 SWAP2 SWAP1 PUSH2 0x26EB JUMP JUMPDEST PUSH1 0x40 MLOAD DUP1 SWAP2 SUB SWAP1 RETURN JUMPDEST CALLVALUE DUP1 ISZERO PUSH2 0x52E JUMPI PUSH1 0x0 DUP1 REVERT JUMPDEST POP PUSH2 0x537 PUSH2 0x2379 JUMP JUMPDEST PUSH1 0x40 MLOAD PUSH2 0x544 SWAP2 SWAP1 PUSH2 0x26EB JUMP JUMPDEST PUSH1 0x40 MLOAD DUP1 SWAP2 SUB SWAP1 RETURN JUMPDEST CALLVALUE DUP1 ISZERO PUSH2 0x559 JUMPI PUSH1 0x0 DUP1 REVERT JUMPDEST POP PUSH2 0x562 PUSH2 0x239D JUMP JUMPDEST PUSH1 0x40 MLOAD PUSH2 0x56F SWAP2 SWAP1 PUSH2 0x26EB JUMP JUMPDEST PUSH1 0x40 MLOAD DUP1 SWAP2 SUB SWAP1 RETURN JUMPDEST CALLVALUE DUP1 ISZERO PUSH2 0x584 JUMPI PUSH1 0x0 DUP1 REVERT JUMPDEST POP PUSH2 0x59F PUSH1 0x4 DUP1 CALLDATASIZE SUB DUP2 ADD SWAP1 PUSH2 0x59A SWAP2 SWAP1 PUSH2 0x2B14 JUMP JUMPDEST PUSH2 0x23A3 JUMP JUMPDEST PUSH1 0x40 MLOAD PUSH2 0x5AC SWAP2 SWAP1 PUSH2 0x2681 JUMP JUMPDEST PUSH1 0x40 MLOAD DUP1 SWAP2 SUB SWAP1 RETURN JUMPDEST CALLVALUE DUP1 ISZERO PUSH2 0x5C1 JUMPI PUSH1 0x0 DUP1 REVERT JUMPDEST POP PUSH2 0x5CA PUSH2 0x23E2 JUMP JUMPDEST PUSH1 0x40 MLOAD PUSH2 0x5D7 SWAP2 SWAP1 PUSH2 0x26B7 JUMP JUMPDEST PUSH1 0x40 MLOAD DUP1 SWAP2 SUB SWAP1 RETURN JUMPDEST CALLVALUE DUP1 ISZERO PUSH2 0x5EC JUMPI PUSH1 0x0 DUP1 REVERT JUMPDEST POP PUSH2 0x5F5 PUSH2 0x23F5 JUMP JUMPDEST PUSH1 0x40 MLOAD PUSH2 0x602 SWAP2 SWAP1 PUSH2 0x26EB JUMP JUMPDEST PUSH1 0x40 MLOAD DUP1 SWAP2 SUB SWAP1 RETURN JUMPDEST CALLVALUE DUP1 ISZERO PUSH2 0x617 JUMPI PUSH1 0x0 DUP1 REVERT JUMPDEST POP PUSH2 0x620 PUSH2 0x23FB JUMP JUMPDEST PUSH1 0x40 MLOAD PUSH2 0x62D SWAP2 SWAP1 PUSH2 0x26EB JUMP JUMPDEST PUSH1 0x40 MLOAD DUP1 SWAP2 SUB SWAP1 RETURN JUMPDEST PUSH2 0x63E PUSH2 0x2401 JUMP JUMPDEST STOP JUMPDEST CALLVALUE DUP1 ISZERO PUSH2 0x64C JUMPI PUSH1 0x0 DUP1 REVERT JUMPDEST POP PUSH2 0x655 PUSH2 0x263B JUMP JUMPDEST PUSH1 0x40 MLOAD PUSH2 0x662 SWAP2 SWAP1 PUSH2 0x26EB JUMP JUMPDEST PUSH1 0x40 MLOAD DUP1 SWAP2 SUB SWAP1 RETURN JUMPDEST PUSH32 0x0 DUP2 JUMP JUMPDEST PUSH1 0x4 PUSH1 0x0 SWAP1 SLOAD SWAP1 PUSH2 0x100 EXP SWAP1 DIV PUSH1 0xFF AND PUSH2 0x6DE JUMPI PUSH1 0x40 MLOAD PUSH32 0x8C379A000000000000000000000000000000000000000000000000000000000 DUP2 MSTORE PUSH1 0x4 ADD PUSH2 0x6D5 SWAP1 PUSH2 0x2B8D JUMP JUMPDEST PUSH1 0x40 MLOAD DUP1 SWAP2 SUB SWAP1 REVERT JUMPDEST PUSH1 0x0 PUSH1 0x7 PUSH1 0x0 CALLER PUSH20 0xFFFFFFFFFFFFFFFFFFFFFFFFFFFFFFFFFFFFFFFF AND PUSH20 0xFFFFFFFFFFFFFFFFFFFFFFFFFFFFFFFFFFFFFFFF AND DUP2 MSTORE PUSH1 0x20 ADD SWAP1 DUP2 MSTORE PUSH1 0x20 ADD PUSH1 0x0 KECCAK256 SWAP1 POP PUSH1 0x0 DUP2 PUSH1 0x1 ADD SLOAD GT PUSH2 0x768 JUMPI PUSH1 0x40 MLOAD PUSH32 0x8C379A000000000000000000000000000000000000000000000000000000000 DUP2 MSTORE PUSH1 0x4 ADD PUSH2 0x75F SWAP1 PUSH2 0x2BF9 JUMP JUMPDEST PUSH1 0x40 MLOAD DUP1 SWAP2 SUB SWAP1 REVERT JUMPDEST DUP1 PUSH1 0x2 ADD PUSH1 0x0 SWAP1 SLOAD SWAP1 PUSH2 0x100 EXP SWAP1 DIV PUSH1 0xFF AND ISZERO PUSH2 0x7BA JUMPI PUSH1 0x40 MLOAD PUSH32 0x8C379A000000000000000000000000000000000000000000000000000000000 DUP2 MSTORE PUSH1 0x4 ADD PUSH2 0x7B1 SWAP1 PUSH2 0x2C65 JUMP JUMPDEST PUSH1 0x40 MLOAD DUP1 SWAP2 SUB SWAP1 REVERT JUMPDEST PUSH1 0x2 PUSH1 0x0 SWAP1 SLOAD SWAP1 PUSH2 0x100 EXP SWAP1 DIV PUSH20 0xFFFFFFFFFFFFFFFFFFFFFFFFFFFFFFFFFFFFFFFF AND PUSH20 0xFFFFFFFFFFFFFFFFFFFFFFFFFFFFFFFFFFFFFFFF AND CALLER PUSH20 0xFFFFFFFFFFFFFFFFFFFFFFFFFFFFFFFFFFFFFFFF AND SUB PUSH2 0x877 JUMPI PUSH1 0x4 PUSH1 0x3 SWAP1 SLOAD SWAP1 PUSH2 0x100 EXP SWAP1 DIV PUSH1 0xFF AND DUP1 PUSH2 0x837 JUMPI POP PUSH1 0x4 PUSH1 0x2 SWAP1 SLOAD SWAP1 PUSH2 0x100 EXP SWAP1 DIV PUSH1 0xFF AND ISZERO JUMPDEST PUSH2 0x876 JUMPI PUSH1 0x40 MLOAD PUSH32 0x8C379A000000000000000000000000000000000000000000000000000000000 DUP2 MSTORE PUSH1 0x4 ADD PUSH2 0x86D SWAP1 PUSH2 0x2CD1 JUMP JUMPDEST PUSH1 0x40 MLOAD DUP1 SWAP2 SUB SWAP1 REVERT JUMPDEST JUMPDEST PUSH1 0x1 DUP2 PUSH1 0x2 ADD PUSH1 0x0 PUSH2 0x100 EXP DUP2 SLOAD DUP2 PUSH1 0xFF MUL NOT AND SWAP1 DUP4 ISZERO ISZERO MUL OR SWAP1 SSTORE POP PUSH1 0x0 CALLER PUSH20 0xFFFFFFFFFFFFFFFFFFFFFFFFFFFFFFFFFFFFFFFF AND DUP3 PUSH1 0x1 ADD SLOAD PUSH1 0x40 MLOAD PUSH2 0x8BE SWAP1 PUSH2 0x2D22 JUMP JUMPDEST PUSH1 0x0 PUSH1 0x40 MLOAD DUP1 DUP4 SUB DUP2 DUP6 DUP8 GAS CALL SWAP3 POP POP POP RETURNDATASIZE DUP1 PUSH1 0x0 DUP2 EQ PUSH2 0x8FB JUMPI PUSH1 0x40 MLOAD SWAP2 POP PUSH1 0x1F NOT PUSH1 0x3F RETURNDATASIZE ADD AND DUP3 ADD PUSH1 0x40 MSTORE RETURNDATASIZE DUP3 MSTORE RETURNDATASIZE PUSH1 0x0 PUSH1 0x20 DUP5 ADD RETURNDATACOPY PUSH2 0x900 JUMP JUMPDEST PUSH1 0x60 SWAP2 POP JUMPDEST POP POP SWAP1 POP DUP1 PUSH2 0x944 JUMPI PUSH1 0x40 MLOAD PUSH32 0x8C379A000000000000000000000000000000000000000000000000000000000 DUP2 MSTORE PUSH1 0x4 ADD PUSH2 0x93B SWAP1 PUSH2 0x2D83 JUMP JUMPDEST PUSH1 0x40 MLOAD DUP1 SWAP2 SUB SWAP1 REVERT JUMPDEST CALLER PUSH20 0xFFFFFFFFFFFFFFFFFFFFFFFFFFFFFFFFFFFFFFFF AND PUSH32 0x4482101800A5C2E900F4156E57E05E19FFD7B366CDE579553D723FD3ABB2180E DUP4 PUSH1 0x1 ADD SLOAD PUSH1 0x40 MLOAD PUSH2 0x98E SWAP2 SWAP1 PUSH2 0x26EB JUMP JUMPDEST PUSH1 0x40 MLOAD DUP1 SWAP2 SUB SWAP1 LOG2 POP POP JUMP JUMPDEST PUSH1 0x4 PUSH1 0x0 SWAP1 SLOAD SWAP1 PUSH2 0x100 EXP SWAP1 DIV PUSH1 0xFF AND DUP2 JUMP JUMPDEST PUSH32 0x0 PUSH20 0xFFFFFFFFFFFFFFFFFFFFFFFFFFFFFFFFFFFFFFFF AND CALLER PUSH20 0xFFFFFFFFFFFFFFFFFFFFFFFFFFFFFFFFFFFFFFFF AND EQ PUSH2 0xA3B JUMPI PUSH1 0x40 MLOAD PUSH32 0x8C379A000000000000000000000000000000000000000000000000000000000 DUP2 MSTORE PUSH1 0x4 ADD PUSH2 0xA32 SWAP1 PUSH2 0x2DEF JUMP JUMPDEST PUSH1 0x40 MLOAD DUP1 SWAP2 SUB SWAP1 REVERT JUMPDEST PUSH1 0x4 PUSH1 0x1 SWAP1 SLOAD SWAP1 PUSH2 0x100 EXP SWAP1 DIV PUSH1 0xFF AND PUSH2 0xA8A JUMPI PUSH1 0x40 MLOAD PUSH32 0x8C379A000000000000000000000000000000000000000000000000000000000 DUP2 MSTORE PUSH1 0x4 ADD PUSH2 0xA81 SWAP1 PUSH2 0x2E5B JUMP JUMPDEST PUSH1 0x40 MLOAD DUP1 SWAP2 SUB SWAP1 REVERT JUMPDEST PUSH1 0x4 PUSH1 0x2 SWAP1 SLOAD SWAP1 PUSH2 0x100 EXP SWAP1 DIV PUSH1 0xFF AND ISZERO PUSH2 0xADA JUMPI PUSH1 0x40 MLOAD PUSH32 0x8C379A000000000000000000000000000000000000000000000000000000000 DUP2 MSTORE PUSH1 0x4 ADD PUSH2 0xAD1 SWAP1 PUSH2 0x2EC7 JUMP JUMPDEST PUSH1 0x40 MLOAD DUP1 SWAP2 SUB SWAP1 REVERT JUMPDEST PUSH1 0x3C PUSH1 0x5 SLOAD PUSH2 0xAE9 SWAP2 SWAP1 PUSH2 0x2F16 JUMP JUMPDEST TIMESTAMP GT ISZERO PUSH2 0xB2B JUMPI PUSH1 0x40 MLOAD PUSH32 0x8C379A000000000000000000000000000000000000000000000000000000000 DUP2 MSTORE PUSH1 0x4 ADD PUSH2 0xB22 SWAP1 PUSH2 0x2F96 JUMP JUMPDEST PUSH1 0x40 MLOAD DUP1 SWAP2 SUB SWAP1 REVERT JUMPDEST PUSH1 0x1 PUSH1 0x4 PUSH1 0x2 PUSH2 0x100 EXP DUP2 SLOAD DUP2 PUSH1 0xFF MUL NOT AND SWAP1 DUP4 ISZERO ISZERO MUL OR SWAP1 SSTORE POP TIMESTAMP PUSH1 0x6 DUP2 SWAP1 SSTORE POP PUSH32 0x0 PUSH20 0xFFFFFFFFFFFFFFFFFFFFFFFFFFFFFFFFFFFFFFFF AND PUSH32 0x880FBB660D958DB3FCB0EDB7302D571A0C9FAB06237EC103A0B2C1710B073974 PUSH1 0x40 MLOAD PUSH1 0x40 MLOAD DUP1 SWAP2 SUB SWAP1 LOG2 JUMP JUMPDEST PUSH1 0x4 PUSH1 0x3 SWAP1 SLOAD SWAP1 PUSH2 0x100 EXP SWAP1 DIV PUSH1 0xFF AND DUP2 JUMP JUMPDEST PUSH1 0x4 PUSH1 0x1 SWAP1 SLOAD SWAP1 PUSH2 0x100 EXP SWAP1 DIV PUSH1 0xFF AND PUSH2 0xC14 JUMPI PUSH1 0x40 MLOAD PUSH32 0x8C379A000000000000000000000000000000000000000000000000000000000 DUP2 MSTORE PUSH1 0x4 ADD PUSH2 0xC0B SWAP1 PUSH2 0x2E5B JUMP JUMPDEST PUSH1 0x40 MLOAD DUP1 SWAP2 SUB SWAP1 REVERT JUMPDEST PUSH1 0x4 PUSH1 0x2 SWAP1 SLOAD SWAP1 PUSH2 0x100 EXP SWAP1 DIV PUSH1 0xFF AND ISZERO PUSH2 0xC64 JUMPI PUSH1 0x40 MLOAD PUSH32 0x8C379A000000000000000000000000000000000000000000000000000000000 DUP2 MSTORE PUSH1 0x4 ADD PUSH2 0xC5B SWAP1 PUSH2 0x2EC7 JUMP JUMPDEST PUSH1 0x40 MLOAD DUP1 SWAP2 SUB SWAP1 REVERT JUMPDEST PUSH1 0x3C PUSH1 0x5 SLOAD PUSH2 0xC73 SWAP2 SWAP1 PUSH2 0x2F16 JUMP JUMPDEST TIMESTAMP GT PUSH2 0xCB4 JUMPI PUSH1 0x40 MLOAD PUSH32 0x8C379A000000000000000000000000000000000000000000000000000000000 DUP2 MSTORE PUSH1 0x4 ADD PUSH2 0xCAB SWAP1 PUSH2 0x3002 JUMP JUMPDEST PUSH1 0x40 MLOAD DUP1 SWAP2 SUB SWAP1 REVERT JUMPDEST PUSH1 0x0 PUSH1 0x2 PUSH1 0x1 SLOAD PUSH2 0xCC5 SWAP2 SWAP1 PUSH2 0x3051 JUMP JUMPDEST SWAP1 POP PUSH1 0x0 PUSH1 0x2 PUSH1 0x0 SWAP1 SLOAD SWAP1 PUSH2 0x100 EXP SWAP1 DIV PUSH20 0xFFFFFFFFFFFFFFFFFFFFFFFFFFFFFFFFFFFFFFFF AND PUSH20 0xFFFFFFFFFFFFFFFFFFFFFFFFFFFFFFFFFFFFFFFF AND DUP3 PUSH1 0x3 SLOAD PUSH2 0xD10 SWAP2 SWAP1 PUSH2 0x2F16 JUMP JUMPDEST PUSH1 0x40 MLOAD PUSH2 0xD1C SWAP1 PUSH2 0x2D22 JUMP JUMPDEST PUSH1 0x0 PUSH1 0x40 MLOAD DUP1 DUP4 SUB DUP2 DUP6 DUP8 GAS CALL SWAP3 POP POP POP RETURNDATASIZE DUP1 PUSH1 0x0 DUP2 EQ PUSH2 0xD59 JUMPI PUSH1 0x40 MLOAD SWAP2 POP PUSH1 0x1F NOT PUSH1 0x3F RETURNDATASIZE ADD AND DUP3 ADD PUSH1 0x40 MSTORE RETURNDATASIZE DUP3 MSTORE RETURNDATASIZE PUSH1 0x0 PUSH1 0x20 DUP5 ADD RETURNDATACOPY PUSH2 0xD5E JUMP JUMPDEST PUSH1 0x60 SWAP2 POP JUMPDEST POP POP SWAP1 POP DUP1 PUSH2 0xDA2 JUMPI PUSH1 0x40 MLOAD PUSH32 0x8C379A000000000000000000000000000000000000000000000000000000000 DUP2 MSTORE PUSH1 0x4 ADD PUSH2 0xD99 SWAP1 PUSH2 0x30CE JUMP JUMPDEST PUSH1 0x40 MLOAD DUP1 SWAP2 SUB SWAP1 REVERT JUMPDEST PUSH1 0x0 PUSH2 0xDEAD PUSH20 0xFFFFFFFFFFFFFFFFFFFFFFFFFFFFFFFFFFFFFFFF AND DUP4 PUSH1 0x40 MLOAD PUSH2 0xDCA SWAP1 PUSH2 0x2D22 JUMP JUMPDEST PUSH1 0x0 PUSH1 0x40 MLOAD DUP1 DUP4 SUB DUP2 DUP6 DUP8 GAS CALL SWAP3 POP POP POP RETURNDATASIZE DUP1 PUSH1 0x0 DUP2 EQ PUSH2 0xE07 JUMPI PUSH1 0x40 MLOAD SWAP2 POP PUSH1 0x1F NOT PUSH1 0x3F RETURNDATASIZE ADD AND DUP3 ADD PUSH1 0x40 MSTORE RETURNDATASIZE DUP3 MSTORE RETURNDATASIZE PUSH1 0x0 PUSH1 0x20 DUP5 ADD RETURNDATACOPY PUSH2 0xE0C JUMP JUMPDEST PUSH1 0x60 SWAP2 POP JUMPDEST POP POP SWAP1 POP DUP1 PUSH2 0xE50 JUMPI PUSH1 0x40 MLOAD PUSH32 0x8C379A000000000000000000000000000000000000000000000000000000000 DUP2 MSTORE PUSH1 0x4 ADD PUSH2 0xE47 SWAP1 PUSH2 0x313A JUMP JUMPDEST PUSH1 0x40 MLOAD DUP1 SWAP2 SUB SWAP1 REVERT JUMPDEST PUSH32 0x0 PUSH20 0xFFFFFFFFFFFFFFFFFFFFFFFFFFFFFFFFFFFFFFFF AND PUSH32 0x102E3EED9525752CDD3140813EDE5653B633D9CDD0753B3AEF43C9C8059F91E9 DUP5 PUSH1 0x3 SLOAD PUSH2 0xEB6 SWAP2 SWAP1 PUSH2 0x2F16 JUMP JUMPDEST DUP6 PUSH1 0x40 MLOAD PUSH2 0xEC5 SWAP3 SWAP2 SWAP1 PUSH2 0x315A JUMP JUMPDEST PUSH1 0x40 MLOAD DUP1 SWAP2 SUB SWAP1 LOG2 POP POP POP JUMP JUMPDEST PUSH32 0x0 TIMESTAMP LT ISZERO PUSH2 0xF35 JUMPI PUSH1 0x40 MLOAD PUSH32 0x8C379A000000000000000000000000000000000000000000000000000000000 DUP2 MSTORE PUSH1 0x4 ADD PUSH2 0xF2C SWAP1 PUSH2 0x2B8D JUMP JUMPDEST PUSH1 0x40 MLOAD DUP1 SWAP2 SUB SWAP1 REVERT JUMPDEST PUSH1 0x4 PUSH1 0x0 SWAP1 SLOAD SWAP1 PUSH2 0x100 EXP SWAP1 DIV PUSH1 0xFF AND ISZERO PUSH2 0xF85 JUMPI PUSH1 0x40 MLOAD PUSH32 0x8C379A000000000000000000000000000000000000000000000000000000000 DUP2 MSTORE PUSH1 0x4 ADD PUSH2 0xF7C SWAP1 PUSH2 0x31CF JUMP JUMPDEST PUSH1 0x40 MLOAD DUP1 SWAP2 SUB SWAP1 REVERT JUMPDEST PUSH1 0x1 PUSH1 0x4 PUSH1 0x0 PUSH2 0x100 EXP DUP2 SLOAD DUP2 PUSH1 0xFF MUL NOT AND SWAP1 DUP4 ISZERO ISZERO MUL OR SWAP1 SSTORE POP PUSH32 0xDAEC4582D5D9595688C8C98545FDD1C696D41C6AEAEB636737E84ED2F5C00EDA PUSH1 0x2 PUSH1 0x0 SWAP1 SLOAD SWAP1 PUSH2 0x100 EXP SWAP1 DIV PUSH20 0xFFFFFFFFFFFFFFFFFFFFFFFFFFFFFFFFFFFFFFFF AND PUSH1 0x3 SLOAD PUSH1 0x40 MLOAD PUSH2 0xFF5 SWAP3 SWAP2 SWAP1 PUSH2 0x31EF JUMP JUMPDEST PUSH1 0x40 MLOAD DUP1 SWAP2 SUB SWAP1 LOG1 JUMP JUMPDEST PUSH1 0x1 SLOAD DUP2 JUMP JUMPDEST PUSH1 0x60 PUSH1 0x4 PUSH1 0x0 SWAP1 SLOAD SWAP1 PUSH2 0x100 EXP SWAP1 DIV PUSH1 0xFF AND PUSH2 0x1058 JUMPI PUSH1 0x40 MLOAD DUP1 PUSH1 0x40 ADD PUSH1 0x40 MSTORE DUP1 PUSH1 0x6 DUP2 MSTORE PUSH1 0x20 ADD PUSH32 0x4163746976650000000000000000000000000000000000000000000000000000 DUP2 MSTORE POP SWAP1 POP PUSH2 0x1184 JUMP JUMPDEST PUSH1 0x4 PUSH1 0x1 SWAP1 SLOAD SWAP1 PUSH2 0x100 EXP SWAP1 DIV PUSH1 0xFF AND PUSH2 0x10A9 JUMPI PUSH1 0x40 MLOAD DUP1 PUSH1 0x40 ADD PUSH1 0x40 MSTORE DUP1 PUSH1 0x18 DUP2 MSTORE PUSH1 0x20 ADD PUSH32 0x456E646564202D204177616974696E67205061796D656E740000000000000000 DUP2 MSTORE POP SWAP1 POP PUSH2 0x1184 JUMP JUMPDEST PUSH1 0x4 PUSH1 0x2 SWAP1 SLOAD SWAP1 PUSH2 0x100 EXP SWAP1 DIV PUSH1 0xFF AND PUSH2 0x10FA JUMPI PUSH1 0x40 MLOAD DUP1 PUSH1 0x40 ADD PUSH1 0x40 MSTORE DUP1 PUSH1 0x18 DUP2 MSTORE PUSH1 0x20 ADD PUSH32 0x50616964202D204177616974696E6720536869706D656E740000000000000000 DUP2 MSTORE POP SWAP1 POP PUSH2 0x1184 JUMP JUMPDEST PUSH1 0x4 PUSH1 0x3 SWAP1 SLOAD SWAP1 PUSH2 0x100 EXP SWAP1 DIV PUSH1 0xFF AND PUSH2 0x114B JUMPI PUSH1 0x40 MLOAD DUP1 PUSH1 0x40 ADD PUSH1 0x40 MSTORE DUP1 PUSH1 0x1F DUP2 MSTORE PUSH1 0x20 ADD PUSH32 0x53686970706564202D204177616974696E6720436F6E6669726D6174696F6E00 DUP2 MSTORE POP SWAP1 POP PUSH2 0x1184 JUMP JUMPDEST PUSH1 0x40 MLOAD DUP1 PUSH1 0x40 ADD PUSH1 0x40 MSTORE DUP1 PUSH1 0x9 DUP2 MSTORE PUSH1 0x20 ADD PUSH32 0x436F6D706C657465640000000000000000000000000000000000000000000000 DUP2 MSTORE POP SWAP1 POP JUMPDEST SWAP1 JUMP JUMPDEST PUSH1 0x7 PUSH1 0x20 MSTORE DUP1 PUSH1 0x0 MSTORE PUSH1 0x40 PUSH1 0x0 KECCAK256 PUSH1 0x0 SWAP2 POP SWAP1 POP DUP1 PUSH1 0x0 ADD SLOAD SWAP1 DUP1 PUSH1 0x1 ADD SLOAD SWAP1 DUP1 PUSH1 0x2 ADD PUSH1 0x0 SWAP1 SLOAD SWAP1 PUSH2 0x100 EXP SWAP1 DIV PUSH1 0xFF AND SWAP1 POP DUP4 JUMP JUMPDEST PUSH1 0x14 DUP2 JUMP JUMPDEST PUSH1 0x4 PUSH1 0x2 SWAP1 SLOAD SWAP1 PUSH2 0x100 EXP SWAP1 DIV PUSH1 0xFF AND DUP2 JUMP JUMPDEST PUSH1 0x2 PUSH1 0x0 SWAP1 SLOAD SWAP1 PUSH2 0x100 EXP SWAP1 DIV PUSH20 0xFFFFFFFFFFFFFFFFFFFFFFFFFFFFFFFFFFFFFFFF AND PUSH20 0xFFFFFFFFFFFFFFFFFFFFFFFFFFFFFFFFFFFFFFFF AND CALLER PUSH20 0xFFFFFFFFFFFFFFFFFFFFFFFFFFFFFFFFFFFFFFFF AND EQ PUSH2 0x1266 JUMPI PUSH1 0x40 MLOAD PUSH32 0x8C379A000000000000000000000000000000000000000000000000000000000 DUP2 MSTORE PUSH1 0x4 ADD PUSH2 0x125D SWAP1 PUSH2 0x3264 JUMP JUMPDEST PUSH1 0x40 MLOAD DUP1 SWAP2 SUB SWAP1 REVERT JUMPDEST PUSH1 0x4 PUSH1 0x2 SWAP1 SLOAD SWAP1 PUSH2 0x100 EXP SWAP1 DIV PUSH1 0xFF AND PUSH2 0x12B5 JUMPI PUSH1 0x40 MLOAD PUSH32 0x8C379A000000000000000000000000000000000000000000000000000000000 DUP2 MSTORE PUSH1 0x4 ADD PUSH2 0x12AC SWAP1 PUSH2 0x32D0 JUMP JUMPDEST PUSH1 0x40 MLOAD DUP1 SWAP2 SUB SWAP1 REVERT JUMPDEST PUSH1 0x4 PUSH1 0x3 SWAP1 SLOAD SWAP1 PUSH2 0x100 EXP SWAP1 DIV PUSH1 0xFF AND ISZERO PUSH2 0x1305 JUMPI PUSH1 0x40 MLOAD PUSH32 0x8C379A000000000000000000000000000000000000000000000000000000000 DUP2 MSTORE PUSH1 0x4 ADD PUSH2 0x12FC SWAP1 PUSH2 0x333C JUMP JUMPDEST PUSH1 0x40 MLOAD DUP1 SWAP2 SUB SWAP1 REVERT JUMPDEST PUSH1 0x1 PUSH1 0x4 PUSH1 0x3 PUSH2 0x100 EXP DUP2 SLOAD DUP2 PUSH1 0xFF MUL NOT AND SWAP1 DUP4 ISZERO ISZERO MUL OR SWAP1 SSTORE POP PUSH1 0x0 PUSH1 0x1 SLOAD PUSH1 0x3 SLOAD PUSH2 0x1332 SWAP2 SWAP1 PUSH2 0x2F16 JUMP JUMPDEST SWAP1 POP PUSH1 0x0 PUSH32 0x0 PUSH20 0xFFFFFFFFFFFFFFFFFFFFFFFFFFFFFFFFFFFFFFFF AND DUP3 PUSH1 0x40 MLOAD PUSH2 0x137A SWAP1 PUSH2 0x2D22 JUMP JUMPDEST PUSH1 0x0 PUSH1 0x40 MLOAD DUP1 DUP4 SUB DUP2 DUP6 DUP8 GAS CALL SWAP3 POP POP POP RETURNDATASIZE DUP1 PUSH1 0x0 DUP2 EQ PUSH2 0x13B7 JUMPI PUSH1 0x40 MLOAD SWAP2 POP PUSH1 0x1F NOT PUSH1 0x3F RETURNDATASIZE ADD AND DUP3 ADD PUSH1 0x40 MSTORE RETURNDATASIZE DUP3 MSTORE RETURNDATASIZE PUSH1 0x0 PUSH1 0x20 DUP5 ADD RETURNDATACOPY PUSH2 0x13BC JUMP JUMPDEST PUSH1 0x60 SWAP2 POP JUMPDEST POP POP SWAP1 POP DUP1 PUSH2 0x1400 JUMPI PUSH1 0x40 MLOAD PUSH32 0x8C379A000000000000000000000000000000000000000000000000000000000 DUP2 MSTORE PUSH1 0x4 ADD PUSH2 0x13F7 SWAP1 PUSH2 0x33A8 JUMP JUMPDEST PUSH1 0x40 MLOAD DUP1 SWAP2 SUB SWAP1 REVERT JUMPDEST CALLER PUSH20 0xFFFFFFFFFFFFFFFFFFFFFFFFFFFFFFFFFFFFFFFF AND PUSH32 0x253DC7DA728BA73E554F473A0466012973ACCB631842F82C6DD18308CB039E18 DUP4 PUSH1 0x40 MLOAD PUSH2 0x1446 SWAP2 SWAP1 PUSH2 0x26EB JUMP JUMPDEST PUSH1 0x40 MLOAD DUP1 SWAP2 SUB SWAP1 LOG2 POP POP JUMP JUMPDEST PUSH1 0x4 PUSH1 0x0 SWAP1 SLOAD SWAP1 PUSH2 0x100 EXP SWAP1 DIV PUSH1 0xFF AND PUSH2 0x14A1 JUMPI PUSH1 0x40 MLOAD PUSH32 0x8C379A000000000000000000000000000000000000000000000000000000000 DUP2 MSTORE PUSH1 0x4 ADD PUSH2 0x1498 SWAP1 PUSH2 0x3414 JUMP JUMPDEST PUSH1 0x40 MLOAD DUP1 SWAP2 SUB SWAP1 REVERT JUMPDEST PUSH1 0x4 PUSH1 0x1 SWAP1 SLOAD SWAP1 PUSH2 0x100 EXP SWAP1 DIV PUSH1 0xFF AND ISZERO PUSH2 0x14F1 JUMPI PUSH1 0x40 MLOAD PUSH32 0x8C379A000000000000000000000000000000000000000000000000000000000 DUP2 MSTORE PUSH1 0x4 ADD PUSH2 0x14E8 SWAP1 PUSH2 0x3480 JUMP JUMPDEST PUSH1 0x40 MLOAD DUP1 SWAP2 SUB SWAP1 REVERT JUMPDEST PUSH1 0x3C PUSH32 0x0 PUSH2 0x151E SWAP2 SWAP1 PUSH2 0x2F16 JUMP JUMPDEST TIMESTAMP GT PUSH2 0x155F JUMPI PUSH1 0x40 MLOAD PUSH32 0x8C379A000000000000000000000000000000000000000000000000000000000 DUP2 MSTORE PUSH1 0x4 ADD PUSH2 0x1556 SWAP1 PUSH2 0x34EC JUMP JUMPDEST PUSH1 0x40 MLOAD DUP1 SWAP2 SUB SWAP1 REVERT JUMPDEST PUSH1 0x0 PUSH1 0x7 PUSH1 0x0 PUSH1 0x2 PUSH1 0x0 SWAP1 SLOAD SWAP1 PUSH2 0x100 EXP SWAP1 DIV PUSH20 0xFFFFFFFFFFFFFFFFFFFFFFFFFFFFFFFFFFFFFFFF AND PUSH20 0xFFFFFFFFFFFFFFFFFFFFFFFFFFFFFFFFFFFFFFFF AND PUSH20 0xFFFFFFFFFFFFFFFFFFFFFFFFFFFFFFFFFFFFFFFF AND DUP2 MSTORE PUSH1 0x20 ADD SWAP1 DUP2 MSTORE PUSH1 0x20 ADD PUSH1 0x0 KECCAK256 SWAP1 POP PUSH1 0x0 DUP2 PUSH1 0x1 ADD SLOAD SWAP1 POP PUSH1 0x0 DUP2 GT ISZERO PUSH2 0x16C1 JUMPI PUSH1 0x1 DUP3 PUSH1 0x2 ADD PUSH1 0x0 PUSH2 0x100 EXP DUP2 SLOAD DUP2 PUSH1 0xFF MUL NOT AND SWAP1 DUP4 ISZERO ISZERO MUL OR SWAP1 SSTORE POP PUSH1 0x0 PUSH32 0x0 PUSH20 0xFFFFFFFFFFFFFFFFFFFFFFFFFFFFFFFFFFFFFFFF AND DUP3 PUSH1 0x40 MLOAD PUSH2 0x1639 SWAP1 PUSH2 0x2D22 JUMP JUMPDEST PUSH1 0x0 PUSH1 0x40 MLOAD DUP1 DUP4 SUB DUP2 DUP6 DUP8 GAS CALL SWAP3 POP POP POP RETURNDATASIZE DUP1 PUSH1 0x0 DUP2 EQ PUSH2 0x1676 JUMPI PUSH1 0x40 MLOAD SWAP2 POP PUSH1 0x1F NOT PUSH1 0x3F RETURNDATASIZE ADD AND DUP3 ADD PUSH1 0x40 MSTORE RETURNDATASIZE DUP3 MSTORE RETURNDATASIZE PUSH1 0x0 PUSH1 0x20 DUP5 ADD RETURNDATACOPY PUSH2 0x167B JUMP JUMPDEST PUSH1 0x60 SWAP2 POP JUMPDEST POP POP SWAP1 POP DUP1 PUSH2 0x16BF JUMPI PUSH1 0x40 MLOAD PUSH32 0x8C379A000000000000000000000000000000000000000000000000000000000 DUP2 MSTORE PUSH1 0x4 ADD PUSH2 0x16B6 SWAP1 PUSH2 0x357E JUMP JUMPDEST PUSH1 0x40 MLOAD DUP1 SWAP2 SUB SWAP1 REVERT JUMPDEST POP JUMPDEST PUSH1 0x0 PUSH32 0x0 PUSH20 0xFFFFFFFFFFFFFFFFFFFFFFFFFFFFFFFFFFFFFFFF AND PUSH1 0x1 SLOAD PUSH1 0x40 MLOAD PUSH2 0x1709 SWAP1 PUSH2 0x2D22 JUMP JUMPDEST PUSH1 0x0 PUSH1 0x40 MLOAD DUP1 DUP4 SUB DUP2 DUP6 DUP8 GAS CALL SWAP3 POP POP POP RETURNDATASIZE DUP1 PUSH1 0x0 DUP2 EQ PUSH2 0x1746 JUMPI PUSH1 0x40 MLOAD SWAP2 POP PUSH1 0x1F NOT PUSH1 0x3F RETURNDATASIZE ADD AND DUP3 ADD PUSH1 0x40 MSTORE RETURNDATASIZE DUP3 MSTORE RETURNDATASIZE PUSH1 0x0 PUSH1 0x20 DUP5 ADD RETURNDATACOPY PUSH2 0x174B JUMP JUMPDEST PUSH1 0x60 SWAP2 POP JUMPDEST POP POP SWAP1 POP DUP1 PUSH2 0x178F JUMPI PUSH1 0x40 MLOAD PUSH32 0x8C379A000000000000000000000000000000000000000000000000000000000 DUP2 MSTORE PUSH1 0x4 ADD PUSH2 0x1786 SWAP1 PUSH2 0x35EA JUMP JUMPDEST PUSH1 0x40 MLOAD DUP1 SWAP2 SUB SWAP1 REVERT JUMPDEST PUSH1 0x1 PUSH1 0x4 PUSH1 0x1 PUSH2 0x100 EXP DUP2 SLOAD DUP2 PUSH1 0xFF MUL NOT AND SWAP1 DUP4 ISZERO ISZERO MUL OR SWAP1 SSTORE POP PUSH1 0x1 PUSH1 0x4 PUSH1 0x3 PUSH2 0x100 EXP DUP2 SLOAD DUP2 PUSH1 0xFF MUL NOT AND SWAP1 DUP4 ISZERO ISZERO MUL OR SWAP1 SSTORE POP PUSH32 0x0 PUSH20 0xFFFFFFFFFFFFFFFFFFFFFFFFFFFFFFFFFFFFFFFF AND PUSH1 0x2 PUSH1 0x0 SWAP1 SLOAD SWAP1 PUSH2 0x100 EXP SWAP1 DIV PUSH20 0xFFFFFFFFFFFFFFFFFFFFFFFFFFFFFFFFFFFFFFFF AND PUSH20 0xFFFFFFFFFFFFFFFFFFFFFFFFFFFFFFFFFFFFFFFF AND PUSH32 0x763572E8DF6B9220EA32E77317C65861A0BD34EB109CBCF374A6B406F218535D DUP5 PUSH1 0x1 SLOAD PUSH1 0x40 MLOAD PUSH2 0x1868 SWAP3 SWAP2 SWAP1 PUSH2 0x315A JUMP JUMPDEST PUSH1 0x40 MLOAD DUP1 SWAP2 SUB SWAP1 LOG3 POP POP POP JUMP JUMPDEST PUSH1 0x4 PUSH1 0x2 SWAP1 SLOAD SWAP1 PUSH2 0x100 EXP SWAP1 DIV PUSH1 0xFF AND PUSH2 0x18C4 JUMPI PUSH1 0x40 MLOAD PUSH32 0x8C379A000000000000000000000000000000000000000000000000000000000 DUP2 MSTORE PUSH1 0x4 ADD PUSH2 0x18BB SWAP1 PUSH2 0x32D0 JUMP JUMPDEST PUSH1 0x40 MLOAD DUP1 SWAP2 SUB SWAP1 REVERT JUMPDEST PUSH1 0x4 PUSH1 0x3 SWAP1 SLOAD SWAP1 PUSH2 0x100 EXP SWAP1 DIV PUSH1 0xFF AND ISZERO PUSH2 0x1914 JUMPI PUSH1 0x40 MLOAD PUSH32 0x8C379A000000000000000000000000000000000000000000000000000000000 DUP2 MSTORE PUSH1 0x4 ADD PUSH2 0x190B SWAP1 PUSH2 0x333C JUMP JUMPDEST PUSH1 0x40 MLOAD DUP1 SWAP2 SUB SWAP1 REVERT JUMPDEST PUSH1 0x3C PUSH1 0x6 SLOAD PUSH2 0x1923 SWAP2 SWAP1 PUSH2 0x2F16 JUMP JUMPDEST TIMESTAMP GT PUSH2 0x1964 JUMPI PUSH1 0x40 MLOAD PUSH32 0x8C379A000000000000000000000000000000000000000000000000000000000 DUP2 MSTORE PUSH1 0x4 ADD PUSH2 0x195B SWAP1 PUSH2 0x3002 JUMP JUMPDEST PUSH1 0x40 MLOAD DUP1 SWAP2 SUB SWAP1 REVERT JUMPDEST PUSH1 0x1 PUSH1 0x4 PUSH1 0x3 PUSH2 0x100 EXP DUP2 SLOAD DUP2 PUSH1 0xFF MUL NOT AND SWAP1 DUP4 ISZERO ISZERO MUL OR SWAP1 SSTORE POP PUSH1 0x0 PUSH1 0x1 SLOAD PUSH1 0x3 SLOAD PUSH2 0x1991 SWAP2 SWAP1 PUSH2 0x2F16 JUMP JUMPDEST SWAP1 POP PUSH1 0x0 PUSH32 0x0 PUSH20 0xFFFFFFFFFFFFFFFFFFFFFFFFFFFFFFFFFFFFFFFF AND DUP3 PUSH1 0x40 MLOAD PUSH2 0x19D9 SWAP1 PUSH2 0x2D22 JUMP JUMPDEST PUSH1 0x0 PUSH1 0x40 MLOAD DUP1 DUP4 SUB DUP2 DUP6 DUP8 GAS CALL SWAP3 POP POP POP RETURNDATASIZE DUP1 PUSH1 0x0 DUP2 EQ PUSH2 0x1A16 JUMPI PUSH1 0x40 MLOAD SWAP2 POP PUSH1 0x1F NOT PUSH1 0x3F RETURNDATASIZE ADD AND DUP3 ADD PUSH1 0x40 MSTORE RETURNDATASIZE DUP3 MSTORE RETURNDATASIZE PUSH1 0x0 PUSH1 0x20 DUP5 ADD RETURNDATACOPY PUSH2 0x1A1B JUMP JUMPDEST PUSH1 0x60 SWAP2 POP JUMPDEST POP POP SWAP1 POP DUP1 PUSH2 0x1A5F JUMPI PUSH1 0x40 MLOAD PUSH32 0x8C379A000000000000000000000000000000000000000000000000000000000 DUP2 MSTORE PUSH1 0x4 ADD PUSH2 0x1A56 SWAP1 PUSH2 0x2D83 JUMP JUMPDEST PUSH1 0x40 MLOAD DUP1 SWAP2 SUB SWAP1 REVERT JUMPDEST PUSH32 0x0 PUSH20 0xFFFFFFFFFFFFFFFFFFFFFFFFFFFFFFFFFFFFFFFF AND PUSH32 0xCD4DA42AF5B021FC21DA9A907D35B93287BFD51506D7C07B74C1979AEC30C579 DUP4 PUSH1 0x40 MLOAD PUSH2 0x1AC5 SWAP2 SWAP1 PUSH2 0x26EB JUMP JUMPDEST PUSH1 0x40 MLOAD DUP1 SWAP2 SUB SWAP1 LOG2 POP POP JUMP JUMPDEST PUSH1 0x60 DUP1 PUSH1 0x60 DUP1 PUSH1 0x0 PUSH1 0x8 DUP1 SLOAD SWAP1 POP SWAP1 POP DUP1 PUSH8 0xFFFFFFFFFFFFFFFF DUP2 GT ISZERO PUSH2 0x1AFB JUMPI PUSH2 0x1AFA PUSH2 0x360A JUMP JUMPDEST JUMPDEST PUSH1 0x40 MLOAD SWAP1 DUP1 DUP3 MSTORE DUP1 PUSH1 0x20 MUL PUSH1 0x20 ADD DUP3 ADD PUSH1 0x40 MSTORE DUP1 ISZERO PUSH2 0x1B29 JUMPI DUP2 PUSH1 0x20 ADD PUSH1 0x20 DUP3 MUL DUP1 CALLDATASIZE DUP4 CALLDATACOPY DUP1 DUP3 ADD SWAP2 POP POP SWAP1 POP JUMPDEST POP SWAP5 POP DUP1 PUSH8 0xFFFFFFFFFFFFFFFF DUP2 GT ISZERO PUSH2 0x1B46 JUMPI PUSH2 0x1B45 PUSH2 0x360A JUMP JUMPDEST JUMPDEST PUSH1 0x40 MLOAD SWAP1 DUP1 DUP3 MSTORE DUP1 PUSH1 0x20 MUL PUSH1 0x20 ADD DUP3 ADD PUSH1 0x40 MSTORE DUP1 ISZERO PUSH2 0x1B74 JUMPI DUP2 PUSH1 0x20 ADD PUSH1 0x20 DUP3 MUL DUP1 CALLDATASIZE DUP4 CALLDATACOPY DUP1 DUP3 ADD SWAP2 POP POP SWAP1 POP JUMPDEST POP SWAP4 POP DUP1 PUSH8 0xFFFFFFFFFFFFFFFF DUP2 GT ISZERO PUSH2 0x1B91 JUMPI PUSH2 0x1B90 PUSH2 0x360A JUMP JUMPDEST JUMPDEST PUSH1 0x40 MLOAD SWAP1 DUP1 DUP3 MSTORE DUP1 PUSH1 0x20 MUL PUSH1 0x20 ADD DUP3 ADD PUSH1 0x40 MSTORE DUP1 ISZERO PUSH2 0x1BBF JUMPI DUP2 PUSH1 0x20 ADD PUSH1 0x20 DUP3 MUL DUP1 CALLDATASIZE DUP4 CALLDATACOPY DUP1 DUP3 ADD SWAP2 POP POP SWAP1 POP JUMPDEST POP SWAP3 POP DUP1 PUSH8 0xFFFFFFFFFFFFFFFF DUP2 GT ISZERO PUSH2 0x1BDC JUMPI PUSH2 0x1BDB PUSH2 0x360A JUMP JUMPDEST JUMPDEST PUSH1 0x40 MLOAD SWAP1 DUP1 DUP3 MSTORE DUP1 PUSH1 0x20 MUL PUSH1 0x20 ADD DUP3 ADD PUSH1 0x40 MSTORE DUP1 ISZERO PUSH2 0x1C0A JUMPI DUP2 PUSH1 0x20 ADD PUSH1 0x20 DUP3 MUL DUP1 CALLDATASIZE DUP4 CALLDATACOPY DUP1 DUP3 ADD SWAP2 POP POP SWAP1 POP JUMPDEST POP SWAP2 POP PUSH1 0x0 JUMPDEST DUP2 DUP2 LT ISZERO PUSH2 0x1DAD JUMPI PUSH1 0x0 PUSH1 0x8 DUP3 DUP2 SLOAD DUP2 LT PUSH2 0x1C2E JUMPI PUSH2 0x1C2D PUSH2 0x3639 JUMP JUMPDEST JUMPDEST SWAP1 PUSH1 0x0 MSTORE PUSH1 0x20 PUSH1 0x0 KECCAK256 ADD PUSH1 0x0 SWAP1 SLOAD SWAP1 PUSH2 0x100 EXP SWAP1 DIV PUSH20 0xFFFFFFFFFFFFFFFFFFFFFFFFFFFFFFFFFFFFFFFF AND SWAP1 POP PUSH1 0x0 PUSH1 0x7 PUSH1 0x0 DUP4 PUSH20 0xFFFFFFFFFFFFFFFFFFFFFFFFFFFFFFFFFFFFFFFF AND PUSH20 0xFFFFFFFFFFFFFFFFFFFFFFFFFFFFFFFFFFFFFFFF AND DUP2 MSTORE PUSH1 0x20 ADD SWAP1 DUP2 MSTORE PUSH1 0x20 ADD PUSH1 0x0 KECCAK256 PUSH1 0x40 MLOAD DUP1 PUSH1 0x60 ADD PUSH1 0x40 MSTORE SWAP1 DUP2 PUSH1 0x0 DUP3 ADD SLOAD DUP2 MSTORE PUSH1 0x20 ADD PUSH1 0x1 DUP3 ADD SLOAD DUP2 MSTORE PUSH1 0x20 ADD PUSH1 0x2 DUP3 ADD PUSH1 0x0 SWAP1 SLOAD SWAP1 PUSH2 0x100 EXP SWAP1 DIV PUSH1 0xFF AND ISZERO ISZERO ISZERO ISZERO DUP2 MSTORE POP POP SWAP1 POP DUP2 DUP9 DUP5 DUP2 MLOAD DUP2 LT PUSH2 0x1CEC JUMPI PUSH2 0x1CEB PUSH2 0x3639 JUMP JUMPDEST JUMPDEST PUSH1 0x20 MUL PUSH1 0x20 ADD ADD SWAP1 PUSH20 0xFFFFFFFFFFFFFFFFFFFFFFFFFFFFFFFFFFFFFFFF AND SWAP1 DUP2 PUSH20 0xFFFFFFFFFFFFFFFFFFFFFFFFFFFFFFFFFFFFFFFF AND DUP2 MSTORE POP POP DUP1 PUSH1 0x0 ADD MLOAD DUP8 DUP5 DUP2 MLOAD DUP2 LT PUSH2 0x1D3E JUMPI PUSH2 0x1D3D PUSH2 0x3639 JUMP JUMPDEST JUMPDEST PUSH1 0x20 MUL PUSH1 0x20 ADD ADD DUP2 DUP2 MSTORE POP POP DUP1 PUSH1 0x20 ADD MLOAD DUP7 DUP5 DUP2 MLOAD DUP2 LT PUSH2 0x1D62 JUMPI PUSH2 0x1D61 PUSH2 0x3639 JUMP JUMPDEST JUMPDEST PUSH1 0x20 MUL PUSH1 0x20 ADD ADD DUP2 DUP2 MSTORE POP POP DUP1 PUSH1 0x40 ADD MLOAD DUP6 DUP5 DUP2 MLOAD DUP2 LT PUSH2 0x1D86 JUMPI PUSH2 0x1D85 PUSH2 0x3639 JUMP JUMPDEST JUMPDEST PUSH1 0x20 MUL PUSH1 0x20 ADD ADD SWAP1 ISZERO ISZERO SWAP1 DUP2 ISZERO ISZERO DUP2 MSTORE POP POP POP POP DUP1 DUP1 PUSH2 0x1DA5 SWAP1 PUSH2 0x3668 JUMP JUMPDEST SWAP2 POP POP PUSH2 0x1C10 JUMP JUMPDEST POP POP SWAP1 SWAP2 SWAP3 SWAP4 JUMP JUMPDEST PUSH1 0x2 PUSH1 0x0 SWAP1 SLOAD SWAP1 PUSH2 0x100 EXP SWAP1 DIV PUSH20 0xFFFFFFFFFFFFFFFFFFFFFFFFFFFFFFFFFFFFFFFF AND DUP2 JUMP JUMPDEST PUSH32 0x0 TIMESTAMP LT PUSH2 0x1E3D JUMPI PUSH1 0x40 MLOAD PUSH32 0x8C379A000000000000000000000000000000000000000000000000000000000 DUP2 MSTORE PUSH1 0x4 ADD PUSH2 0x1E34 SWAP1 PUSH2 0x36FC JUMP JUMPDEST PUSH1 0x40 MLOAD DUP1 SWAP2 SUB SWAP1 REVERT JUMPDEST PUSH1 0x3 SLOAD DUP2 GT PUSH2 0x1E81 JUMPI PUSH1 0x40 MLOAD PUSH32 0x8C379A000000000000000000000000000000000000000000000000000000000 DUP2 MSTORE PUSH1 0x4 ADD PUSH2 0x1E78 SWAP1 PUSH2 0x3768 JUMP JUMPDEST PUSH1 0x40 MLOAD DUP1 SWAP2 SUB SWAP1 REVERT JUMPDEST PUSH1 0x0 PUSH1 0x64 PUSH1 0xA DUP4 PUSH2 0x1E92 SWAP2 SWAP1 PUSH2 0x3788 JUMP JUMPDEST PUSH2 0x1E9C SWAP2 SWAP1 PUSH2 0x3051 JUMP JUMPDEST SWAP1 POP PUSH1 0x0 PUSH1 0x7 PUSH1 0x0 CALLER PUSH20 0xFFFFFFFFFFFFFFFFFFFFFFFFFFFFFFFFFFFFFFFF AND PUSH20 0xFFFFFFFFFFFFFFFFFFFFFFFFFFFFFFFFFFFFFFFF AND DUP2 MSTORE PUSH1 0x20 ADD SWAP1 DUP2 MSTORE PUSH1 0x20 ADD PUSH1 0x0 KECCAK256 SWAP1 POP PUSH1 0x0 DUP2 PUSH1 0x1 ADD SLOAD DUP4 GT PUSH2 0x1EF5 JUMPI PUSH1 0x0 PUSH2 0x1F06 JUMP JUMPDEST DUP2 PUSH1 0x1 ADD SLOAD DUP4 PUSH2 0x1F05 SWAP2 SWAP1 PUSH2 0x37CA JUMP JUMPDEST JUMPDEST SWAP1 POP DUP1 CALLVALUE LT ISZERO PUSH2 0x1F4B JUMPI PUSH1 0x40 MLOAD PUSH32 0x8C379A000000000000000000000000000000000000000000000000000000000 DUP2 MSTORE PUSH1 0x4 ADD PUSH2 0x1F42 SWAP1 PUSH2 0x384A JUMP JUMPDEST PUSH1 0x40 MLOAD DUP1 SWAP2 SUB SWAP1 REVERT JUMPDEST DUP1 CALLVALUE GT ISZERO PUSH2 0x1FA6 JUMPI CALLER PUSH20 0xFFFFFFFFFFFFFFFFFFFFFFFFFFFFFFFFFFFFFFFF AND PUSH2 0x8FC DUP3 CALLVALUE PUSH2 0x1F79 SWAP2 SWAP1 PUSH2 0x37CA JUMP JUMPDEST SWAP1 DUP2 ISZERO MUL SWAP1 PUSH1 0x40 MLOAD PUSH1 0x0 PUSH1 0x40 MLOAD DUP1 DUP4 SUB DUP2 DUP6 DUP9 DUP9 CALL SWAP4 POP POP POP POP ISZERO DUP1 ISZERO PUSH2 0x1FA4 JUMPI RETURNDATASIZE PUSH1 0x0 DUP1 RETURNDATACOPY RETURNDATASIZE PUSH1 0x0 REVERT JUMPDEST POP JUMPDEST PUSH1 0x0 DUP3 PUSH1 0x0 ADD SLOAD SUB PUSH2 0x2016 JUMPI PUSH1 0x8 CALLER SWAP1 DUP1 PUSH1 0x1 DUP2 SLOAD ADD DUP1 DUP3 SSTORE DUP1 SWAP2 POP POP PUSH1 0x1 SWAP1 SUB SWAP1 PUSH1 0x0 MSTORE PUSH1 0x20 PUSH1 0x0 KECCAK256 ADD PUSH1 0x0 SWAP1 SWAP2 SWAP1 SWAP2 SWAP1 SWAP2 PUSH2 0x100 EXP DUP2 SLOAD DUP2 PUSH20 0xFFFFFFFFFFFFFFFFFFFFFFFFFFFFFFFFFFFFFFFF MUL NOT AND SWAP1 DUP4 PUSH20 0xFFFFFFFFFFFFFFFFFFFFFFFFFFFFFFFFFFFFFFFF AND MUL OR SWAP1 SSTORE POP JUMPDEST DUP4 DUP3 PUSH1 0x0 ADD DUP2 SWAP1 SSTORE POP DUP3 DUP3 PUSH1 0x1 ADD DUP2 SWAP1 SSTORE POP CALLER PUSH1 0x2 PUSH1 0x0 PUSH2 0x100 EXP DUP2 SLOAD DUP2 PUSH20 0xFFFFFFFFFFFFFFFFFFFFFFFFFFFFFFFFFFFFFFFF MUL NOT AND SWAP1 DUP4 PUSH20 0xFFFFFFFFFFFFFFFFFFFFFFFFFFFFFFFFFFFFFFFF AND MUL OR SWAP1 SSTORE POP DUP4 PUSH1 0x3 DUP2 SWAP1 SSTORE POP CALLER PUSH20 0xFFFFFFFFFFFFFFFFFFFFFFFFFFFFFFFFFFFFFFFF AND PUSH32 0x3FABFF0A9C3ECD6814702E247FA9733E5D0AA69E3A38590F92CB18F623A2254D DUP6 PUSH1 0x40 MLOAD PUSH2 0x20B6 SWAP2 SWAP1 PUSH2 0x26EB JUMP JUMPDEST PUSH1 0x40 MLOAD DUP1 SWAP2 SUB SWAP1 LOG2 POP POP POP POP JUMP JUMPDEST PUSH1 0x3C DUP2 JUMP JUMPDEST PUSH1 0x4 PUSH1 0x0 SWAP1 SLOAD SWAP1 PUSH2 0x100 EXP SWAP1 DIV PUSH1 0xFF AND PUSH2 0x2118 JUMPI PUSH1 0x40 MLOAD PUSH32 0x8C379A000000000000000000000000000000000000000000000000000000000 DUP2 MSTORE PUSH1 0x4 ADD PUSH2 0x210F SWAP1 PUSH2 0x3414 JUMP JUMPDEST PUSH1 0x40 MLOAD DUP1 SWAP2 SUB SWAP1 REVERT JUMPDEST PUSH1 0x0 JUMPDEST PUSH1 0x8 DUP1 SLOAD SWAP1 POP DUP2 LT ISZERO PUSH2 0x2366 JUMPI PUSH1 0x0 PUSH1 0x8 DUP3 DUP2 SLOAD DUP2 LT PUSH2 0x213E JUMPI PUSH2 0x213D PUSH2 0x3639 JUMP JUMPDEST JUMPDEST SWAP1 PUSH1 0x0 MSTORE PUSH1 0x20 PUSH1 0x0 KECCAK256 ADD PUSH1 0x0 SWAP1 SLOAD SWAP1 PUSH2 0x100 EXP SWAP1 DIV PUSH20 0xFFFFFFFFFFFFFFFFFFFFFFFFFFFFFFFFFFFFFFFF AND SWAP1 POP PUSH1 0x0 PUSH1 0x7 PUSH1 0x0 DUP4 PUSH20 0xFFFFFFFFFFFFFFFFFFFFFFFFFFFFFFFFFFFFFFFF AND PUSH20 0xFFFFFFFFFFFFFFFFFFFFFFFFFFFFFFFFFFFFFFFF AND DUP2 MSTORE PUSH1 0x20 ADD SWAP1 DUP2 MSTORE PUSH1 0x20 ADD PUSH1 0x0 KECCAK256 SWAP1 POP PUSH1 0x2 PUSH1 0x0 SWAP1 SLOAD SWAP1 PUSH2 0x100 EXP SWAP1 DIV PUSH20 0xFFFFFFFFFFFFFFFFFFFFFFFFFFFFFFFFFFFFFFFF AND PUSH20 0xFFFFFFFFFFFFFFFFFFFFFFFFFFFFFFFFFFFFFFFF AND DUP3 PUSH20 0xFFFFFFFFFFFFFFFFFFFFFFFFFFFFFFFFFFFFFFFF AND EQ ISZERO DUP1 ISZERO PUSH2 0x2210 JUMPI POP PUSH1 0x0 DUP2 PUSH1 0x1 ADD SLOAD GT JUMPDEST DUP1 ISZERO PUSH2 0x222B JUMPI POP DUP1 PUSH1 0x2 ADD PUSH1 0x0 SWAP1 SLOAD SWAP1 PUSH2 0x100 EXP SWAP1 DIV PUSH1 0xFF AND ISZERO JUMPDEST ISZERO PUSH2 0x2351 JUMPI PUSH1 0x1 DUP2 PUSH1 0x2 ADD PUSH1 0x0 PUSH2 0x100 EXP DUP2 SLOAD DUP2 PUSH1 0xFF MUL NOT AND SWAP1 DUP4 ISZERO ISZERO MUL OR SWAP1 SSTORE POP PUSH1 0x0 DUP3 PUSH20 0xFFFFFFFFFFFFFFFFFFFFFFFFFFFFFFFFFFFFFFFF AND DUP3 PUSH1 0x1 ADD SLOAD PUSH1 0x40 MLOAD PUSH2 0x2277 SWAP1 PUSH2 0x2D22 JUMP JUMPDEST PUSH1 0x0 PUSH1 0x40 MLOAD DUP1 DUP4 SUB DUP2 DUP6 DUP8 GAS CALL SWAP3 POP POP POP RETURNDATASIZE DUP1 PUSH1 0x0 DUP2 EQ PUSH2 0x22B4 JUMPI PUSH1 0x40 MLOAD SWAP2 POP PUSH1 0x1F NOT PUSH1 0x3F RETURNDATASIZE ADD AND DUP3 ADD PUSH1 0x40 MSTORE RETURNDATASIZE DUP3 MSTORE RETURNDATASIZE PUSH1 0x0 PUSH1 0x20 DUP5 ADD RETURNDATACOPY PUSH2 0x22B9 JUMP JUMPDEST PUSH1 0x60 SWAP2 POP JUMPDEST POP POP SWAP1 POP DUP1 PUSH2 0x22FD JUMPI PUSH1 0x40 MLOAD PUSH32 0x8C379A000000000000000000000000000000000000000000000000000000000 DUP2 MSTORE PUSH1 0x4 ADD PUSH2 0x22F4 SWAP1 PUSH2 0x38B6 JUMP JUMPDEST PUSH1 0x40 MLOAD DUP1 SWAP2 SUB SWAP1 REVERT JUMPDEST DUP3 PUSH20 0xFFFFFFFFFFFFFFFFFFFFFFFFFFFFFFFFFFFFFFFF AND PUSH32 0x4482101800A5C2E900F4156E57E05E19FFD7B366CDE579553D723FD3ABB2180E DUP4 PUSH1 0x1 ADD SLOAD PUSH1 0x40 MLOAD PUSH2 0x2347 SWAP2 SWAP1 PUSH2 0x26EB JUMP JUMPDEST PUSH1 0x40 MLOAD DUP1 SWAP2 SUB SWAP1 LOG2 POP JUMPDEST POP POP DUP1 DUP1 PUSH2 0x235E SWAP1 PUSH2 0x3668 JUMP JUMPDEST SWAP2 POP POP PUSH2 0x211B JUMP JUMPDEST POP JUMP JUMPDEST PUSH1 0xA DUP2 JUMP JUMPDEST PUSH1 0x6 SLOAD DUP2 JUMP JUMPDEST PUSH1 0x3C DUP2 JUMP JUMPDEST PUSH32 0x0 DUP2 JUMP JUMPDEST PUSH1 0x5 SLOAD DUP2 JUMP JUMPDEST PUSH1 0x8 DUP2 DUP2 SLOAD DUP2 LT PUSH2 0x23B3 JUMPI PUSH1 0x0 DUP1 REVERT JUMPDEST SWAP1 PUSH1 0x0 MSTORE PUSH1 0x20 PUSH1 0x0 KECCAK256 ADD PUSH1 0x0 SWAP2 POP SLOAD SWAP1 PUSH2 0x100 EXP SWAP1 DIV PUSH20 0xFFFFFFFFFFFFFFFFFFFFFFFFFFFFFFFFFFFFFFFF AND DUP2 JUMP JUMPDEST PUSH1 0x4 PUSH1 0x1 SWAP1 SLOAD SWAP1 PUSH2 0x100 EXP SWAP1 DIV PUSH1 0xFF AND DUP2 JUMP JUMPDEST PUSH1 0x3 SLOAD DUP2 JUMP JUMPDEST PUSH1 0x0 SLOAD DUP2 JUMP JUMPDEST PUSH1 0x4 PUSH1 0x0 SWAP1 SLOAD SWAP1 PUSH2 0x100 EXP SWAP1 DIV PUSH1 0xFF AND PUSH2 0x2450 JUMPI PUSH1 0x40 MLOAD PUSH32 0x8C379A000000000000000000000000000000000000000000000000000000000 DUP2 MSTORE PUSH1 0x4 ADD PUSH2 0x2447 SWAP1 PUSH2 0x2B8D JUMP JUMPDEST PUSH1 0x40 MLOAD DUP1 SWAP2 SUB SWAP1 REVERT JUMPDEST PUSH1 0x2 PUSH1 0x0 SWAP1 SLOAD SWAP1 PUSH2 0x100 EXP SWAP1 DIV PUSH20 0xFFFFFFFFFFFFFFFFFFFFFFFFFFFFFFFFFFFFFFFF AND PUSH20 0xFFFFFFFFFFFFFFFFFFFFFFFFFFFFFFFFFFFFFFFF AND CALLER PUSH20 0xFFFFFFFFFFFFFFFFFFFFFFFFFFFFFFFFFFFFFFFF AND EQ PUSH2 0x24E0 JUMPI PUSH1 0x40 MLOAD PUSH32 0x8C379A000000000000000000000000000000000000000000000000000000000 DUP2 MSTORE PUSH1 0x4 ADD PUSH2 0x24D7 SWAP1 PUSH2 0x3922 JUMP JUMPDEST PUSH1 0x40 MLOAD DUP1 SWAP2 SUB SWAP1 REVERT JUMPDEST PUSH1 0x4 PUSH1 0x1 SWAP1 SLOAD SWAP1 PUSH2 0x100 EXP SWAP1 DIV PUSH1 0xFF AND ISZERO PUSH2 0x2530 JUMPI PUSH1 0x40 MLOAD PUSH32 0x8C379A000000000000000000000000000000000000000000000000000000000 DUP2 MSTORE PUSH1 0x4 ADD PUSH2 0x2527 SWAP1 PUSH2 0x398E JUMP JUMPDEST PUSH1 0x40 MLOAD DUP1 SWAP2 SUB SWAP1 REVERT JUMPDEST PUSH1 0x0 PUSH1 0x7 PUSH1 0x0 CALLER PUSH20 0xFFFFFFFFFFFFFFFFFFFFFFFFFFFFFFFFFFFFFFFF AND PUSH20 0xFFFFFFFFFFFFFFFFFFFFFFFFFFFFFFFFFFFFFFFF AND DUP2 MSTORE PUSH1 0x20 ADD SWAP1 DUP2 MSTORE PUSH1 0x20 ADD PUSH1 0x0 KECCAK256 PUSH1 0x1 ADD SLOAD PUSH1 0x3 SLOAD PUSH2 0x2582 SWAP2 SWAP1 PUSH2 0x37CA JUMP JUMPDEST SWAP1 POP DUP1 CALLVALUE EQ PUSH2 0x25C6 JUMPI PUSH1 0x40 MLOAD PUSH32 0x8C379A000000000000000000000000000000000000000000000000000000000 DUP2 MSTORE PUSH1 0x4 ADD PUSH2 0x25BD SWAP1 PUSH2 0x39FA JUMP JUMPDEST PUSH1 0x40 MLOAD DUP1 SWAP2 SUB SWAP1 REVERT JUMPDEST PUSH1 0x1 PUSH1 0x4 PUSH1 0x1 PUSH2 0x100 EXP DUP2 SLOAD DUP2 PUSH1 0xFF MUL NOT AND SWAP1 DUP4 ISZERO ISZERO MUL OR SWAP1 SSTORE POP TIMESTAMP PUSH1 0x5 DUP2 SWAP1 SSTORE POP CALLER PUSH20 0xFFFFFFFFFFFFFFFFFFFFFFFFFFFFFFFFFFFFFFFF AND PUSH32 0x8CA59DDEB3B42C522A873DD6AA29B9D90C99B41EEB58F317B4B0D4A17D41506B PUSH1 0x3 SLOAD PUSH1 0x40 MLOAD PUSH2 0x2630 SWAP2 SWAP1 PUSH2 0x26EB JUMP JUMPDEST PUSH1 0x40 MLOAD DUP1 SWAP2 SUB SWAP1 LOG2 POP JUMP JUMPDEST PUSH1 0x3C DUP2 JUMP JUMPDEST PUSH1 0x0 PUSH20 0xFFFFFFFFFFFFFFFFFFFFFFFFFFFFFFFFFFFFFFFF DUP3 AND SWAP1 POP SWAP2 SWAP1 POP JUMP JUMPDEST PUSH1 0x0 PUSH2 0x266B DUP3 PUSH2 0x2640 JUMP JUMPDEST SWAP1 POP SWAP2 SWAP1 POP JUMP JUMPDEST PUSH2 0x267B DUP2 PUSH2 0x2660 JUMP JUMPDEST DUP3 MSTORE POP POP JUMP JUMPDEST PUSH1 0x0 PUSH1 0x20 DUP3 ADD SWAP1 POP PUSH2 0x2696 PUSH1 0x0 DUP4 ADD DUP5 PUSH2 0x2672 JUMP JUMPDEST SWAP3 SWAP2 POP POP JUMP JUMPDEST PUSH1 0x0 DUP2 ISZERO ISZERO SWAP1 POP SWAP2 SWAP1 POP JUMP JUMPDEST PUSH2 0x26B1 DUP2 PUSH2 0x269C JUMP JUMPDEST DUP3 MSTORE POP POP JUMP JUMPDEST PUSH1 0x0 PUSH1 0x20 DUP3 ADD SWAP1 POP PUSH2 0x26CC PUSH1 0x0 DUP4 ADD DUP5 PUSH2 0x26A8 JUMP JUMPDEST SWAP3 SWAP2 POP POP JUMP JUMPDEST PUSH1 0x0 DUP2 SWAP1 POP SWAP2 SWAP1 POP JUMP JUMPDEST PUSH2 0x26E5 DUP2 PUSH2 0x26D2 JUMP JUMPDEST DUP3 MSTORE POP POP JUMP JUMPDEST PUSH1 0x0 PUSH1 0x20 DUP3 ADD SWAP1 POP PUSH2 0x2700 PUSH1 0x0 DUP4 ADD DUP5 PUSH2 0x26DC JUMP JUMPDEST SWAP3 SWAP2 POP POP JUMP JUMPDEST PUSH1 0x0 DUP2 MLOAD SWAP1 POP SWAP2 SWAP1 POP JUMP JUMPDEST PUSH1 0x0 DUP3 DUP3 MSTORE PUSH1 0x20 DUP3 ADD SWAP1 POP SWAP3 SWAP2 POP POP JUMP JUMPDEST PUSH1 0x0 JUMPDEST DUP4 DUP2 LT ISZERO PUSH2 0x2740 JUMPI DUP1 DUP3 ADD MLOAD DUP2 DUP5 ADD MSTORE PUSH1 0x20 DUP2 ADD SWAP1 POP PUSH2 0x2725 JUMP JUMPDEST PUSH1 0x0 DUP5 DUP5 ADD MSTORE POP POP POP POP JUMP JUMPDEST PUSH1 0x0 PUSH1 0x1F NOT PUSH1 0x1F DUP4 ADD AND SWAP1 POP SWAP2 SWAP1 POP JUMP JUMPDEST PUSH1 0x0 PUSH2 0x2768 DUP3 PUSH2 0x2706 JUMP JUMPDEST PUSH2 0x2772 DUP2 DUP6 PUSH2 0x2711 JUMP JUMPDEST SWAP4 POP PUSH2 0x2782 DUP2 DUP6 PUSH1 0x20 DUP7 ADD PUSH2 0x2722 JUMP JUMPDEST PUSH2 0x278B DUP2 PUSH2 0x274C JUMP JUMPDEST DUP5 ADD SWAP2 POP POP SWAP3 SWAP2 POP POP JUMP JUMPDEST PUSH1 0x0 PUSH1 0x20 DUP3 ADD SWAP1 POP DUP2 DUP2 SUB PUSH1 0x0 DUP4 ADD MSTORE PUSH2 0x27B0 DUP2 DUP5 PUSH2 0x275D JUMP JUMPDEST SWAP1 POP SWAP3 SWAP2 POP POP JUMP JUMPDEST PUSH1 0x0 DUP1 REVERT JUMPDEST PUSH2 0x27C6 DUP2 PUSH2 0x2660 JUMP JUMPDEST DUP2 EQ PUSH2 0x27D1 JUMPI PUSH1 0x0 DUP1 REVERT JUMPDEST POP JUMP JUMPDEST PUSH1 0x0 DUP2 CALLDATALOAD SWAP1 POP PUSH2 0x27E3 DUP2 PUSH2 0x27BD JUMP JUMPDEST SWAP3 SWAP2 POP POP JUMP JUMPDEST PUSH1 0x0 PUSH1 0x20 DUP3 DUP5 SUB SLT ISZERO PUSH2 0x27FF JUMPI PUSH2 0x27FE PUSH2 0x27B8 JUMP JUMPDEST JUMPDEST PUSH1 0x0 PUSH2 0x280D DUP5 DUP3 DUP6 ADD PUSH2 0x27D4 JUMP JUMPDEST SWAP2 POP POP SWAP3 SWAP2 POP POP JUMP JUMPDEST PUSH1 0x0 PUSH1 0x60 DUP3 ADD SWAP1 POP PUSH2 0x282B PUSH1 0x0 DUP4 ADD DUP7 PUSH2 0x26DC JUMP JUMPDEST PUSH2 0x2838 PUSH1 0x20 DUP4 ADD DUP6 PUSH2 0x26DC JUMP JUMPDEST PUSH2 0x2845 PUSH1 0x40 DUP4 ADD DUP5 PUSH2 0x26A8 JUMP JUMPDEST SWAP5 SWAP4 POP POP POP POP JUMP JUMPDEST PUSH1 0x0 DUP2 MLOAD SWAP1 POP SWAP2 SWAP1 POP JUMP JUMPDEST PUSH1 0x0 DUP3 DUP3 MSTORE PUSH1 0x20 DUP3 ADD SWAP1 POP SWAP3 SWAP2 POP POP JUMP JUMPDEST PUSH1 0x0 DUP2 SWAP1 POP PUSH1 0x20 DUP3 ADD SWAP1 POP SWAP2 SWAP1 POP JUMP JUMPDEST PUSH2 0x2882 DUP2 PUSH2 0x2660 JUMP JUMPDEST DUP3 MSTORE POP POP JUMP JUMPDEST PUSH1 0x0 PUSH2 0x2894 DUP4 DUP4 PUSH2 0x2879 JUMP JUMPDEST PUSH1 0x20 DUP4 ADD SWAP1 POP SWAP3 SWAP2 POP POP JUMP JUMPDEST PUSH1 0x0 PUSH1 0x20 DUP3 ADD SWAP1 POP SWAP2 SWAP1 POP JUMP JUMPDEST PUSH1 0x0 PUSH2 0x28B8 DUP3 PUSH2 0x284D JUMP JUMPDEST PUSH2 0x28C2 DUP2 DUP6 PUSH2 0x2858 JUMP JUMPDEST SWAP4 POP PUSH2 0x28CD DUP4 PUSH2 0x2869 JUMP JUMPDEST DUP1 PUSH1 0x0 JUMPDEST DUP4 DUP2 LT ISZERO PUSH2 0x28FE JUMPI DUP2 MLOAD PUSH2 0x28E5 DUP9 DUP3 PUSH2 0x2888 JUMP JUMPDEST SWAP8 POP PUSH2 0x28F0 DUP4 PUSH2 0x28A0 JUMP JUMPDEST SWAP3 POP POP PUSH1 0x1 DUP2 ADD SWAP1 POP PUSH2 0x28D1 JUMP JUMPDEST POP DUP6 SWAP4 POP POP POP POP SWAP3 SWAP2 POP POP JUMP JUMPDEST PUSH1 0x0 DUP2 MLOAD SWAP1 POP SWAP2 SWAP1 POP JUMP JUMPDEST PUSH1 0x0 DUP3 DUP3 MSTORE PUSH1 0x20 DUP3 ADD SWAP1 POP SWAP3 SWAP2 POP POP JUMP JUMPDEST PUSH1 0x0 DUP2 SWAP1 POP PUSH1 0x20 DUP3 ADD SWAP1 POP SWAP2 SWAP1 POP JUMP JUMPDEST PUSH2 0x2940 DUP2 PUSH2 0x26D2 JUMP JUMPDEST DUP3 MSTORE POP POP JUMP JUMPDEST PUSH1 0x0 PUSH2 0x2952 DUP4 DUP4 PUSH2 0x2937 JUMP JUMPDEST PUSH1 0x20 DUP4 ADD SWAP1 POP SWAP3 SWAP2 POP POP JUMP JUMPDEST PUSH1 0x0 PUSH1 0x20 DUP3 ADD SWAP1 POP SWAP2 SWAP1 POP JUMP JUMPDEST PUSH1 0x0 PUSH2 0x2976 DUP3 PUSH2 0x290B JUMP JUMPDEST PUSH2 0x2980 DUP2 DUP6 PUSH2 0x2916 JUMP JUMPDEST SWAP4 POP PUSH2 0x298B DUP4 PUSH2 0x2927 JUMP JUMPDEST DUP1 PUSH1 0x0 JUMPDEST DUP4 DUP2 LT ISZERO PUSH2 0x29BC JUMPI DUP2 MLOAD PUSH2 0x29A3 DUP9 DUP3 PUSH2 0x2946 JUMP JUMPDEST SWAP8 POP PUSH2 0x29AE DUP4 PUSH2 0x295E JUMP JUMPDEST SWAP3 POP POP PUSH1 0x1 DUP2 ADD SWAP1 POP PUSH2 0x298F JUMP JUMPDEST POP DUP6 SWAP4 POP POP POP POP SWAP3 SWAP2 POP POP JUMP JUMPDEST PUSH1 0x0 DUP2 MLOAD SWAP1 POP SWAP2 SWAP1 POP JUMP JUMPDEST PUSH1 0x0 DUP3 DUP3 MSTORE PUSH1 0x20 DUP3 ADD SWAP1 POP SWAP3 SWAP2 POP POP JUMP JUMPDEST PUSH1 0x0 DUP2 SWAP1 POP PUSH1 0x20 DUP3 ADD SWAP1 POP SWAP2 SWAP1 POP JUMP JUMPDEST PUSH2 0x29FE DUP2 PUSH2 0x269C JUMP JUMPDEST DUP3 MSTORE POP POP JUMP JUMPDEST PUSH1 0x0 PUSH2 0x2A10 DUP4 DUP4 PUSH2 0x29F5 JUMP JUMPDEST PUSH1 0x20 DUP4 ADD SWAP1 POP SWAP3 SWAP2 POP POP JUMP JUMPDEST PUSH1 0x0 PUSH1 0x20 DUP3 ADD SWAP1 POP SWAP2 SWAP1 POP JUMP JUMPDEST PUSH1 0x0 PUSH2 0x2A34 DUP3 PUSH2 0x29C9 JUMP JUMPDEST PUSH2 0x2A3E DUP2 DUP6 PUSH2 0x29D4 JUMP JUMPDEST SWAP4 POP PUSH2 0x2A49 DUP4 PUSH2 0x29E5 JUMP JUMPDEST DUP1 PUSH1 0x0 JUMPDEST DUP4 DUP2 LT ISZERO PUSH2 0x2A7A JUMPI DUP2 MLOAD PUSH2 0x2A61 DUP9 DUP3 PUSH2 0x2A04 JUMP JUMPDEST SWAP8 POP PUSH2 0x2A6C DUP4 PUSH2 0x2A1C JUMP JUMPDEST SWAP3 POP POP PUSH1 0x1 DUP2 ADD SWAP1 POP PUSH2 0x2A4D JUMP JUMPDEST POP DUP6 SWAP4 POP POP POP POP SWAP3 SWAP2 POP POP JUMP JUMPDEST PUSH1 0x0 PUSH1 0x80 DUP3 ADD SWAP1 POP DUP2 DUP2 SUB PUSH1 0x0 DUP4 ADD MSTORE PUSH2 0x2AA1 DUP2 DUP8 PUSH2 0x28AD JUMP JUMPDEST SWAP1 POP DUP2 DUP2 SUB PUSH1 0x20 DUP4 ADD MSTORE PUSH2 0x2AB5 DUP2 DUP7 PUSH2 0x296B JUMP JUMPDEST SWAP1 POP DUP2 DUP2 SUB PUSH1 0x40 DUP4 ADD MSTORE PUSH2 0x2AC9 DUP2 DUP6 PUSH2 0x296B JUMP JUMPDEST SWAP1 POP DUP2 DUP2 SUB PUSH1 0x60 DUP4 ADD MSTORE PUSH2 0x2ADD DUP2 DUP5 PUSH2 0x2A29 JUMP JUMPDEST SWAP1 POP SWAP6 SWAP5 POP POP POP POP POP JUMP JUMPDEST PUSH2 0x2AF1 DUP2 PUSH2 0x26D2 JUMP JUMPDEST DUP2 EQ PUSH2 0x2AFC JUMPI PUSH1 0x0 DUP1 REVERT JUMPDEST POP JUMP JUMPDEST PUSH1 0x0 DUP2 CALLDATALOAD SWAP1 POP PUSH2 0x2B0E DUP2 PUSH2 0x2AE8 JUMP JUMPDEST SWAP3 SWAP2 POP POP JUMP JUMPDEST PUSH1 0x0 PUSH1 0x20 DUP3 DUP5 SUB SLT ISZERO PUSH2 0x2B2A JUMPI PUSH2 0x2B29 PUSH2 0x27B8 JUMP JUMPDEST JUMPDEST PUSH1 0x0 PUSH2 0x2B38 DUP5 DUP3 DUP6 ADD PUSH2 0x2AFF JUMP JUMPDEST SWAP2 POP POP SWAP3 SWAP2 POP POP JUMP JUMPDEST PUSH32 0x4E6F7420656E6465640000000000000000000000000000000000000000000000 PUSH1 0x0 DUP3 ADD MSTORE POP JUMP JUMPDEST PUSH1 0x0 PUSH2 0x2B77 PUSH1 0x9 DUP4 PUSH2 0x2711 JUMP JUMPDEST SWAP2 POP PUSH2 0x2B82 DUP3 PUSH2 0x2B41 JUMP JUMPDEST PUSH1 0x20 DUP3 ADD SWAP1 POP SWAP2 SWAP1 POP JUMP JUMPDEST PUSH1 0x0 PUSH1 0x20 DUP3 ADD SWAP1 POP DUP2 DUP2 SUB PUSH1 0x0 DUP4 ADD MSTORE PUSH2 0x2BA6 DUP2 PUSH2 0x2B6A JUMP JUMPDEST SWAP1 POP SWAP2 SWAP1 POP JUMP JUMPDEST PUSH32 0x4E6F206465706F73697400000000000000000000000000000000000000000000 PUSH1 0x0 DUP3 ADD MSTORE POP JUMP JUMPDEST PUSH1 0x0 PUSH2 0x2BE3 PUSH1 0xA DUP4 PUSH2 0x2711 JUMP JUMPDEST SWAP2 POP PUSH2 0x2BEE DUP3 PUSH2 0x2BAD JUMP JUMPDEST PUSH1 0x20 DUP3 ADD SWAP1 POP SWAP2 SWAP1 POP JUMP JUMPDEST PUSH1 0x0 PUSH1 0x20 DUP3 ADD SWAP1 POP DUP2 DUP2 SUB PUSH1 0x0 DUP4 ADD MSTORE PUSH2 0x2C12 DUP2 PUSH2 0x2BD6 JUMP JUMPDEST SWAP1 POP SWAP2 SWAP1 POP JUMP JUMPDEST PUSH32 0x416C72656164792077697468647261776E000000000000000000000000000000 PUSH1 0x0 DUP3 ADD MSTORE POP JUMP JUMPDEST PUSH1 0x0 PUSH2 0x2C4F PUSH1 0x11 DUP4 PUSH2 0x2711 JUMP JUMPDEST SWAP2 POP PUSH2 0x2C5A DUP3 PUSH2 0x2C19 JUMP JUMPDEST PUSH1 0x20 DUP3 ADD SWAP1 POP SWAP2 SWAP1 POP JUMP JUMPDEST PUSH1 0x0 PUSH1 0x20 DUP3 ADD SWAP1 POP DUP2 DUP2 SUB PUSH1 0x0 DUP4 ADD MSTORE PUSH2 0x2C7E DUP2 PUSH2 0x2C42 JUMP JUMPDEST SWAP1 POP SWAP2 SWAP1 POP JUMP JUMPDEST PUSH32 0x57696E6E65722063616E2774207769746864726177206E6F7700000000000000 PUSH1 0x0 DUP3 ADD MSTORE POP JUMP JUMPDEST PUSH1 0x0 PUSH2 0x2CBB PUSH1 0x19 DUP4 PUSH2 0x2711 JUMP JUMPDEST SWAP2 POP PUSH2 0x2CC6 DUP3 PUSH2 0x2C85 JUMP JUMPDEST PUSH1 0x20 DUP3 ADD SWAP1 POP SWAP2 SWAP1 POP JUMP JUMPDEST PUSH1 0x0 PUSH1 0x20 DUP3 ADD SWAP1 POP DUP2 DUP2 SUB PUSH1 0x0 DUP4 ADD MSTORE PUSH2 0x2CEA DUP2 PUSH2 0x2CAE JUMP JUMPDEST SWAP1 POP SWAP2 SWAP1 POP JUMP JUMPDEST PUSH1 0x0 DUP2 SWAP1 POP SWAP3 SWAP2 POP POP JUMP JUMPDEST POP JUMP JUMPDEST PUSH1 0x0 PUSH2 0x2D0C PUSH1 0x0 DUP4 PUSH2 0x2CF1 JUMP JUMPDEST SWAP2 POP PUSH2 0x2D17 DUP3 PUSH2 0x2CFC JUMP JUMPDEST PUSH1 0x0 DUP3 ADD SWAP1 POP SWAP2 SWAP1 POP JUMP JUMPDEST PUSH1 0x0 PUSH2 0x2D2D DUP3 PUSH2 0x2CFF JUMP JUMPDEST SWAP2 POP DUP2 SWAP1 POP SWAP2 SWAP1 POP JUMP JUMPDEST PUSH32 0x5472616E73666572206661696C65640000000000000000000000000000000000 PUSH1 0x0 DUP3 ADD MSTORE POP JUMP JUMPDEST PUSH1 0x0 PUSH2 0x2D6D PUSH1 0xF DUP4 PUSH2 0x2711 JUMP JUMPDEST SWAP2 POP PUSH2 0x2D78 DUP3 PUSH2 0x2D37 JUMP JUMPDEST PUSH1 0x20 DUP3 ADD SWAP1 POP SWAP2 SWAP1 POP JUMP JUMPDEST PUSH1 0x0 PUSH1 0x20 DUP3 ADD SWAP1 POP DUP2 DUP2 SUB PUSH1 0x0 DUP4 ADD MSTORE PUSH2 0x2D9C DUP2 PUSH2 0x2D60 JUMP JUMPDEST SWAP1 POP SWAP2 SWAP1 POP JUMP JUMPDEST PUSH32 0x4E6F742073656C6C657200000000000000000000000000000000000000000000 PUSH1 0x0 DUP3 ADD MSTORE POP JUMP JUMPDEST PUSH1 0x0 PUSH2 0x2DD9 PUSH1 0xA DUP4 PUSH2 0x2711 JUMP JUMPDEST SWAP2 POP PUSH2 0x2DE4 DUP3 PUSH2 0x2DA3 JUMP JUMPDEST PUSH1 0x20 DUP3 ADD SWAP1 POP SWAP2 SWAP1 POP JUMP JUMPDEST PUSH1 0x0 PUSH1 0x20 DUP3 ADD SWAP1 POP DUP2 DUP2 SUB PUSH1 0x0 DUP4 ADD MSTORE PUSH2 0x2E08 DUP2 PUSH2 0x2DCC JUMP JUMPDEST SWAP1 POP SWAP2 SWAP1 POP JUMP JUMPDEST PUSH32 0x4275796572206E6F742070616964000000000000000000000000000000000000 PUSH1 0x0 DUP3 ADD MSTORE POP JUMP JUMPDEST PUSH1 0x0 PUSH2 0x2E45 PUSH1 0xE DUP4 PUSH2 0x2711 JUMP JUMPDEST SWAP2 POP PUSH2 0x2E50 DUP3 PUSH2 0x2E0F JUMP JUMPDEST PUSH1 0x20 DUP3 ADD SWAP1 POP SWAP2 SWAP1 POP JUMP JUMPDEST PUSH1 0x0 PUSH1 0x20 DUP3 ADD SWAP1 POP DUP2 DUP2 SUB PUSH1 0x0 DUP4 ADD MSTORE PUSH2 0x2E74 DUP2 PUSH2 0x2E38 JUMP JUMPDEST SWAP1 POP SWAP2 SWAP1 POP JUMP JUMPDEST PUSH32 0x416C726561647920736869707065640000000000000000000000000000000000 PUSH1 0x0 DUP3 ADD MSTORE POP JUMP JUMPDEST PUSH1 0x0 PUSH2 0x2EB1 PUSH1 0xF DUP4 PUSH2 0x2711 JUMP JUMPDEST SWAP2 POP PUSH2 0x2EBC DUP3 PUSH2 0x2E7B JUMP JUMPDEST PUSH1 0x20 DUP3 ADD SWAP1 POP SWAP2 SWAP1 POP JUMP JUMPDEST PUSH1 0x0 PUSH1 0x20 DUP3 ADD SWAP1 POP DUP2 DUP2 SUB PUSH1 0x0 DUP4 ADD MSTORE PUSH2 0x2EE0 DUP2 PUSH2 0x2EA4 JUMP JUMPDEST SWAP1 POP SWAP2 SWAP1 POP JUMP JUMPDEST PUSH32 0x4E487B7100000000000000000000000000000000000000000000000000000000 PUSH1 0x0 MSTORE PUSH1 0x11 PUSH1 0x4 MSTORE PUSH1 0x24 PUSH1 0x0 REVERT JUMPDEST PUSH1 0x0 PUSH2 0x2F21 DUP3 PUSH2 0x26D2 JUMP JUMPDEST SWAP2 POP PUSH2 0x2F2C DUP4 PUSH2 0x26D2 JUMP JUMPDEST SWAP3 POP DUP3 DUP3 ADD SWAP1 POP DUP1 DUP3 GT ISZERO PUSH2 0x2F44 JUMPI PUSH2 0x2F43 PUSH2 0x2EE7 JUMP JUMPDEST JUMPDEST SWAP3 SWAP2 POP POP JUMP JUMPDEST PUSH32 0x546F6F206C617465000000000000000000000000000000000000000000000000 PUSH1 0x0 DUP3 ADD MSTORE POP JUMP JUMPDEST PUSH1 0x0 PUSH2 0x2F80 PUSH1 0x8 DUP4 PUSH2 0x2711 JUMP JUMPDEST SWAP2 POP PUSH2 0x2F8B DUP3 PUSH2 0x2F4A JUMP JUMPDEST PUSH1 0x20 DUP3 ADD SWAP1 POP SWAP2 SWAP1 POP JUMP JUMPDEST PUSH1 0x0 PUSH1 0x20 DUP3 ADD SWAP1 POP DUP2 DUP2 SUB PUSH1 0x0 DUP4 ADD MSTORE PUSH2 0x2FAF DUP2 PUSH2 0x2F73 JUMP JUMPDEST SWAP1 POP SWAP2 SWAP1 POP JUMP JUMPDEST PUSH32 0x5374696C6C20696E2077696E646F770000000000000000000000000000000000 PUSH1 0x0 DUP3 ADD MSTORE POP JUMP JUMPDEST PUSH1 0x0 PUSH2 0x2FEC PUSH1 0xF DUP4 PUSH2 0x2711 JUMP JUMPDEST SWAP2 POP PUSH2 0x2FF7 DUP3 PUSH2 0x2FB6 JUMP JUMPDEST PUSH1 0x20 DUP3 ADD SWAP1 POP SWAP2 SWAP1 POP JUMP JUMPDEST PUSH1 0x0 PUSH1 0x20 DUP3 ADD SWAP1 POP DUP2 DUP2 SUB PUSH1 0x0 DUP4 ADD MSTORE PUSH2 0x301B DUP2 PUSH2 0x2FDF JUMP JUMPDEST SWAP1 POP SWAP2 SWAP1 POP JUMP JUMPDEST PUSH32 0x4E487B7100000000000000000000000000000000000000000000000000000000 PUSH1 0x0 MSTORE PUSH1 0x12 PUSH1 0x4 MSTORE PUSH1 0x24 PUSH1 0x0 REVERT JUMPDEST PUSH1 0x0 PUSH2 0x305C DUP3 PUSH2 0x26D2 JUMP JUMPDEST SWAP2 POP PUSH2 0x3067 DUP4 PUSH2 0x26D2 JUMP JUMPDEST SWAP3 POP DUP3 PUSH2 0x3077 JUMPI PUSH2 0x3076 PUSH2 0x3022 JUMP JUMPDEST JUMPDEST DUP3 DUP3 DIV SWAP1 POP SWAP3 SWAP2 POP POP JUMP JUMPDEST PUSH32 0x526566756E6420746F206275796572206661696C656400000000000000000000 PUSH1 0x0 DUP3 ADD MSTORE POP JUMP JUMPDEST PUSH1 0x0 PUSH2 0x30B8 PUSH1 0x16 DUP4 PUSH2 0x2711 JUMP JUMPDEST SWAP2 POP PUSH2 0x30C3 DUP3 PUSH2 0x3082 JUMP JUMPDEST PUSH1 0x20 DUP3 ADD SWAP1 POP SWAP2 SWAP1 POP JUMP JUMPDEST PUSH1 0x0 PUSH1 0x20 DUP3 ADD SWAP1 POP DUP2 DUP2 SUB PUSH1 0x0 DUP4 ADD MSTORE PUSH2 0x30E7 DUP2 PUSH2 0x30AB JUMP JUMPDEST SWAP1 POP SWAP2 SWAP1 POP JUMP JUMPDEST PUSH32 0x4275726E206661696C6564000000000000000000000000000000000000000000 PUSH1 0x0 DUP3 ADD MSTORE POP JUMP JUMPDEST PUSH1 0x0 PUSH2 0x3124 PUSH1 0xB DUP4 PUSH2 0x2711 JUMP JUMPDEST SWAP2 POP PUSH2 0x312F DUP3 PUSH2 0x30EE JUMP JUMPDEST PUSH1 0x20 DUP3 ADD SWAP1 POP SWAP2 SWAP1 POP JUMP JUMPDEST PUSH1 0x0 PUSH1 0x20 DUP3 ADD SWAP1 POP DUP2 DUP2 SUB PUSH1 0x0 DUP4 ADD MSTORE PUSH2 0x3153 DUP2 PUSH2 0x3117 JUMP JUMPDEST SWAP1 POP SWAP2 SWAP1 POP JUMP JUMPDEST PUSH1 0x0 PUSH1 0x40 DUP3 ADD SWAP1 POP PUSH2 0x316F PUSH1 0x0 DUP4 ADD DUP6 PUSH2 0x26DC JUMP JUMPDEST PUSH2 0x317C PUSH1 0x20 DUP4 ADD DUP5 PUSH2 0x26DC JUMP JUMPDEST SWAP4 SWAP3 POP POP POP JUMP JUMPDEST PUSH32 0x416C726561647920656E64656400000000000000000000000000000000000000 PUSH1 0x0 DUP3 ADD MSTORE POP JUMP JUMPDEST PUSH1 0x0 PUSH2 0x31B9 PUSH1 0xD DUP4 PUSH2 0x2711 JUMP JUMPDEST SWAP2 POP PUSH2 0x31C4 DUP3 PUSH2 0x3183 JUMP JUMPDEST PUSH1 0x20 DUP3 ADD SWAP1 POP SWAP2 SWAP1 POP JUMP JUMPDEST PUSH1 0x0 PUSH1 0x20 DUP3 ADD SWAP1 POP DUP2 DUP2 SUB PUSH1 0x0 DUP4 ADD MSTORE PUSH2 0x31E8 DUP2 PUSH2 0x31AC JUMP JUMPDEST SWAP1 POP SWAP2 SWAP1 POP JUMP JUMPDEST PUSH1 0x0 PUSH1 0x40 DUP3 ADD SWAP1 POP PUSH2 0x3204 PUSH1 0x0 DUP4 ADD DUP6 PUSH2 0x2672 JUMP JUMPDEST PUSH2 0x3211 PUSH1 0x20 DUP4 ADD DUP5 PUSH2 0x26DC JUMP JUMPDEST SWAP4 SWAP3 POP POP POP JUMP JUMPDEST PUSH32 0x4E6F742062757965720000000000000000000000000000000000000000000000 PUSH1 0x0 DUP3 ADD MSTORE POP JUMP JUMPDEST PUSH1 0x0 PUSH2 0x324E PUSH1 0x9 DUP4 PUSH2 0x2711 JUMP JUMPDEST SWAP2 POP PUSH2 0x3259 DUP3 PUSH2 0x3218 JUMP JUMPDEST PUSH1 0x20 DUP3 ADD SWAP1 POP SWAP2 SWAP1 POP JUMP JUMPDEST PUSH1 0x0 PUSH1 0x20 DUP3 ADD SWAP1 POP DUP2 DUP2 SUB PUSH1 0x0 DUP4 ADD MSTORE PUSH2 0x327D DUP2 PUSH2 0x3241 JUMP JUMPDEST SWAP1 POP SWAP2 SWAP1 POP JUMP JUMPDEST PUSH32 0x4E6F742073686970706564000000000000000000000000000000000000000000 PUSH1 0x0 DUP3 ADD MSTORE POP JUMP JUMPDEST PUSH1 0x0 PUSH2 0x32BA PUSH1 0xB DUP4 PUSH2 0x2711 JUMP JUMPDEST SWAP2 POP PUSH2 0x32C5 DUP3 PUSH2 0x3284 JUMP JUMPDEST PUSH1 0x20 DUP3 ADD SWAP1 POP SWAP2 SWAP1 POP JUMP JUMPDEST PUSH1 0x0 PUSH1 0x20 DUP3 ADD SWAP1 POP DUP2 DUP2 SUB PUSH1 0x0 DUP4 ADD MSTORE PUSH2 0x32E9 DUP2 PUSH2 0x32AD JUMP JUMPDEST SWAP1 POP SWAP2 SWAP1 POP JUMP JUMPDEST PUSH32 0x416C726561647920636F6E6669726D6564000000000000000000000000000000 PUSH1 0x0 DUP3 ADD MSTORE POP JUMP JUMPDEST PUSH1 0x0 PUSH2 0x3326 PUSH1 0x11 DUP4 PUSH2 0x2711 JUMP JUMPDEST SWAP2 POP PUSH2 0x3331 DUP3 PUSH2 0x32F0 JUMP JUMPDEST PUSH1 0x20 DUP3 ADD SWAP1 POP SWAP2 SWAP1 POP JUMP JUMPDEST PUSH1 0x0 PUSH1 0x20 DUP3 ADD SWAP1 POP DUP2 DUP2 SUB PUSH1 0x0 DUP4 ADD MSTORE PUSH2 0x3355 DUP2 PUSH2 0x3319 JUMP JUMPDEST SWAP1 POP SWAP2 SWAP1 POP JUMP JUMPDEST PUSH32 0x5472616E7366657220746F2073656C6C6572206661696C656400000000000000 PUSH1 0x0 DUP3 ADD MSTORE POP JUMP JUMPDEST PUSH1 0x0 PUSH2 0x3392 PUSH1 0x19 DUP4 PUSH2 0x2711 JUMP JUMPDEST SWAP2 POP PUSH2 0x339D DUP3 PUSH2 0x335C JUMP JUMPDEST PUSH1 0x20 DUP3 ADD SWAP1 POP SWAP2 SWAP1 POP JUMP JUMPDEST PUSH1 0x0 PUSH1 0x20 DUP3 ADD SWAP1 POP DUP2 DUP2 SUB PUSH1 0x0 DUP4 ADD MSTORE PUSH2 0x33C1 DUP2 PUSH2 0x3385 JUMP JUMPDEST SWAP1 POP SWAP2 SWAP1 POP JUMP JUMPDEST PUSH32 0x41756374696F6E206E6F7420656E646564000000000000000000000000000000 PUSH1 0x0 DUP3 ADD MSTORE POP JUMP JUMPDEST PUSH1 0x0 PUSH2 0x33FE PUSH1 0x11 DUP4 PUSH2 0x2711 JUMP JUMPDEST SWAP2 POP PUSH2 0x3409 DUP3 PUSH2 0x33C8 JUMP JUMPDEST PUSH1 0x20 DUP3 ADD SWAP1 POP SWAP2 SWAP1 POP JUMP JUMPDEST PUSH1 0x0 PUSH1 0x20 DUP3 ADD SWAP1 POP DUP2 DUP2 SUB PUSH1 0x0 DUP4 ADD MSTORE PUSH2 0x342D DUP2 PUSH2 0x33F1 JUMP JUMPDEST SWAP1 POP SWAP2 SWAP1 POP JUMP JUMPDEST PUSH32 0x427579657220616C726561647920706169640000000000000000000000000000 PUSH1 0x0 DUP3 ADD MSTORE POP JUMP JUMPDEST PUSH1 0x0 PUSH2 0x346A PUSH1 0x12 DUP4 PUSH2 0x2711 JUMP JUMPDEST SWAP2 POP PUSH2 0x3475 DUP3 PUSH2 0x3434 JUMP JUMPDEST PUSH1 0x20 DUP3 ADD SWAP1 POP SWAP2 SWAP1 POP JUMP JUMPDEST PUSH1 0x0 PUSH1 0x20 DUP3 ADD SWAP1 POP DUP2 DUP2 SUB PUSH1 0x0 DUP4 ADD MSTORE PUSH2 0x3499 DUP2 PUSH2 0x345D JUMP JUMPDEST SWAP1 POP SWAP2 SWAP1 POP JUMP JUMPDEST PUSH32 0x5374696C6C20696E207061796D656E742077696E646F77000000000000000000 PUSH1 0x0 DUP3 ADD MSTORE POP JUMP JUMPDEST PUSH1 0x0 PUSH2 0x34D6 PUSH1 0x17 DUP4 PUSH2 0x2711 JUMP JUMPDEST SWAP2 POP PUSH2 0x34E1 DUP3 PUSH2 0x34A0 JUMP JUMPDEST PUSH1 0x20 DUP3 ADD SWAP1 POP SWAP2 SWAP1 POP JUMP JUMPDEST PUSH1 0x0 PUSH1 0x20 DUP3 ADD SWAP1 POP DUP2 DUP2 SUB PUSH1 0x0 DUP4 ADD MSTORE PUSH2 0x3505 DUP2 PUSH2 0x34C9 JUMP JUMPDEST SWAP1 POP SWAP2 SWAP1 POP JUMP JUMPDEST PUSH32 0x5472616E736665722077696E6E6572206465706F73697420746F2073656C6C65 PUSH1 0x0 DUP3 ADD MSTORE PUSH32 0x72206661696C6564000000000000000000000000000000000000000000000000 PUSH1 0x20 DUP3 ADD MSTORE POP JUMP JUMPDEST PUSH1 0x0 PUSH2 0x3568 PUSH1 0x28 DUP4 PUSH2 0x2711 JUMP JUMPDEST SWAP2 POP PUSH2 0x3573 DUP3 PUSH2 0x350C JUMP JUMPDEST PUSH1 0x40 DUP3 ADD SWAP1 POP SWAP2 SWAP1 POP JUMP JUMPDEST PUSH1 0x0 PUSH1 0x20 DUP3 ADD SWAP1 POP DUP2 DUP2 SUB PUSH1 0x0 DUP4 ADD MSTORE PUSH2 0x3597 DUP2 PUSH2 0x355B JUMP JUMPDEST SWAP1 POP SWAP2 SWAP1 POP JUMP JUMPDEST PUSH32 0x526566756E642073656C6C6572206465706F736974206661696C656400000000 PUSH1 0x0 DUP3 ADD MSTORE POP JUMP JUMPDEST PUSH1 0x0 PUSH2 0x35D4 PUSH1 0x1C DUP4 PUSH2 0x2711 JUMP JUMPDEST SWAP2 POP PUSH2 0x35DF DUP3 PUSH2 0x359E JUMP JUMPDEST PUSH1 0x20 DUP3 ADD SWAP1 POP SWAP2 SWAP1 POP JUMP JUMPDEST PUSH1 0x0 PUSH1 0x20 DUP3 ADD SWAP1 POP DUP2 DUP2 SUB PUSH1 0x0 DUP4 ADD MSTORE PUSH2 0x3603 DUP2 PUSH2 0x35C7 JUMP JUMPDEST SWAP1 POP SWAP2 SWAP1 POP JUMP JUMPDEST PUSH32 0x4E487B7100000000000000000000000000000000000000000000000000000000 PUSH1 0x0 MSTORE PUSH1 0x41 PUSH1 0x4 MSTORE PUSH1 0x24 PUSH1 0x0 REVERT JUMPDEST PUSH32 0x4E487B7100000000000000000000000000000000000000000000000000000000 PUSH1 0x0 MSTORE PUSH1 0x32 PUSH1 0x4 MSTORE PUSH1 0x24 PUSH1 0x0 REVERT JUMPDEST PUSH1 0x0 PUSH2 0x3673 DUP3 PUSH2 0x26D2 JUMP JUMPDEST SWAP2 POP PUSH32 0xFFFFFFFFFFFFFFFFFFFFFFFFFFFFFFFFFFFFFFFFFFFFFFFFFFFFFFFFFFFFFFFF DUP3 SUB PUSH2 0x36A5 JUMPI PUSH2 0x36A4 PUSH2 0x2EE7 JUMP JUMPDEST JUMPDEST PUSH1 0x1 DUP3 ADD SWAP1 POP SWAP2 SWAP1 POP JUMP JUMPDEST PUSH32 0x456E646564000000000000000000000000000000000000000000000000000000 PUSH1 0x0 DUP3 ADD MSTORE POP JUMP JUMPDEST PUSH1 0x0 PUSH2 0x36E6 PUSH1 0x5 DUP4 PUSH2 0x2711 JUMP JUMPDEST SWAP2 POP PUSH2 0x36F1 DUP3 PUSH2 0x36B0 JUMP JUMPDEST PUSH1 0x20 DUP3 ADD SWAP1 POP SWAP2 SWAP1 POP JUMP JUMPDEST PUSH1 0x0 PUSH1 0x20 DUP3 ADD SWAP1 POP DUP2 DUP2 SUB PUSH1 0x0 DUP4 ADD MSTORE PUSH2 0x3715 DUP2 PUSH2 0x36D9 JUMP JUMPDEST SWAP1 POP SWAP2 SWAP1 POP JUMP JUMPDEST PUSH32 0x42696420746F6F206C6F77000000000000000000000000000000000000000000 PUSH1 0x0 DUP3 ADD MSTORE POP JUMP JUMPDEST PUSH1 0x0 PUSH2 0x3752 PUSH1 0xB DUP4 PUSH2 0x2711 JUMP JUMPDEST SWAP2 POP PUSH2 0x375D DUP3 PUSH2 0x371C JUMP JUMPDEST PUSH1 0x20 DUP3 ADD SWAP1 POP SWAP2 SWAP1 POP JUMP JUMPDEST PUSH1 0x0 PUSH1 0x20 DUP3 ADD SWAP1 POP DUP2 DUP2 SUB PUSH1 0x0 DUP4 ADD MSTORE PUSH2 0x3781 DUP2 PUSH2 0x3745 JUMP JUMPDEST SWAP1 POP SWAP2 SWAP1 POP JUMP JUMPDEST PUSH1 0x0 PUSH2 0x3793 DUP3 PUSH2 0x26D2 JUMP JUMPDEST SWAP2 POP PUSH2 0x379E DUP4 PUSH2 0x26D2 JUMP JUMPDEST SWAP3 POP DUP3 DUP3 MUL PUSH2 0x37AC DUP2 PUSH2 0x26D2 JUMP JUMPDEST SWAP2 POP DUP3 DUP3 DIV DUP5 EQ DUP4 ISZERO OR PUSH2 0x37C3 JUMPI PUSH2 0x37C2 PUSH2 0x2EE7 JUMP JUMPDEST JUMPDEST POP SWAP3 SWAP2 POP POP JUMP JUMPDEST PUSH1 0x0 PUSH2 0x37D5 DUP3 PUSH2 0x26D2 JUMP JUMPDEST SWAP2 POP PUSH2 0x37E0 DUP4 PUSH2 0x26D2 JUMP JUMPDEST SWAP3 POP DUP3 DUP3 SUB SWAP1 POP DUP2 DUP2 GT ISZERO PUSH2 0x37F8 JUMPI PUSH2 0x37F7 PUSH2 0x2EE7 JUMP JUMPDEST JUMPDEST SWAP3 SWAP2 POP POP JUMP JUMPDEST PUSH32 0x4465706F73697420696E73756666696369656E74000000000000000000000000 PUSH1 0x0 DUP3 ADD MSTORE POP JUMP JUMPDEST PUSH1 0x0 PUSH2 0x3834 PUSH1 0x14 DUP4 PUSH2 0x2711 JUMP JUMPDEST SWAP2 POP PUSH2 0x383F DUP3 PUSH2 0x37FE JUMP JUMPDEST PUSH1 0x20 DUP3 ADD SWAP1 POP SWAP2 SWAP1 POP JUMP JUMPDEST PUSH1 0x0 PUSH1 0x20 DUP3 ADD SWAP1 POP DUP2 DUP2 SUB PUSH1 0x0 DUP4 ADD MSTORE PUSH2 0x3863 DUP2 PUSH2 0x3827 JUMP JUMPDEST SWAP1 POP SWAP2 SWAP1 POP JUMP JUMPDEST PUSH32 0x526566756E64206661696C656400000000000000000000000000000000000000 PUSH1 0x0 DUP3 ADD MSTORE POP JUMP JUMPDEST PUSH1 0x0 PUSH2 0x38A0 PUSH1 0xD DUP4 PUSH2 0x2711 JUMP JUMPDEST SWAP2 POP PUSH2 0x38AB DUP3 PUSH2 0x386A JUMP JUMPDEST PUSH1 0x20 DUP3 ADD SWAP1 POP SWAP2 SWAP1 POP JUMP JUMPDEST PUSH1 0x0 PUSH1 0x20 DUP3 ADD SWAP1 POP DUP2 DUP2 SUB PUSH1 0x0 DUP4 ADD MSTORE PUSH2 0x38CF DUP2 PUSH2 0x3893 JUMP JUMPDEST SWAP1 POP SWAP2 SWAP1 POP JUMP JUMPDEST PUSH32 0x4E6F742077696E6E657200000000000000000000000000000000000000000000 PUSH1 0x0 DUP3 ADD MSTORE POP JUMP JUMPDEST PUSH1 0x0 PUSH2 0x390C PUSH1 0xA DUP4 PUSH2 0x2711 JUMP JUMPDEST SWAP2 POP PUSH2 0x3917 DUP3 PUSH2 0x38D6 JUMP JUMPDEST PUSH1 0x20 DUP3 ADD SWAP1 POP SWAP2 SWAP1 POP JUMP JUMPDEST PUSH1 0x0 PUSH1 0x20 DUP3 ADD SWAP1 POP DUP2 DUP2 SUB PUSH1 0x0 DUP4 ADD MSTORE PUSH2 0x393B DUP2 PUSH2 0x38FF JUMP JUMPDEST SWAP1 POP SWAP2 SWAP1 POP JUMP JUMPDEST PUSH32 0x416C726561647920706169640000000000000000000000000000000000000000 PUSH1 0x0 DUP3 ADD MSTORE POP JUMP JUMPDEST PUSH1 0x0 PUSH2 0x3978 PUSH1 0xC DUP4 PUSH2 0x2711 JUMP JUMPDEST SWAP2 POP PUSH2 0x3983 DUP3 PUSH2 0x3942 JUMP JUMPDEST PUSH1 0x20 DUP3 ADD SWAP1 POP SWAP2 SWAP1 POP JUMP JUMPDEST PUSH1 0x0 PUSH1 0x20 DUP3 ADD SWAP1 POP DUP2 DUP2 SUB PUSH1 0x0 DUP4 ADD MSTORE PUSH2 0x39A7 DUP2 PUSH2 0x396B JUMP JUMPDEST SWAP1 POP SWAP2 SWAP1 POP JUMP JUMPDEST PUSH32 0x57726F6E6720616D6F756E740000000000000000000000000000000000000000 PUSH1 0x0 DUP3 ADD MSTORE POP JUMP JUMPDEST PUSH1 0x0 PUSH2 0x39E4 PUSH1 0xC DUP4 PUSH2 0x2711 JUMP JUMPDEST SWAP2 POP PUSH2 0x39EF DUP3 PUSH2 0x39AE JUMP JUMPDEST PUSH1 0x20 DUP3 ADD SWAP1 POP SWAP2 SWAP1 POP JUMP JUMPDEST PUSH1 0x0 PUSH1 0x20 DUP3 ADD SWAP1 POP DUP2 DUP2 SUB PUSH1 0x0 DUP4 ADD MSTORE PUSH2 0x3A13 DUP2 PUSH2 0x39D7 JUMP JUMPDEST SWAP1 POP SWAP2 SWAP1 POP JUMP INVALID LOG2 PUSH5 0x6970667358 0x22 SLT KECCAK256 CALLDATALOAD ADDRESS 0x29 0xE0 SDIV PUSH25 0x4123D270BF9ADF06BD5FD2DA2C62FF06C6B2AB3757ACC03329 0xE8 PUSH5 0x736F6C6343 STOP ADDMOD EQ STOP CALLER "},"methodIdentifiers":{"BUYER_DEPOSIT_RATE()":"b7f05217","CONFIRM_WINDOW()":"a124b3d1","DELIVERY_WINDOW()":"e995478e","PAYMENT_WINDOW()":"c6c48962","SELLER_DEPOSIT_RATE()":"6450bac4","actionEndTime()":"c764cd05","autoRefundLosers()":"a5a448a7","bidders(uint256)":"cff29dfd","bids(address)":"62ea82db","buyerConfirmed()":"48a1335a","buyerPaid()":"d3142328","buyerPaidAt()":"c7d26e62","confirmReceived()":"73fac6f0","confirmShipped()":"26cae428","ended()":"12fa6feb","finalize()":"4bb278f3","getAllBids()":"8d0f6da3","getStatus()":"4e69d560","highestBid()":"d57bde79","highestBidder()":"91f90157","payWinningBid()":"e35a70d9","penalizeSeller()":"49706ebe","penalizeWinner()":"8282a4c1","placeBid(uint256)":"9979ef45","releaseToSeller()":"892a0e42","seller()":"08551a53","sellerDeposit()":"4c1786ea","sellerShipped()":"6a4445fb","sellerShippedAt()":"bda43f91","startingPrice()":"d6fbf202","withdrawDeposit()":"117df088"}}}}}