{
  "_format": "hh-sol-artifact-1",
  "contractName": "ActionFactory",
  "sourceName": "contracts/ActionFactory.sol",
  "abi": [
    {
      "anonymous": false,
      "inputs": [
        {
          "indexed": true,
          "internalType": "address",
          "name": "seller",
          "type": "address"
        },
        {
          "indexed": false,
          "internalType": "address",
          "name": "actionAddress",
          "type": "address"
        },
        {
          "indexed": false,
          "internalType": "uint256",
          "name": "startingPrice",
          "type": "uint256"
        },
        {
          "indexed": false,
          "internalType": "uint256",
          "name": "sellerDeposit",
          "type": "uint256"
        },
        {
          "indexed": false,
          "internalType": "uint256",
          "name": "endTime",
          "type": "uint256"
        }
      ],
      "name": "ActionCreated",
      "type": "event"
    },
    {
      "inputs": [
        {
          "internalType": "uint256",
          "name": "",
          "type": "uint256"
        }
      ],
      "name": "allActions",
      "outputs": [
        {
          "internalType": "address",
          "name": "",
          "type": "address"
        }
      ],
      "stateMutability": "view",
      "type": "function"
    },
    {
      "inputs": [
        {
          "internalType": "uint256",
          "name": "_biddingTime",
          "type": "uint256"
        },
        {
          "internalType": "address",
          "name": "_seller",
          "type": "address"
        },
        {
          "internalType": "uint256",
          "name": "_startingPrice",
          "type": "uint256"
        }
      ],
      "name": "createAction",
      "outputs": [],
      "stateMutability": "payable",
      "type": "function"
    },
    {
      "inputs": [],
      "name": "getActionCount",
      "outputs": [
        {
          "internalType": "uint256",
          "name": "",
          "type": "uint256"
        }
      ],
      "stateMutability": "view",
      "type": "function"
    },
    {
      "inputs": [],
      "name": "getAllActions",
      "outputs": [
        {
          "internalType": "address[]",
          "name": "",
          "type": "address[]"
        }
      ],
      "stateMutability": "view",
      "type": "function"
    }
  ],
  "bytecode": "0x608060405234801561001057600080fd5b50614a07806100206000396000f3fe608060405260043610620000445760003560e01c80635eecd2181462000049578063aea5df161462000079578063d7248b1f14620000a9578063f044ad1014620000ed575b600080fd5b3480156200005657600080fd5b50620000616200010d565b60405162000070919062000441565b60405180910390f35b3480156200008657600080fd5b506200009162000119565b604051620000a0919062000560565b60405180910390f35b348015620000b657600080fd5b50620000d56004803603810190620000cf9190620005ba565b620001a9565b604051620000e49190620005fd565b60405180910390f35b6200010b60048036038101906200010591906200064b565b620001e9565b005b60008080549050905090565b606060008054806020026020016040519081016040528092919081815260200182805480156200019f57602002820191906000526020600020905b8160009054906101000a900473ffffffffffffffffffffffffffffffffffffffff1673ffffffffffffffffffffffffffffffffffffffff168152602001906001019080831162000154575b5050505050905090565b60008181548110620001ba57600080fd5b906000526020600020016000915054906101000a900473ffffffffffffffffffffffffffffffffffffffff1681565b600073ffffffffffffffffffffffffffffffffffffffff168273ffffffffffffffffffffffffffffffffffffffff16036200025b576040517f08c379a0000000000000000000000000000000000000000000000000000000008152600401620002529062000708565b60405180910390fd5b60008111620002a1576040517f08c379a000000000000000000000000000000000000000000000000000000000815260040162000298906200077a565b60405180910390fd5b60006064601483620002b49190620007cb565b620002c0919062000845565b90508034101562000308576040517f08c379a0000000000000000000000000000000000000000000000000000000008152600401620002ff90620008f3565b60405180910390fd5b6000348585856040516200031c9062000418565b6200032a9392919062000915565b6040518091039082f090508015801562000348573d6000803e3d6000fd5b5090506000819080600181540180825580915050600190039060005260206000200160009091909190916101000a81548173ffffffffffffffffffffffffffffffffffffffff021916908373ffffffffffffffffffffffffffffffffffffffff1602179055508373ffffffffffffffffffffffffffffffffffffffff167f57416e787185f46baa40415a8ed30135b2fe0adc9c935e203611dc9c93a1c0688285348942620003f7919062000952565b6040516200040994939291906200098d565b60405180910390a25050505050565b613ff780620009db83390190565b6000819050919050565b6200043b8162000426565b82525050565b600060208201905062000458600083018462000430565b92915050565b600081519050919050565b600082825260208201905092915050565b6000819050602082019050919050565b600073ffffffffffffffffffffffffffffffffffffffff82169050919050565b6000620004b7826200048a565b9050919050565b620004c981620004aa565b82525050565b6000620004dd8383620004be565b60208301905092915050565b6000602082019050919050565b600062000503826200045e565b6200050f818562000469565b93506200051c836200047a565b8060005b8381101562000553578151620005378882620004cf565b97506200054483620004e9565b92505060018101905062000520565b5085935050505092915050565b600060208201905081810360008301526200057c8184620004f6565b905092915050565b600080fd5b620005948162000426565b8114620005a057600080fd5b50565b600081359050620005b48162000589565b92915050565b600060208284031215620005d357620005d262000584565b5b6000620005e384828501620005a3565b91505092915050565b620005f781620004aa565b82525050565b6000602082019050620006146000830184620005ec565b92915050565b6200062581620004aa565b81146200063157600080fd5b50565b60008135905062000645816200061a565b92915050565b60008060006060848603121562000667576200066662000584565b5b60006200067786828701620005a3565b93505060206200068a8682870162000634565b92505060406200069d86828701620005a3565b9150509250925092565b600082825260208201905092915050565b7f496e76616c69642073656c6c6572206164647265737300000000000000000000600082015250565b6000620006f0601683620006a7565b9150620006fd82620006b8565b602082019050919050565b600060208201905081810360008301526200072381620006e1565b9050919050565b7f5374617274696e67207072696365206d757374206265203e2030000000000000600082015250565b600062000762601a83620006a7565b91506200076f826200072a565b602082019050919050565b60006020820190508181036000830152620007958162000753565b9050919050565b7f4e487b7100000000000000000000000000000000000000000000000000000000600052601160045260246000fd5b6000620007d88262000426565b9150620007e58362000426565b9250828202620007f58162000426565b915082820484148315176200080f576200080e6200079c565b5b5092915050565b7f4e487b7100000000000000000000000000000000000000000000000000000000600052601260045260246000fd5b6000620008528262000426565b91506200085f8362000426565b92508262000872576200087162000816565b5b828204905092915050565b7f53656c6c6572206d757374206465706f73697420323025206f6620737461727460008201527f696e672070726963650000000000000000000000000000000000000000000000602082015250565b6000620008db602983620006a7565b9150620008e8826200087d565b604082019050919050565b600060208201905081810360008301526200090e81620008cc565b9050919050565b60006060820190506200092c600083018662000430565b6200093b6020830185620005ec565b6200094a604083018462000430565b949350505050565b60006200095f8262000426565b91506200096c8362000426565b92508282019050808211156200098757620009866200079c565b5b92915050565b6000608082019050620009a46000830187620005ec565b620009b3602083018662000430565b620009c2604083018562000430565b620009d1606083018462000430565b9594505050505056fe60c060405260405162003ff738038062003ff783398181016040528101906200002991906200024e565b600073ffffffffffffffffffffffffffffffffffffffff168273ffffffffffffffffffffffffffffffffffffffff16036200009b576040517f08c379a000000000000000000000000000000000000000000000000000000000815260040162000092906200030b565b60405180910390fd5b60008111620000e1576040517f08c379a0000000000000000000000000000000000000000000000000000000008152600401620000d8906200037d565b60405180910390fd5b60006064601483620000f49190620003ce565b62000100919062000448565b90508034101562000148576040517f08c379a00000000000000000000000000000000000000000000000000000000081526004016200013f90620004d0565b60405180910390fd5b8273ffffffffffffffffffffffffffffffffffffffff1660808173ffffffffffffffffffffffffffffffffffffffff168152505081600081905550346001819055508342620001989190620004f2565b60a08181525050505050506200052d565b600080fd5b6000819050919050565b620001c381620001ae565b8114620001cf57600080fd5b50565b600081519050620001e381620001b8565b92915050565b600073ffffffffffffffffffffffffffffffffffffffff82169050919050565b60006200021682620001e9565b9050919050565b620002288162000209565b81146200023457600080fd5b50565b60008151905062000248816200021d565b92915050565b6000806000606084860312156200026a5762000269620001a9565b5b60006200027a86828701620001d2565b93505060206200028d8682870162000237565b9250506040620002a086828701620001d2565b9150509250925092565b600082825260208201905092915050565b7f496e76616c69642073656c6c6572000000000000000000000000000000000000600082015250565b6000620002f3600e83620002aa565b91506200030082620002bb565b602082019050919050565b600060208201905081810360008301526200032681620002e4565b9050919050565b7f5072696365203e20300000000000000000000000000000000000000000000000600082015250565b600062000365600983620002aa565b915062000372826200032d565b602082019050919050565b60006020820190508181036000830152620003988162000356565b9050919050565b7f4e487b7100000000000000000000000000000000000000000000000000000000600052601160045260246000fd5b6000620003db82620001ae565b9150620003e883620001ae565b9250828202620003f881620001ae565b915082820484148315176200041257620004116200039f565b5b5092915050565b7f4e487b7100000000000000000000000000000000000000000000000000000000600052601260045260246000fd5b60006200045582620001ae565b91506200046283620001ae565b92508262000475576200047462000419565b5b828204905092915050565b7f53656c6c6572206465706f73697420696e73756666696369656e740000000000600082015250565b6000620004b8601b83620002aa565b9150620004c58262000480565b602082019050919050565b60006020820190508181036000830152620004eb81620004a9565b9050919050565b6000620004ff82620001ae565b91506200050c83620001ae565b92508282019050808211156200052757620005266200039f565b5b92915050565b60805160a051613a50620005a760003960008181610ed4015281816114f501528181611ddd015261237b01526000818161066d015281816109af01528181610b4f01528181610e5201528181611338015281816115f7015281816116c5015281816117c7015281816119970152611a610152613a506000f3fe6080604052600436106101d85760003560e01c80638d0f6da311610102578063c764cd0511610095578063d57bde7911610064578063d57bde79146105e0578063d6fbf2021461060b578063e35a70d914610636578063e995478e14610640576101d8565b8063c764cd0514610522578063c7d26e621461054d578063cff29dfd14610578578063d3142328146105b5576101d8565b8063a5a448a7116100d1578063a5a448a71461048a578063b7f05217146104a1578063bda43f91146104cc578063c6c48962146104f7576101d8565b80638d0f6da3146103ea57806391f90157146104185780639979ef4514610443578063a124b3d11461045f576101d8565b80634c1786ea1161017a5780636a4445fb116101495780636a4445fb1461037a57806373fac6f0146103a55780638282a4c1146103bc578063892a0e42146103d3576101d8565b80634c1786ea146102ba5780634e69d560146102e557806362ea82db146103105780636450bac41461034f576101d8565b806326cae428116101b657806326cae4281461024a57806348a1335a1461026157806349706ebe1461028c5780634bb278f3146102a3576101d8565b806308551a53146101dd578063117df0881461020857806312fa6feb1461021f575b600080fd5b3480156101e957600080fd5b506101f261066b565b6040516101ff9190612681565b60405180910390f35b34801561021457600080fd5b5061021d61068f565b005b34801561022b57600080fd5b5061023461099a565b60405161024191906126b7565b60405180910390f35b34801561025657600080fd5b5061025f6109ad565b005b34801561026d57600080fd5b50610276610bb2565b60405161028391906126b7565b60405180910390f35b34801561029857600080fd5b506102a1610bc5565b005b3480156102af57600080fd5b506102b8610ed2565b005b3480156102c657600080fd5b506102cf610fff565b6040516102dc91906126eb565b60405180910390f35b3480156102f157600080fd5b506102fa611005565b6040516103079190612796565b60405180910390f35b34801561031c57600080fd5b50610337600480360381019061033291906127e9565b611187565b60405161034693929190612816565b60405180910390f35b34801561035b57600080fd5b506103646111be565b60405161037191906126eb565b60405180910390f35b34801561038657600080fd5b5061038f6111c3565b60405161039c91906126b7565b60405180910390f35b3480156103b157600080fd5b506103ba6111d6565b005b3480156103c857600080fd5b506103d1611452565b005b3480156103df57600080fd5b506103e8611875565b005b3480156103f657600080fd5b506103ff611ad1565b60405161040f9493929190612a87565b60405180910390f35b34801561042457600080fd5b5061042d611db5565b60405161043a9190612681565b60405180910390f35b61045d60048036038101906104589190612b14565b611ddb565b005b34801561046b57600080fd5b506104746120c4565b60405161048191906126eb565b60405180910390f35b34801561049657600080fd5b5061049f6120c9565b005b3480156104ad57600080fd5b506104b6612369565b6040516104c391906126eb565b60405180910390f35b3480156104d857600080fd5b506104e161236e565b6040516104ee91906126eb565b60405180910390f35b34801561050357600080fd5b5061050c612374565b60405161051991906126eb565b60405180910390f35b34801561052e57600080fd5b50610537612379565b60405161054491906126eb565b60405180910390f35b34801561055957600080fd5b5061056261239d565b60405161056f91906126eb565b60405180910390f35b34801561058457600080fd5b5061059f600480360381019061059a9190612b14565b6123a3565b6040516105ac9190612681565b60405180910390f35b3480156105c157600080fd5b506105ca6123e2565b6040516105d791906126b7565b60405180910390f35b3480156105ec57600080fd5b506105f56123f5565b60405161060291906126eb565b60405180910390f35b34801561061757600080fd5b506106206123fb565b60405161062d91906126eb565b60405180910390f35b61063e612401565b005b34801561064c57600080fd5b5061065561263b565b60405161066291906126eb565b60405180910390f35b7f000000000000000000000000000000000000000000000000000000000000000081565b600460009054906101000a900460ff166106de576040517f08c379a00000000000000000000000000000000000000000000000000000000081526004016106d590612b8d565b60405180910390fd5b6000600760003373ffffffffffffffffffffffffffffffffffffffff1673ffffffffffffffffffffffffffffffffffffffff16815260200190815260200160002090506000816001015411610768576040517f08c379a000000000000000000000000000000000000000000000000000000000815260040161075f90612bf9565b60405180910390fd5b8060020160009054906101000a900460ff16156107ba576040517f08c379a00000000000000000000000000000000000000000000000000000000081526004016107b190612c65565b60405180910390fd5b600260009054906101000a900473ffffffffffffffffffffffffffffffffffffffff1673ffffffffffffffffffffffffffffffffffffffff163373ffffffffffffffffffffffffffffffffffffffff160361087757600460039054906101000a900460ff16806108375750600460029054906101000a900460ff16155b610876576040517f08c379a000000000000000000000000000000000000000000000000000000000815260040161086d90612cd1565b60405180910390fd5b5b60018160020160006101000a81548160ff02191690831515021790555060003373ffffffffffffffffffffffffffffffffffffffff1682600101546040516108be90612d22565b60006040518083038185875af1925050503d80600081146108fb576040519150601f19603f3d011682016040523d82523d6000602084013e610900565b606091505b5050905080610944576040517f08c379a000000000000000000000000000000000000000000000000000000000815260040161093b90612d83565b60405180910390fd5b3373ffffffffffffffffffffffffffffffffffffffff167f4482101800a5c2e900f4156e57e05e19ffd7b366cde579553d723fd3abb2180e836001015460405161098e91906126eb565b60405180910390a25050565b600460009054906101000a900460ff1681565b7f000000000000000000000000000000000000000000000000000000000000000073ffffffffffffffffffffffffffffffffffffffff163373ffffffffffffffffffffffffffffffffffffffff1614610a3b576040517f08c379a0000000000000000000000000000000000000000000000000000000008152600401610a3290612def565b60405180910390fd5b600460019054906101000a900460ff16610a8a576040517f08c379a0000000000000000000000000000000000000000000000000000000008152600401610a8190612e5b565b60405180910390fd5b600460029054906101000a900460ff1615610ada576040517f08c379a0000000000000000000000000000000000000000000000000000000008152600401610ad190612ec7565b60405180910390fd5b603c600554610ae99190612f16565b421115610b2b576040517f08c379a0000000000000000000000000000000000000000000000000000000008152600401610b2290612f96565b60405180910390fd5b6001600460026101000a81548160ff021916908315150217905550426006819055507f000000000000000000000000000000000000000000000000000000000000000073ffffffffffffffffffffffffffffffffffffffff167f880fbb660d958db3fcb0edb7302d571a0c9fab06237ec103a0b2c1710b07397460405160405180910390a2565b600460039054906101000a900460ff1681565b600460019054906101000a900460ff16610c14576040517f08c379a0000000000000000000000000000000000000000000000000000000008152600401610c0b90612e5b565b60405180910390fd5b600460029054906101000a900460ff1615610c64576040517f08c379a0000000000000000000000000000000000000000000000000000000008152600401610c5b90612ec7565b60405180910390fd5b603c600554610c739190612f16565b4211610cb4576040517f08c379a0000000000000000000000000000000000000000000000000000000008152600401610cab90613002565b60405180910390fd5b60006002600154610cc59190613051565b90506000600260009054906101000a900473ffffffffffffffffffffffffffffffffffffffff1673ffffffffffffffffffffffffffffffffffffffff1682600354610d109190612f16565b604051610d1c90612d22565b60006040518083038185875af1925050503d8060008114610d59576040519150601f19603f3d011682016040523d82523d6000602084013e610d5e565b606091505b5050905080610da2576040517f08c379a0000000000000000000000000000000000000000000000000000000008152600401610d99906130ce565b60405180910390fd5b600061dead73ffffffffffffffffffffffffffffffffffffffff1683604051610dca90612d22565b60006040518083038185875af1925050503d8060008114610e07576040519150601f19603f3d011682016040523d82523d6000602084013e610e0c565b606091505b5050905080610e50576040517f08c379a0000000000000000000000000000000000000000000000000000000008152600401610e479061313a565b60405180910390fd5b7f000000000000000000000000000000000000000000000000000000000000000073ffffffffffffffffffffffffffffffffffffffff167f102e3eed9525752cdd3140813ede5653b633d9cdd0753b3aef43c9c8059f91e984600354610eb69190612f16565b85604051610ec592919061315a565b60405180910390a2505050565b7f0000000000000000000000000000000000000000000000000000000000000000421015610f35576040517f08c379a0000000000000000000000000000000000000000000000000000000008152600401610f2c90612b8d565b60405180910390fd5b600460009054906101000a900460ff1615610f85576040517f08c379a0000000000000000000000000000000000000000000000000000000008152600401610f7c906131cf565b60405180910390fd5b6001600460006101000a81548160ff0219169083151502179055507fdaec4582d5d9595688c8c98545fdd1c696d41c6aeaeb636737e84ed2f5c00eda600260009054906101000a900473ffffffffffffffffffffffffffffffffffffffff16600354604051610ff59291906131ef565b60405180910390a1565b60015481565b6060600460009054906101000a900460ff16611058576040518060400160405280600681526020017f41637469766500000000000000000000000000000000000000000000000000008152509050611184565b600460019054906101000a900460ff166110a9576040518060400160405280601881526020017f456e646564202d204177616974696e67205061796d656e7400000000000000008152509050611184565b600460029054906101000a900460ff166110fa576040518060400160405280601881526020017f50616964202d204177616974696e6720536869706d656e7400000000000000008152509050611184565b600460039054906101000a900460ff1661114b576040518060400160405280601f81526020017f53686970706564202d204177616974696e6720436f6e6669726d6174696f6e008152509050611184565b6040518060400160405280600981526020017f436f6d706c65746564000000000000000000000000000000000000000000000081525090505b90565b60076020528060005260406000206000915090508060000154908060010154908060020160009054906101000a900460ff16905083565b601481565b600460029054906101000a900460ff1681565b600260009054906101000a900473ffffffffffffffffffffffffffffffffffffffff1673ffffffffffffffffffffffffffffffffffffffff163373ffffffffffffffffffffffffffffffffffffffff1614611266576040517f08c379a000000000000000000000000000000000000000000000000000000000815260040161125d90613264565b60405180910390fd5b600460029054906101000a900460ff166112b5576040517f08c379a00000000000000000000000000000000000000000000000000000000081526004016112ac906132d0565b60405180910390fd5b600460039054906101000a900460ff1615611305576040517f08c379a00000000000000000000000000000000000000000000000000000000081526004016112fc9061333c565b60405180910390fd5b6001600460036101000a81548160ff02191690831515021790555060006001546003546113329190612f16565b905060007f000000000000000000000000000000000000000000000000000000000000000073ffffffffffffffffffffffffffffffffffffffff168260405161137a90612d22565b60006040518083038185875af1925050503d80600081146113b7576040519150601f19603f3d011682016040523d82523d6000602084013e6113bc565b606091505b5050905080611400576040517f08c379a00000000000000000000000000000000000000000000000000000000081526004016113f7906133a8565b60405180910390fd5b3373ffffffffffffffffffffffffffffffffffffffff167f253dc7da728ba73e554f473a0466012973accb631842f82c6dd18308cb039e188360405161144691906126eb565b60405180910390a25050565b600460009054906101000a900460ff166114a1576040517f08c379a000000000000000000000000000000000000000000000000000000000815260040161149890613414565b60405180910390fd5b600460019054906101000a900460ff16156114f1576040517f08c379a00000000000000000000000000000000000000000000000000000000081526004016114e890613480565b60405180910390fd5b603c7f000000000000000000000000000000000000000000000000000000000000000061151e9190612f16565b421161155f576040517f08c379a0000000000000000000000000000000000000000000000000000000008152600401611556906134ec565b60405180910390fd5b600060076000600260009054906101000a900473ffffffffffffffffffffffffffffffffffffffff1673ffffffffffffffffffffffffffffffffffffffff1673ffffffffffffffffffffffffffffffffffffffff168152602001908152602001600020905060008160010154905060008111156116c15760018260020160006101000a81548160ff02191690831515021790555060007f000000000000000000000000000000000000000000000000000000000000000073ffffffffffffffffffffffffffffffffffffffff168260405161163990612d22565b60006040518083038185875af1925050503d8060008114611676576040519150601f19603f3d011682016040523d82523d6000602084013e61167b565b606091505b50509050806116bf576040517f08c379a00000000000000000000000000000000000000000000000000000000081526004016116b69061357e565b60405180910390fd5b505b60007f000000000000000000000000000000000000000000000000000000000000000073ffffffffffffffffffffffffffffffffffffffff1660015460405161170990612d22565b60006040518083038185875af1925050503d8060008114611746576040519150601f19603f3d011682016040523d82523d6000602084013e61174b565b606091505b505090508061178f576040517f08c379a0000000000000000000000000000000000000000000000000000000008152600401611786906135ea565b60405180910390fd5b6001600460016101000a81548160ff0219169083151502179055506001600460036101000a81548160ff0219169083151502179055507f000000000000000000000000000000000000000000000000000000000000000073ffffffffffffffffffffffffffffffffffffffff16600260009054906101000a900473ffffffffffffffffffffffffffffffffffffffff1673ffffffffffffffffffffffffffffffffffffffff167f763572e8df6b9220ea32e77317c65861a0bd34eb109cbcf374a6b406f218535d8460015460405161186892919061315a565b60405180910390a3505050565b600460029054906101000a900460ff166118c4576040517f08c379a00000000000000000000000000000000000000000000000000000000081526004016118bb906132d0565b60405180910390fd5b600460039054906101000a900460ff1615611914576040517f08c379a000000000000000000000000000000000000000000000000000000000815260040161190b9061333c565b60405180910390fd5b603c6006546119239190612f16565b4211611964576040517f08c379a000000000000000000000000000000000000000000000000000000000815260040161195b90613002565b60405180910390fd5b6001600460036101000a81548160ff02191690831515021790555060006001546003546119919190612f16565b905060007f000000000000000000000000000000000000000000000000000000000000000073ffffffffffffffffffffffffffffffffffffffff16826040516119d990612d22565b60006040518083038185875af1925050503d8060008114611a16576040519150601f19603f3d011682016040523d82523d6000602084013e611a1b565b606091505b5050905080611a5f576040517f08c379a0000000000000000000000000000000000000000000000000000000008152600401611a5690612d83565b60405180910390fd5b7f000000000000000000000000000000000000000000000000000000000000000073ffffffffffffffffffffffffffffffffffffffff167fcd4da42af5b021fc21da9a907d35b93287bfd51506d7c07b74c1979aec30c57983604051611ac591906126eb565b60405180910390a25050565b606080606080600060088054905090508067ffffffffffffffff811115611afb57611afa61360a565b5b604051908082528060200260200182016040528015611b295781602001602082028036833780820191505090505b5094508067ffffffffffffffff811115611b4657611b4561360a565b5b604051908082528060200260200182016040528015611b745781602001602082028036833780820191505090505b5093508067ffffffffffffffff811115611b9157611b9061360a565b5b604051908082528060200260200182016040528015611bbf5781602001602082028036833780820191505090505b5092508067ffffffffffffffff811115611bdc57611bdb61360a565b5b604051908082528060200260200182016040528015611c0a5781602001602082028036833780820191505090505b50915060005b81811015611dad57600060088281548110611c2e57611c2d613639565b5b9060005260206000200160009054906101000a900473ffffffffffffffffffffffffffffffffffffffff1690506000600760008373ffffffffffffffffffffffffffffffffffffffff1673ffffffffffffffffffffffffffffffffffffffff16815260200190815260200160002060405180606001604052908160008201548152602001600182015481526020016002820160009054906101000a900460ff161515151581525050905081888481518110611cec57611ceb613639565b5b602002602001019073ffffffffffffffffffffffffffffffffffffffff16908173ffffffffffffffffffffffffffffffffffffffff16815250508060000151878481518110611d3e57611d3d613639565b5b6020026020010181815250508060200151868481518110611d6257611d61613639565b5b6020026020010181815250508060400151858481518110611d8657611d85613639565b5b60200260200101901515908115158152505050508080611da590613668565b915050611c10565b505090919293565b600260009054906101000a900473ffffffffffffffffffffffffffffffffffffffff1681565b7f00000000000000000000000000000000000000000000000000000000000000004210611e3d576040517f08c379a0000000000000000000000000000000000000000000000000000000008152600401611e34906136fc565b60405180910390fd5b6003548111611e81576040517f08c379a0000000000000000000000000000000000000000000000000000000008152600401611e7890613768565b60405180910390fd5b60006064600a83611e929190613788565b611e9c9190613051565b90506000600760003373ffffffffffffffffffffffffffffffffffffffff1673ffffffffffffffffffffffffffffffffffffffff1681526020019081526020016000209050600081600101548311611ef5576000611f06565b816001015483611f0591906137ca565b5b905080341015611f4b576040517f08c379a0000000000000000000000000000000000000000000000000000000008152600401611f429061384a565b60405180910390fd5b80341115611fa6573373ffffffffffffffffffffffffffffffffffffffff166108fc8234611f7991906137ca565b9081150290604051600060405180830381858888f19350505050158015611fa4573d6000803e3d6000fd5b505b6000826000015403612016576008339080600181540180825580915050600190039060005260206000200160009091909190916101000a81548173ffffffffffffffffffffffffffffffffffffffff021916908373ffffffffffffffffffffffffffffffffffffffff1602179055505b83826000018190555082826001018190555033600260006101000a81548173ffffffffffffffffffffffffffffffffffffffff021916908373ffffffffffffffffffffffffffffffffffffffff160217905550836003819055503373ffffffffffffffffffffffffffffffffffffffff167f3fabff0a9c3ecd6814702e247fa9733e5d0aa69e3a38590f92cb18f623a2254d856040516120b691906126eb565b60405180910390a250505050565b603c81565b600460009054906101000a900460ff16612118576040517f08c379a000000000000000000000000000000000000000000000000000000000815260040161210f90613414565b60405180910390fd5b60005b6008805490508110156123665760006008828154811061213e5761213d613639565b5b9060005260206000200160009054906101000a900473ffffffffffffffffffffffffffffffffffffffff1690506000600760008373ffffffffffffffffffffffffffffffffffffffff1673ffffffffffffffffffffffffffffffffffffffff1681526020019081526020016000209050600260009054906101000a900473ffffffffffffffffffffffffffffffffffffffff1673ffffffffffffffffffffffffffffffffffffffff168273ffffffffffffffffffffffffffffffffffffffff1614158015612210575060008160010154115b801561222b57508060020160009054906101000a900460ff16155b156123515760018160020160006101000a81548160ff02191690831515021790555060008273ffffffffffffffffffffffffffffffffffffffff16826001015460405161227790612d22565b60006040518083038185875af1925050503d80600081146122b4576040519150601f19603f3d011682016040523d82523d6000602084013e6122b9565b606091505b50509050806122fd576040517f08c379a00000000000000000000000000000000000000000000000000000000081526004016122f4906138b6565b60405180910390fd5b8273ffffffffffffffffffffffffffffffffffffffff167f4482101800a5c2e900f4156e57e05e19ffd7b366cde579553d723fd3abb2180e836001015460405161234791906126eb565b60405180910390a2505b5050808061235e90613668565b91505061211b565b50565b600a81565b60065481565b603c81565b7f000000000000000000000000000000000000000000000000000000000000000081565b60055481565b600881815481106123b357600080fd5b906000526020600020016000915054906101000a900473ffffffffffffffffffffffffffffffffffffffff1681565b600460019054906101000a900460ff1681565b60035481565b60005481565b600460009054906101000a900460ff16612450576040517f08c379a000000000000000000000000000000000000000000000000000000000815260040161244790612b8d565b60405180910390fd5b600260009054906101000a900473ffffffffffffffffffffffffffffffffffffffff1673ffffffffffffffffffffffffffffffffffffffff163373ffffffffffffffffffffffffffffffffffffffff16146124e0576040517f08c379a00000000000000000000000000000000000000000000000000000000081526004016124d790613922565b60405180910390fd5b600460019054906101000a900460ff1615612530576040517f08c379a00000000000000000000000000000000000000000000000000000000081526004016125279061398e565b60405180910390fd5b6000600760003373ffffffffffffffffffffffffffffffffffffffff1673ffffffffffffffffffffffffffffffffffffffff1681526020019081526020016000206001015460035461258291906137ca565b90508034146125c6576040517f08c379a00000000000000000000000000000000000000000000000000000000081526004016125bd906139fa565b60405180910390fd5b6001600460016101000a81548160ff021916908315150217905550426005819055503373ffffffffffffffffffffffffffffffffffffffff167f8ca59ddeb3b42c522a873dd6aa29b9d90c99b41eeb58f317b4b0d4a17d41506b60035460405161263091906126eb565b60405180910390a250565b603c81565b600073ffffffffffffffffffffffffffffffffffffffff82169050919050565b600061266b82612640565b9050919050565b61267b81612660565b82525050565b60006020820190506126966000830184612672565b92915050565b60008115159050919050565b6126b18161269c565b82525050565b60006020820190506126cc60008301846126a8565b92915050565b6000819050919050565b6126e5816126d2565b82525050565b600060208201905061270060008301846126dc565b92915050565b600081519050919050565b600082825260208201905092915050565b60005b83811015612740578082015181840152602081019050612725565b60008484015250505050565b6000601f19601f8301169050919050565b600061276882612706565b6127728185612711565b9350612782818560208601612722565b61278b8161274c565b840191505092915050565b600060208201905081810360008301526127b0818461275d565b905092915050565b600080fd5b6127c681612660565b81146127d157600080fd5b50565b6000813590506127e3816127bd565b92915050565b6000602082840312156127ff576127fe6127b8565b5b600061280d848285016127d4565b91505092915050565b600060608201905061282b60008301866126dc565b61283860208301856126dc565b61284560408301846126a8565b949350505050565b600081519050919050565b600082825260208201905092915050565b6000819050602082019050919050565b61288281612660565b82525050565b60006128948383612879565b60208301905092915050565b6000602082019050919050565b60006128b88261284d565b6128c28185612858565b93506128cd83612869565b8060005b838110156128fe5781516128e58882612888565b97506128f0836128a0565b9250506001810190506128d1565b5085935050505092915050565b600081519050919050565b600082825260208201905092915050565b6000819050602082019050919050565b612940816126d2565b82525050565b60006129528383612937565b60208301905092915050565b6000602082019050919050565b60006129768261290b565b6129808185612916565b935061298b83612927565b8060005b838110156129bc5781516129a38882612946565b97506129ae8361295e565b92505060018101905061298f565b5085935050505092915050565b600081519050919050565b600082825260208201905092915050565b6000819050602082019050919050565b6129fe8161269c565b82525050565b6000612a1083836129f5565b60208301905092915050565b6000602082019050919050565b6000612a34826129c9565b612a3e81856129d4565b9350612a49836129e5565b8060005b83811015612a7a578151612a618882612a04565b9750612a6c83612a1c565b925050600181019050612a4d565b5085935050505092915050565b60006080820190508181036000830152612aa181876128ad565b90508181036020830152612ab5818661296b565b90508181036040830152612ac9818561296b565b90508181036060830152612add8184612a29565b905095945050505050565b612af1816126d2565b8114612afc57600080fd5b50565b600081359050612b0e81612ae8565b92915050565b600060208284031215612b2a57612b296127b8565b5b6000612b3884828501612aff565b91505092915050565b7f4e6f7420656e6465640000000000000000000000000000000000000000000000600082015250565b6000612b77600983612711565b9150612b8282612b41565b602082019050919050565b60006020820190508181036000830152612ba681612b6a565b9050919050565b7f4e6f206465706f73697400000000000000000000000000000000000000000000600082015250565b6000612be3600a83612711565b9150612bee82612bad565b602082019050919050565b60006020820190508181036000830152612c1281612bd6565b9050919050565b7f416c72656164792077697468647261776e000000000000000000000000000000600082015250565b6000612c4f601183612711565b9150612c5a82612c19565b602082019050919050565b60006020820190508181036000830152612c7e81612c42565b9050919050565b7f57696e6e65722063616e2774207769746864726177206e6f7700000000000000600082015250565b6000612cbb601983612711565b9150612cc682612c85565b602082019050919050565b60006020820190508181036000830152612cea81612cae565b9050919050565b600081905092915050565b50565b6000612d0c600083612cf1565b9150612d1782612cfc565b600082019050919050565b6000612d2d82612cff565b9150819050919050565b7f5472616e73666572206661696c65640000000000000000000000000000000000600082015250565b6000612d6d600f83612711565b9150612d7882612d37565b602082019050919050565b60006020820190508181036000830152612d9c81612d60565b9050919050565b7f4e6f742073656c6c657200000000000000000000000000000000000000000000600082015250565b6000612dd9600a83612711565b9150612de482612da3565b602082019050919050565b60006020820190508181036000830152612e0881612dcc565b9050919050565b7f4275796572206e6f742070616964000000000000000000000000000000000000600082015250565b6000612e45600e83612711565b9150612e5082612e0f565b602082019050919050565b60006020820190508181036000830152612e7481612e38565b9050919050565b7f416c726561647920736869707065640000000000000000000000000000000000600082015250565b6000612eb1600f83612711565b9150612ebc82612e7b565b602082019050919050565b60006020820190508181036000830152612ee081612ea4565b9050919050565b7f4e487b7100000000000000000000000000000000000000000000000000000000600052601160045260246000fd5b6000612f21826126d2565b9150612f2c836126d2565b9250828201905080821115612f4457612f43612ee7565b5b92915050565b7f546f6f206c617465000000000000000000000000000000000000000000000000600082015250565b6000612f80600883612711565b9150612f8b82612f4a565b602082019050919050565b60006020820190508181036000830152612faf81612f73565b9050919050565b7f5374696c6c20696e2077696e646f770000000000000000000000000000000000600082015250565b6000612fec600f83612711565b9150612ff782612fb6565b602082019050919050565b6000602082019050818103600083015261301b81612fdf565b9050919050565b7f4e487b7100000000000000000000000000000000000000000000000000000000600052601260045260246000fd5b600061305c826126d2565b9150613067836126d2565b92508261307757613076613022565b5b828204905092915050565b7f526566756e6420746f206275796572206661696c656400000000000000000000600082015250565b60006130b8601683612711565b91506130c382613082565b602082019050919050565b600060208201905081810360008301526130e7816130ab565b9050919050565b7f4275726e206661696c6564000000000000000000000000000000000000000000600082015250565b6000613124600b83612711565b915061312f826130ee565b602082019050919050565b6000602082019050818103600083015261315381613117565b9050919050565b600060408201905061316f60008301856126dc565b61317c60208301846126dc565b9392505050565b7f416c726561647920656e64656400000000000000000000000000000000000000600082015250565b60006131b9600d83612711565b91506131c482613183565b602082019050919050565b600060208201905081810360008301526131e8816131ac565b9050919050565b60006040820190506132046000830185612672565b61321160208301846126dc565b9392505050565b7f4e6f742062757965720000000000000000000000000000000000000000000000600082015250565b600061324e600983612711565b915061325982613218565b602082019050919050565b6000602082019050818103600083015261327d81613241565b9050919050565b7f4e6f742073686970706564000000000000000000000000000000000000000000600082015250565b60006132ba600b83612711565b91506132c582613284565b602082019050919050565b600060208201905081810360008301526132e9816132ad565b9050919050565b7f416c726561647920636f6e6669726d6564000000000000000000000000000000600082015250565b6000613326601183612711565b9150613331826132f0565b602082019050919050565b6000602082019050818103600083015261335581613319565b9050919050565b7f5472616e7366657220746f2073656c6c6572206661696c656400000000000000600082015250565b6000613392601983612711565b915061339d8261335c565b602082019050919050565b600060208201905081810360008301526133c181613385565b9050919050565b7f41756374696f6e206e6f7420656e646564000000000000000000000000000000600082015250565b60006133fe601183612711565b9150613409826133c8565b602082019050919050565b6000602082019050818103600083015261342d816133f1565b9050919050565b7f427579657220616c726561647920706169640000000000000000000000000000600082015250565b600061346a601283612711565b915061347582613434565b602082019050919050565b600060208201905081810360008301526134998161345d565b9050919050565b7f5374696c6c20696e207061796d656e742077696e646f77000000000000000000600082015250565b60006134d6601783612711565b91506134e1826134a0565b602082019050919050565b60006020820190508181036000830152613505816134c9565b9050919050565b7f5472616e736665722077696e6e6572206465706f73697420746f2073656c6c6560008201527f72206661696c6564000000000000000000000000000000000000000000000000602082015250565b6000613568602883612711565b91506135738261350c565b604082019050919050565b600060208201905081810360008301526135978161355b565b9050919050565b7f526566756e642073656c6c6572206465706f736974206661696c656400000000600082015250565b60006135d4601c83612711565b91506135df8261359e565b602082019050919050565b60006020820190508181036000830152613603816135c7565b9050919050565b7f4e487b7100000000000000000000000000000000000000000000000000000000600052604160045260246000fd5b7f4e487b7100000000000000000000000000000000000000000000000000000000600052603260045260246000fd5b6000613673826126d2565b91507fffffffffffffffffffffffffffffffffffffffffffffffffffffffffffffffff82036136a5576136a4612ee7565b5b600182019050919050565b7f456e646564000000000000000000000000000000000000000000000000000000600082015250565b60006136e6600583612711565b91506136f1826136b0565b602082019050919050565b60006020820190508181036000830152613715816136d9565b9050919050565b7f42696420746f6f206c6f77000000000000000000000000000000000000000000600082015250565b6000613752600b83612711565b915061375d8261371c565b602082019050919050565b6000602082019050818103600083015261378181613745565b9050919050565b6000613793826126d2565b915061379e836126d2565b92508282026137ac816126d2565b915082820484148315176137c3576137c2612ee7565b5b5092915050565b60006137d5826126d2565b91506137e0836126d2565b92508282039050818111156137f8576137f7612ee7565b5b92915050565b7f4465706f73697420696e73756666696369656e74000000000000000000000000600082015250565b6000613834601483612711565b915061383f826137fe565b602082019050919050565b6000602082019050818103600083015261386381613827565b9050919050565b7f526566756e64206661696c656400000000000000000000000000000000000000600082015250565b60006138a0600d83612711565b91506138ab8261386a565b602082019050919050565b600060208201905081810360008301526138cf81613893565b9050919050565b7f4e6f742077696e6e657200000000000000000000000000000000000000000000600082015250565b600061390c600a83612711565b9150613917826138d6565b602082019050919050565b6000602082019050818103600083015261393b816138ff565b9050919050565b7f416c726561647920706169640000000000000000000000000000000000000000600082015250565b6000613978600c83612711565b915061398382613942565b602082019050919050565b600060208201905081810360008301526139a78161396b565b9050919050565b7f57726f6e6720616d6f756e740000000000000000000000000000000000000000600082015250565b60006139e4600c83612711565b91506139ef826139ae565b602082019050919050565b60006020820190508181036000830152613a13816139d7565b905091905056fea2646970667358221220353029e005784123d270bf9adf06bd5fd2da2c62ff06c6b2ab3757acc03329e864736f6c63430008140033a2646970667358221220dd987dc78987509a1a42575d3e362d4bf1606e4cc9fa96ab6f15b817da76690864736f6c63430008140033",
  "linkReferences": {},
  "deployedLinkReferences": {}
}