{
  "_format": "hh-sol-artifact-1",
  "contractName": "ActionFactory",
  "sourceName": "contracts/ActionFactory.sol",
  "abi": [
    {
      "anonymous": false,
      "inputs": [
        {
          "indexed": true,
          "internalType": "address",
          "name": "seller",
          "type": "address"
        },
        {
          "indexed": false,
          "internalType": "address",
          "name": "actionAddress",
          "type": "address"
        },
        {
          "indexed": false,
          "internalType": "uint256",
          "name": "endTime",
          "type": "uint256"
        }
      ],
      "name": "ActionCreated",
      "type": "event"
    },
    {
      "inputs": [
        {
          "internalType": "uint256",
          "name": "",
          "type": "uint256"
        }
      ],
      "name": "allActions",
      "outputs": [
        {
          "internalType": "address",
          "name": "",
          "type": "address"
        }
      ],
      "stateMutability": "view",
      "type": "function"
    },
    {
      "inputs": [
        {
          "internalType": "uint256",
          "name": "_biddingTime",
          "type": "uint256"
        }
      ],
      "name": "createAction",
      "outputs": [],
      "stateMutability": "nonpayable",
      "type": "function"
    },
    {
      "inputs": [],
      "name": "getAllActions",
      "outputs": [
        {
          "internalType": "address[]",
          "name": "",
          "type": "address[]"
        }
      ],
      "stateMutability": "view",
      "type": "function"
    }
  ],
  "bytecode": "0x608060405234801561001057600080fd5b50611703806100206000396000f3fe608060405234801561001057600080fd5b50600436106100415760003560e01c80637078931414610046578063aea5df1614610062578063d7248b1f14610080575b600080fd5b610060600480360381019061005b91906102bf565b6100b0565b005b61006a6101aa565b60405161007791906103dc565b60405180910390f35b61009a600480360381019061009591906102bf565b610238565b6040516100a7919061040d565b60405180910390f35b6000816040516100bf90610277565b6100c99190610437565b604051809103906000f0801580156100e5573d6000803e3d6000fd5b5090506000819080600181540180825580915050600190039060005260206000200160009091909190916101000a81548173ffffffffffffffffffffffffffffffffffffffff021916908373ffffffffffffffffffffffffffffffffffffffff1602179055503373ffffffffffffffffffffffffffffffffffffffff167f5b41f55ebb37f4cd78f4d7c4093ef8d2954d051278d39993212d8a79f8f2f9268284426101909190610481565b60405161019e9291906104b5565b60405180910390a25050565b6060600080548060200260200160405190810160405280929190818152602001828054801561022e57602002820191906000526020600020905b8160009054906101000a900473ffffffffffffffffffffffffffffffffffffffff1673ffffffffffffffffffffffffffffffffffffffff16815260200190600101908083116101e4575b5050505050905090565b6000818154811061024857600080fd5b906000526020600020016000915054906101000a900473ffffffffffffffffffffffffffffffffffffffff1681565b6111ef806104df83390190565b600080fd5b6000819050919050565b61029c81610289565b81146102a757600080fd5b50565b6000813590506102b981610293565b92915050565b6000602082840312156102d5576102d4610284565b5b60006102e3848285016102aa565b91505092915050565b600081519050919050565b600082825260208201905092915050565b6000819050602082019050919050565b600073ffffffffffffffffffffffffffffffffffffffff82169050919050565b600061034382610318565b9050919050565b61035381610338565b82525050565b6000610365838361034a565b60208301905092915050565b6000602082019050919050565b6000610389826102ec565b61039381856102f7565b935061039e83610308565b8060005b838110156103cf5781516103b68882610359565b97506103c183610371565b9250506001810190506103a2565b5085935050505092915050565b600060208201905081810360008301526103f6818461037e565b905092915050565b61040781610338565b82525050565b600060208201905061042260008301846103fe565b92915050565b61043181610289565b82525050565b600060208201905061044c6000830184610428565b92915050565b7f4e487b7100000000000000000000000000000000000000000000000000000000600052601160045260246000fd5b600061048c82610289565b915061049783610289565b92508282019050808211156104af576104ae610452565b5b92915050565b60006040820190506104ca60008301856103fe565b6104d76020830184610428565b939250505056fe60806040523480156200001157600080fd5b50604051620011ef380380620011ef8339818101604052810190620000379190620000d2565b336000806101000a81548173ffffffffffffffffffffffffffffffffffffffff021916908373ffffffffffffffffffffffffffffffffffffffff160217905550804262000085919062000133565b600181905550506200016e565b600080fd5b6000819050919050565b620000ac8162000097565b8114620000b857600080fd5b50565b600081519050620000cc81620000a1565b92915050565b600060208284031215620000eb57620000ea62000092565b5b6000620000fb84828501620000bb565b91505092915050565b7f4e487b7100000000000000000000000000000000000000000000000000000000600052601160045260246000fd5b6000620001408262000097565b91506200014d8362000097565b925082820190508082111562000168576200016762000104565b5b92915050565b611071806200017e6000396000f3fe6080604052600436106100a75760003560e01c806362ea82db1161006457806362ea82db1461018b5780638d0f6da3146101c857806391f90157146101f4578063c764cd051461021f578063cff29dfd1461024a578063d57bde7914610287576100a7565b806308551a53146100ac57806312fa6feb146100d75780631998aeef1461010257806326b387bb1461010c5780633ccfd60b146101495780634bb278f314610174575b600080fd5b3480156100b857600080fd5b506100c16102b2565b6040516100ce9190610a59565b60405180910390f35b3480156100e357600080fd5b506100ec6102d6565b6040516100f99190610a8f565b60405180910390f35b61010a6102e9565b005b34801561011857600080fd5b50610133600480360381019061012e9190610adb565b610568565b6040516101409190610b21565b60405180910390f35b34801561015557600080fd5b5061015e610580565b60405161016b9190610a8f565b60405180910390f35b34801561018057600080fd5b5061018961066d565b005b34801561019757600080fd5b506101b260048036038101906101ad9190610adb565b6107e5565b6040516101bf9190610b21565b60405180910390f35b3480156101d457600080fd5b506101dd6107fd565b6040516101eb929190610cb8565b60405180910390f35b34801561020057600080fd5b506102096109a7565b6040516102169190610a59565b60405180910390f35b34801561022b57600080fd5b506102346109cd565b6040516102419190610b21565b60405180910390f35b34801561025657600080fd5b50610271600480360381019061026c9190610d1b565b6109d3565b60405161027e9190610a59565b60405180910390f35b34801561029357600080fd5b5061029c610a12565b6040516102a99190610b21565b60405180910390f35b60008054906101000a900473ffffffffffffffffffffffffffffffffffffffff1681565b600460009054906101000a900460ff1681565b600154421061032d576040517f08c379a000000000000000000000000000000000000000000000000000000000815260040161032490610da5565b60405180910390fd5b6003543411610371576040517f08c379a000000000000000000000000000000000000000000000000000000000815260040161036890610e11565b60405180910390fd5b6000600354146103f65760035460056000600260009054906101000a900473ffffffffffffffffffffffffffffffffffffffff1673ffffffffffffffffffffffffffffffffffffffff1673ffffffffffffffffffffffffffffffffffffffff16815260200190815260200160002060008282546103ee9190610e60565b925050819055505b33600260006101000a81548173ffffffffffffffffffffffffffffffffffffffff021916908373ffffffffffffffffffffffffffffffffffffffff160217905550346003819055506000600660003373ffffffffffffffffffffffffffffffffffffffff1673ffffffffffffffffffffffffffffffffffffffff16815260200190815260200160002054036104e9576007339080600181540180825580915050600190039060005260206000200160009091909190916101000a81548173ffffffffffffffffffffffffffffffffffffffff021916908373ffffffffffffffffffffffffffffffffffffffff1602179055505b34600660003373ffffffffffffffffffffffffffffffffffffffff1673ffffffffffffffffffffffffffffffffffffffff168152602001908152602001600020819055507ff4757a49b326036464bec6fe419a4ae38c8a02ce3e68bf0809674f6aab8ad300333460405161055e929190610e94565b60405180910390a1565b60056020528060005260406000206000915090505481565b600080600560003373ffffffffffffffffffffffffffffffffffffffff1673ffffffffffffffffffffffffffffffffffffffff1681526020019081526020016000205490506000811115610664576000600560003373ffffffffffffffffffffffffffffffffffffffff1673ffffffffffffffffffffffffffffffffffffffff168152602001908152602001600020819055503373ffffffffffffffffffffffffffffffffffffffff166108fc829081150290604051600060405180830381858888f19350505050158015610659573d6000803e3d6000fd5b50600191505061066a565b60009150505b90565b6001544210156106b2576040517f08c379a00000000000000000000000000000000000000000000000000000000081526004016106a990610f09565b60405180910390fd5b600460009054906101000a900460ff1615610702576040517f08c379a00000000000000000000000000000000000000000000000000000000081526004016106f990610f75565b60405180910390fd5b6001600460006101000a81548160ff0219169083151502179055507f9ebde9baafbb47e3efec88982b127ac6b7af8df2a1e860b8c86fca98d5ea9ecb600260009054906101000a900473ffffffffffffffffffffffffffffffffffffffff16600354604051610772929190610e94565b60405180910390a160008054906101000a900473ffffffffffffffffffffffffffffffffffffffff1673ffffffffffffffffffffffffffffffffffffffff166108fc6003549081150290604051600060405180830381858888f193505050501580156107e2573d6000803e3d6000fd5b50565b60066020528060005260406000206000915090505481565b606080600060078054905067ffffffffffffffff81111561082157610820610f95565b5b60405190808252806020026020018201604052801561084f5781602001602082028036833780820191505090505b50905060005b60078054905081101561091257600660006007838154811061087a57610879610fc4565b5b9060005260206000200160009054906101000a900473ffffffffffffffffffffffffffffffffffffffff1673ffffffffffffffffffffffffffffffffffffffff1673ffffffffffffffffffffffffffffffffffffffff168152602001908152602001600020548282815181106108f3576108f2610fc4565b5b602002602001018181525050808061090a90610ff3565b915050610855565b506007818180548060200260200160405190810160405280929190818152602001828054801561099757602002820191906000526020600020905b8160009054906101000a900473ffffffffffffffffffffffffffffffffffffffff1673ffffffffffffffffffffffffffffffffffffffff168152602001906001019080831161094d575b5050505050915092509250509091565b600260009054906101000a900473ffffffffffffffffffffffffffffffffffffffff1681565b60015481565b600781815481106109e357600080fd5b906000526020600020016000915054906101000a900473ffffffffffffffffffffffffffffffffffffffff1681565b60035481565b600073ffffffffffffffffffffffffffffffffffffffff82169050919050565b6000610a4382610a18565b9050919050565b610a5381610a38565b82525050565b6000602082019050610a6e6000830184610a4a565b92915050565b60008115159050919050565b610a8981610a74565b82525050565b6000602082019050610aa46000830184610a80565b92915050565b600080fd5b610ab881610a38565b8114610ac357600080fd5b50565b600081359050610ad581610aaf565b92915050565b600060208284031215610af157610af0610aaa565b5b6000610aff84828501610ac6565b91505092915050565b6000819050919050565b610b1b81610b08565b82525050565b6000602082019050610b366000830184610b12565b92915050565b600081519050919050565b600082825260208201905092915050565b6000819050602082019050919050565b610b7181610a38565b82525050565b6000610b838383610b68565b60208301905092915050565b6000602082019050919050565b6000610ba782610b3c565b610bb18185610b47565b9350610bbc83610b58565b8060005b83811015610bed578151610bd48882610b77565b9750610bdf83610b8f565b925050600181019050610bc0565b5085935050505092915050565b600081519050919050565b600082825260208201905092915050565b6000819050602082019050919050565b610c2f81610b08565b82525050565b6000610c418383610c26565b60208301905092915050565b6000602082019050919050565b6000610c6582610bfa565b610c6f8185610c05565b9350610c7a83610c16565b8060005b83811015610cab578151610c928882610c35565b9750610c9d83610c4d565b925050600181019050610c7e565b5085935050505092915050565b60006040820190508181036000830152610cd28185610b9c565b90508181036020830152610ce68184610c5a565b90509392505050565b610cf881610b08565b8114610d0357600080fd5b50565b600081359050610d1581610cef565b92915050565b600060208284031215610d3157610d30610aaa565b5b6000610d3f84828501610d06565b91505092915050565b600082825260208201905092915050565b7f416374696f6e20616c726561647920656e646564000000000000000000000000600082015250565b6000610d8f601483610d48565b9150610d9a82610d59565b602082019050919050565b60006020820190508181036000830152610dbe81610d82565b9050919050565b7f426964206e6f74206869676820656e6f75676800000000000000000000000000600082015250565b6000610dfb601383610d48565b9150610e0682610dc5565b602082019050919050565b60006020820190508181036000830152610e2a81610dee565b9050919050565b7f4e487b7100000000000000000000000000000000000000000000000000000000600052601160045260246000fd5b6000610e6b82610b08565b9150610e7683610b08565b9250828201905080821115610e8e57610e8d610e31565b5b92915050565b6000604082019050610ea96000830185610a4a565b610eb66020830184610b12565b9392505050565b7f416374696f6e206e6f742079657420656e646564000000000000000000000000600082015250565b6000610ef3601483610d48565b9150610efe82610ebd565b602082019050919050565b60006020820190508181036000830152610f2281610ee6565b9050919050565b7f416374696f6e20616c72656164792066696e616c697a65640000000000000000600082015250565b6000610f5f601883610d48565b9150610f6a82610f29565b602082019050919050565b60006020820190508181036000830152610f8e81610f52565b9050919050565b7f4e487b7100000000000000000000000000000000000000000000000000000000600052604160045260246000fd5b7f4e487b7100000000000000000000000000000000000000000000000000000000600052603260045260246000fd5b6000610ffe82610b08565b91507fffffffffffffffffffffffffffffffffffffffffffffffffffffffffffffffff82036110305761102f610e31565b5b60018201905091905056fea26469706673582212202863f949f85e8e23e76a057d075e3d9c6058bb08d4e57e6a259ac42c94e4d92164736f6c63430008140033a264697066735822122021029a0ccc6b8dcbdaaa1914677c54549c268f44f75523c9bf143310aceeed7264736f6c63430008140033",
  "linkReferences": {},
  "deployedLinkReferences": {}
}