{
  "_format": "hh-sol-artifact-1",
  "contractName": "Action",
  "sourceName": "contracts/Action.sol",
  "abi": [
    {
      "inputs": [
        {
          "internalType": "uint256",
          "name": "_biddingTime",
          "type": "uint256"
        },
        {
          "internalType": "address",
          "name": "_seller",
          "type": "address"
        }
      ],
      "stateMutability": "nonpayable",
      "type": "constructor"
    },
    {
      "anonymous": false,
      "inputs": [
        {
          "indexed": false,
          "internalType": "address",
          "name": "winner",
          "type": "address"
        },
        {
          "indexed": false,
          "internalType": "uint256",
          "name": "amount",
          "type": "uint256"
        }
      ],
      "name": "ActionEnded",
      "type": "event"
    },
    {
      "anonymous": false,
      "inputs": [
        {
          "indexed": false,
          "internalType": "address",
          "name": "bidder",
          "type": "address"
        },
        {
          "indexed": false,
          "internalType": "uint256",
          "name": "amount",
          "type": "uint256"
        },
        {
          "indexed": false,
          "internalType": "uint256",
          "name": "deposit",
          "type": "uint256"
        }
      ],
      "name": "BidPlaced",
      "type": "event"
    },
    {
      "anonymous": false,
      "inputs": [
        {
          "indexed": false,
          "internalType": "address",
          "name": "buyer",
          "type": "address"
        },
        {
          "indexed": false,
          "internalType": "uint256",
          "name": "amount",
          "type": "uint256"
        }
      ],
      "name": "Disputed",
      "type": "event"
    },
    {
      "anonymous": false,
      "inputs": [
        {
          "indexed": false,
          "internalType": "address",
          "name": "buyer",
          "type": "address"
        },
        {
          "indexed": false,
          "internalType": "uint256",
          "name": "amount",
          "type": "uint256"
        }
      ],
      "name": "ItemReceived",
      "type": "event"
    },
    {
      "anonymous": false,
      "inputs": [
        {
          "indexed": false,
          "internalType": "address",
          "name": "buyer",
          "type": "address"
        },
        {
          "indexed": false,
          "internalType": "uint256",
          "name": "totalPaid",
          "type": "uint256"
        }
      ],
      "name": "PaymentMade",
      "type": "event"
    },
    {
      "anonymous": false,
      "inputs": [
        {
          "indexed": false,
          "internalType": "address",
          "name": "bidder",
          "type": "address"
        },
        {
          "indexed": false,
          "internalType": "uint256",
          "name": "deposit",
          "type": "uint256"
        }
      ],
      "name": "Penalized",
      "type": "event"
    },
    {
      "anonymous": false,
      "inputs": [
        {
          "indexed": false,
          "internalType": "address",
          "name": "buyer",
          "type": "address"
        },
        {
          "indexed": false,
          "internalType": "uint256",
          "name": "amount",
          "type": "uint256"
        }
      ],
      "name": "Refunded",
      "type": "event"
    },
    {
      "inputs": [],
      "name": "DEPOSIT_RATE",
      "outputs": [
        {
          "internalType": "uint256",
          "name": "",
          "type": "uint256"
        }
      ],
      "stateMutability": "view",
      "type": "function"
    },
    {
      "inputs": [],
      "name": "actionEndTime",
      "outputs": [
        {
          "internalType": "uint256",
          "name": "",
          "type": "uint256"
        }
      ],
      "stateMutability": "view",
      "type": "function"
    },
    {
      "inputs": [
        {
          "internalType": "uint256",
          "name": "",
          "type": "uint256"
        }
      ],
      "name": "bidders",
      "outputs": [
        {
          "internalType": "address",
          "name": "",
          "type": "address"
        }
      ],
      "stateMutability": "view",
      "type": "function"
    },
    {
      "inputs": [
        {
          "internalType": "address",
          "name": "",
          "type": "address"
        }
      ],
      "name": "bids",
      "outputs": [
        {
          "internalType": "uint256",
          "name": "amount",
          "type": "uint256"
        },
        {
          "internalType": "uint256",
          "name": "deposit",
          "type": "uint256"
        },
        {
          "internalType": "bool",
          "name": "refunded",
          "type": "bool"
        }
      ],
      "stateMutability": "view",
      "type": "function"
    },
    {
      "inputs": [],
      "name": "confirmReceived",
      "outputs": [],
      "stateMutability": "nonpayable",
      "type": "function"
    },
    {
      "inputs": [],
      "name": "ended",
      "outputs": [
        {
          "internalType": "bool",
          "name": "",
          "type": "bool"
        }
      ],
      "stateMutability": "view",
      "type": "function"
    },
    {
      "inputs": [],
      "name": "finalize",
      "outputs": [],
      "stateMutability": "nonpayable",
      "type": "function"
    },
    {
      "inputs": [],
      "name": "getAllBids",
      "outputs": [
        {
          "internalType": "address[]",
          "name": "",
          "type": "address[]"
        },
        {
          "internalType": "uint256[]",
          "name": "",
          "type": "uint256[]"
        },
        {
          "internalType": "uint256[]",
          "name": "",
          "type": "uint256[]"
        }
      ],
      "stateMutability": "view",
      "type": "function"
    },
    {
      "inputs": [],
      "name": "highestBid",
      "outputs": [
        {
          "internalType": "uint256",
          "name": "",
          "type": "uint256"
        }
      ],
      "stateMutability": "view",
      "type": "function"
    },
    {
      "inputs": [],
      "name": "highestBidder",
      "outputs": [
        {
          "internalType": "address",
          "name": "",
          "type": "address"
        }
      ],
      "stateMutability": "view",
      "type": "function"
    },
    {
      "inputs": [],
      "name": "isDisputed",
      "outputs": [
        {
          "internalType": "bool",
          "name": "",
          "type": "bool"
        }
      ],
      "stateMutability": "view",
      "type": "function"
    },
    {
      "inputs": [],
      "name": "isPaidToSeller",
      "outputs": [
        {
          "internalType": "bool",
          "name": "",
          "type": "bool"
        }
      ],
      "stateMutability": "view",
      "type": "function"
    },
    {
      "inputs": [],
      "name": "isPenalized",
      "outputs": [
        {
          "internalType": "bool",
          "name": "",
          "type": "bool"
        }
      ],
      "stateMutability": "view",
      "type": "function"
    },
    {
      "inputs": [],
      "name": "openDispute",
      "outputs": [],
      "stateMutability": "nonpayable",
      "type": "function"
    },
    {
      "inputs": [],
      "name": "payWinningBid",
      "outputs": [],
      "stateMutability": "payable",
      "type": "function"
    },
    {
      "inputs": [],
      "name": "penalizeWinner",
      "outputs": [],
      "stateMutability": "nonpayable",
      "type": "function"
    },
    {
      "inputs": [
        {
          "internalType": "uint256",
          "name": "_amount",
          "type": "uint256"
        }
      ],
      "name": "placeBid",
      "outputs": [],
      "stateMutability": "payable",
      "type": "function"
    },
    {
      "inputs": [],
      "name": "refundBuyer",
      "outputs": [],
      "stateMutability": "nonpayable",
      "type": "function"
    },
    {
      "inputs": [],
      "name": "seller",
      "outputs": [
        {
          "internalType": "address",
          "name": "",
          "type": "address"
        }
      ],
      "stateMutability": "view",
      "type": "function"
    },
    {
      "inputs": [],
      "name": "withdrawDeposit",
      "outputs": [],
      "stateMutability": "nonpayable",
      "type": "function"
    }
  ],
  "bytecode": "0x60806040523480156200001157600080fd5b5060405162002db238038062002db28339818101604052810190620000379190620001aa565b600073ffffffffffffffffffffffffffffffffffffffff168173ffffffffffffffffffffffffffffffffffffffff1603620000a9576040517f08c379a0000000000000000000000000000000000000000000000000000000008152600401620000a09062000252565b60405180910390fd5b806000806101000a81548173ffffffffffffffffffffffffffffffffffffffff021916908373ffffffffffffffffffffffffffffffffffffffff1602179055508142620000f79190620002a3565b6001819055505050620002de565b600080fd5b6000819050919050565b6200011f816200010a565b81146200012b57600080fd5b50565b6000815190506200013f8162000114565b92915050565b600073ffffffffffffffffffffffffffffffffffffffff82169050919050565b6000620001728262000145565b9050919050565b620001848162000165565b81146200019057600080fd5b50565b600081519050620001a48162000179565b92915050565b60008060408385031215620001c457620001c362000105565b5b6000620001d4858286016200012e565b9250506020620001e78582860162000193565b9150509250929050565b600082825260208201905092915050565b7f496e76616c69642073656c6c6572206164647265737300000000000000000000600082015250565b60006200023a601683620001f1565b9150620002478262000202565b602082019050919050565b600060208201905081810360008301526200026d816200022b565b9050919050565b7f4e487b7100000000000000000000000000000000000000000000000000000000600052601160045260246000fd5b6000620002b0826200010a565b9150620002bd836200010a565b9250828201905080821115620002d857620002d762000274565b5b92915050565b612ac480620002ee6000396000f3fe60806040526004361061011f5760003560e01c80638d0f6da3116100a0578063cc4fa06511610064578063cc4fa0651461034c578063cff29dfd14610377578063d57bde79146103b4578063e35a70d9146103df578063e8a61cc8146103e95761011f565b80638d0f6da31461028257806391f90157146102af5780639979ef45146102da578063b9c3a04c146102f6578063c764cd05146103215761011f565b80634bb278f3116100e75780634bb278f3146101e75780634fd6137c146101fe57806362ea82db1461021557806373fac6f0146102545780638282a4c11461026b5761011f565b80630335729e1461012457806308551a531461014f578063117df0881461017a57806312829e4d1461019157806312fa6feb146101bc575b600080fd5b34801561013057600080fd5b50610139610400565b6040516101469190611abd565b60405180910390f35b34801561015b57600080fd5b50610164610413565b6040516101719190611b19565b60405180910390f35b34801561018657600080fd5b5061018f610437565b005b34801561019d57600080fd5b506101a66106a6565b6040516101b39190611abd565b60405180910390f35b3480156101c857600080fd5b506101d16106b9565b6040516101de9190611abd565b60405180910390f35b3480156101f357600080fd5b506101fc6106cc565b005b34801561020a57600080fd5b506102136107db565b005b34801561022157600080fd5b5061023c60048036038101906102379190611b65565b6109da565b60405161024b93929190611bab565b60405180910390f35b34801561026057600080fd5b50610269610a11565b005b34801561027757600080fd5b50610280610c08565b005b34801561028e57600080fd5b50610297610ee3565b6040516102a693929190611d5e565b60405180910390f35b3480156102bb57600080fd5b506102c4611326565b6040516102d19190611b19565b60405180910390f35b6102f460048036038101906102ef9190611dd6565b61134c565b005b34801561030257600080fd5b5061030b611624565b6040516103189190611e03565b60405180910390f35b34801561032d57600080fd5b50610336611629565b6040516103439190611e03565b60405180910390f35b34801561035857600080fd5b5061036161162f565b60405161036e9190611abd565b60405180910390f35b34801561038357600080fd5b5061039e60048036038101906103999190611dd6565b611642565b6040516103ab9190611b19565b60405180910390f35b3480156103c057600080fd5b506103c9611681565b6040516103d69190611e03565b60405180910390f35b6103e7611687565b005b3480156103f557600080fd5b506103fe6118fb565b005b600460029054906101000a900460ff1681565b60008054906101000a900473ffffffffffffffffffffffffffffffffffffffff1681565b600460009054906101000a900460ff16610486576040517f08c379a000000000000000000000000000000000000000000000000000000000815260040161047d90611e7b565b60405180910390fd5b600260009054906101000a900473ffffffffffffffffffffffffffffffffffffffff1673ffffffffffffffffffffffffffffffffffffffff163373ffffffffffffffffffffffffffffffffffffffff1603610516576040517f08c379a000000000000000000000000000000000000000000000000000000000815260040161050d90611ee7565b60405180910390fd5b6000600560003373ffffffffffffffffffffffffffffffffffffffff1673ffffffffffffffffffffffffffffffffffffffff16815260200190815260200160002090508060020160009054906101000a900460ff16156105ab576040517f08c379a00000000000000000000000000000000000000000000000000000000081526004016105a290611f53565b60405180910390fd5b60008160010154116105f2576040517f08c379a00000000000000000000000000000000000000000000000000000000081526004016105e990611fbf565b60405180910390fd5b6000816001015490506000826001018190555060018260020160006101000a81548160ff0219169083151502179055503373ffffffffffffffffffffffffffffffffffffffff166108fc829081150290604051600060405180830381858888f19350505050158015610668573d6000803e3d6000fd5b507fd7dee2702d63ad89917b6a4da9981c90c4d24f8c2bdfd64c604ecae57d8d0651338260405161069a929190611fdf565b60405180910390a15050565b600460019054906101000a900460ff1681565b600460009054906101000a900460ff1681565b600154421015610711576040517f08c379a000000000000000000000000000000000000000000000000000000000815260040161070890612054565b60405180910390fd5b600460009054906101000a900460ff1615610761576040517f08c379a0000000000000000000000000000000000000000000000000000000008152600401610758906120c0565b60405180910390fd5b6001600460006101000a81548160ff0219169083151502179055507f9ebde9baafbb47e3efec88982b127ac6b7af8df2a1e860b8c86fca98d5ea9ecb600260009054906101000a900473ffffffffffffffffffffffffffffffffffffffff166003546040516107d1929190611fdf565b60405180910390a1565b600460009054906101000a900460ff1661082a576040517f08c379a000000000000000000000000000000000000000000000000000000000815260040161082190611e7b565b60405180910390fd5b600260009054906101000a900473ffffffffffffffffffffffffffffffffffffffff1673ffffffffffffffffffffffffffffffffffffffff163373ffffffffffffffffffffffffffffffffffffffff1614806108d1575060008054906101000a900473ffffffffffffffffffffffffffffffffffffffff1673ffffffffffffffffffffffffffffffffffffffff163373ffffffffffffffffffffffffffffffffffffffff16145b610910576040517f08c379a00000000000000000000000000000000000000000000000000000000081526004016109079061212c565b60405180910390fd5b600460029054906101000a900460ff1615610960576040517f08c379a000000000000000000000000000000000000000000000000000000000815260040161095790612198565b60405180910390fd5b6001600460026101000a81548160ff0219169083151502179055507f94799ce1f5151942e96745d7a2d873bfb4ef3c373a34cc901e03e4fdc4c8263f600260009054906101000a900473ffffffffffffffffffffffffffffffffffffffff166003546040516109d0929190611fdf565b60405180910390a1565b60056020528060005260406000206000915090508060000154908060010154908060020160009054906101000a900460ff16905083565b600260009054906101000a900473ffffffffffffffffffffffffffffffffffffffff1673ffffffffffffffffffffffffffffffffffffffff163373ffffffffffffffffffffffffffffffffffffffff1614610aa1576040517f08c379a0000000000000000000000000000000000000000000000000000000008152600401610a9890612204565b60405180910390fd5b600460019054906101000a900460ff16610af0576040517f08c379a0000000000000000000000000000000000000000000000000000000008152600401610ae790612270565b60405180910390fd5b600460029054906101000a900460ff1615610b40576040517f08c379a0000000000000000000000000000000000000000000000000000000008152600401610b37906122dc565b60405180910390fd5b60008054906101000a900473ffffffffffffffffffffffffffffffffffffffff1673ffffffffffffffffffffffffffffffffffffffff166108fc6003549081150290604051600060405180830381858888f19350505050158015610ba8573d6000803e3d6000fd5b507f6ed37d58b33e787ace85d1396bd170e59628aa459524f8d72c4d345cd3fd916b600260009054906101000a900473ffffffffffffffffffffffffffffffffffffffff16600354604051610bfe929190611fdf565b60405180910390a1565b600460009054906101000a900460ff16610c57576040517f08c379a0000000000000000000000000000000000000000000000000000000008152600401610c4e90611e7b565b60405180910390fd5b600460019054906101000a900460ff1615610ca7576040517f08c379a0000000000000000000000000000000000000000000000000000000008152600401610c9e90612348565b60405180910390fd5b600460039054906101000a900460ff1615610cf7576040517f08c379a0000000000000000000000000000000000000000000000000000000008152600401610cee906123b4565b60405180910390fd5b603c600154610d069190612403565b4211610d47576040517f08c379a0000000000000000000000000000000000000000000000000000000008152600401610d3e90612483565b60405180910390fd5b600060056000600260009054906101000a900473ffffffffffffffffffffffffffffffffffffffff1673ffffffffffffffffffffffffffffffffffffffff1673ffffffffffffffffffffffffffffffffffffffff168152602001908152602001600020905060008160010154905060008111610df8576040517f08c379a0000000000000000000000000000000000000000000000000000000008152600401610def906124ef565b60405180910390fd5b6000826001018190555060008054906101000a900473ffffffffffffffffffffffffffffffffffffffff1673ffffffffffffffffffffffffffffffffffffffff166108fc829081150290604051600060405180830381858888f19350505050158015610e68573d6000803e3d6000fd5b506001600460036101000a81548160ff0219169083151502179055507fce6324a0bfd5e264b9b4039aeeab1620f460c269fa080cbd889681a37aaadc65600260009054906101000a900473ffffffffffffffffffffffffffffffffffffffff1682604051610ed7929190611fdf565b60405180910390a15050565b60608060606000805b60068054905081101561101b57600073ffffffffffffffffffffffffffffffffffffffff1660068281548110610f2557610f2461250f565b5b9060005260206000200160009054906101000a900473ffffffffffffffffffffffffffffffffffffffff1673ffffffffffffffffffffffffffffffffffffffff1614158015610ff4575060006005600060068481548110610f8957610f8861250f565b5b9060005260206000200160009054906101000a900473ffffffffffffffffffffffffffffffffffffffff1673ffffffffffffffffffffffffffffffffffffffff1673ffffffffffffffffffffffffffffffffffffffff16815260200190815260200160002060000154115b156110085781806110049061253e565b9250505b80806110139061253e565b915050610eec565b5060008167ffffffffffffffff81111561103857611037612586565b5b6040519080825280602002602001820160405280156110665781602001602082028036833780820191505090505b50905060008267ffffffffffffffff81111561108557611084612586565b5b6040519080825280602002602001820160405280156110b35781602001602082028036833780820191505090505b50905060008367ffffffffffffffff8111156110d2576110d1612586565b5b6040519080825280602002602001820160405280156111005781602001602082028036833780820191505090505b5090506000805b6006805490508110156113125760006006828154811061112a5761112961250f565b5b9060005260206000200160009054906101000a900473ffffffffffffffffffffffffffffffffffffffff169050600073ffffffffffffffffffffffffffffffffffffffff168173ffffffffffffffffffffffffffffffffffffffff160361119157506112ff565b6000600560008373ffffffffffffffffffffffffffffffffffffffff1673ffffffffffffffffffffffffffffffffffffffff1681526020019081526020016000206000015411156112fd57808684815181106111f0576111ef61250f565b5b602002602001019073ffffffffffffffffffffffffffffffffffffffff16908173ffffffffffffffffffffffffffffffffffffffff1681525050600560008273ffffffffffffffffffffffffffffffffffffffff1673ffffffffffffffffffffffffffffffffffffffff168152602001908152602001600020600001548584815181106112805761127f61250f565b5b602002602001018181525050600560008273ffffffffffffffffffffffffffffffffffffffff1673ffffffffffffffffffffffffffffffffffffffff168152602001908152602001600020600101548484815181106112e2576112e161250f565b5b60200260200101818152505082806112f99061253e565b9350505b505b808061130a9061253e565b915050611107565b508383839750975097505050505050909192565b600260009054906101000a900473ffffffffffffffffffffffffffffffffffffffff1681565b6001544210611390576040517f08c379a000000000000000000000000000000000000000000000000000000000815260040161138790612601565b60405180910390fd5b60035481116113d4576040517f08c379a00000000000000000000000000000000000000000000000000000000081526004016113cb9061266d565b60405180910390fd5b60006064600a836113e5919061268d565b6113ef91906126fe565b90506000600560003373ffffffffffffffffffffffffffffffffffffffff1673ffffffffffffffffffffffffffffffffffffffff16815260200190815260200160002090506000808260000154149050600082600101548411156114c25782600101548461145d919061272f565b9050803410156114a2576040517f08c379a0000000000000000000000000000000000000000000000000000000008152600401611499906127af565b60405180910390fd5b808360010160008282546114b69190612403565b92505081905550611506565b60003414611505576040517f08c379a00000000000000000000000000000000000000000000000000000000081526004016114fc9061281b565b60405180910390fd5b5b84836000018190555060008360020160006101000a81548160ff0219169083151502179055508115611596576006339080600181540180825580915050600190039060005260206000200160009091909190916101000a81548173ffffffffffffffffffffffffffffffffffffffff021916908373ffffffffffffffffffffffffffffffffffffffff1602179055505b33600260006101000a81548173ffffffffffffffffffffffffffffffffffffffff021916908373ffffffffffffffffffffffffffffffffffffffff160217905550846003819055507fdf8644c0a4c21ed214ce69f395675b3a5fcd1039083daea5058898de40ea3149338685600101546040516116159392919061283b565b60405180910390a15050505050565b600a81565b60015481565b600460039054906101000a900460ff1681565b6006818154811061165257600080fd5b906000526020600020016000915054906101000a900473ffffffffffffffffffffffffffffffffffffffff1681565b60035481565b600460009054906101000a900460ff166116d6576040517f08c379a00000000000000000000000000000000000000000000000000000000081526004016116cd90611e7b565b60405180910390fd5b600260009054906101000a900473ffffffffffffffffffffffffffffffffffffffff1673ffffffffffffffffffffffffffffffffffffffff163373ffffffffffffffffffffffffffffffffffffffff1614611766576040517f08c379a000000000000000000000000000000000000000000000000000000000815260040161175d906128be565b60405180910390fd5b600460019054906101000a900460ff16156117b6576040517f08c379a00000000000000000000000000000000000000000000000000000000081526004016117ad90612348565b60405180910390fd5b600460039054906101000a900460ff1615611806576040517f08c379a00000000000000000000000000000000000000000000000000000000081526004016117fd9061292a565b60405180910390fd5b6000600560003373ffffffffffffffffffffffffffffffffffffffff1673ffffffffffffffffffffffffffffffffffffffff16815260200190815260200160002060010154905060008160035461185d919061272f565b90508034146118a1576040517f08c379a000000000000000000000000000000000000000000000000000000000815260040161189890612996565b60405180910390fd5b6001600460016101000a81548160ff0219169083151502179055507f3a2d0e41c506b136330c6e5e0295ccbf0966daece99bfe7c89020cc01dbfb8d6336003546040516118ef929190611fdf565b60405180910390a15050565b600460029054906101000a900460ff1661194a576040517f08c379a000000000000000000000000000000000000000000000000000000000815260040161194190612a02565b60405180910390fd5b60008054906101000a900473ffffffffffffffffffffffffffffffffffffffff1673ffffffffffffffffffffffffffffffffffffffff163373ffffffffffffffffffffffffffffffffffffffff16146119d8576040517f08c379a00000000000000000000000000000000000000000000000000000000081526004016119cf90612a6e565b60405180910390fd5b600260009054906101000a900473ffffffffffffffffffffffffffffffffffffffff1673ffffffffffffffffffffffffffffffffffffffff166108fc6003549081150290604051600060405180830381858888f19350505050158015611a42573d6000803e3d6000fd5b507fd7dee2702d63ad89917b6a4da9981c90c4d24f8c2bdfd64c604ecae57d8d0651600260009054906101000a900473ffffffffffffffffffffffffffffffffffffffff16600354604051611a98929190611fdf565b60405180910390a1565b60008115159050919050565b611ab781611aa2565b82525050565b6000602082019050611ad26000830184611aae565b92915050565b600073ffffffffffffffffffffffffffffffffffffffff82169050919050565b6000611b0382611ad8565b9050919050565b611b1381611af8565b82525050565b6000602082019050611b2e6000830184611b0a565b92915050565b600080fd5b611b4281611af8565b8114611b4d57600080fd5b50565b600081359050611b5f81611b39565b92915050565b600060208284031215611b7b57611b7a611b34565b5b6000611b8984828501611b50565b91505092915050565b6000819050919050565b611ba581611b92565b82525050565b6000606082019050611bc06000830186611b9c565b611bcd6020830185611b9c565b611bda6040830184611aae565b949350505050565b600081519050919050565b600082825260208201905092915050565b6000819050602082019050919050565b611c1781611af8565b82525050565b6000611c298383611c0e565b60208301905092915050565b6000602082019050919050565b6000611c4d82611be2565b611c578185611bed565b9350611c6283611bfe565b8060005b83811015611c93578151611c7a8882611c1d565b9750611c8583611c35565b925050600181019050611c66565b5085935050505092915050565b600081519050919050565b600082825260208201905092915050565b6000819050602082019050919050565b611cd581611b92565b82525050565b6000611ce78383611ccc565b60208301905092915050565b6000602082019050919050565b6000611d0b82611ca0565b611d158185611cab565b9350611d2083611cbc565b8060005b83811015611d51578151611d388882611cdb565b9750611d4383611cf3565b925050600181019050611d24565b5085935050505092915050565b60006060820190508181036000830152611d788186611c42565b90508181036020830152611d8c8185611d00565b90508181036040830152611da08184611d00565b9050949350505050565b611db381611b92565b8114611dbe57600080fd5b50565b600081359050611dd081611daa565b92915050565b600060208284031215611dec57611deb611b34565b5b6000611dfa84828501611dc1565b91505092915050565b6000602082019050611e186000830184611b9c565b92915050565b600082825260208201905092915050565b7f41756374696f6e206e6f7420656e646564000000000000000000000000000000600082015250565b6000611e65601183611e1e565b9150611e7082611e2f565b602082019050919050565b60006020820190508181036000830152611e9481611e58565b9050919050565b7f57696e6e65722063616e6e6f7420776974686472617700000000000000000000600082015250565b6000611ed1601683611e1e565b9150611edc82611e9b565b602082019050919050565b60006020820190508181036000830152611f0081611ec4565b9050919050565b7f416c726561647920726566756e64656400000000000000000000000000000000600082015250565b6000611f3d601083611e1e565b9150611f4882611f07565b602082019050919050565b60006020820190508181036000830152611f6c81611f30565b9050919050565b7f4e6f206465706f73697420666f756e6400000000000000000000000000000000600082015250565b6000611fa9601083611e1e565b9150611fb482611f73565b602082019050919050565b60006020820190508181036000830152611fd881611f9c565b9050919050565b6000604082019050611ff46000830185611b0a565b6120016020830184611b9c565b9392505050565b7f41756374696f6e206e6f742079657420656e6465640000000000000000000000600082015250565b600061203e601583611e1e565b915061204982612008565b602082019050919050565b6000602082019050818103600083015261206d81612031565b9050919050565b7f416c72656164792066696e616c697a6564000000000000000000000000000000600082015250565b60006120aa601183611e1e565b91506120b582612074565b602082019050919050565b600060208201905081810360008301526120d98161209d565b9050919050565b7f4e6f7420616c6c6f776564000000000000000000000000000000000000000000600082015250565b6000612116600b83611e1e565b9150612121826120e0565b602082019050919050565b6000602082019050818103600083015261214581612109565b9050919050565b7f416c726561647920646973707574656400000000000000000000000000000000600082015250565b6000612182601083611e1e565b915061218d8261214c565b602082019050919050565b600060208201905081810360008301526121b181612175565b9050919050565b7f4f6e6c792062757965722063616e20636f6e6669726d00000000000000000000600082015250565b60006121ee601683611e1e565b91506121f9826121b8565b602082019050919050565b6000602082019050818103600083015261221d816121e1565b9050919050565b7f5061796d656e74206e6f7420636f6d706c657465640000000000000000000000600082015250565b600061225a601583611e1e565b915061226582612224565b602082019050919050565b600060208201905081810360008301526122898161224d565b9050919050565b7f4469737075746564207472616e73616374696f6e000000000000000000000000600082015250565b60006122c6601483611e1e565b91506122d182612290565b602082019050919050565b600060208201905081810360008301526122f5816122b9565b9050919050565b7f416c726561647920706169640000000000000000000000000000000000000000600082015250565b6000612332600c83611e1e565b915061233d826122fc565b602082019050919050565b6000602082019050818103600083015261236181612325565b9050919050565b7f416c72656164792070656e616c697a6564000000000000000000000000000000600082015250565b600061239e601183611e1e565b91506123a982612368565b602082019050919050565b600060208201905081810360008301526123cd81612391565b9050919050565b7f4e487b7100000000000000000000000000000000000000000000000000000000600052601160045260246000fd5b600061240e82611b92565b915061241983611b92565b9250828201905080821115612431576124306123d4565b5b92915050565b7f546f6f206561726c7920746f2070656e616c697a650000000000000000000000600082015250565b600061246d601583611e1e565b915061247882612437565b602082019050919050565b6000602082019050818103600083015261249c81612460565b9050919050565b7f4e6f206465706f73697420746f2070656e616c697a6500000000000000000000600082015250565b60006124d9601683611e1e565b91506124e4826124a3565b602082019050919050565b60006020820190508181036000830152612508816124cc565b9050919050565b7f4e487b7100000000000000000000000000000000000000000000000000000000600052603260045260246000fd5b600061254982611b92565b91507fffffffffffffffffffffffffffffffffffffffffffffffffffffffffffffffff820361257b5761257a6123d4565b5b600182019050919050565b7f4e487b7100000000000000000000000000000000000000000000000000000000600052604160045260246000fd5b7f41756374696f6e20616c726561647920656e6465640000000000000000000000600082015250565b60006125eb601583611e1e565b91506125f6826125b5565b602082019050919050565b6000602082019050818103600083015261261a816125de565b9050919050565b7f426964206e6f74206869676820656e6f75676800000000000000000000000000600082015250565b6000612657601383611e1e565b915061266282612621565b602082019050919050565b600060208201905081810360008301526126868161264a565b9050919050565b600061269882611b92565b91506126a383611b92565b92508282026126b181611b92565b915082820484148315176126c8576126c76123d4565b5b5092915050565b7f4e487b7100000000000000000000000000000000000000000000000000000000600052601260045260246000fd5b600061270982611b92565b915061271483611b92565b925082612724576127236126cf565b5b828204905092915050565b600061273a82611b92565b915061274583611b92565b925082820390508181111561275d5761275c6123d4565b5b92915050565b7f4e6f7420656e6f756768206164646974696f6e616c206465706f736974000000600082015250565b6000612799601d83611e1e565b91506127a482612763565b602082019050919050565b600060208201905081810360008301526127c88161278c565b9050919050565b7f4e6f206e65656420746f2073656e64206d6f7265206465706f73697400000000600082015250565b6000612805601c83611e1e565b9150612810826127cf565b602082019050919050565b60006020820190508181036000830152612834816127f8565b9050919050565b60006060820190506128506000830186611b0a565b61285d6020830185611b9c565b61286a6040830184611b9c565b949350505050565b7f4f6e6c792077696e6e65722063616e2070617900000000000000000000000000600082015250565b60006128a8601383611e1e565b91506128b382612872565b602082019050919050565b600060208201905081810360008301526128d78161289b565b9050919050565b7f57696e6e657220686173206265656e2070656e616c697a656400000000000000600082015250565b6000612914601983611e1e565b915061291f826128de565b602082019050919050565b6000602082019050818103600083015261294381612907565b9050919050565b7f4d757374207061792072656d61696e696e672062616c616e6365000000000000600082015250565b6000612980601a83611e1e565b915061298b8261294a565b602082019050919050565b600060208201905081810360008301526129af81612973565b9050919050565b7f4e6f206469737075746500000000000000000000000000000000000000000000600082015250565b60006129ec600a83611e1e565b91506129f7826129b6565b602082019050919050565b60006020820190508181036000830152612a1b816129df565b9050919050565b7f4f6e6c792073656c6c65722063616e20726566756e6420627579657200000000600082015250565b6000612a58601c83611e1e565b9150612a6382612a22565b602082019050919050565b60006020820190508181036000830152612a8781612a4b565b905091905056fea2646970667358221220ec8e2a9e7a391c34b8b228c0891450c2728ceb859376dbc8a429f83c29f72e6664736f6c63430008140033",
  "linkReferences": {},
  "deployedLinkReferences": {}
}