{
  "_format": "hh-sol-artifact-1",
  "contractName": "Action",
  "sourceName": "contracts/Action.sol",
  "abi": [
    {
      "inputs": [
        {
          "internalType": "uint256",
          "name": "_biddingTime",
          "type": "uint256"
        }
      ],
      "stateMutability": "nonpayable",
      "type": "constructor"
    },
    {
      "anonymous": false,
      "inputs": [
        {
          "indexed": false,
          "internalType": "address",
          "name": "winner",
          "type": "address"
        },
        {
          "indexed": false,
          "internalType": "uint256",
          "name": "amount",
          "type": "uint256"
        }
      ],
      "name": "ActionEnded",
      "type": "event"
    },
    {
      "anonymous": false,
      "inputs": [
        {
          "indexed": false,
          "internalType": "address",
          "name": "bidder",
          "type": "address"
        },
        {
          "indexed": false,
          "internalType": "uint256",
          "name": "amount",
          "type": "uint256"
        }
      ],
      "name": "HighestBidIncreased",
      "type": "event"
    },
    {
      "anonymous": false,
      "inputs": [
        {
          "indexed": false,
          "internalType": "address",
          "name": "buyer",
          "type": "address"
        },
        {
          "indexed": false,
          "internalType": "uint256",
          "name": "amount",
          "type": "uint256"
        }
      ],
      "name": "ItemReceived",
      "type": "event"
    },
    {
      "anonymous": false,
      "inputs": [
        {
          "indexed": false,
          "internalType": "address",
          "name": "buyer",
          "type": "address"
        },
        {
          "indexed": false,
          "internalType": "uint256",
          "name": "amount",
          "type": "uint256"
        }
      ],
      "name": "Refunded",
      "type": "event"
    },
    {
      "inputs": [],
      "name": "actionEndTime",
      "outputs": [
        {
          "internalType": "uint256",
          "name": "",
          "type": "uint256"
        }
      ],
      "stateMutability": "view",
      "type": "function"
    },
    {
      "inputs": [],
      "name": "bid",
      "outputs": [],
      "stateMutability": "payable",
      "type": "function"
    },
    {
      "inputs": [
        {
          "internalType": "uint256",
          "name": "",
          "type": "uint256"
        }
      ],
      "name": "bidders",
      "outputs": [
        {
          "internalType": "address",
          "name": "",
          "type": "address"
        }
      ],
      "stateMutability": "view",
      "type": "function"
    },
    {
      "inputs": [
        {
          "internalType": "address",
          "name": "",
          "type": "address"
        }
      ],
      "name": "bids",
      "outputs": [
        {
          "internalType": "uint256",
          "name": "",
          "type": "uint256"
        }
      ],
      "stateMutability": "view",
      "type": "function"
    },
    {
      "inputs": [],
      "name": "confirmReceived",
      "outputs": [],
      "stateMutability": "nonpayable",
      "type": "function"
    },
    {
      "inputs": [],
      "name": "ended",
      "outputs": [
        {
          "internalType": "bool",
          "name": "",
          "type": "bool"
        }
      ],
      "stateMutability": "view",
      "type": "function"
    },
    {
      "inputs": [],
      "name": "finalize",
      "outputs": [],
      "stateMutability": "nonpayable",
      "type": "function"
    },
    {
      "inputs": [],
      "name": "getAllBids",
      "outputs": [
        {
          "internalType": "address[]",
          "name": "",
          "type": "address[]"
        },
        {
          "internalType": "uint256[]",
          "name": "",
          "type": "uint256[]"
        }
      ],
      "stateMutability": "view",
      "type": "function"
    },
    {
      "inputs": [],
      "name": "highestBid",
      "outputs": [
        {
          "internalType": "uint256",
          "name": "",
          "type": "uint256"
        }
      ],
      "stateMutability": "view",
      "type": "function"
    },
    {
      "inputs": [],
      "name": "highestBidder",
      "outputs": [
        {
          "internalType": "address",
          "name": "",
          "type": "address"
        }
      ],
      "stateMutability": "view",
      "type": "function"
    },
    {
      "inputs": [],
      "name": "isPaidToSeller",
      "outputs": [
        {
          "internalType": "bool",
          "name": "",
          "type": "bool"
        }
      ],
      "stateMutability": "view",
      "type": "function"
    },
    {
      "inputs": [
        {
          "internalType": "address",
          "name": "",
          "type": "address"
        }
      ],
      "name": "pendingReturns",
      "outputs": [
        {
          "internalType": "uint256",
          "name": "",
          "type": "uint256"
        }
      ],
      "stateMutability": "view",
      "type": "function"
    },
    {
      "inputs": [],
      "name": "refundBuyer",
      "outputs": [],
      "stateMutability": "nonpayable",
      "type": "function"
    },
    {
      "inputs": [],
      "name": "seller",
      "outputs": [
        {
          "internalType": "address",
          "name": "",
          "type": "address"
        }
      ],
      "stateMutability": "view",
      "type": "function"
    },
    {
      "inputs": [],
      "name": "withdraw",
      "outputs": [
        {
          "internalType": "bool",
          "name": "",
          "type": "bool"
        }
      ],
      "stateMutability": "nonpayable",
      "type": "function"
    }
  ],
  "bytecode": "0x60806040523480156200001157600080fd5b5060405162001893380380620018938339818101604052810190620000379190620000d2565b336000806101000a81548173ffffffffffffffffffffffffffffffffffffffff021916908373ffffffffffffffffffffffffffffffffffffffff160217905550804262000085919062000133565b600181905550506200016e565b600080fd5b6000819050919050565b620000ac8162000097565b8114620000b857600080fd5b50565b600081519050620000cc81620000a1565b92915050565b600060208284031215620000eb57620000ea62000092565b5b6000620000fb84828501620000bb565b91505092915050565b7f4e487b7100000000000000000000000000000000000000000000000000000000600052601160045260246000fd5b6000620001408262000097565b91506200014d8362000097565b925082820190508082111562000168576200016762000104565b5b92915050565b611715806200017e6000396000f3fe6080604052600436106100e85760003560e01c806362ea82db1161008a578063c764cd0511610059578063c764cd05146102a2578063cff29dfd146102cd578063d57bde791461030a578063e8a61cc814610335576100e8565b806362ea82db146101f757806373fac6f0146102345780638d0f6da31461024b57806391f9015714610277576100e8565b80631998aeef116100c65780631998aeef1461016e57806326b387bb146101785780633ccfd60b146101b55780634bb278f3146101e0576100e8565b806308551a53146100ed57806312829e4d1461011857806312fa6feb14610143575b600080fd5b3480156100f957600080fd5b5061010261034c565b60405161010f9190610ee1565b60405180910390f35b34801561012457600080fd5b5061012d610370565b60405161013a9190610f17565b60405180910390f35b34801561014f57600080fd5b50610158610383565b6040516101659190610f17565b60405180910390f35b610176610396565b005b34801561018457600080fd5b5061019f600480360381019061019a9190610f63565b610615565b6040516101ac9190610fa9565b60405180910390f35b3480156101c157600080fd5b506101ca61062d565b6040516101d79190610f17565b60405180910390f35b3480156101ec57600080fd5b506101f5610749565b005b34801561020357600080fd5b5061021e60048036038101906102199190610f63565b610858565b60405161022b9190610fa9565b60405180910390f35b34801561024057600080fd5b50610249610870565b005b34801561025757600080fd5b50610260610a82565b60405161026e929190611140565b60405180910390f35b34801561028357600080fd5b5061028c610c2c565b6040516102999190610ee1565b60405180910390f35b3480156102ae57600080fd5b506102b7610c52565b6040516102c49190610fa9565b60405180910390f35b3480156102d957600080fd5b506102f460048036038101906102ef91906111a3565b610c58565b6040516103019190610ee1565b60405180910390f35b34801561031657600080fd5b5061031f610c97565b60405161032c9190610fa9565b60405180910390f35b34801561034157600080fd5b5061034a610c9d565b005b60008054906101000a900473ffffffffffffffffffffffffffffffffffffffff1681565b600460019054906101000a900460ff1681565b600460009054906101000a900460ff1681565b60015442106103da576040517f08c379a00000000000000000000000000000000000000000000000000000000081526004016103d19061122d565b60405180910390fd5b600354341161041e576040517f08c379a000000000000000000000000000000000000000000000000000000000815260040161041590611299565b60405180910390fd5b6000600354146104a35760035460056000600260009054906101000a900473ffffffffffffffffffffffffffffffffffffffff1673ffffffffffffffffffffffffffffffffffffffff1673ffffffffffffffffffffffffffffffffffffffff168152602001908152602001600020600082825461049b91906112e8565b925050819055505b33600260006101000a81548173ffffffffffffffffffffffffffffffffffffffff021916908373ffffffffffffffffffffffffffffffffffffffff160217905550346003819055506000600660003373ffffffffffffffffffffffffffffffffffffffff1673ffffffffffffffffffffffffffffffffffffffff1681526020019081526020016000205403610596576007339080600181540180825580915050600190039060005260206000200160009091909190916101000a81548173ffffffffffffffffffffffffffffffffffffffff021916908373ffffffffffffffffffffffffffffffffffffffff1602179055505b34600660003373ffffffffffffffffffffffffffffffffffffffff1673ffffffffffffffffffffffffffffffffffffffff168152602001908152602001600020819055507ff4757a49b326036464bec6fe419a4ae38c8a02ce3e68bf0809674f6aab8ad300333460405161060b92919061131c565b60405180910390a1565b60056020528060005260406000206000915090505481565b600080600560003373ffffffffffffffffffffffffffffffffffffffff1673ffffffffffffffffffffffffffffffffffffffff168152602001908152602001600020549050600081116106b5576040517f08c379a00000000000000000000000000000000000000000000000000000000081526004016106ac90611391565b60405180910390fd5b6000600560003373ffffffffffffffffffffffffffffffffffffffff1673ffffffffffffffffffffffffffffffffffffffff168152602001908152602001600020819055503373ffffffffffffffffffffffffffffffffffffffff166108fc829081150290604051600060405180830381858888f19350505050158015610740573d6000803e3d6000fd5b50600191505090565b60015442101561078e576040517f08c379a0000000000000000000000000000000000000000000000000000000008152600401610785906113fd565b60405180910390fd5b600460009054906101000a900460ff16156107de576040517f08c379a00000000000000000000000000000000000000000000000000000000081526004016107d590611469565b60405180910390fd5b6001600460006101000a81548160ff0219169083151502179055507f9ebde9baafbb47e3efec88982b127ac6b7af8df2a1e860b8c86fca98d5ea9ecb600260009054906101000a900473ffffffffffffffffffffffffffffffffffffffff1660035460405161084e92919061131c565b60405180910390a1565b60066020528060005260406000206000915090505481565b600460009054906101000a900460ff166108bf576040517f08c379a00000000000000000000000000000000000000000000000000000000081526004016108b6906114d5565b60405180910390fd5b600260009054906101000a900473ffffffffffffffffffffffffffffffffffffffff1673ffffffffffffffffffffffffffffffffffffffff163373ffffffffffffffffffffffffffffffffffffffff161461094f576040517f08c379a000000000000000000000000000000000000000000000000000000000815260040161094690611541565b60405180910390fd5b600460019054906101000a900460ff161561099f576040517f08c379a0000000000000000000000000000000000000000000000000000000008152600401610996906115ad565b60405180910390fd5b6001600460016101000a81548160ff02191690831515021790555060008054906101000a900473ffffffffffffffffffffffffffffffffffffffff1673ffffffffffffffffffffffffffffffffffffffff166108fc6003549081150290604051600060405180830381858888f19350505050158015610a22573d6000803e3d6000fd5b507f6ed37d58b33e787ace85d1396bd170e59628aa459524f8d72c4d345cd3fd916b600260009054906101000a900473ffffffffffffffffffffffffffffffffffffffff16600354604051610a7892919061131c565b60405180910390a1565b606080600060078054905067ffffffffffffffff811115610aa657610aa56115cd565b5b604051908082528060200260200182016040528015610ad45781602001602082028036833780820191505090505b50905060005b600780549050811015610b97576006600060078381548110610aff57610afe6115fc565b5b9060005260206000200160009054906101000a900473ffffffffffffffffffffffffffffffffffffffff1673ffffffffffffffffffffffffffffffffffffffff1673ffffffffffffffffffffffffffffffffffffffff16815260200190815260200160002054828281518110610b7857610b776115fc565b5b6020026020010181815250508080610b8f9061162b565b915050610ada565b5060078181805480602002602001604051908101604052809291908181526020018280548015610c1c57602002820191906000526020600020905b8160009054906101000a900473ffffffffffffffffffffffffffffffffffffffff1673ffffffffffffffffffffffffffffffffffffffff1681526020019060010190808311610bd2575b5050505050915092509250509091565b600260009054906101000a900473ffffffffffffffffffffffffffffffffffffffff1681565b60015481565b60078181548110610c6857600080fd5b906000526020600020016000915054906101000a900473ffffffffffffffffffffffffffffffffffffffff1681565b60035481565b600460009054906101000a900460ff16610cec576040517f08c379a0000000000000000000000000000000000000000000000000000000008152600401610ce3906114d5565b60405180910390fd5b600460019054906101000a900460ff1615610d3c576040517f08c379a0000000000000000000000000000000000000000000000000000000008152600401610d33906115ad565b60405180910390fd5b60008054906101000a900473ffffffffffffffffffffffffffffffffffffffff1673ffffffffffffffffffffffffffffffffffffffff163373ffffffffffffffffffffffffffffffffffffffff1614610dca576040517f08c379a0000000000000000000000000000000000000000000000000000000008152600401610dc1906116bf565b60405180910390fd5b600060035490506000600381905550600260009054906101000a900473ffffffffffffffffffffffffffffffffffffffff1673ffffffffffffffffffffffffffffffffffffffff166108fc829081150290604051600060405180830381858888f19350505050158015610e41573d6000803e3d6000fd5b507fd7dee2702d63ad89917b6a4da9981c90c4d24f8c2bdfd64c604ecae57d8d0651600260009054906101000a900473ffffffffffffffffffffffffffffffffffffffff1682604051610e9592919061131c565b60405180910390a150565b600073ffffffffffffffffffffffffffffffffffffffff82169050919050565b6000610ecb82610ea0565b9050919050565b610edb81610ec0565b82525050565b6000602082019050610ef66000830184610ed2565b92915050565b60008115159050919050565b610f1181610efc565b82525050565b6000602082019050610f2c6000830184610f08565b92915050565b600080fd5b610f4081610ec0565b8114610f4b57600080fd5b50565b600081359050610f5d81610f37565b92915050565b600060208284031215610f7957610f78610f32565b5b6000610f8784828501610f4e565b91505092915050565b6000819050919050565b610fa381610f90565b82525050565b6000602082019050610fbe6000830184610f9a565b92915050565b600081519050919050565b600082825260208201905092915050565b6000819050602082019050919050565b610ff981610ec0565b82525050565b600061100b8383610ff0565b60208301905092915050565b6000602082019050919050565b600061102f82610fc4565b6110398185610fcf565b935061104483610fe0565b8060005b8381101561107557815161105c8882610fff565b975061106783611017565b925050600181019050611048565b5085935050505092915050565b600081519050919050565b600082825260208201905092915050565b6000819050602082019050919050565b6110b781610f90565b82525050565b60006110c983836110ae565b60208301905092915050565b6000602082019050919050565b60006110ed82611082565b6110f7818561108d565b93506111028361109e565b8060005b8381101561113357815161111a88826110bd565b9750611125836110d5565b925050600181019050611106565b5085935050505092915050565b6000604082019050818103600083015261115a8185611024565b9050818103602083015261116e81846110e2565b90509392505050565b61118081610f90565b811461118b57600080fd5b50565b60008135905061119d81611177565b92915050565b6000602082840312156111b9576111b8610f32565b5b60006111c78482850161118e565b91505092915050565b600082825260208201905092915050565b7f41756374696f6e20616c726561647920656e6465640000000000000000000000600082015250565b60006112176015836111d0565b9150611222826111e1565b602082019050919050565b600060208201905081810360008301526112468161120a565b9050919050565b7f426964206e6f74206869676820656e6f75676800000000000000000000000000600082015250565b60006112836013836111d0565b915061128e8261124d565b602082019050919050565b600060208201905081810360008301526112b281611276565b9050919050565b7f4e487b7100000000000000000000000000000000000000000000000000000000600052601160045260246000fd5b60006112f382610f90565b91506112fe83610f90565b9250828201905080821115611316576113156112b9565b5b92915050565b60006040820190506113316000830185610ed2565b61133e6020830184610f9a565b9392505050565b7f4e6f7468696e6720746f20776974686472617700000000000000000000000000600082015250565b600061137b6013836111d0565b915061138682611345565b602082019050919050565b600060208201905081810360008301526113aa8161136e565b9050919050565b7f41756374696f6e206e6f742079657420656e6465640000000000000000000000600082015250565b60006113e76015836111d0565b91506113f2826113b1565b602082019050919050565b60006020820190508181036000830152611416816113da565b9050919050565b7f41756374696f6e20616c72656164792066696e616c697a656400000000000000600082015250565b60006114536019836111d0565b915061145e8261141d565b602082019050919050565b6000602082019050818103600083015261148281611446565b9050919050565b7f41756374696f6e206e6f7420656e646564000000000000000000000000000000600082015250565b60006114bf6011836111d0565b91506114ca82611489565b602082019050919050565b600060208201905081810360008301526114ee816114b2565b9050919050565b7f4f6e6c792077696e6e65722063616e20636f6e6669726d000000000000000000600082015250565b600061152b6017836111d0565b9150611536826114f5565b602082019050919050565b6000602082019050818103600083015261155a8161151e565b9050919050565b7f416c7265616479207061696420746f2073656c6c657200000000000000000000600082015250565b60006115976016836111d0565b91506115a282611561565b602082019050919050565b600060208201905081810360008301526115c68161158a565b9050919050565b7f4e487b7100000000000000000000000000000000000000000000000000000000600052604160045260246000fd5b7f4e487b7100000000000000000000000000000000000000000000000000000000600052603260045260246000fd5b600061163682610f90565b91507fffffffffffffffffffffffffffffffffffffffffffffffffffffffffffffffff8203611668576116676112b9565b5b600182019050919050565b7f4f6e6c792073656c6c65722063616e20726566756e6420627579657200000000600082015250565b60006116a9601c836111d0565b91506116b482611673565b602082019050919050565b600060208201905081810360008301526116d88161169c565b905091905056fea26469706673582212207105735f3a6c64dff5cd030513bb1248fd3740c00cf28b550a3de434cf369e7564736f6c63430008140033",
  "linkReferences": {},
  "deployedLinkReferences": {}
}