{
  "_format": "hh-sol-artifact-1",
  "contractName": "Action",
  "sourceName": "contracts/Action.sol",
  "abi": [
    {
      "inputs": [
        {
          "internalType": "uint256",
          "name": "_biddingTime",
          "type": "uint256"
        },
        {
          "internalType": "address",
          "name": "_seller",
          "type": "address"
        }
      ],
      "stateMutability": "nonpayable",
      "type": "constructor"
    },
    {
      "anonymous": false,
      "inputs": [
        {
          "indexed": false,
          "internalType": "address",
          "name": "winner",
          "type": "address"
        },
        {
          "indexed": false,
          "internalType": "uint256",
          "name": "amount",
          "type": "uint256"
        }
      ],
      "name": "ActionEnded",
      "type": "event"
    },
    {
      "anonymous": false,
      "inputs": [
        {
          "indexed": false,
          "internalType": "address",
          "name": "bidder",
          "type": "address"
        },
        {
          "indexed": false,
          "internalType": "uint256",
          "name": "amount",
          "type": "uint256"
        },
        {
          "indexed": false,
          "internalType": "uint256",
          "name": "deposit",
          "type": "uint256"
        }
      ],
      "name": "BidPlaced",
      "type": "event"
    },
    {
      "anonymous": false,
      "inputs": [
        {
          "indexed": false,
          "internalType": "address",
          "name": "buyer",
          "type": "address"
        },
        {
          "indexed": false,
          "internalType": "uint256",
          "name": "amount",
          "type": "uint256"
        }
      ],
      "name": "Disputed",
      "type": "event"
    },
    {
      "anonymous": false,
      "inputs": [
        {
          "indexed": false,
          "internalType": "address",
          "name": "buyer",
          "type": "address"
        },
        {
          "indexed": false,
          "internalType": "uint256",
          "name": "amount",
          "type": "uint256"
        }
      ],
      "name": "ItemReceived",
      "type": "event"
    },
    {
      "anonymous": false,
      "inputs": [
        {
          "indexed": false,
          "internalType": "address",
          "name": "buyer",
          "type": "address"
        },
        {
          "indexed": false,
          "internalType": "uint256",
          "name": "totalPaid",
          "type": "uint256"
        }
      ],
      "name": "PaymentMade",
      "type": "event"
    },
    {
      "anonymous": false,
      "inputs": [
        {
          "indexed": false,
          "internalType": "address",
          "name": "bidder",
          "type": "address"
        },
        {
          "indexed": false,
          "internalType": "uint256",
          "name": "deposit",
          "type": "uint256"
        }
      ],
      "name": "Penalized",
      "type": "event"
    },
    {
      "anonymous": false,
      "inputs": [
        {
          "indexed": false,
          "internalType": "address",
          "name": "buyer",
          "type": "address"
        },
        {
          "indexed": false,
          "internalType": "uint256",
          "name": "amount",
          "type": "uint256"
        }
      ],
      "name": "Refunded",
      "type": "event"
    },
    {
      "inputs": [],
      "name": "DEPOSIT_RATE",
      "outputs": [
        {
          "internalType": "uint256",
          "name": "",
          "type": "uint256"
        }
      ],
      "stateMutability": "view",
      "type": "function"
    },
    {
      "inputs": [],
      "name": "actionEndTime",
      "outputs": [
        {
          "internalType": "uint256",
          "name": "",
          "type": "uint256"
        }
      ],
      "stateMutability": "view",
      "type": "function"
    },
    {
      "inputs": [
        {
          "internalType": "uint256",
          "name": "",
          "type": "uint256"
        }
      ],
      "name": "bidders",
      "outputs": [
        {
          "internalType": "address",
          "name": "",
          "type": "address"
        }
      ],
      "stateMutability": "view",
      "type": "function"
    },
    {
      "inputs": [
        {
          "internalType": "address",
          "name": "",
          "type": "address"
        }
      ],
      "name": "bids",
      "outputs": [
        {
          "internalType": "uint256",
          "name": "amount",
          "type": "uint256"
        },
        {
          "internalType": "uint256",
          "name": "deposit",
          "type": "uint256"
        },
        {
          "internalType": "bool",
          "name": "refunded",
          "type": "bool"
        }
      ],
      "stateMutability": "view",
      "type": "function"
    },
    {
      "inputs": [],
      "name": "confirmReceived",
      "outputs": [],
      "stateMutability": "nonpayable",
      "type": "function"
    },
    {
      "inputs": [],
      "name": "ended",
      "outputs": [
        {
          "internalType": "bool",
          "name": "",
          "type": "bool"
        }
      ],
      "stateMutability": "view",
      "type": "function"
    },
    {
      "inputs": [],
      "name": "finalize",
      "outputs": [],
      "stateMutability": "nonpayable",
      "type": "function"
    },
    {
      "inputs": [],
      "name": "getAllBids",
      "outputs": [
        {
          "internalType": "address[]",
          "name": "",
          "type": "address[]"
        },
        {
          "internalType": "uint256[]",
          "name": "",
          "type": "uint256[]"
        },
        {
          "internalType": "uint256[]",
          "name": "",
          "type": "uint256[]"
        }
      ],
      "stateMutability": "view",
      "type": "function"
    },
    {
      "inputs": [],
      "name": "highestBid",
      "outputs": [
        {
          "internalType": "uint256",
          "name": "",
          "type": "uint256"
        }
      ],
      "stateMutability": "view",
      "type": "function"
    },
    {
      "inputs": [],
      "name": "highestBidder",
      "outputs": [
        {
          "internalType": "address",
          "name": "",
          "type": "address"
        }
      ],
      "stateMutability": "view",
      "type": "function"
    },
    {
      "inputs": [],
      "name": "isDisputed",
      "outputs": [
        {
          "internalType": "bool",
          "name": "",
          "type": "bool"
        }
      ],
      "stateMutability": "view",
      "type": "function"
    },
    {
      "inputs": [],
      "name": "isPaidToSeller",
      "outputs": [
        {
          "internalType": "bool",
          "name": "",
          "type": "bool"
        }
      ],
      "stateMutability": "view",
      "type": "function"
    },
    {
      "inputs": [],
      "name": "isPenalized",
      "outputs": [
        {
          "internalType": "bool",
          "name": "",
          "type": "bool"
        }
      ],
      "stateMutability": "view",
      "type": "function"
    },
    {
      "inputs": [],
      "name": "openDispute",
      "outputs": [],
      "stateMutability": "nonpayable",
      "type": "function"
    },
    {
      "inputs": [],
      "name": "payWinningBid",
      "outputs": [],
      "stateMutability": "payable",
      "type": "function"
    },
    {
      "inputs": [],
      "name": "penalizeWinner",
      "outputs": [],
      "stateMutability": "nonpayable",
      "type": "function"
    },
    {
      "inputs": [
        {
          "internalType": "uint256",
          "name": "_amount",
          "type": "uint256"
        }
      ],
      "name": "placeBid",
      "outputs": [],
      "stateMutability": "payable",
      "type": "function"
    },
    {
      "inputs": [],
      "name": "refundBuyer",
      "outputs": [],
      "stateMutability": "nonpayable",
      "type": "function"
    },
    {
      "inputs": [],
      "name": "seller",
      "outputs": [
        {
          "internalType": "address",
          "name": "",
          "type": "address"
        }
      ],
      "stateMutability": "view",
      "type": "function"
    },
    {
      "inputs": [],
      "name": "withdrawDeposit",
      "outputs": [],
      "stateMutability": "nonpayable",
      "type": "function"
    }
  ],
  "bytecode": "0x60806040523480156200001157600080fd5b5060405162002c4d38038062002c4d8339818101604052810190620000379190620001aa565b600073ffffffffffffffffffffffffffffffffffffffff168173ffffffffffffffffffffffffffffffffffffffff1603620000a9576040517f08c379a0000000000000000000000000000000000000000000000000000000008152600401620000a09062000252565b60405180910390fd5b806000806101000a81548173ffffffffffffffffffffffffffffffffffffffff021916908373ffffffffffffffffffffffffffffffffffffffff1602179055508142620000f79190620002a3565b6001819055505050620002de565b600080fd5b6000819050919050565b6200011f816200010a565b81146200012b57600080fd5b50565b6000815190506200013f8162000114565b92915050565b600073ffffffffffffffffffffffffffffffffffffffff82169050919050565b6000620001728262000145565b9050919050565b620001848162000165565b81146200019057600080fd5b50565b600081519050620001a48162000179565b92915050565b60008060408385031215620001c457620001c362000105565b5b6000620001d4858286016200012e565b9250506020620001e78582860162000193565b9150509250929050565b600082825260208201905092915050565b7f496e76616c69642073656c6c6572206164647265737300000000000000000000600082015250565b60006200023a601683620001f1565b9150620002478262000202565b602082019050919050565b600060208201905081810360008301526200026d816200022b565b9050919050565b7f4e487b7100000000000000000000000000000000000000000000000000000000600052601160045260246000fd5b6000620002b0826200010a565b9150620002bd836200010a565b9250828201905080821115620002d857620002d762000274565b5b92915050565b61295f80620002ee6000396000f3fe60806040526004361061011f5760003560e01c80638d0f6da3116100a0578063cc4fa06511610064578063cc4fa0651461034c578063cff29dfd14610377578063d57bde79146103b4578063e35a70d9146103df578063e8a61cc8146103e95761011f565b80638d0f6da31461028257806391f90157146102af5780639979ef45146102da578063b9c3a04c146102f6578063c764cd05146103215761011f565b80634bb278f3116100e75780634bb278f3146101e75780634fd6137c146101fe57806362ea82db1461021557806373fac6f0146102545780638282a4c11461026b5761011f565b80630335729e1461012457806308551a531461014f578063117df0881461017a57806312829e4d1461019157806312fa6feb146101bc575b600080fd5b34801561013057600080fd5b50610139610400565b6040516101469190611958565b60405180910390f35b34801561015b57600080fd5b50610164610413565b60405161017191906119b4565b60405180910390f35b34801561018657600080fd5b5061018f610437565b005b34801561019d57600080fd5b506101a66106a6565b6040516101b39190611958565b60405180910390f35b3480156101c857600080fd5b506101d16106b9565b6040516101de9190611958565b60405180910390f35b3480156101f357600080fd5b506101fc6106cc565b005b34801561020a57600080fd5b506102136107db565b005b34801561022157600080fd5b5061023c60048036038101906102379190611a00565b6109da565b60405161024b93929190611a46565b60405180910390f35b34801561026057600080fd5b50610269610a11565b005b34801561027757600080fd5b50610280610c08565b005b34801561028e57600080fd5b50610297610ee3565b6040516102a693929190611bf9565b60405180910390f35b3480156102bb57600080fd5b506102c4611189565b6040516102d191906119b4565b60405180910390f35b6102f460048036038101906102ef9190611c71565b6111af565b005b34801561030257600080fd5b5061030b6114bf565b6040516103189190611c9e565b60405180910390f35b34801561032d57600080fd5b506103366114c4565b6040516103439190611c9e565b60405180910390f35b34801561035857600080fd5b506103616114ca565b60405161036e9190611958565b60405180910390f35b34801561038357600080fd5b5061039e60048036038101906103999190611c71565b6114dd565b6040516103ab91906119b4565b60405180910390f35b3480156103c057600080fd5b506103c961151c565b6040516103d69190611c9e565b60405180910390f35b6103e7611522565b005b3480156103f557600080fd5b506103fe611796565b005b600460029054906101000a900460ff1681565b60008054906101000a900473ffffffffffffffffffffffffffffffffffffffff1681565b600460009054906101000a900460ff16610486576040517f08c379a000000000000000000000000000000000000000000000000000000000815260040161047d90611d16565b60405180910390fd5b600260009054906101000a900473ffffffffffffffffffffffffffffffffffffffff1673ffffffffffffffffffffffffffffffffffffffff163373ffffffffffffffffffffffffffffffffffffffff1603610516576040517f08c379a000000000000000000000000000000000000000000000000000000000815260040161050d90611d82565b60405180910390fd5b6000600560003373ffffffffffffffffffffffffffffffffffffffff1673ffffffffffffffffffffffffffffffffffffffff16815260200190815260200160002090508060020160009054906101000a900460ff16156105ab576040517f08c379a00000000000000000000000000000000000000000000000000000000081526004016105a290611dee565b60405180910390fd5b60008160010154116105f2576040517f08c379a00000000000000000000000000000000000000000000000000000000081526004016105e990611e5a565b60405180910390fd5b6000816001015490506000826001018190555060018260020160006101000a81548160ff0219169083151502179055503373ffffffffffffffffffffffffffffffffffffffff166108fc829081150290604051600060405180830381858888f19350505050158015610668573d6000803e3d6000fd5b507fd7dee2702d63ad89917b6a4da9981c90c4d24f8c2bdfd64c604ecae57d8d0651338260405161069a929190611e7a565b60405180910390a15050565b600460019054906101000a900460ff1681565b600460009054906101000a900460ff1681565b600154421015610711576040517f08c379a000000000000000000000000000000000000000000000000000000000815260040161070890611eef565b60405180910390fd5b600460009054906101000a900460ff1615610761576040517f08c379a000000000000000000000000000000000000000000000000000000000815260040161075890611f5b565b60405180910390fd5b6001600460006101000a81548160ff0219169083151502179055507f9ebde9baafbb47e3efec88982b127ac6b7af8df2a1e860b8c86fca98d5ea9ecb600260009054906101000a900473ffffffffffffffffffffffffffffffffffffffff166003546040516107d1929190611e7a565b60405180910390a1565b600460009054906101000a900460ff1661082a576040517f08c379a000000000000000000000000000000000000000000000000000000000815260040161082190611d16565b60405180910390fd5b600260009054906101000a900473ffffffffffffffffffffffffffffffffffffffff1673ffffffffffffffffffffffffffffffffffffffff163373ffffffffffffffffffffffffffffffffffffffff1614806108d1575060008054906101000a900473ffffffffffffffffffffffffffffffffffffffff1673ffffffffffffffffffffffffffffffffffffffff163373ffffffffffffffffffffffffffffffffffffffff16145b610910576040517f08c379a000000000000000000000000000000000000000000000000000000000815260040161090790611fc7565b60405180910390fd5b600460029054906101000a900460ff1615610960576040517f08c379a000000000000000000000000000000000000000000000000000000000815260040161095790612033565b60405180910390fd5b6001600460026101000a81548160ff0219169083151502179055507f94799ce1f5151942e96745d7a2d873bfb4ef3c373a34cc901e03e4fdc4c8263f600260009054906101000a900473ffffffffffffffffffffffffffffffffffffffff166003546040516109d0929190611e7a565b60405180910390a1565b60056020528060005260406000206000915090508060000154908060010154908060020160009054906101000a900460ff16905083565b600260009054906101000a900473ffffffffffffffffffffffffffffffffffffffff1673ffffffffffffffffffffffffffffffffffffffff163373ffffffffffffffffffffffffffffffffffffffff1614610aa1576040517f08c379a0000000000000000000000000000000000000000000000000000000008152600401610a989061209f565b60405180910390fd5b600460019054906101000a900460ff16610af0576040517f08c379a0000000000000000000000000000000000000000000000000000000008152600401610ae79061210b565b60405180910390fd5b600460029054906101000a900460ff1615610b40576040517f08c379a0000000000000000000000000000000000000000000000000000000008152600401610b3790612177565b60405180910390fd5b60008054906101000a900473ffffffffffffffffffffffffffffffffffffffff1673ffffffffffffffffffffffffffffffffffffffff166108fc6003549081150290604051600060405180830381858888f19350505050158015610ba8573d6000803e3d6000fd5b507f6ed37d58b33e787ace85d1396bd170e59628aa459524f8d72c4d345cd3fd916b600260009054906101000a900473ffffffffffffffffffffffffffffffffffffffff16600354604051610bfe929190611e7a565b60405180910390a1565b600460009054906101000a900460ff16610c57576040517f08c379a0000000000000000000000000000000000000000000000000000000008152600401610c4e90611d16565b60405180910390fd5b600460019054906101000a900460ff1615610ca7576040517f08c379a0000000000000000000000000000000000000000000000000000000008152600401610c9e906121e3565b60405180910390fd5b600460039054906101000a900460ff1615610cf7576040517f08c379a0000000000000000000000000000000000000000000000000000000008152600401610cee9061224f565b60405180910390fd5b603c600154610d06919061229e565b4211610d47576040517f08c379a0000000000000000000000000000000000000000000000000000000008152600401610d3e9061231e565b60405180910390fd5b600060056000600260009054906101000a900473ffffffffffffffffffffffffffffffffffffffff1673ffffffffffffffffffffffffffffffffffffffff1673ffffffffffffffffffffffffffffffffffffffff168152602001908152602001600020905060008160010154905060008111610df8576040517f08c379a0000000000000000000000000000000000000000000000000000000008152600401610def9061238a565b60405180910390fd5b6000826001018190555060008054906101000a900473ffffffffffffffffffffffffffffffffffffffff1673ffffffffffffffffffffffffffffffffffffffff166108fc829081150290604051600060405180830381858888f19350505050158015610e68573d6000803e3d6000fd5b506001600460036101000a81548160ff0219169083151502179055507fce6324a0bfd5e264b9b4039aeeab1620f460c269fa080cbd889681a37aaadc65600260009054906101000a900473ffffffffffffffffffffffffffffffffffffffff1682604051610ed7929190611e7a565b60405180910390a15050565b6060806060600060068054905067ffffffffffffffff811115610f0957610f086123aa565b5b604051908082528060200260200182016040528015610f375781602001602082028036833780820191505090505b509050600060068054905067ffffffffffffffff811115610f5b57610f5a6123aa565b5b604051908082528060200260200182016040528015610f895781602001602082028036833780820191505090505b50905060005b6006805490508110156110ef576005600060068381548110610fb457610fb36123d9565b5b9060005260206000200160009054906101000a900473ffffffffffffffffffffffffffffffffffffffff1673ffffffffffffffffffffffffffffffffffffffff1673ffffffffffffffffffffffffffffffffffffffff168152602001908152602001600020600001548382815181106110305761102f6123d9565b5b6020026020010181815250506005600060068381548110611054576110536123d9565b5b9060005260206000200160009054906101000a900473ffffffffffffffffffffffffffffffffffffffff1673ffffffffffffffffffffffffffffffffffffffff1673ffffffffffffffffffffffffffffffffffffffff168152602001908152602001600020600101548282815181106110d0576110cf6123d9565b5b60200260200101818152505080806110e790612408565b915050610f8f565b50600682828280548060200260200160405190810160405280929190818152602001828054801561117557602002820191906000526020600020905b8160009054906101000a900473ffffffffffffffffffffffffffffffffffffffff1673ffffffffffffffffffffffffffffffffffffffff168152602001906001019080831161112b575b505050505092509450945094505050909192565b600260009054906101000a900473ffffffffffffffffffffffffffffffffffffffff1681565b60015442106111f3576040517f08c379a00000000000000000000000000000000000000000000000000000000081526004016111ea9061249c565b60405180910390fd5b6003548111611237576040517f08c379a000000000000000000000000000000000000000000000000000000000815260040161122e90612508565b60405180910390fd5b60006064600a836112489190612528565b6112529190612599565b90506000600560003373ffffffffffffffffffffffffffffffffffffffff1673ffffffffffffffffffffffffffffffffffffffff16815260200190815260200160002090506000816001015483111561131a578160010154836112b591906125ca565b9050803410156112fa576040517f08c379a00000000000000000000000000000000000000000000000000000000081526004016112f19061264a565b60405180910390fd5b8082600101600082825461130e919061229e565b9250508190555061135e565b6000341461135d576040517f08c379a0000000000000000000000000000000000000000000000000000000008152600401611354906126b6565b60405180910390fd5b5b83826000018190555060008260020160006101000a81548160ff0219169083151502179055506000600560003373ffffffffffffffffffffffffffffffffffffffff1673ffffffffffffffffffffffffffffffffffffffff1681526020019081526020016000206000015403611432576006339080600181540180825580915050600190039060005260206000200160009091909190916101000a81548173ffffffffffffffffffffffffffffffffffffffff021916908373ffffffffffffffffffffffffffffffffffffffff1602179055505b33600260006101000a81548173ffffffffffffffffffffffffffffffffffffffff021916908373ffffffffffffffffffffffffffffffffffffffff160217905550836003819055507fdf8644c0a4c21ed214ce69f395675b3a5fcd1039083daea5058898de40ea3149338584600101546040516114b1939291906126d6565b60405180910390a150505050565b600a81565b60015481565b600460039054906101000a900460ff1681565b600681815481106114ed57600080fd5b906000526020600020016000915054906101000a900473ffffffffffffffffffffffffffffffffffffffff1681565b60035481565b600460009054906101000a900460ff16611571576040517f08c379a000000000000000000000000000000000000000000000000000000000815260040161156890611d16565b60405180910390fd5b600260009054906101000a900473ffffffffffffffffffffffffffffffffffffffff1673ffffffffffffffffffffffffffffffffffffffff163373ffffffffffffffffffffffffffffffffffffffff1614611601576040517f08c379a00000000000000000000000000000000000000000000000000000000081526004016115f890612759565b60405180910390fd5b600460019054906101000a900460ff1615611651576040517f08c379a0000000000000000000000000000000000000000000000000000000008152600401611648906121e3565b60405180910390fd5b600460039054906101000a900460ff16156116a1576040517f08c379a0000000000000000000000000000000000000000000000000000000008152600401611698906127c5565b60405180910390fd5b6000600560003373ffffffffffffffffffffffffffffffffffffffff1673ffffffffffffffffffffffffffffffffffffffff1681526020019081526020016000206001015490506000816003546116f891906125ca565b905080341461173c576040517f08c379a000000000000000000000000000000000000000000000000000000000815260040161173390612831565b60405180910390fd5b6001600460016101000a81548160ff0219169083151502179055507f3a2d0e41c506b136330c6e5e0295ccbf0966daece99bfe7c89020cc01dbfb8d63360035460405161178a929190611e7a565b60405180910390a15050565b600460029054906101000a900460ff166117e5576040517f08c379a00000000000000000000000000000000000000000000000000000000081526004016117dc9061289d565b60405180910390fd5b60008054906101000a900473ffffffffffffffffffffffffffffffffffffffff1673ffffffffffffffffffffffffffffffffffffffff163373ffffffffffffffffffffffffffffffffffffffff1614611873576040517f08c379a000000000000000000000000000000000000000000000000000000000815260040161186a90612909565b60405180910390fd5b600260009054906101000a900473ffffffffffffffffffffffffffffffffffffffff1673ffffffffffffffffffffffffffffffffffffffff166108fc6003549081150290604051600060405180830381858888f193505050501580156118dd573d6000803e3d6000fd5b507fd7dee2702d63ad89917b6a4da9981c90c4d24f8c2bdfd64c604ecae57d8d0651600260009054906101000a900473ffffffffffffffffffffffffffffffffffffffff16600354604051611933929190611e7a565b60405180910390a1565b60008115159050919050565b6119528161193d565b82525050565b600060208201905061196d6000830184611949565b92915050565b600073ffffffffffffffffffffffffffffffffffffffff82169050919050565b600061199e82611973565b9050919050565b6119ae81611993565b82525050565b60006020820190506119c960008301846119a5565b92915050565b600080fd5b6119dd81611993565b81146119e857600080fd5b50565b6000813590506119fa816119d4565b92915050565b600060208284031215611a1657611a156119cf565b5b6000611a24848285016119eb565b91505092915050565b6000819050919050565b611a4081611a2d565b82525050565b6000606082019050611a5b6000830186611a37565b611a686020830185611a37565b611a756040830184611949565b949350505050565b600081519050919050565b600082825260208201905092915050565b6000819050602082019050919050565b611ab281611993565b82525050565b6000611ac48383611aa9565b60208301905092915050565b6000602082019050919050565b6000611ae882611a7d565b611af28185611a88565b9350611afd83611a99565b8060005b83811015611b2e578151611b158882611ab8565b9750611b2083611ad0565b925050600181019050611b01565b5085935050505092915050565b600081519050919050565b600082825260208201905092915050565b6000819050602082019050919050565b611b7081611a2d565b82525050565b6000611b828383611b67565b60208301905092915050565b6000602082019050919050565b6000611ba682611b3b565b611bb08185611b46565b9350611bbb83611b57565b8060005b83811015611bec578151611bd38882611b76565b9750611bde83611b8e565b925050600181019050611bbf565b5085935050505092915050565b60006060820190508181036000830152611c138186611add565b90508181036020830152611c278185611b9b565b90508181036040830152611c3b8184611b9b565b9050949350505050565b611c4e81611a2d565b8114611c5957600080fd5b50565b600081359050611c6b81611c45565b92915050565b600060208284031215611c8757611c866119cf565b5b6000611c9584828501611c5c565b91505092915050565b6000602082019050611cb36000830184611a37565b92915050565b600082825260208201905092915050565b7f41756374696f6e206e6f7420656e646564000000000000000000000000000000600082015250565b6000611d00601183611cb9565b9150611d0b82611cca565b602082019050919050565b60006020820190508181036000830152611d2f81611cf3565b9050919050565b7f57696e6e65722063616e6e6f7420776974686472617700000000000000000000600082015250565b6000611d6c601683611cb9565b9150611d7782611d36565b602082019050919050565b60006020820190508181036000830152611d9b81611d5f565b9050919050565b7f416c726561647920726566756e64656400000000000000000000000000000000600082015250565b6000611dd8601083611cb9565b9150611de382611da2565b602082019050919050565b60006020820190508181036000830152611e0781611dcb565b9050919050565b7f4e6f206465706f73697420666f756e6400000000000000000000000000000000600082015250565b6000611e44601083611cb9565b9150611e4f82611e0e565b602082019050919050565b60006020820190508181036000830152611e7381611e37565b9050919050565b6000604082019050611e8f60008301856119a5565b611e9c6020830184611a37565b9392505050565b7f41756374696f6e206e6f742079657420656e6465640000000000000000000000600082015250565b6000611ed9601583611cb9565b9150611ee482611ea3565b602082019050919050565b60006020820190508181036000830152611f0881611ecc565b9050919050565b7f416c72656164792066696e616c697a6564000000000000000000000000000000600082015250565b6000611f45601183611cb9565b9150611f5082611f0f565b602082019050919050565b60006020820190508181036000830152611f7481611f38565b9050919050565b7f4e6f7420616c6c6f776564000000000000000000000000000000000000000000600082015250565b6000611fb1600b83611cb9565b9150611fbc82611f7b565b602082019050919050565b60006020820190508181036000830152611fe081611fa4565b9050919050565b7f416c726561647920646973707574656400000000000000000000000000000000600082015250565b600061201d601083611cb9565b915061202882611fe7565b602082019050919050565b6000602082019050818103600083015261204c81612010565b9050919050565b7f4f6e6c792062757965722063616e20636f6e6669726d00000000000000000000600082015250565b6000612089601683611cb9565b915061209482612053565b602082019050919050565b600060208201905081810360008301526120b88161207c565b9050919050565b7f5061796d656e74206e6f7420636f6d706c657465640000000000000000000000600082015250565b60006120f5601583611cb9565b9150612100826120bf565b602082019050919050565b60006020820190508181036000830152612124816120e8565b9050919050565b7f4469737075746564207472616e73616374696f6e000000000000000000000000600082015250565b6000612161601483611cb9565b915061216c8261212b565b602082019050919050565b6000602082019050818103600083015261219081612154565b9050919050565b7f416c726561647920706169640000000000000000000000000000000000000000600082015250565b60006121cd600c83611cb9565b91506121d882612197565b602082019050919050565b600060208201905081810360008301526121fc816121c0565b9050919050565b7f416c72656164792070656e616c697a6564000000000000000000000000000000600082015250565b6000612239601183611cb9565b915061224482612203565b602082019050919050565b600060208201905081810360008301526122688161222c565b9050919050565b7f4e487b7100000000000000000000000000000000000000000000000000000000600052601160045260246000fd5b60006122a982611a2d565b91506122b483611a2d565b92508282019050808211156122cc576122cb61226f565b5b92915050565b7f546f6f206561726c7920746f2070656e616c697a650000000000000000000000600082015250565b6000612308601583611cb9565b9150612313826122d2565b602082019050919050565b60006020820190508181036000830152612337816122fb565b9050919050565b7f4e6f206465706f73697420746f2070656e616c697a6500000000000000000000600082015250565b6000612374601683611cb9565b915061237f8261233e565b602082019050919050565b600060208201905081810360008301526123a381612367565b9050919050565b7f4e487b7100000000000000000000000000000000000000000000000000000000600052604160045260246000fd5b7f4e487b7100000000000000000000000000000000000000000000000000000000600052603260045260246000fd5b600061241382611a2d565b91507fffffffffffffffffffffffffffffffffffffffffffffffffffffffffffffffff82036124455761244461226f565b5b600182019050919050565b7f41756374696f6e20616c726561647920656e6465640000000000000000000000600082015250565b6000612486601583611cb9565b915061249182612450565b602082019050919050565b600060208201905081810360008301526124b581612479565b9050919050565b7f426964206e6f74206869676820656e6f75676800000000000000000000000000600082015250565b60006124f2601383611cb9565b91506124fd826124bc565b602082019050919050565b60006020820190508181036000830152612521816124e5565b9050919050565b600061253382611a2d565b915061253e83611a2d565b925082820261254c81611a2d565b915082820484148315176125635761256261226f565b5b5092915050565b7f4e487b7100000000000000000000000000000000000000000000000000000000600052601260045260246000fd5b60006125a482611a2d565b91506125af83611a2d565b9250826125bf576125be61256a565b5b828204905092915050565b60006125d582611a2d565b91506125e083611a2d565b92508282039050818111156125f8576125f761226f565b5b92915050565b7f4e6f7420656e6f756768206164646974696f6e616c206465706f736974000000600082015250565b6000612634601d83611cb9565b915061263f826125fe565b602082019050919050565b6000602082019050818103600083015261266381612627565b9050919050565b7f4e6f206e65656420746f2073656e64206d6f7265206465706f73697400000000600082015250565b60006126a0601c83611cb9565b91506126ab8261266a565b602082019050919050565b600060208201905081810360008301526126cf81612693565b9050919050565b60006060820190506126eb60008301866119a5565b6126f86020830185611a37565b6127056040830184611a37565b949350505050565b7f4f6e6c792077696e6e65722063616e2070617900000000000000000000000000600082015250565b6000612743601383611cb9565b915061274e8261270d565b602082019050919050565b6000602082019050818103600083015261277281612736565b9050919050565b7f57696e6e657220686173206265656e2070656e616c697a656400000000000000600082015250565b60006127af601983611cb9565b91506127ba82612779565b602082019050919050565b600060208201905081810360008301526127de816127a2565b9050919050565b7f4d757374207061792072656d61696e696e672062616c616e6365000000000000600082015250565b600061281b601a83611cb9565b9150612826826127e5565b602082019050919050565b6000602082019050818103600083015261284a8161280e565b9050919050565b7f4e6f206469737075746500000000000000000000000000000000000000000000600082015250565b6000612887600a83611cb9565b915061289282612851565b602082019050919050565b600060208201905081810360008301526128b68161287a565b9050919050565b7f4f6e6c792073656c6c65722063616e20726566756e6420627579657200000000600082015250565b60006128f3601c83611cb9565b91506128fe826128bd565b602082019050919050565b60006020820190508181036000830152612922816128e6565b905091905056fea2646970667358221220a665dea37c0baae89197c431e5e2fe9f4a6a5171f12eb5fb052280caadb8a59d64736f6c63430008140033",
  "linkReferences": {},
  "deployedLinkReferences": {}
}