{
  "_format": "hh-sol-artifact-1",
  "contractName": "Action",
  "sourceName": "contracts/Action.sol",
  "abi": [
    {
      "inputs": [
        {
          "internalType": "uint256",
          "name": "_biddingTime",
          "type": "uint256"
        },
        {
          "internalType": "address",
          "name": "_seller",
          "type": "address"
        }
      ],
      "stateMutability": "nonpayable",
      "type": "constructor"
    },
    {
      "anonymous": false,
      "inputs": [
        {
          "indexed": false,
          "internalType": "address",
          "name": "winner",
          "type": "address"
        },
        {
          "indexed": false,
          "internalType": "uint256",
          "name": "amount",
          "type": "uint256"
        }
      ],
      "name": "ActionEnded",
      "type": "event"
    },
    {
      "anonymous": false,
      "inputs": [
        {
          "indexed": false,
          "internalType": "address",
          "name": "bidder",
          "type": "address"
        },
        {
          "indexed": false,
          "internalType": "uint256",
          "name": "amount",
          "type": "uint256"
        }
      ],
      "name": "HighestBidIncreased",
      "type": "event"
    },
    {
      "anonymous": false,
      "inputs": [
        {
          "indexed": false,
          "internalType": "address",
          "name": "buyer",
          "type": "address"
        },
        {
          "indexed": false,
          "internalType": "uint256",
          "name": "amount",
          "type": "uint256"
        }
      ],
      "name": "ItemReceived",
      "type": "event"
    },
    {
      "anonymous": false,
      "inputs": [
        {
          "indexed": false,
          "internalType": "address",
          "name": "buyer",
          "type": "address"
        },
        {
          "indexed": false,
          "internalType": "uint256",
          "name": "amount",
          "type": "uint256"
        }
      ],
      "name": "Refunded",
      "type": "event"
    },
    {
      "inputs": [],
      "name": "actionEndTime",
      "outputs": [
        {
          "internalType": "uint256",
          "name": "",
          "type": "uint256"
        }
      ],
      "stateMutability": "view",
      "type": "function"
    },
    {
      "inputs": [],
      "name": "bid",
      "outputs": [],
      "stateMutability": "payable",
      "type": "function"
    },
    {
      "inputs": [
        {
          "internalType": "uint256",
          "name": "",
          "type": "uint256"
        }
      ],
      "name": "bidders",
      "outputs": [
        {
          "internalType": "address",
          "name": "",
          "type": "address"
        }
      ],
      "stateMutability": "view",
      "type": "function"
    },
    {
      "inputs": [
        {
          "internalType": "address",
          "name": "",
          "type": "address"
        }
      ],
      "name": "bids",
      "outputs": [
        {
          "internalType": "uint256",
          "name": "",
          "type": "uint256"
        }
      ],
      "stateMutability": "view",
      "type": "function"
    },
    {
      "inputs": [],
      "name": "confirmReceived",
      "outputs": [],
      "stateMutability": "nonpayable",
      "type": "function"
    },
    {
      "inputs": [],
      "name": "ended",
      "outputs": [
        {
          "internalType": "bool",
          "name": "",
          "type": "bool"
        }
      ],
      "stateMutability": "view",
      "type": "function"
    },
    {
      "inputs": [],
      "name": "finalize",
      "outputs": [],
      "stateMutability": "nonpayable",
      "type": "function"
    },
    {
      "inputs": [],
      "name": "getAllBids",
      "outputs": [
        {
          "internalType": "address[]",
          "name": "",
          "type": "address[]"
        },
        {
          "internalType": "uint256[]",
          "name": "",
          "type": "uint256[]"
        }
      ],
      "stateMutability": "view",
      "type": "function"
    },
    {
      "inputs": [],
      "name": "highestBid",
      "outputs": [
        {
          "internalType": "uint256",
          "name": "",
          "type": "uint256"
        }
      ],
      "stateMutability": "view",
      "type": "function"
    },
    {
      "inputs": [],
      "name": "highestBidder",
      "outputs": [
        {
          "internalType": "address",
          "name": "",
          "type": "address"
        }
      ],
      "stateMutability": "view",
      "type": "function"
    },
    {
      "inputs": [],
      "name": "isPaidToSeller",
      "outputs": [
        {
          "internalType": "bool",
          "name": "",
          "type": "bool"
        }
      ],
      "stateMutability": "view",
      "type": "function"
    },
    {
      "inputs": [
        {
          "internalType": "address",
          "name": "",
          "type": "address"
        }
      ],
      "name": "pendingReturns",
      "outputs": [
        {
          "internalType": "uint256",
          "name": "",
          "type": "uint256"
        }
      ],
      "stateMutability": "view",
      "type": "function"
    },
    {
      "inputs": [],
      "name": "refundBuyer",
      "outputs": [],
      "stateMutability": "nonpayable",
      "type": "function"
    },
    {
      "inputs": [],
      "name": "seller",
      "outputs": [
        {
          "internalType": "address",
          "name": "",
          "type": "address"
        }
      ],
      "stateMutability": "view",
      "type": "function"
    },
    {
      "inputs": [],
      "name": "withdraw",
      "outputs": [
        {
          "internalType": "bool",
          "name": "",
          "type": "bool"
        }
      ],
      "stateMutability": "nonpayable",
      "type": "function"
    }
  ],
  "bytecode": "0x60806040523480156200001157600080fd5b5060405162001cc838038062001cc88339818101604052810190620000379190620001aa565b600073ffffffffffffffffffffffffffffffffffffffff168173ffffffffffffffffffffffffffffffffffffffff1603620000a9576040517f08c379a0000000000000000000000000000000000000000000000000000000008152600401620000a09062000252565b60405180910390fd5b806000806101000a81548173ffffffffffffffffffffffffffffffffffffffff021916908373ffffffffffffffffffffffffffffffffffffffff1602179055508142620000f79190620002a3565b6001819055505050620002de565b600080fd5b6000819050919050565b6200011f816200010a565b81146200012b57600080fd5b50565b6000815190506200013f8162000114565b92915050565b600073ffffffffffffffffffffffffffffffffffffffff82169050919050565b6000620001728262000145565b9050919050565b620001848162000165565b81146200019057600080fd5b50565b600081519050620001a48162000179565b92915050565b60008060408385031215620001c457620001c362000105565b5b6000620001d4858286016200012e565b9250506020620001e78582860162000193565b9150509250929050565b600082825260208201905092915050565b7f496e76616c69642073656c6c6572206164647265737300000000000000000000600082015250565b60006200023a601683620001f1565b9150620002478262000202565b602082019050919050565b600060208201905081810360008301526200026d816200022b565b9050919050565b7f4e487b7100000000000000000000000000000000000000000000000000000000600052601160045260246000fd5b6000620002b0826200010a565b9150620002bd836200010a565b9250828201905080821115620002d857620002d762000274565b5b92915050565b6119da80620002ee6000396000f3fe6080604052600436106100e85760003560e01c806362ea82db1161008a578063c764cd0511610059578063c764cd05146102a2578063cff29dfd146102cd578063d57bde791461030a578063e8a61cc814610335576100e8565b806362ea82db146101f757806373fac6f0146102345780638d0f6da31461024b57806391f9015714610277576100e8565b80631998aeef116100c65780631998aeef1461016e57806326b387bb146101785780633ccfd60b146101b55780634bb278f3146101e0576100e8565b806308551a53146100ed57806312829e4d1461011857806312fa6feb14610143575b600080fd5b3480156100f957600080fd5b5061010261034c565b60405161010f919061101c565b60405180910390f35b34801561012457600080fd5b5061012d610370565b60405161013a9190611052565b60405180910390f35b34801561014f57600080fd5b50610158610383565b6040516101659190611052565b60405180910390f35b610176610396565b005b34801561018457600080fd5b5061019f600480360381019061019a919061109e565b610615565b6040516101ac91906110e4565b60405180910390f35b3480156101c157600080fd5b506101ca61062d565b6040516101d79190611052565b60405180910390f35b3480156101ec57600080fd5b506101f5610749565b005b34801561020357600080fd5b5061021e6004803603810190610219919061109e565b610858565b60405161022b91906110e4565b60405180910390f35b34801561024057600080fd5b50610249610870565b005b34801561025757600080fd5b50610260610bbd565b60405161026e92919061127b565b60405180910390f35b34801561028357600080fd5b5061028c610d67565b604051610299919061101c565b60405180910390f35b3480156102ae57600080fd5b506102b7610d8d565b6040516102c491906110e4565b60405180910390f35b3480156102d957600080fd5b506102f460048036038101906102ef91906112de565b610d93565b604051610301919061101c565b60405180910390f35b34801561031657600080fd5b5061031f610dd2565b60405161032c91906110e4565b60405180910390f35b34801561034157600080fd5b5061034a610dd8565b005b60008054906101000a900473ffffffffffffffffffffffffffffffffffffffff1681565b600460019054906101000a900460ff1681565b600460009054906101000a900460ff1681565b60015442106103da576040517f08c379a00000000000000000000000000000000000000000000000000000000081526004016103d190611368565b60405180910390fd5b600354341161041e576040517f08c379a0000000000000000000000000000000000000000000000000000000008152600401610415906113d4565b60405180910390fd5b6000600354146104a35760035460056000600260009054906101000a900473ffffffffffffffffffffffffffffffffffffffff1673ffffffffffffffffffffffffffffffffffffffff1673ffffffffffffffffffffffffffffffffffffffff168152602001908152602001600020600082825461049b9190611423565b925050819055505b33600260006101000a81548173ffffffffffffffffffffffffffffffffffffffff021916908373ffffffffffffffffffffffffffffffffffffffff160217905550346003819055506000600660003373ffffffffffffffffffffffffffffffffffffffff1673ffffffffffffffffffffffffffffffffffffffff1681526020019081526020016000205403610596576007339080600181540180825580915050600190039060005260206000200160009091909190916101000a81548173ffffffffffffffffffffffffffffffffffffffff021916908373ffffffffffffffffffffffffffffffffffffffff1602179055505b34600660003373ffffffffffffffffffffffffffffffffffffffff1673ffffffffffffffffffffffffffffffffffffffff168152602001908152602001600020819055507ff4757a49b326036464bec6fe419a4ae38c8a02ce3e68bf0809674f6aab8ad300333460405161060b929190611457565b60405180910390a1565b60056020528060005260406000206000915090505481565b600080600560003373ffffffffffffffffffffffffffffffffffffffff1673ffffffffffffffffffffffffffffffffffffffff168152602001908152602001600020549050600081116106b5576040517f08c379a00000000000000000000000000000000000000000000000000000000081526004016106ac906114cc565b60405180910390fd5b6000600560003373ffffffffffffffffffffffffffffffffffffffff1673ffffffffffffffffffffffffffffffffffffffff168152602001908152602001600020819055503373ffffffffffffffffffffffffffffffffffffffff166108fc829081150290604051600060405180830381858888f19350505050158015610740573d6000803e3d6000fd5b50600191505090565b60015442101561078e576040517f08c379a000000000000000000000000000000000000000000000000000000000815260040161078590611538565b60405180910390fd5b600460009054906101000a900460ff16156107de576040517f08c379a00000000000000000000000000000000000000000000000000000000081526004016107d5906115a4565b60405180910390fd5b6001600460006101000a81548160ff0219169083151502179055507f9ebde9baafbb47e3efec88982b127ac6b7af8df2a1e860b8c86fca98d5ea9ecb600260009054906101000a900473ffffffffffffffffffffffffffffffffffffffff1660035460405161084e929190611457565b60405180910390a1565b60066020528060005260406000206000915090505481565b600460009054906101000a900460ff166108bf576040517f08c379a00000000000000000000000000000000000000000000000000000000081526004016108b690611610565b60405180910390fd5b600260009054906101000a900473ffffffffffffffffffffffffffffffffffffffff1673ffffffffffffffffffffffffffffffffffffffff163373ffffffffffffffffffffffffffffffffffffffff161461094f576040517f08c379a00000000000000000000000000000000000000000000000000000000081526004016109469061167c565b60405180910390fd5b600460019054906101000a900460ff161561099f576040517f08c379a0000000000000000000000000000000000000000000000000000000008152600401610996906116e8565b60405180910390fd5b6000600354116109e4576040517f08c379a00000000000000000000000000000000000000000000000000000000081526004016109db90611754565b60405180910390fd5b600073ffffffffffffffffffffffffffffffffffffffff1660008054906101000a900473ffffffffffffffffffffffffffffffffffffffff1673ffffffffffffffffffffffffffffffffffffffff1603610a73576040517f08c379a0000000000000000000000000000000000000000000000000000000008152600401610a6a906117c0565b60405180910390fd5b6001600460016101000a81548160ff02191690831515021790555060008060009054906101000a900473ffffffffffffffffffffffffffffffffffffffff1673ffffffffffffffffffffffffffffffffffffffff16600354604051610ad790611811565b60006040518083038185875af1925050503d8060008114610b14576040519150601f19603f3d011682016040523d82523d6000602084013e610b19565b606091505b5050905080610b5d576040517f08c379a0000000000000000000000000000000000000000000000000000000008152600401610b5490611872565b60405180910390fd5b7f6ed37d58b33e787ace85d1396bd170e59628aa459524f8d72c4d345cd3fd916b600260009054906101000a900473ffffffffffffffffffffffffffffffffffffffff16600354604051610bb2929190611457565b60405180910390a150565b606080600060078054905067ffffffffffffffff811115610be157610be0611892565b5b604051908082528060200260200182016040528015610c0f5781602001602082028036833780820191505090505b50905060005b600780549050811015610cd2576006600060078381548110610c3a57610c396118c1565b5b9060005260206000200160009054906101000a900473ffffffffffffffffffffffffffffffffffffffff1673ffffffffffffffffffffffffffffffffffffffff1673ffffffffffffffffffffffffffffffffffffffff16815260200190815260200160002054828281518110610cb357610cb26118c1565b5b6020026020010181815250508080610cca906118f0565b915050610c15565b5060078181805480602002602001604051908101604052809291908181526020018280548015610d5757602002820191906000526020600020905b8160009054906101000a900473ffffffffffffffffffffffffffffffffffffffff1673ffffffffffffffffffffffffffffffffffffffff1681526020019060010190808311610d0d575b5050505050915092509250509091565b600260009054906101000a900473ffffffffffffffffffffffffffffffffffffffff1681565b60015481565b60078181548110610da357600080fd5b906000526020600020016000915054906101000a900473ffffffffffffffffffffffffffffffffffffffff1681565b60035481565b600460009054906101000a900460ff16610e27576040517f08c379a0000000000000000000000000000000000000000000000000000000008152600401610e1e90611610565b60405180910390fd5b600460019054906101000a900460ff1615610e77576040517f08c379a0000000000000000000000000000000000000000000000000000000008152600401610e6e906116e8565b60405180910390fd5b60008054906101000a900473ffffffffffffffffffffffffffffffffffffffff1673ffffffffffffffffffffffffffffffffffffffff163373ffffffffffffffffffffffffffffffffffffffff1614610f05576040517f08c379a0000000000000000000000000000000000000000000000000000000008152600401610efc90611984565b60405180910390fd5b600060035490506000600381905550600260009054906101000a900473ffffffffffffffffffffffffffffffffffffffff1673ffffffffffffffffffffffffffffffffffffffff166108fc829081150290604051600060405180830381858888f19350505050158015610f7c573d6000803e3d6000fd5b507fd7dee2702d63ad89917b6a4da9981c90c4d24f8c2bdfd64c604ecae57d8d0651600260009054906101000a900473ffffffffffffffffffffffffffffffffffffffff1682604051610fd0929190611457565b60405180910390a150565b600073ffffffffffffffffffffffffffffffffffffffff82169050919050565b600061100682610fdb565b9050919050565b61101681610ffb565b82525050565b6000602082019050611031600083018461100d565b92915050565b60008115159050919050565b61104c81611037565b82525050565b60006020820190506110676000830184611043565b92915050565b600080fd5b61107b81610ffb565b811461108657600080fd5b50565b60008135905061109881611072565b92915050565b6000602082840312156110b4576110b361106d565b5b60006110c284828501611089565b91505092915050565b6000819050919050565b6110de816110cb565b82525050565b60006020820190506110f960008301846110d5565b92915050565b600081519050919050565b600082825260208201905092915050565b6000819050602082019050919050565b61113481610ffb565b82525050565b6000611146838361112b565b60208301905092915050565b6000602082019050919050565b600061116a826110ff565b611174818561110a565b935061117f8361111b565b8060005b838110156111b0578151611197888261113a565b97506111a283611152565b925050600181019050611183565b5085935050505092915050565b600081519050919050565b600082825260208201905092915050565b6000819050602082019050919050565b6111f2816110cb565b82525050565b600061120483836111e9565b60208301905092915050565b6000602082019050919050565b6000611228826111bd565b61123281856111c8565b935061123d836111d9565b8060005b8381101561126e57815161125588826111f8565b975061126083611210565b925050600181019050611241565b5085935050505092915050565b60006040820190508181036000830152611295818561115f565b905081810360208301526112a9818461121d565b90509392505050565b6112bb816110cb565b81146112c657600080fd5b50565b6000813590506112d8816112b2565b92915050565b6000602082840312156112f4576112f361106d565b5b6000611302848285016112c9565b91505092915050565b600082825260208201905092915050565b7f41756374696f6e20616c726561647920656e6465640000000000000000000000600082015250565b600061135260158361130b565b915061135d8261131c565b602082019050919050565b6000602082019050818103600083015261138181611345565b9050919050565b7f426964206e6f74206869676820656e6f75676800000000000000000000000000600082015250565b60006113be60138361130b565b91506113c982611388565b602082019050919050565b600060208201905081810360008301526113ed816113b1565b9050919050565b7f4e487b7100000000000000000000000000000000000000000000000000000000600052601160045260246000fd5b600061142e826110cb565b9150611439836110cb565b9250828201905080821115611451576114506113f4565b5b92915050565b600060408201905061146c600083018561100d565b61147960208301846110d5565b9392505050565b7f4e6f7468696e6720746f20776974686472617700000000000000000000000000600082015250565b60006114b660138361130b565b91506114c182611480565b602082019050919050565b600060208201905081810360008301526114e5816114a9565b9050919050565b7f41756374696f6e206e6f742079657420656e6465640000000000000000000000600082015250565b600061152260158361130b565b915061152d826114ec565b602082019050919050565b6000602082019050818103600083015261155181611515565b9050919050565b7f41756374696f6e20616c72656164792066696e616c697a656400000000000000600082015250565b600061158e60198361130b565b915061159982611558565b602082019050919050565b600060208201905081810360008301526115bd81611581565b9050919050565b7f41756374696f6e206e6f7420656e646564000000000000000000000000000000600082015250565b60006115fa60118361130b565b9150611605826115c4565b602082019050919050565b60006020820190508181036000830152611629816115ed565b9050919050565b7f4f6e6c792077696e6e65722063616e20636f6e6669726d000000000000000000600082015250565b600061166660178361130b565b915061167182611630565b602082019050919050565b6000602082019050818103600083015261169581611659565b9050919050565b7f416c7265616479207061696420746f2073656c6c657200000000000000000000600082015250565b60006116d260168361130b565b91506116dd8261169c565b602082019050919050565b60006020820190508181036000830152611701816116c5565b9050919050565b7f4e6f2062696420746f2070617900000000000000000000000000000000000000600082015250565b600061173e600d8361130b565b915061174982611708565b602082019050919050565b6000602082019050818103600083015261176d81611731565b9050919050565b7f53656c6c657220696e76616c6964000000000000000000000000000000000000600082015250565b60006117aa600e8361130b565b91506117b582611774565b602082019050919050565b600060208201905081810360008301526117d98161179d565b9050919050565b600081905092915050565b50565b60006117fb6000836117e0565b9150611806826117eb565b600082019050919050565b600061181c826117ee565b9150819050919050565b7f5472616e73666572206661696c65640000000000000000000000000000000000600082015250565b600061185c600f8361130b565b915061186782611826565b602082019050919050565b6000602082019050818103600083015261188b8161184f565b9050919050565b7f4e487b7100000000000000000000000000000000000000000000000000000000600052604160045260246000fd5b7f4e487b7100000000000000000000000000000000000000000000000000000000600052603260045260246000fd5b60006118fb826110cb565b91507fffffffffffffffffffffffffffffffffffffffffffffffffffffffffffffffff820361192d5761192c6113f4565b5b600182019050919050565b7f4f6e6c792073656c6c65722063616e20726566756e6420627579657200000000600082015250565b600061196e601c8361130b565b915061197982611938565b602082019050919050565b6000602082019050818103600083015261199d81611961565b905091905056fea2646970667358221220a71e4ee4e925aef84f33654e15c8899dcc9997ae4919d86fbdc6735ba99d5c0564736f6c63430008140033",
  "linkReferences": {},
  "deployedLinkReferences": {}
}