{
  "_format": "hh-sol-artifact-1",
  "contractName": "Action",
  "sourceName": "contracts/Action.sol",
  "abi": [
    {
      "inputs": [
        {
          "internalType": "uint256",
          "name": "_biddingTime",
          "type": "uint256"
        },
        {
          "internalType": "address",
          "name": "_seller",
          "type": "address"
        },
        {
          "internalType": "uint256",
          "name": "_startingPrice",
          "type": "uint256"
        }
      ],
      "stateMutability": "payable",
      "type": "constructor"
    },
    {
      "anonymous": false,
      "inputs": [
        {
          "indexed": false,
          "internalType": "address",
          "name": "winner",
          "type": "address"
        },
        {
          "indexed": false,
          "internalType": "uint256",
          "name": "finalPrice",
          "type": "uint256"
        }
      ],
      "name": "AuctionEnded",
      "type": "event"
    },
    {
      "anonymous": false,
      "inputs": [
        {
          "indexed": true,
          "internalType": "address",
          "name": "seller",
          "type": "address"
        },
        {
          "indexed": false,
          "internalType": "uint256",
          "name": "amount",
          "type": "uint256"
        }
      ],
      "name": "AutoReleasedToSeller",
      "type": "event"
    },
    {
      "anonymous": false,
      "inputs": [
        {
          "indexed": true,
          "internalType": "address",
          "name": "bidder",
          "type": "address"
        },
        {
          "indexed": false,
          "internalType": "uint256",
          "name": "amount",
          "type": "uint256"
        }
      ],
      "name": "BidPlaced",
      "type": "event"
    },
    {
      "anonymous": false,
      "inputs": [
        {
          "indexed": true,
          "internalType": "address",
          "name": "buyer",
          "type": "address"
        },
        {
          "indexed": false,
          "internalType": "uint256",
          "name": "amountReceivedBySeller",
          "type": "uint256"
        }
      ],
      "name": "BuyerConfirmed",
      "type": "event"
    },
    {
      "anonymous": false,
      "inputs": [
        {
          "indexed": true,
          "internalType": "address",
          "name": "buyer",
          "type": "address"
        },
        {
          "indexed": false,
          "internalType": "uint256",
          "name": "amount",
          "type": "uint256"
        }
      ],
      "name": "BuyerPaid",
      "type": "event"
    },
    {
      "anonymous": false,
      "inputs": [
        {
          "indexed": true,
          "internalType": "address",
          "name": "bidder",
          "type": "address"
        },
        {
          "indexed": false,
          "internalType": "uint256",
          "name": "amount",
          "type": "uint256"
        }
      ],
      "name": "DepositWithdrawn",
      "type": "event"
    },
    {
      "anonymous": false,
      "inputs": [
        {
          "indexed": true,
          "internalType": "address",
          "name": "seller",
          "type": "address"
        },
        {
          "indexed": false,
          "internalType": "uint256",
          "name": "penaltyToBuyer",
          "type": "uint256"
        },
        {
          "indexed": false,
          "internalType": "uint256",
          "name": "burned",
          "type": "uint256"
        }
      ],
      "name": "SellerPenalized",
      "type": "event"
    },
    {
      "anonymous": false,
      "inputs": [
        {
          "indexed": true,
          "internalType": "address",
          "name": "seller",
          "type": "address"
        }
      ],
      "name": "SellerShipped",
      "type": "event"
    },
    {
      "inputs": [],
      "name": "BUYER_DEPOSIT_RATE",
      "outputs": [
        {
          "internalType": "uint256",
          "name": "",
          "type": "uint256"
        }
      ],
      "stateMutability": "view",
      "type": "function"
    },
    {
      "inputs": [],
      "name": "CONFIRM_WINDOW",
      "outputs": [
        {
          "internalType": "uint256",
          "name": "",
          "type": "uint256"
        }
      ],
      "stateMutability": "view",
      "type": "function"
    },
    {
      "inputs": [],
      "name": "DELIVERY_WINDOW",
      "outputs": [
        {
          "internalType": "uint256",
          "name": "",
          "type": "uint256"
        }
      ],
      "stateMutability": "view",
      "type": "function"
    },
    {
      "inputs": [],
      "name": "SELLER_DEPOSIT_RATE",
      "outputs": [
        {
          "internalType": "uint256",
          "name": "",
          "type": "uint256"
        }
      ],
      "stateMutability": "view",
      "type": "function"
    },
    {
      "inputs": [],
      "name": "actionEndTime",
      "outputs": [
        {
          "internalType": "uint256",
          "name": "",
          "type": "uint256"
        }
      ],
      "stateMutability": "view",
      "type": "function"
    },
    {
      "inputs": [
        {
          "internalType": "uint256",
          "name": "",
          "type": "uint256"
        }
      ],
      "name": "bidders",
      "outputs": [
        {
          "internalType": "address",
          "name": "",
          "type": "address"
        }
      ],
      "stateMutability": "view",
      "type": "function"
    },
    {
      "inputs": [
        {
          "internalType": "address",
          "name": "",
          "type": "address"
        }
      ],
      "name": "bids",
      "outputs": [
        {
          "internalType": "uint256",
          "name": "amount",
          "type": "uint256"
        },
        {
          "internalType": "uint256",
          "name": "deposit",
          "type": "uint256"
        },
        {
          "internalType": "bool",
          "name": "refunded",
          "type": "bool"
        }
      ],
      "stateMutability": "view",
      "type": "function"
    },
    {
      "inputs": [],
      "name": "buyerConfirmed",
      "outputs": [
        {
          "internalType": "bool",
          "name": "",
          "type": "bool"
        }
      ],
      "stateMutability": "view",
      "type": "function"
    },
    {
      "inputs": [],
      "name": "buyerPaid",
      "outputs": [
        {
          "internalType": "bool",
          "name": "",
          "type": "bool"
        }
      ],
      "stateMutability": "view",
      "type": "function"
    },
    {
      "inputs": [],
      "name": "buyerPaidAt",
      "outputs": [
        {
          "internalType": "uint256",
          "name": "",
          "type": "uint256"
        }
      ],
      "stateMutability": "view",
      "type": "function"
    },
    {
      "inputs": [],
      "name": "confirmReceived",
      "outputs": [],
      "stateMutability": "nonpayable",
      "type": "function"
    },
    {
      "inputs": [],
      "name": "confirmShipped",
      "outputs": [],
      "stateMutability": "nonpayable",
      "type": "function"
    },
    {
      "inputs": [],
      "name": "ended",
      "outputs": [
        {
          "internalType": "bool",
          "name": "",
          "type": "bool"
        }
      ],
      "stateMutability": "view",
      "type": "function"
    },
    {
      "inputs": [],
      "name": "finalize",
      "outputs": [],
      "stateMutability": "nonpayable",
      "type": "function"
    },
    {
      "inputs": [],
      "name": "getStatus",
      "outputs": [
        {
          "internalType": "string",
          "name": "",
          "type": "string"
        }
      ],
      "stateMutability": "view",
      "type": "function"
    },
    {
      "inputs": [],
      "name": "highestBid",
      "outputs": [
        {
          "internalType": "uint256",
          "name": "",
          "type": "uint256"
        }
      ],
      "stateMutability": "view",
      "type": "function"
    },
    {
      "inputs": [],
      "name": "highestBidder",
      "outputs": [
        {
          "internalType": "address",
          "name": "",
          "type": "address"
        }
      ],
      "stateMutability": "view",
      "type": "function"
    },
    {
      "inputs": [],
      "name": "payWinningBid",
      "outputs": [],
      "stateMutability": "payable",
      "type": "function"
    },
    {
      "inputs": [],
      "name": "penalizeSeller",
      "outputs": [],
      "stateMutability": "nonpayable",
      "type": "function"
    },
    {
      "inputs": [
        {
          "internalType": "uint256",
          "name": "_amount",
          "type": "uint256"
        }
      ],
      "name": "placeBid",
      "outputs": [],
      "stateMutability": "payable",
      "type": "function"
    },
    {
      "inputs": [],
      "name": "releaseToSeller",
      "outputs": [],
      "stateMutability": "nonpayable",
      "type": "function"
    },
    {
      "inputs": [],
      "name": "seller",
      "outputs": [
        {
          "internalType": "address",
          "name": "",
          "type": "address"
        }
      ],
      "stateMutability": "view",
      "type": "function"
    },
    {
      "inputs": [],
      "name": "sellerDeposit",
      "outputs": [
        {
          "internalType": "uint256",
          "name": "",
          "type": "uint256"
        }
      ],
      "stateMutability": "view",
      "type": "function"
    },
    {
      "inputs": [],
      "name": "sellerShipped",
      "outputs": [
        {
          "internalType": "bool",
          "name": "",
          "type": "bool"
        }
      ],
      "stateMutability": "view",
      "type": "function"
    },
    {
      "inputs": [],
      "name": "sellerShippedAt",
      "outputs": [
        {
          "internalType": "uint256",
          "name": "",
          "type": "uint256"
        }
      ],
      "stateMutability": "view",
      "type": "function"
    },
    {
      "inputs": [],
      "name": "startingPrice",
      "outputs": [
        {
          "internalType": "uint256",
          "name": "",
          "type": "uint256"
        }
      ],
      "stateMutability": "view",
      "type": "function"
    },
    {
      "inputs": [],
      "name": "withdrawDeposit",
      "outputs": [],
      "stateMutability": "nonpayable",
      "type": "function"
    }
  ],
  "bytecode": "0x60c060405260405162002c7738038062002c7783398181016040528101906200002991906200024e565b600073ffffffffffffffffffffffffffffffffffffffff168273ffffffffffffffffffffffffffffffffffffffff16036200009b576040517f08c379a000000000000000000000000000000000000000000000000000000000815260040162000092906200030b565b60405180910390fd5b60008111620000e1576040517f08c379a0000000000000000000000000000000000000000000000000000000008152600401620000d8906200037d565b60405180910390fd5b60006064601483620000f49190620003ce565b62000100919062000448565b90508034101562000148576040517f08c379a00000000000000000000000000000000000000000000000000000000081526004016200013f90620004d0565b60405180910390fd5b8273ffffffffffffffffffffffffffffffffffffffff1660808173ffffffffffffffffffffffffffffffffffffffff168152505081600081905550346001819055508342620001989190620004f2565b60a08181525050505050506200052d565b600080fd5b6000819050919050565b620001c381620001ae565b8114620001cf57600080fd5b50565b600081519050620001e381620001b8565b92915050565b600073ffffffffffffffffffffffffffffffffffffffff82169050919050565b60006200021682620001e9565b9050919050565b620002288162000209565b81146200023457600080fd5b50565b60008151905062000248816200021d565b92915050565b6000806000606084860312156200026a5762000269620001a9565b5b60006200027a86828701620001d2565b93505060206200028d8682870162000237565b9250506040620002a086828701620001d2565b9150509250925092565b600082825260208201905092915050565b7f496e76616c69642073656c6c6572000000000000000000000000000000000000600082015250565b6000620002f3600e83620002aa565b91506200030082620002bb565b602082019050919050565b600060208201905081810360008301526200032681620002e4565b9050919050565b7f5072696365203e20300000000000000000000000000000000000000000000000600082015250565b600062000365600983620002aa565b915062000372826200032d565b602082019050919050565b60006020820190508181036000830152620003988162000356565b9050919050565b7f4e487b7100000000000000000000000000000000000000000000000000000000600052601160045260246000fd5b6000620003db82620001ae565b9150620003e883620001ae565b9250828202620003f881620001ae565b915082820484148315176200041257620004116200039f565b5b5092915050565b7f4e487b7100000000000000000000000000000000000000000000000000000000600052601260045260246000fd5b60006200045582620001ae565b91506200046283620001ae565b92508262000475576200047462000419565b5b828204905092915050565b7f53656c6c6572206465706f73697420696e73756666696369656e740000000000600082015250565b6000620004b8601b83620002aa565b9150620004c58262000480565b602082019050919050565b60006020820190508181036000830152620004eb81620004a9565b9050919050565b6000620004ff82620001ae565b91506200050c83620001ae565b92508282019050808211156200052757620005266200039f565b5b92915050565b60805160a0516126ec6200058b60003960008181610cef0152818161142701526117220152600081816105aa0152818161089201528181610a3401528181610c6f0152818161115101528181611329015261139001526126ec6000f3fe60806040526004361061019c5760003560e01c8063892a0e42116100ec578063c7d26e621161008a578063d57bde7911610064578063d57bde791461051d578063d6fbf20214610548578063e35a70d914610573578063e995478e1461057d5761019c565b8063c7d26e621461048a578063cff29dfd146104b5578063d3142328146104f25761019c565b8063a124b3d1116100c6578063a124b3d1146103de578063b7f0521714610409578063bda43f9114610434578063c764cd051461045f5761019c565b8063892a0e421461038057806391f90157146103975780639979ef45146103c25761019c565b80634bb278f31161015957806362ea82db1161013357806362ea82db146102d45780636450bac4146103135780636a4445fb1461033e57806373fac6f0146103695761019c565b80634bb278f3146102675780634c1786ea1461027e5780634e69d560146102a95761019c565b806308551a53146101a1578063117df088146101cc57806312fa6feb146101e357806326cae4281461020e57806348a1335a1461022557806349706ebe14610250575b600080fd5b3480156101ad57600080fd5b506101b66105a8565b6040516101c39190611a2a565b60405180910390f35b3480156101d857600080fd5b506101e16105cc565b005b3480156101ef57600080fd5b506101f861087d565b6040516102059190611a60565b60405180910390f35b34801561021a57600080fd5b50610223610890565b005b34801561023157600080fd5b5061023a610a97565b6040516102479190611a60565b60405180910390f35b34801561025c57600080fd5b50610265610aaa565b005b34801561027357600080fd5b5061027c610ced565b005b34801561028a57600080fd5b50610293610e1a565b6040516102a09190611a94565b60405180910390f35b3480156102b557600080fd5b506102be610e20565b6040516102cb9190611b3f565b60405180910390f35b3480156102e057600080fd5b506102fb60048036038101906102f69190611b92565b610fa2565b60405161030a93929190611bbf565b60405180910390f35b34801561031f57600080fd5b50610328610fd9565b6040516103359190611a94565b60405180910390f35b34801561034a57600080fd5b50610353610fde565b6040516103609190611a60565b60405180910390f35b34801561037557600080fd5b5061037e610ff1565b005b34801561038c57600080fd5b50610395611207565b005b3480156103a357600080fd5b506103ac6113ff565b6040516103b99190611a2a565b60405180910390f35b6103dc60048036038101906103d79190611c22565b611425565b005b3480156103ea57600080fd5b506103f361170e565b6040516104009190611a94565b60405180910390f35b34801561041557600080fd5b5061041e611715565b60405161042b9190611a94565b60405180910390f35b34801561044057600080fd5b5061044961171a565b6040516104569190611a94565b60405180910390f35b34801561046b57600080fd5b50610474611720565b6040516104819190611a94565b60405180910390f35b34801561049657600080fd5b5061049f611744565b6040516104ac9190611a94565b60405180910390f35b3480156104c157600080fd5b506104dc60048036038101906104d79190611c22565b61174a565b6040516104e99190611a2a565b60405180910390f35b3480156104fe57600080fd5b50610507611789565b6040516105149190611a60565b60405180910390f35b34801561052957600080fd5b5061053261179c565b60405161053f9190611a94565b60405180910390f35b34801561055457600080fd5b5061055d6117a2565b60405161056a9190611a94565b60405180910390f35b61057b6117a8565b005b34801561058957600080fd5b506105926119e2565b60405161059f9190611a94565b60405180910390f35b7f000000000000000000000000000000000000000000000000000000000000000081565b600460009054906101000a900460ff1661061b576040517f08c379a000000000000000000000000000000000000000000000000000000000815260040161061290611c9b565b60405180910390fd5b6000600760003373ffffffffffffffffffffffffffffffffffffffff1673ffffffffffffffffffffffffffffffffffffffff168152602001908152602001600020905060008160010154116106a5576040517f08c379a000000000000000000000000000000000000000000000000000000000815260040161069c90611d07565b60405180910390fd5b600015158160020160009054906101000a900460ff161515146106fd576040517f08c379a00000000000000000000000000000000000000000000000000000000081526004016106f490611d73565b60405180910390fd5b600260009054906101000a900473ffffffffffffffffffffffffffffffffffffffff1673ffffffffffffffffffffffffffffffffffffffff163373ffffffffffffffffffffffffffffffffffffffff16036107c057600460039054906101000a900460ff1680610780575060001515600460029054906101000a900460ff161515145b6107bf576040517f08c379a00000000000000000000000000000000000000000000000000000000081526004016107b690611ddf565b60405180910390fd5b5b60018160020160006101000a81548160ff0219169083151502179055503373ffffffffffffffffffffffffffffffffffffffff166108fc82600101549081150290604051600060405180830381858888f19350505050158015610827573d6000803e3d6000fd5b503373ffffffffffffffffffffffffffffffffffffffff167f4482101800a5c2e900f4156e57e05e19ffd7b366cde579553d723fd3abb2180e82600101546040516108729190611a94565b60405180910390a250565b600460009054906101000a900460ff1681565b7f000000000000000000000000000000000000000000000000000000000000000073ffffffffffffffffffffffffffffffffffffffff163373ffffffffffffffffffffffffffffffffffffffff161461091e576040517f08c379a000000000000000000000000000000000000000000000000000000000815260040161091590611e4b565b60405180910390fd5b600460019054906101000a900460ff1661096d576040517f08c379a000000000000000000000000000000000000000000000000000000000815260040161096490611eb7565b60405180910390fd5b600460029054906101000a900460ff16156109bd576040517f08c379a00000000000000000000000000000000000000000000000000000000081526004016109b490611f23565b60405180910390fd5b621275006005546109ce9190611f72565b421115610a10576040517f08c379a0000000000000000000000000000000000000000000000000000000008152600401610a0790611ff2565b60405180910390fd5b6001600460026101000a81548160ff021916908315150217905550426006819055507f000000000000000000000000000000000000000000000000000000000000000073ffffffffffffffffffffffffffffffffffffffff167f880fbb660d958db3fcb0edb7302d571a0c9fab06237ec103a0b2c1710b07397460405160405180910390a2565b600460039054906101000a900460ff1681565b600460019054906101000a900460ff16610af9576040517f08c379a0000000000000000000000000000000000000000000000000000000008152600401610af090611eb7565b60405180910390fd5b600460029054906101000a900460ff1615610b49576040517f08c379a0000000000000000000000000000000000000000000000000000000008152600401610b4090611f23565b60405180910390fd5b62127500600554610b5a9190611f72565b4211610b9b576040517f08c379a0000000000000000000000000000000000000000000000000000000008152600401610b929061205e565b60405180910390fd5b60006002600154610bac91906120ad565b9050600260009054906101000a900473ffffffffffffffffffffffffffffffffffffffff1673ffffffffffffffffffffffffffffffffffffffff166108fc82600354610bf89190611f72565b9081150290604051600060405180830381858888f19350505050158015610c23573d6000803e3d6000fd5b5061dead73ffffffffffffffffffffffffffffffffffffffff166108fc829081150290604051600060405180830381858888f19350505050158015610c6c573d6000803e3d6000fd5b507f000000000000000000000000000000000000000000000000000000000000000073ffffffffffffffffffffffffffffffffffffffff167f102e3eed9525752cdd3140813ede5653b633d9cdd0753b3aef43c9c8059f91e960035483610cd39190611f72565b83604051610ce29291906120de565b60405180910390a250565b7f0000000000000000000000000000000000000000000000000000000000000000421015610d50576040517f08c379a0000000000000000000000000000000000000000000000000000000008152600401610d4790611c9b565b60405180910390fd5b600460009054906101000a900460ff1615610da0576040517f08c379a0000000000000000000000000000000000000000000000000000000008152600401610d9790612153565b60405180910390fd5b6001600460006101000a81548160ff0219169083151502179055507fdaec4582d5d9595688c8c98545fdd1c696d41c6aeaeb636737e84ed2f5c00eda600260009054906101000a900473ffffffffffffffffffffffffffffffffffffffff16600354604051610e10929190612173565b60405180910390a1565b60015481565b6060600460009054906101000a900460ff16610e73576040518060400160405280600681526020017f41637469766500000000000000000000000000000000000000000000000000008152509050610f9f565b600460019054906101000a900460ff16610ec4576040518060400160405280601881526020017f456e646564202d204177616974696e67205061796d656e7400000000000000008152509050610f9f565b600460029054906101000a900460ff16610f15576040518060400160405280601881526020017f50616964202d204177616974696e6720536869706d656e7400000000000000008152509050610f9f565b600460039054906101000a900460ff16610f66576040518060400160405280601f81526020017f53686970706564202d204177616974696e6720436f6e6669726d6174696f6e008152509050610f9f565b6040518060400160405280600981526020017f436f6d706c65746564000000000000000000000000000000000000000000000081525090505b90565b60076020528060005260406000206000915090508060000154908060010154908060020160009054906101000a900460ff16905083565b601481565b600460029054906101000a900460ff1681565b600260009054906101000a900473ffffffffffffffffffffffffffffffffffffffff1673ffffffffffffffffffffffffffffffffffffffff163373ffffffffffffffffffffffffffffffffffffffff1614611081576040517f08c379a0000000000000000000000000000000000000000000000000000000008152600401611078906121e8565b60405180910390fd5b600460029054906101000a900460ff166110d0576040517f08c379a00000000000000000000000000000000000000000000000000000000081526004016110c790612254565b60405180910390fd5b600460039054906101000a900460ff1615611120576040517f08c379a0000000000000000000000000000000000000000000000000000000008152600401611117906122c0565b60405180910390fd5b6001600460036101000a81548160ff021916908315150217905550600060015460035461114d9190611f72565b90507f000000000000000000000000000000000000000000000000000000000000000073ffffffffffffffffffffffffffffffffffffffff166108fc829081150290604051600060405180830381858888f193505050501580156111b5573d6000803e3d6000fd5b503373ffffffffffffffffffffffffffffffffffffffff167f253dc7da728ba73e554f473a0466012973accb631842f82c6dd18308cb039e18826040516111fc9190611a94565b60405180910390a250565b600460029054906101000a900460ff16611256576040517f08c379a000000000000000000000000000000000000000000000000000000000815260040161124d9061232c565b60405180910390fd5b600460039054906101000a900460ff16156112a6576040517f08c379a000000000000000000000000000000000000000000000000000000000815260040161129d906122c0565b60405180910390fd5b62093a806006546112b79190611f72565b42116112f8576040517f08c379a00000000000000000000000000000000000000000000000000000000081526004016112ef90612398565b60405180910390fd5b6001600460036101000a81548160ff02191690831515021790555060006001546003546113259190611f72565b90507f000000000000000000000000000000000000000000000000000000000000000073ffffffffffffffffffffffffffffffffffffffff166108fc829081150290604051600060405180830381858888f1935050505015801561138d573d6000803e3d6000fd5b507f000000000000000000000000000000000000000000000000000000000000000073ffffffffffffffffffffffffffffffffffffffff167fcd4da42af5b021fc21da9a907d35b93287bfd51506d7c07b74c1979aec30c579826040516113f49190611a94565b60405180910390a250565b600260009054906101000a900473ffffffffffffffffffffffffffffffffffffffff1681565b7f00000000000000000000000000000000000000000000000000000000000000004210611487576040517f08c379a000000000000000000000000000000000000000000000000000000000815260040161147e90612404565b60405180910390fd5b60035481116114cb576040517f08c379a00000000000000000000000000000000000000000000000000000000081526004016114c290612470565b60405180910390fd5b60006064600a836114dc9190612490565b6114e691906120ad565b90506000600760003373ffffffffffffffffffffffffffffffffffffffff1673ffffffffffffffffffffffffffffffffffffffff168152602001908152602001600020905060008160010154831161153f576000611550565b81600101548361154f91906124d2565b5b905080341015611595576040517f08c379a000000000000000000000000000000000000000000000000000000000815260040161158c90612552565b60405180910390fd5b803411156115f0573373ffffffffffffffffffffffffffffffffffffffff166108fc82346115c391906124d2565b9081150290604051600060405180830381858888f193505050501580156115ee573d6000803e3d6000fd5b505b6000826000015403611660576008339080600181540180825580915050600190039060005260206000200160009091909190916101000a81548173ffffffffffffffffffffffffffffffffffffffff021916908373ffffffffffffffffffffffffffffffffffffffff1602179055505b83826000018190555082826001018190555033600260006101000a81548173ffffffffffffffffffffffffffffffffffffffff021916908373ffffffffffffffffffffffffffffffffffffffff160217905550836003819055503373ffffffffffffffffffffffffffffffffffffffff167f3fabff0a9c3ecd6814702e247fa9733e5d0aa69e3a38590f92cb18f623a2254d856040516117009190611a94565b60405180910390a250505050565b62093a8081565b600a81565b60065481565b7f000000000000000000000000000000000000000000000000000000000000000081565b60055481565b6008818154811061175a57600080fd5b906000526020600020016000915054906101000a900473ffffffffffffffffffffffffffffffffffffffff1681565b600460019054906101000a900460ff1681565b60035481565b60005481565b600460009054906101000a900460ff166117f7576040517f08c379a00000000000000000000000000000000000000000000000000000000081526004016117ee90611c9b565b60405180910390fd5b600260009054906101000a900473ffffffffffffffffffffffffffffffffffffffff1673ffffffffffffffffffffffffffffffffffffffff163373ffffffffffffffffffffffffffffffffffffffff1614611887576040517f08c379a000000000000000000000000000000000000000000000000000000000815260040161187e906125be565b60405180910390fd5b600460019054906101000a900460ff16156118d7576040517f08c379a00000000000000000000000000000000000000000000000000000000081526004016118ce9061262a565b60405180910390fd5b6000600760003373ffffffffffffffffffffffffffffffffffffffff1673ffffffffffffffffffffffffffffffffffffffff1681526020019081526020016000206001015460035461192991906124d2565b905080341461196d576040517f08c379a000000000000000000000000000000000000000000000000000000000815260040161196490612696565b60405180910390fd5b6001600460016101000a81548160ff021916908315150217905550426005819055503373ffffffffffffffffffffffffffffffffffffffff167f8ca59ddeb3b42c522a873dd6aa29b9d90c99b41eeb58f317b4b0d4a17d41506b6003546040516119d79190611a94565b60405180910390a250565b6212750081565b600073ffffffffffffffffffffffffffffffffffffffff82169050919050565b6000611a14826119e9565b9050919050565b611a2481611a09565b82525050565b6000602082019050611a3f6000830184611a1b565b92915050565b60008115159050919050565b611a5a81611a45565b82525050565b6000602082019050611a756000830184611a51565b92915050565b6000819050919050565b611a8e81611a7b565b82525050565b6000602082019050611aa96000830184611a85565b92915050565b600081519050919050565b600082825260208201905092915050565b60005b83811015611ae9578082015181840152602081019050611ace565b60008484015250505050565b6000601f19601f8301169050919050565b6000611b1182611aaf565b611b1b8185611aba565b9350611b2b818560208601611acb565b611b3481611af5565b840191505092915050565b60006020820190508181036000830152611b598184611b06565b905092915050565b600080fd5b611b6f81611a09565b8114611b7a57600080fd5b50565b600081359050611b8c81611b66565b92915050565b600060208284031215611ba857611ba7611b61565b5b6000611bb684828501611b7d565b91505092915050565b6000606082019050611bd46000830186611a85565b611be16020830185611a85565b611bee6040830184611a51565b949350505050565b611bff81611a7b565b8114611c0a57600080fd5b50565b600081359050611c1c81611bf6565b92915050565b600060208284031215611c3857611c37611b61565b5b6000611c4684828501611c0d565b91505092915050565b7f4e6f7420656e6465640000000000000000000000000000000000000000000000600082015250565b6000611c85600983611aba565b9150611c9082611c4f565b602082019050919050565b60006020820190508181036000830152611cb481611c78565b9050919050565b7f4e6f206465706f73697400000000000000000000000000000000000000000000600082015250565b6000611cf1600a83611aba565b9150611cfc82611cbb565b602082019050919050565b60006020820190508181036000830152611d2081611ce4565b9050919050565b7f416c72656164792077697468647261776e000000000000000000000000000000600082015250565b6000611d5d601183611aba565b9150611d6882611d27565b602082019050919050565b60006020820190508181036000830152611d8c81611d50565b9050919050565b7f57696e6e65722063616e2774207769746864726177206e6f7700000000000000600082015250565b6000611dc9601983611aba565b9150611dd482611d93565b602082019050919050565b60006020820190508181036000830152611df881611dbc565b9050919050565b7f4e6f742073656c6c657200000000000000000000000000000000000000000000600082015250565b6000611e35600a83611aba565b9150611e4082611dff565b602082019050919050565b60006020820190508181036000830152611e6481611e28565b9050919050565b7f4275796572206e6f742070616964000000000000000000000000000000000000600082015250565b6000611ea1600e83611aba565b9150611eac82611e6b565b602082019050919050565b60006020820190508181036000830152611ed081611e94565b9050919050565b7f416c726561647920736869707065640000000000000000000000000000000000600082015250565b6000611f0d600f83611aba565b9150611f1882611ed7565b602082019050919050565b60006020820190508181036000830152611f3c81611f00565b9050919050565b7f4e487b7100000000000000000000000000000000000000000000000000000000600052601160045260246000fd5b6000611f7d82611a7b565b9150611f8883611a7b565b9250828201905080821115611fa057611f9f611f43565b5b92915050565b7f546f6f206c61746520746f207368697000000000000000000000000000000000600082015250565b6000611fdc601083611aba565b9150611fe782611fa6565b602082019050919050565b6000602082019050818103600083015261200b81611fcf565b9050919050565b7f5374696c6c20696e2064656c69766572792077696e646f770000000000000000600082015250565b6000612048601883611aba565b915061205382612012565b602082019050919050565b600060208201905081810360008301526120778161203b565b9050919050565b7f4e487b7100000000000000000000000000000000000000000000000000000000600052601260045260246000fd5b60006120b882611a7b565b91506120c383611a7b565b9250826120d3576120d261207e565b5b828204905092915050565b60006040820190506120f36000830185611a85565b6121006020830184611a85565b9392505050565b7f416c726561647920656e64656400000000000000000000000000000000000000600082015250565b600061213d600d83611aba565b915061214882612107565b602082019050919050565b6000602082019050818103600083015261216c81612130565b9050919050565b60006040820190506121886000830185611a1b565b6121956020830184611a85565b9392505050565b7f4e6f742062757965720000000000000000000000000000000000000000000000600082015250565b60006121d2600983611aba565b91506121dd8261219c565b602082019050919050565b60006020820190508181036000830152612201816121c5565b9050919050565b7f53656c6c6572206e6f7420736869707065640000000000000000000000000000600082015250565b600061223e601283611aba565b915061224982612208565b602082019050919050565b6000602082019050818103600083015261226d81612231565b9050919050565b7f416c726561647920636f6e6669726d6564000000000000000000000000000000600082015250565b60006122aa601183611aba565b91506122b582612274565b602082019050919050565b600060208201905081810360008301526122d98161229d565b9050919050565b7f4e6f742073686970706564000000000000000000000000000000000000000000600082015250565b6000612316600b83611aba565b9150612321826122e0565b602082019050919050565b6000602082019050818103600083015261234581612309565b9050919050565b7f5374696c6c20696e20636f6e6669726d2077696e646f77000000000000000000600082015250565b6000612382601783611aba565b915061238d8261234c565b602082019050919050565b600060208201905081810360008301526123b181612375565b9050919050565b7f456e646564000000000000000000000000000000000000000000000000000000600082015250565b60006123ee600583611aba565b91506123f9826123b8565b602082019050919050565b6000602082019050818103600083015261241d816123e1565b9050919050565b7f42696420746f6f206c6f77000000000000000000000000000000000000000000600082015250565b600061245a600b83611aba565b915061246582612424565b602082019050919050565b600060208201905081810360008301526124898161244d565b9050919050565b600061249b82611a7b565b91506124a683611a7b565b92508282026124b481611a7b565b915082820484148315176124cb576124ca611f43565b5b5092915050565b60006124dd82611a7b565b91506124e883611a7b565b9250828203905081811115612500576124ff611f43565b5b92915050565b7f4465706f73697420696e73756666696369656e74000000000000000000000000600082015250565b600061253c601483611aba565b915061254782612506565b602082019050919050565b6000602082019050818103600083015261256b8161252f565b9050919050565b7f4e6f742077696e6e657200000000000000000000000000000000000000000000600082015250565b60006125a8600a83611aba565b91506125b382612572565b602082019050919050565b600060208201905081810360008301526125d78161259b565b9050919050565b7f416c726561647920706169640000000000000000000000000000000000000000600082015250565b6000612614600c83611aba565b915061261f826125de565b602082019050919050565b6000602082019050818103600083015261264381612607565b9050919050565b7f57726f6e6720616d6f756e740000000000000000000000000000000000000000600082015250565b6000612680600c83611aba565b915061268b8261264a565b602082019050919050565b600060208201905081810360008301526126af81612673565b905091905056fea264697066735822122046c481d50f8fdfc499baf5fa456567c926509ecacdb8fd96e57ca20dc7e2c05164736f6c63430008140033",
  "linkReferences": {},
  "deployedLinkReferences": {}
}